02RETORNO01COBRANCA       1584870000003760    IPAD                          104C ECON FEDERAL 301105                                                                                                                                                                                                                                                                                                 00090000001
102021974950001161584870000003760                             82040105134      000                        1421301105                              101205000000000430010400523000000000000125647101011205              0000000000000000000000000000000000000000000000004300000000000000000000000000001011205                         0000000000000000000000000                                             000002
102021974950001161584870000003760                             82040124139      000                        1421301105                              101205000000000430010400523000000000000125647101011205              0000000000000000000000000000000000000000000000004300000000000000000000000000001011205                         0000000000000000000000000                                             000003
102021974950001161584870000003760                             82040521138      000                        1421301105                              101205000000000860023732126000000000000270663101011205              0000000000000000000000000000000000000000000000008600000000000000000000000000001011205                         0000000000000000000000000                                             000004
102021974950001161584870000003760                             82050236134      000                        1421301105                              101205000000000400006500016000000000000270663101011205              0000000000000000000000000000000000000000000000004000000000000000000000000000001011205                         0000000000000000000000000                                             000005
102021974950001161584870000003760                             82050311136      000                        1421301105                              101205000000000860075641796000000000000270663101011205              0000000000000000000000000000000000000000000000008600000000000000000000000000001011205                         0000000000000000000000000                                             000006
102021974950001161584870000003760                             82060139140      000                        1421301105                              101205000000000860023729926000000000000270663101011205              0000000000000000000000000000000000000000000000008600000000000000000000000000001011205                         0000000000000000000000000                                             000007
102021974950001161584870000003760                             82070109120      000                        1421301105                              101105000000000860010400493000000000000125647101011205              0000000000000000000000000000000000000000000000008944000000000034400000000000001011205                         0000000000000000000000000                                             000008
102021974950001161584870000003760                             82070423126      000                        1421301105                              151105000000000860010430171000000000000125647101011205              0000000000000000000000000000000000000000000000008785000000000018500000000000001011205                         0000000000000000000000000                                             000009
102021974950001161584870000003760                             82090424128      000                        1421301105                              251105000000000640010400540000000000000125647101011205              0000000000000000000000000000000000000000000000006558000000000015800000000000001011205                         0000000000000000000000000                                             000010
102021974950001161584870000003760                             82091005129      000                        1421301105                              101105000000000375010408770000000000000125647101011205              0000000000000000000000000000000000000000000000003885000000000013500000000000001011205                         0000000000000000000000000                                             000011
102021974950001161584870000003760                             82091214135      000                        1421301105                              101205000000000750010400540000000000000125647101011205              0000000000000000000000000000000000000000000000007500000000000000000000000000001011205                         0000000000000000000000000                                             000012
102021974950001161584870000003760                             82120128130      000                        1421301105                              101205000000000650010421245000000000000125647101011205              0000000000000000000000000000000000000000000000006500000000000000000000000000001011205                         0000000000000000000000000                                             000013
102021974950001161584870000003760                             82130109147      000                        1421301105                              101205000000000860006500016000000000000270663101011205              0000000000000000000000000000000000000000000000008600000000000000000000000000001011205                         0000000000000000000000000                                             000014
102021974950001161584870000003760                             82130207130      000                        1421301105                              101105000000000860006500016000000000000270663101011205              0000000000000000000000000000000000000000000000008780000000000018000000000000001011205                         0000000000000000000000000                                             000015
102021974950001161584870000003760                             82130312147      000                        1421301105                              101205000000000860010409148000000000000125647101011205              0000000000000000000000000000000000000000000000008600000000000000000000000000001011205                         0000000000000000000000000                                             000016
102021974950001161584870000003760                             82130316142      000                        1421301105                              101205000000000860010409148000000000000125647101011205              0000000000000000000000000000000000000000000000008600000000000000000000000000001011205                         0000000000000000000000000                                             000017
102021974950001161584870000003760                             82999026520      000                        1421301105                              301105000000000860075641796000000000000270663101011205              0000000000000000000000000000000000000000000000008600000000000000000000000000001011205                         0000000000000000000000000                                             000018
102021974950001161584870000003760                             82999030919      000                        1421301105                              301105000000000750010424465000000000000125647101011205              0000000000000000000000000000000000000000000000007500000000000000000000000000001011205                         0000000000000000000000000                                             000019
102021974950001161584870000003760                             82999030935      000                        1421301105                              301105000000000750010424465000000000000125647101011205              0000000000000000000000000000000000000000000000007500000000000000000000000000001011205                         0000000000000000000000000                                             000020
102021974950001161584870000003760                             82999031125      000                        1421301105                              301105000000000750010424465000000000000125647101011205              0000000000000000000000000000000000000000000000007500000000000000000000000000001011205                         0000000000000000000000000                                             000021
102021974950001161584870000003760                             82999031141      000                        1421301105                              301105000000000750010424465000000000000125647101011205              0000000000000000000000000000000000000000000000007500000000000000000000000000001011205                         0000000000000000000000000                                             000022
102021974950001161584870000003760                             82999031176      000                        1421301105                              301105000000000860010407757000000000000125647101011205              0000000000000000000000000000000000000000000000008600000000000000000000000000001011205                         0000000000000000000000000                                             000023
102021974950001161584870000003760                             82999031184      000                        1421301105                              301105000000000860010407757000000000000125647101011205              0000000000000000000000000000000000000000000000008600000000000000000000000000001011205                         0000000000000000000000000                                             000024
102021974950001161584870000003760                             82999031206      000                        1421301105                              301105000000000860010407757000000000000125647101011205              0000000000000000000000000000000000000000000000008600000000000000000000000000001011205                         0000000000000000000000000                                             000025
102021974950001161584870000003760                             82999031222      000                        1421301105                              301105000000000860010407757000000000000125647101011205              0000000000000000000000000000000000000000000000008600000000000000000000000000001011205                         0000000000000000000000000                                             000026
102021974950001161584870000003760                             82999031230      000                        1421301105                              301105000000000860010407757000000000000125647101011205              0000000000000000000000000000000000000000000000008600000000000000000000000000001011205                         0000000000000000000000000                                             000027
102021974950001161584870000003760                             82999031265      000                        1421301105                              301105000000000860010407757000000000000125647101011205              0000000000000000000000000000000000000000000000008600000000000000000000000000001011205                         0000000000000000000000000                                             000028
102021974950001161584870000003760                             82999031281      000                        1421301105                              301105000000000860006500016000000000000270663101011205              0000000000000000000000000000000000000000000000008600000000000000000000000000001011205                         0000000000000000000000000                                             000029
102021974950001161584870000003760                             82999031290      000                        1421301105                              301105000000000860010407757000000000000125647101011205              0000000000000000000000000000000000000000000000008600000000000000000000000000001011205                         0000000000000000000000000                                             000030
102021974950001161584870000003760                             82999031303      000                        1421301105                              301105000000000860010407757000000000000125647101011205              0000000000000000000000000000000000000000000000008600000000000000000000000000001011205                         0000000000000000000000000                                             000031
102021974950001161584870000003760                             82999031311      000                        1421301105                              301105000000000860010407757000000000000125647101011205              0000000000000000000000000000000000000000000000008600000000000000000000000000001011205                         0000000000000000000000000                                             000032
102021974950001161584870000003760                             82999031320      000                        1421301105                              301105000000000860010407757000000000000125647101011205              0000000000000000000000000000000000000000000000008600000000000000000000000000001011205                         0000000000000000000000000                                             000033
102021974950001161584870000003760                             82999031338      000                        1421301105                              301105000000000860010407757000000000000125647101011205              0000000000000000000000000000000000000000000000008600000000000000000000000000001011205                         0000000000000000000000000                                             000034
102021974950001161584870000003760                             82999031346      000                        1421301105                              301105000000000860000121256000000000000270663101011205              0000000000000000000000000000000000000000000000008600000000000000000000000000001011205                         0000000000000000000000000                                             000035
102021974950001161584870000003760                             82999031354      000                        1421301105                              301105000000000860010407757000000000000125647101011205              0000000000000000000000000000000000000000000000008600000000000000000000000000001011205                         0000000000000000000000000                                             000036
102021974950001161584870000003760                             82999031486      000                        1421301105                              301105000000000860010407757000000000000125647101011205              0000000000000000000000000000000000000000000000008600000000000000000000000000001011205                         0000000000000000000000000                                             000037
102021974950001161584870000003760                             82999031494      000                        1421301105                              301105000000000860010407757000000000000125647101011205              0000000000000000000000000000000000000000000000008600000000000000000000000000001011205                         0000000000000000000000000                                             000038
102021974950001161584870000003760                             82999031508      000                        1421301105                              301105000000000860000121256000000000000270663101011205              0000000000000000000000000000000000000000000000008600000000000000000000000000001011205                         0000000000000000000000000                                             000039
102021974950001161584870000003760                             82999031516      000                        1421301105                              301105000000000860010407757000000000000125647101011205              0000000000000000000000000000000000000000000000008600000000000000000000000000001011205                         0000000000000000000000000                                             000040
102021974950001161584870000003760                             82999031567      000                        1421301105                              301105000000000860006500016000000000000270663101011205              0000000000000000000000000000000000000000000000008600000000000000000000000000001011205                         0000000000000000000000000                                             000041
102021974950001161584870000003760                             82999031583      000                        1421301105                              301105000000000860010407757000000000000125647101011205              0000000000000000000000000000000000000000000000008600000000000000000000000000001011205                         0000000000000000000000000                                             000042
102021974950001161584870000003760                             82999031605      000                        1421301105                              301105000000000860010407757000000000000125647101011205              0000000000000000000000000000000000000000000000008600000000000000000000000000001011205                         0000000000000000000000000                                             000043
102021974950001161584870000003760                             82999031613      000                        1421301105                              301105000000000860010409156000000000000125647101011205              0000000000000000000000000000000000000000000000008600000000000000000000000000001011205                         0000000000000000000000000                                             000044
102021974950001161584870000003760                             82999031621      000                        1421301105                              301105000000000860006500016000000000000270663101011205              0000000000000000000000000000000000000000000000008600000000000000000000000000001011205                         0000000000000000000000000                                             000045
102021974950001161584870000003760                             82999031648      000                        1421301105                              301105000000000860000121256000000000000270663101011205              0000000000000000000000000000000000000000000000008600000000000000000000000000001011205                         0000000000000000000000000                                             000046
102021974950001161584870000003760                             82999031656      000                        1421301105                              301105000000000860010409156000000000000125647101011205              0000000000000000000000000000000000000000000000008600000000000000000000000000001011205                         0000000000000000000000000                                             000047
102021974950001161584870000003760                             82999031672      000                        1421301105                              301105000000000860075641796000000000000270663101011205              0000000000000000000000000000000000000000000000008600000000000000000000000000001011205                         0000000000000000000000000                                             000048
102021974950001161584870000003760                             82999031680      000                        1421301105                              301105000000000860006500016000000000000270663101011205              0000000000000000000000000000000000000000000000008600000000000000000000000000001011205                         0000000000000000000000000                                             000049
102021974950001161584870000003760                             82999031702      000                        1421301105                              301105000000000860010409156000000000000125647101011205              0000000000000000000000000000000000000000000000008600000000000000000000000000001011205                         0000000000000000000000000                                             000050
102021974950001161584870000003760                             82999031729      000                        1421301105                              301105000000000860006500016000000000000270663101011205              0000000000000000000000000000000000000000000000008600000000000000000000000000001011205                         0000000000000000000000000                                             000051
102021974950001161584870000003760                             82999031737      000                        1421301105                              301105000000000860006500016000000000000270663101011205              0000000000000000000000000000000000000000000000008600000000000000000000000000001011205                         0000000000000000000000000                                             000052
102021974950001161584870000003760                             82999031761      000                        1421301105                              301105000000000860010409156000000000000125647101011205              0000000000000000000000000000000000000000000000008600000000000000000000000000001011205                         0000000000000000000000000                                             000053
102021974950001161584870000003760                             82999031800      000                        1421301105                              301105000000000860000141196000000000000270663101011205              0000000000000000000000000000000000000000000000008600000000000000000000000000001011205                         0000000000000000000000000                                             000054
102021974950001161584870000003760                             82999031818      000                        1421301105                              301105000000000860010409156000000000000125647101011205              0000000000000000000000000000000000000000000000008600000000000000000000000000001011205                         0000000000000000000000000                                             000055
102021974950001161584870000003760                             82999031834      000                        1421301105                              301105000000000860006500016000000000000270663101011205              0000000000000000000000000000000000000000000000008600000000000000000000000000001011205                         0000000000000000000000000                                             000056
102021974950001161584870000003760                             82999032210      000                        1421301105                              301105000000000860010408761000000000000125647101011205              0000000000000000000000000000000000000000000000008600000000000000000000000000001011205                         0000000000000000000000000                                             000057
9201104                                                                                                                                                                                                                                                                                                                                                                                                   000058
