02RETORNO01COBRANCA       1584870000003760    IPAD                          104C ECON FEDERAL 050606                                                                                                                                                                                                                                                                                                 00217000001
102021974950001161584870000003760                             82000044061      000                        1421050606                              000000000000000760010409148000000000000125647101060606              0000000000000000000000000000000000000000000000007600000000000000000000000000001060606                         0000000000000000000000000                                             000002
102021974950001161584870000003760                             82000044371      000                        1421050606                              000000000000000760010400485000000000000125647101060606              0000000000000000000000000000000000000000000000007600000000000000000000000000001060606                         0000000000000000000000000                                             000003
102021974950001161584870000003760                             82000044398      000                        1421050606                              000000000000000760039928996000000000000270663101060606              0000000000000000000000000000000000000000000000007600000000000000000000000000001060606                         0000000000000000000000000                                             000004
102021974950001161584870000003760                             82000044479      000                        1421050606                              000000000000000760010400485000000000000125647101060606              0000000000000000000000000000000000000000000000007600000000000000000000000000001060606                         0000000000000000000000000                                             000005
102021974950001161584870000003760                             82000044584      000                        1421050606                              000000000000000760010412947000000000000125647101060606              0000000000000000000000000000000000000000000000007600000000000000000000000000001060606                         0000000000000000000000000                                             000006
102021974950001161584870000003760                             82000044657      000                        1421050606                              000000000000000760010415830000000000000125647101060606              0000000000000000000000000000000000000000000000007600000000000000000000000000001060606                         0000000000000000000000000                                             000007
102021974950001161584870000003760                             82000044983      000                        1421050606                              000000000000000760010409156000000000000125647101060606              0000000000000000000000000000000000000000000000007600000000000000000000000000001060606                         0000000000000000000000000                                             000008
102021974950001161584870000003760                             82000045149      000                        1421050606                              000000000000000760010409156000000000000125647101060606              0000000000000000000000000000000000000000000000007600000000000000000000000000001060606                         0000000000000000000000000                                             000009
102021974950001161584870000003760                             82000045149      000                        1421050606                              000000000000000760075641796000000000000270663101060606              0000000000000000000000000000000000000000000000007600000000000000000000000000001060606                         0000000000000000000000000                                             000010
102021974950001161584870000003760                             82000045378      000                        1421050606                              000000000000000760010423469000000000000125647101060606              0000000000000000000000000000000000000000000000007600000000000000000000000000001060606                         0000000000000000000000000                                             000011
102021974950001161584870000003760                             82000045386      000                        1421050606                              000000000000000760010409440000000000000125647101060606              0000000000000000000000000000000000000000000000007600000000000000000000000000001060606                         0000000000000000000000000                                             000012
102021974950001161584870000003760                             82000045432      000                        1421050606                              000000000000000750006500016000000000000270663101060606              0000000000000000000000000000000000000000000000007500000000000000000000000000001060606                         0000000000000000000000000                                             000013
102021974950001161584870000003760                             82000045599      000                        1421050606                              000000000000000760010407757000000000000125647101060606              0000000000000000000000000000000000000000000000007600000000000000000000000000001060606                         0000000000000000000000000                                             000014
102021974950001161584870000003760                             82010105179      000                        1421050606                              100506000000000750010414338000000000000125647101060606              0000000000000000000000000000000000000000000000007830000000000033000000000000001060606                         0000000000000000000000000                                             000015
102021974950001161584870000003760                             82010131153      000                        1421050606                              100306000000000750010414338000000000000125647101060606              0000000000000000000000000000000000000000000000008303000000000080300000000000001060606                         0000000000000000000000000                                             000016
102021974950001161584870000003760                             82010131170      000                        1421050606                              100506000000000750010414338000000000000125647101060606              0000000000000000000000000000000000000000000000007845000000000034500000000000001060606                         0000000000000000000000000                                             000017
102021974950001161584870000003760                             82010133164      000                        1421050606                              100406000000000750010414338000000000000125647101060606              0000000000000000000000000000000000000000000000008070000000000057000000000000001060606                         0000000000000000000000000                                             000018
102021974950001161584870000003760                             82010304112      000                        1421050606                              100606000000000660000110606000000000000270663101060606              0000000000000000000000000000000000000000000000006600000000000000000000000000001060606                         0000000000000000000000000                                             000019
102021974950001161584870000003760                             82010312115      000                        1421050606                              100606000000000660010409148000000000000125647101060606              0000000000000000000000000000000000000000000000006600000000000000000000000000001060606                         0000000000000000000000000                                             000020
102021974950001161584870000003760                             82010319110      000                        1421050606                              100606000000000660000110606000000000000270663101060606              0000000000000000000000000000000000000000000000006600000000000000000000000000001060606                         0000000000000000000000000                                             000021
102021974950001161584870000003760                             82030105166      000                        1421050606                              100406000000000750010424465000000000000240655100050606              0000000000000000000000000000000000000000000000007706000000000020600000000000001050606                         0000000000000000000000000                                             000022
102021974950001161584870000003760                             82030105174      000                        1421050606                              100506000000000750010424465000000000000240655100050606              0000000000000000000000000000000000000000000000007676000000000017600000000000001050606                         0000000000000000000000000                                             000023
102021974950001161584870000003760                             82030306137      000                        1421050606                              300506000000000860010409156000000000000125647101060606              0000000000000000000000000000000000000000000000008812000000000021200000000000001060606                         0000000000000000000000000                                             000024
102021974950001161584870000003760                             82040325177      000                        1421050606                              100406000000000360010400523000000000000125647101060606              0000000000000000000000000000000000000000000000003896000000000029600000000000001060606                         0000000000000000000000000                                             000025
102021974950001161584870000003760                             82050328179      000                        1421050606                              100406000000000860010427782000000000000125647101060606              0000000000000000000000000000000000000000000000009254000000000065400000000000001060606                         0000000000000000000000000                                             000026
102021974950001161584870000003760                             82060303179      000                        1421050606                              150506000000000860010408761000000000000125647101060606              0000000000000000000000000000000000000000000000008952000000000035200000000000001060606                         0000000000000000000000000                                             000027
102021974950001161584870000003760                             82060312178      000                        1421050606                              150506000000000860010408761000000000000125647101060606              0000000000000000000000000000000000000000000000008953000000000035300000000000001060606                         0000000000000000000000000                                             000028
102021974950001161584870000003760                             82060336166      000                        1421050606                              150406000000000860010400450000000000000125647101060606              0000000000000000000000000000000000000000000000008952000000000035200000000000001060606                         0000000000000000000000000                                             000029
102021974950001161584870000003760                             82070116177      000                        1421050606                              100406000000000860010400469000000000000125647101060606              0000000000000000000000000000000000000000000000009228000000000062800000000000001060606                         0000000000000000000000000                                             000030
102021974950001161584870000003760                             82090222150      000                        1421050606                              100506000000000750010400540000000000000125647101060606              0000000000000000000000000000000000000000000000007845000000000034500000000000001060606                         0000000000000000000000000                                             000031
102021974950001161584870000003760                             82090626170      000                        1421050606                              100606000000000375010408770000000000000125647101060606              0000000000000000000000000000000000000000000000003750000000000000000000000000001060606                         0000000000000000000000000                                             000032
102021974950001161584870000003760                             82090803170      000                        1421050606                              100606000000000340010408770000000000000125647101060606              0000000000000000000000000000000000000000000000003400000000000000000000000000001060606                         0000000000000000000000000                                             000033
102021974950001161584870000003760                             82090912173      000                        1421050606                              100406000000000750010408770000000000000125647101060606              0000000000000000000000000000000000000000000000007800000000000030000000000000001060606                         0000000000000000000000000                                             000034
102021974950001161584870000003760                             82110404178      000                        1421050606                              200506000000000750010408125000000000000125647101060606              0000000000000000000000000000000000000000000000007500000000000000000000000000001060606                         0000000000000000000000000                                             000035
102021974950001161584870000003760                             82110804125      000                        1421050606                              250506000000000750010407765000000000000125647101060606              0000000000000000000000000000000000000000000000007722000000000022200000000000001060606                         0000000000000000000000000                                             000036
102021974950001161584870000003760                             82110820120      000                        1421050606                              250506000000000750010407765000000000000125647101060606              0000000000000000000000000000000000000000000000007738000000000023800000000000001060606                         0000000000000000000000000                                             000037
102021974950001161584870000003760                             82110838127      000                        1421050606                              250506000000000750010407765000000000000125647101060606              0000000000000000000000000000000000000000000000007738000000000023800000000000001060606                         0000000000000000000000000                                             000038
102021974950001161584870000003760                             82110839123      000                        1421050606                              250506000000000750010407765000000000000125647101060606              0000000000000000000000000000000000000000000000007738000000000023800000000000001060606                         0000000000000000000000000                                             000039
102021974950001161584870000003760                             82120111173      000                        1421050606                              100406000000000650010421245000000000000125647101060606              0000000000000000000000000000000000000000000000006981000000000048100000000000001060606                         0000000000000000000000000                                             000040
9201104                                                                                                                                                                                                                                                                                                                                                                                                   000041
