02RETORNO01COBRANCA       1584870000003760    IPAD                          104C ECON FEDERAL 060206                                                                                                                                                                                                                                                                                                 00137000001
102021974950001161584870000003760                             82010104148      000                        1421060206                              100206000000000375075641796000000000000270663101070206              0000000000000000000000000000000000000000000000003750000000000000000000000000001070206                         0000000000000000000000000                                             000002
102021974950001161584870000003760                             82010106140      000                        1421060206                              100206000000000750006500016000000000000270663101070206              0000000000000000000000000000000000000000000000007500000000000000000000000000001070206                         0000000000000000000000000                                             000003
102021974950001161584870000003760                             82010117142      000                        1421060206                              100206000000000750000121296000000000000270663101070206              0000000000000000000000000000000000000000000000007500000000000000000000000000001070206                         0000000000000000000000000                                             000004
102021974950001161584870000003760                             82010131137      000                        1421060206                              100106000000000750010414338000000000000125647101070206              0000000000000000000000000000000000000000000000007855000000000035500000000000001070206                         0000000000000000000000000                                             000005
102021974950001161584870000003760                             82010217147      000                        1421060206                              100206000000000420007347476000000000000270663101070206              0000000000000000000000000000000000000000000000004200000000000000000000000000001070206                         0000000000000000000000000                                             000006
102021974950001161584870000003760                             82030126147      000                        1421060206                              100206000000000750010424465000000000000125647101070206              0000000000000000000000000000000000000000000000007500000000000000000000000000001070206                         0000000000000000000000000                                             000007
102021974950001161584870000003760                             82040103158      000                        1421060206                              100206000000000430075641796000000000000270663101070206              0000000000000000000000000000000000000000000000004300000000000000000000000000001070206                         0000000000000000000000000                                             000008
102021974950001161584870000003760                             82040111150      000                        1421060206                              100206000000000430075641796000000000000270663101070206              0000000000000000000000000000000000000000000000004300000000000000000000000000001070206                         0000000000000000000000000                                             000009
102021974950001161584870000003760                             82040126158      000                        1421060206                              100206000000000860006500016000000000000270663101070206              0000000000000000000000000000000000000000000000008600000000000000000000000000001070206                         0000000000000000000000000                                             000010
102021974950001161584870000003760                             82040136153      000                        1421060206                              100206000000000430075641796000000000000270663101070206              0000000000000000000000000000000000000000000000004300000000000000000000000000001070206                         0000000000000000000000000                                             000011
102021974950001161584870000003760                             82040208154      000                        1421060206                              100206000000000430075641796000000000000270663101070206              0000000000000000000000000000000000000000000000004300000000000000000000000000001070206                         0000000000000000000000000                                             000012
102021974950001161584870000003760                             82040226152      000                        1421060206                              100206000000000430010400523000000000000125647101070206              0000000000000000000000000000000000000000000000004300000000000000000000000000001070206                         0000000000000000000000000                                             000013
102021974950001161584870000003760                             82040227159      000                        1421060206                              100206000000000430006500016000000000000270663101070206              0000000000000000000000000000000000000000000000004300000000000000000000000000001070206                         0000000000000000000000000                                             000014
102021974950001161584870000003760                             82040313152      000                        1421060206                              100206000000000360010400523000000000000125647101070206              0000000000000000000000000000000000000000000000003600000000000000000000000000001070206                         0000000000000000000000000                                             000015
102021974950001161584870000003760                             82040314159      000                        1421060206                              100206000000000360010400523000000000000125647101070206              0000000000000000000000000000000000000000000000003600000000000000000000000000001070206                         0000000000000000000000000                                             000016
102021974950001161584870000003760                             82040316151      000                        1421060206                              100206000000000360006500016000000000000270663101070206              0000000000000000000000000000000000000000000000003600000000000000000000000000001070206                         0000000000000000000000000                                             000017
102021974950001161584870000003760                             82040319150      000                        1421060206                              100206000000000360010400523000000000000125647101070206              0000000000000000000000000000000000000000000000003600000000000000000000000000001070206                         0000000000000000000000000                                             000018
102021974950001161584870000003760                             82040322151      000                        1421060206                              100206000000000360010400523000000000000125647101070206              0000000000000000000000000000000000000000000000003600000000000000000000000000001070206                         0000000000000000000000000                                             000019
102021974950001161584870000003760                             82040323158      000                        1421060206                              100206000000000360010400523000000000000125647101070206              0000000000000000000000000000000000000000000000003600000000000000000000000000001070206                         0000000000000000000000000                                             000020
102021974950001161584870000003760                             82040327153      000                        1421060206                              100206000000000360010400523000000000000125647101070206              0000000000000000000000000000000000000000000000003600000000000000000000000000001070206                         0000000000000000000000000                                             000021
102021974950001161584870000003760                             82040603150      000                        1421060206                              100206000000000360010400523000000000000125647101070206              0000000000000000000000000000000000000000000000003600000000000000000000000000001070206                         0000000000000000000000000                                             000022
102021974950001161584870000003760                             82040617143      000                        1421060206                              100106000000000860010407730000000000000125647101070206              0000000000000000000000000000000000000000000000008972000000000037200000000000001070206                         0000000000000000000000000                                             000023
102021974950001161584870000003760                             82050110157      000                        1421060206                              100206000000000400006500016000000000000270663101070206              0000000000000000000000000000000000000000000000004000000000000000000000000000001070206                         0000000000000000000000000                                             000024
102021974950001161584870000003760                             82050124158      000                        1421060206                              100206000000000400007347476000000000000270663101070206              0000000000000000000000000000000000000000000000004000000000000000000000000000001070206                         0000000000000000000000000                                             000025
102021974950001161584870000003760                             82050134153      000                        1421060206                              100206000000000400006500016000000000000270663101070206              0000000000000000000000000000000000000000000000004000000000000000000000000000001070206                         0000000000000000000000000                                             000026
102021974950001161584870000003760                             82050207150      000                        1421060206                              100206000000000400006500016000000000000270663101070206              0000000000000000000000000000000000000000000000004000000000000000000000000000001070206                         0000000000000000000000000                                             000027
102021974950001161584870000003760                             82050227151      000                        1421060206                              100206000000000400010412424000000000000125647101070206              0000000000000000000000000000000000000000000000004000000000000000000000000000001070206                         0000000000000000000000000                                             000028
102021974950001161584870000003760                             82050228158      000                        1421060206                              100206000000000400006500016000000000000270663101070206              0000000000000000000000000000000000000000000000004000000000000000000000000000001070206                         0000000000000000000000000                                             000029
102021974950001161584870000003760                             82050230152      000                        1421060206                              100206000000000400007347476000000000000270663101070206              0000000000000000000000000000000000000000000000004000000000000000000000000000001070206                         0000000000000000000000000                                             000030
102021974950001161584870000003760                             82050231159      000                        1421060206                              100206000000000400010400531000000000000125647101070206              0000000000000000000000000000000000000000000000004000000000000000000000000000001070206                         0000000000000000000000000                                             000031
102021974950001161584870000003760                             82050233151      000                        1421060206                              100206000000000400006500016000000000000270663101070206              0000000000000000000000000000000000000000000000004000000000000000000000000000001070206                         0000000000000000000000000                                             000032
102021974950001161584870000003760                             82050235154      000                        1421060206                              100206000000000400010400531000000000000125647101070206              0000000000000000000000000000000000000000000000004000000000000000000000000000001070206                         0000000000000000000000000                                             000033
102021974950001161584870000003760                             82060211142      000                        1421060206                              100206000000000860010421911000000000000125647101070206              0000000000000000000000000000000000000000000000008600000000000000000000000000001070206                         0000000000000000000000000                                             000034
102021974950001161584870000003760                             82060233146      000                        1421060206                              100206000000000860010421911000000000000125647101070206              0000000000000000000000000000000000000000000000008600000000000000000000000000001070206                         0000000000000000000000000                                             000035
102021974950001161584870000003760                             82060322149      000                        1421060206                              150206000000000860006500016000000000000270663101070206              0000000000000000000000000000000000000000000000008600000000000000000000000000001070206                         0000000000000000000000000                                             000036
102021974950001161584870000003760                             82070107151      000                        1421060206                              100206000000000860010410286000000000000125647101070206              0000000000000000000000000000000000000000000000008600000000000000000000000000001070206                         0000000000000000000000000                                             000037
102021974950001161584870000003760                             82070118153      000                        1421060206                              100206000000000860010410308000000000000125647101070206              0000000000000000000000000000000000000000000000008600000000000000000000000000001070206                         0000000000000000000000000                                             000038
102021974950001161584870000003760                             82070123157      000                        1421060206                              100206000000000860010410286000000000000125647101070206              0000000000000000000000000000000000000000000000008600000000000000000000000000001070206                         0000000000000000000000000                                             000039
102021974950001161584870000003760                             82070126156      000                        1421060206                              100206000000000860010410286000000000000125647101070206              0000000000000000000000000000000000000000000000008600000000000000000000000000001070206                         0000000000000000000000000                                             000040
102021974950001161584870000003760                             82070127152      000                        1421060206                              100206000000000860075641796000000000000270663101070206              0000000000000000000000000000000000000000000000008600000000000000000000000000001070206                         0000000000000000000000000                                             000041
102021974950001161584870000003760                             82070210157      000                        1421060206                              100206000000000860006500016000000000000270663101070206              0000000000000000000000000000000000000000000000008600000000000000000000000000001070206                         0000000000000000000000000                                             000042
102021974950001161584870000003760                             82070231154      000                        1421060206                              100206000000000860006500016000000000000270663101070206              0000000000000000000000000000000000000000000000008600000000000000000000000000001070206                         0000000000000000000000000                                             000043
102021974950001161584870000003760                             82070407147      000                        1421060206                              150106000000000860010400469000000000000240655100060206              0000000000000000000000000000000000000000000000008961000000000036100000000000001060206                         0000000000000000000000000                                             000044
102021974950001161584870000003760                             82090423156      000                        1421060206                              100206000000000750075641796000000000000270663101070206              0000000000000000000000000000000000000000000000007500000000000000000000000000001070206                         0000000000000000000000000                                             000045
102021974950001161584870000003760                             82090617155      000                        1421060206                              100206000000000375074500016000000000000270663101070206              0000000000000000000000000000000000000000000000003750000000000000000000000000001070206                         0000000000000000000000000                                             000046
102021974950001161584870000003760                             82090732159      000                        1421060206                              100206000000000750075641796000000000000270663101070206              0000000000000000000000000000000000000000000000007500000000000000000000000000001070206                         0000000000000000000000000                                             000047
102021974950001161584870000003760                             82090806136      000                        1421060206                              100206000000000450006500016000000000000270663101070206              0000000000000000000000000000000000000000000000004500000000000000000000000000001070206                         0000000000000000000000000                                             000048
102021974950001161584870000003760                             82090810133      000                        1421060206                              100206000000000450010408770000000000000125647101070206              0000000000000000000000000000000000000000000000004500000000000000000000000000001070206                         0000000000000000000000000                                             000049
102021974950001161584870000003760                             82090908150      000                        1421060206                              100206000000000750010408770000000000000125647101070206              0000000000000000000000000000000000000000000000007500000000000000000000000000001070206                         0000000000000000000000000                                             000050
102021974950001161584870000003760                             82090926140      000                        1421060206                              100106000000000750010408770000000000000125647101070206              0000000000000000000000000000000000000000000000007839000000000033900000000000001070206                         0000000000000000000000000                                             000051
102021974950001161584870000003760                             82091011153      000                        1421060206                              100206000000000375006500016000000000000270663101070206              0000000000000000000000000000000000000000000000003750000000000000000000000000001070206                         0000000000000000000000000                                             000052
102021974950001161584870000003760                             82091015159      000                        1421060206                              100206000000000375010408770000000000000125647101070206              0000000000000000000000000000000000000000000000003750000000000000000000000000001070206                         0000000000000000000000000                                             000053
102021974950001161584870000003760                             82091126155      000                        1421060206                              100206000000000750010407749000000000000125647101070206              0000000000000000000000000000000000000000000000007500000000000000000000000000001070206                         0000000000000000000000000                                             000054
102021974950001161584870000003760                             82091201157      000                        1421060206                              100206000000000750010400540000000000000125647101070206              0000000000000000000000000000000000000000000000007500000000000000000000000000001070206                         0000000000000000000000000                                             000055
102021974950001161584870000003760                             82110227136      000                        1421060206                              100206000000000450006500016000000000000270663101070206              0000000000000000000000000000000000000000000000004500000000000000000000000000001070206                         0000000000000000000000000                                             000056
102021974950001161584870000003760                             82110305145      000                        1421060206                              100206000000000860006500016000000000000270663101070206              0000000000000000000000000000000000000000000000008600000000000000000000000000001070206                         0000000000000000000000000                                             000057
102021974950001161584870000003760                             82110331146      000                        1421060206                              100206000000000860010407765000000000000125647101070206              0000000000000000000000000000000000000000000000008600000000000000000000000000001070206                         0000000000000000000000000                                             000058
102021974950001161584870000003760                             82120114156      000                        1421060206                              100206000000000650010421245000000000000125647101070206              0000000000000000000000000000000000000000000000006500000000000000000000000000001070206                         0000000000000000000000000                                             000059
102021974950001161584870000003760                             82130115163      000                        1421060206                              100206000000000860006500016000000000000270663101070206              0000000000000000000000000000000000000000000000008600000000000000000000000000001070206                         0000000000000000000000000                                             000060
102021974950001161584870000003760                             82130126165      000                        1421060206                              100206000000000860010409148000000000000125647101070206              0000000000000000000000000000000000000000000000008600000000000000000000000000001070206                         0000000000000000000000000                                             000061
9201104                                                                                                                                                                                                                                                                                                                                                                                                   000062
