02RETORNO01COBRANCA       1584870000003760    IPAD                          104C ECON FEDERAL 071105                                                                                                                                                                                                                                                                                                 00074000001
102021974950001161584870000003760                             82040116128      000                        1421071105                              101105000000000860006500016000000000000270663101081105              0000000000000000000000000000000000000000000000008600000000000000000000000000001081105                         0000000000000000000000000                                             000002
102021974950001161584870000003760                             82040125127      000                        1421071105                              101105000000000860006500016000000000000270663101081105              0000000000000000000000000000000000000000000000008600000000000000000000000000001081105                         0000000000000000000000000                                             000003
102021974950001161584870000003760                             82040201125      000                        1421071105                              101105000000000430010400523000000000000125647101081105              0000000000000000000000000000000000000000000000004300000000000000000000000000001081105                         0000000000000000000000000                                             000004
102021974950001161584870000003760                             82040203128      000                        1421071105                              101105000000000430010400523000000000000125647101081105              0000000000000000000000000000000000000000000000004300000000000000000000000000001081105                         0000000000000000000000000                                             000005
102021974950001161584870000003760                             82040205120      000                        1421071105                              101105000000000430075641796000000000000270663101081105              0000000000000000000000000000000000000000000000004300000000000000000000000000001081105                         0000000000000000000000000                                             000006
102021974950001161584870000003760                             82040207123      000                        1421071105                              101105000000000430075641796000000000000270663101081105              0000000000000000000000000000000000000000000000004300000000000000000000000000001081105                         0000000000000000000000000                                             000007
102021974950001161584870000003760                             82040216122      000                        1421071105                              101105000000000860010400523000000000000125647101081105              0000000000000000000000000000000000000000000000008600000000000000000000000000001081105                         0000000000000000000000000                                             000008
102021974950001161584870000003760                             82040228120      000                        1421071105                              101105000000000430010400523000000000000125647101081105              0000000000000000000000000000000000000000000000004300000000000000000000000000001081105                         0000000000000000000000000                                             000009
102021974950001161584870000003760                             82040232128      000                        1421071105                              101105000000000430006500016000000000000270663101081105              0000000000000000000000000000000000000000000000004300000000000000000000000000001081105                         0000000000000000000000000                                             000010
102021974950001161584870000003760                             82040238126      000                        1421071105                              101105000000000860010400523000000000000125647101081105              0000000000000000000000000000000000000000000000008600000000000000000000000000001081105                         0000000000000000000000000                                             000011
102021974950001161584870000003760                             82040415125      000                        1421071105                              101105000000000860010400523000000000000240655100071105              0000000000000000000000000000000000000000000000008600000000000000000000000000001071105                         0000000000000000000000000                                             000012
102021974950001161584870000003760                             82040529120      000                        1421071105                              101105000000000860010400523000000000000125647101081105              0000000000000000000000000000000000000000000000008600000000000000000000000000001081105                         0000000000000000000000000                                             000013
102021974950001161584870000003760                             82050109124      000                        1421071105                              101105000000000400006500016000000000000270663101081105              0000000000000000000000000000000000000000000000004000000000000000000000000000001081105                         0000000000000000000000000                                             000014
102021974950001161584870000003760                             82050125120      000                        1421071105                              101105000000000400006500016000000000000270663101081105              0000000000000000000000000000000000000000000000004000000000000000000000000000001081105                         0000000000000000000000000                                             000015
102021974950001161584870000003760                             82050130123      000                        1421071105                              101105000000000400006500016000000000000270663101081105              0000000000000000000000000000000000000000000000004000000000000000000000000000001081105                         0000000000000000000000000                                             000016
102021974950001161584870000003760                             82050201128      000                        1421071105                              101105000000000400006500016000000000000270663101081105              0000000000000000000000000000000000000000000000004000000000000000000000000000001081105                         0000000000000000000000000                                             000017
102021974950001161584870000003760                             82050228123      000                        1421071105                              101105000000000400006500016000000000000270663101081105              0000000000000000000000000000000000000000000000004000000000000000000000000000001081105                         0000000000000000000000000                                             000018
102021974950001161584870000003760                             82050233127      000                        1421071105                              101105000000000400006500016000000000000270663101081105              0000000000000000000000000000000000000000000000004000000000000000000000000000001081105                         0000000000000000000000000                                             000019
102021974950001161584870000003760                             82050234123      000                        1421071105                              101105000000000400006500016000000000000270663101081105              0000000000000000000000000000000000000000000000004000000000000000000000000000001081105                         0000000000000000000000000                                             000020
102021974950001161584870000003760                             82050234131      000                        1421071105                              101205000000000400006500016000000000000270663101081105              0000000000000000000000000000000000000000000000004000000000000000000000000000001081105                         0000000000000000000000000                                             000021
102021974950001161584870000003760                             82050236126      000                        1421071105                              101105000000000400006500016000000000000270663101081105              0000000000000000000000000000000000000000000000004000000000000000000000000000001081105                         0000000000000000000000000                                             000022
102021974950001161584870000003760                             82060135136      000                        1421071105                              151105000000000860006500016000000000000270663101081105              0000000000000000000000000000000000000000000000008600000000000000000000000000001081105                         0000000000000000000000000                                             000023
102021974950001161584870000003760                             82070106120      000                        1421071105                              101105000000000720000118386000000000000270663101081105              0000000000000000000000000000000000000000000000007200000000000000000000000000001081105                         0000000000000000000000000                                             000024
102021974950001161584870000003760                             82070132121      000                        1421071105                              101105000000000860006500016000000000000270663101081105              0000000000000000000000000000000000000000000000008600000000000000000000000000001081105                         0000000000000000000000000                                             000025
102021974950001161584870000003760                             82090101124      000                        1421071105                              101105000000000640010400540000000000000125647101081105              0000000000000000000000000000000000000000000000006400000000000000000000000000001081105                         0000000000000000000000000                                             000026
102021974950001161584870000003760                             82090102120      000                        1421071105                              101105000000000640075641796000000000000270663101081105              0000000000000000000000000000000000000000000000006400000000000000000000000000001081105                         0000000000000000000000000                                             000027
102021974950001161584870000003760                             82090108129      000                        1421071105                              101105000000000640023717836000000000000270663101081105              0000000000000000000000000000000000000000000000006400000000000000000000000000001081105                         0000000000000000000000000                                             000028
102021974950001161584870000003760                             82090110123      000                        1421071105                              101105000000000640010400540000000000000125647101081105              0000000000000000000000000000000000000000000000006400000000000000000000000000001081105                         0000000000000000000000000                                             000029
102021974950001161584870000003760                             82090117128      000                        1421071105                              000000000000000640023717836000000000000270663101081105              0000000000000000000000000000000000000000000000006400000000000000000000000000001081105                         0000000000000000000000000                                             000030
102021974950001161584870000003760                             82090120129      000                        1421071105                              101105000000000640010400540000000000000125647101081105              0000000000000000000000000000000000000000000000006400000000000000000000000000001081105                         0000000000000000000000000                                             000031
102021974950001161584870000003760                             82090128120      000                        1421071105                              101105000000000640010400540000000000000125647101081105              0000000000000000000000000000000000000000000000006400000000000000000000000000001081105                         0000000000000000000000000                                             000032
102021974950001161584870000003760                             82090313121      000                        1421071105                              101105000000000640075641796000000000000270663101081105              0000000000000000000000000000000000000000000000006400000000000000000000000000001081105                         0000000000000000000000000                                             000033
102021974950001161584870000003760                             82090314128      000                        1421071105                              101105000000000640010400540000000000000125647101081105              0000000000000000000000000000000000000000000000006400000000000000000000000000001081105                         0000000000000000000000000                                             000034
102021974950001161584870000003760                             82090324123      000                        1421071105                              101105000000000640010407749000000000000125647101081105              0000000000000000000000000000000000000000000000006400000000000000000000000000001081105                         0000000000000000000000000                                             000035
102021974950001161584870000003760                             82090325120      000                        1421071105                              101105000000000640006500016000000000000270663101081105              0000000000000000000000000000000000000000000000006400000000000000000000000000001081105                         0000000000000000000000000                                             000036
102021974950001161584870000003760                             82090333122      000                        1421071105                              101105000000000750010400540000000000000125647101081105              0000000000000000000000000000000000000000000000007500000000000000000000000000001081105                         0000000000000000000000000                                             000037
102021974950001161584870000003760                             82090335125      000                        1421071105                              101105000000000750010400540000000000000125647101081105              0000000000000000000000000000000000000000000000007500000000000000000000000000001081105                         0000000000000000000000000                                             000038
102021974950001161584870000003760                             82090401128      000                        1421071105                              101105000000000640010400540000000000000125647101081105              0000000000000000000000000000000000000000000000006400000000000000000000000000001081105                         0000000000000000000000000                                             000039
102021974950001161584870000003760                             82090407126      000                        1421071105                              101105000000000640010400540000000000000125647101081105              0000000000000000000000000000000000000000000000006400000000000000000000000000001081105                         0000000000000000000000000                                             000040
102021974950001161584870000003760                             82090427127      000                        1421071105                              101105000000000640010412424000000000000125647101081105              0000000000000000000000000000000000000000000000006400000000000000000000000000001081105                         0000000000000000000000000                                             000041
102021974950001161584870000003760                             82090904120      000                        1421071105                              101105000000000750010408770000000000000125647101081105              0000000000000000000000000000000000000000000000007500000000000000000000000000001081105                         0000000000000000000000000                                             000042
102021974950001161584870000003760                             82090924120      000                        1421071105                              101105000000000375010408770000000000000125647101081105              0000000000000000000000000000000000000000000000003750000000000000000000000000001081105                         0000000000000000000000000                                             000043
102021974950001161584870000003760                             82091036121      000                        1421071105                              101105000000000750010408770000000000000125647101081105              0000000000000000000000000000000000000000000000007500000000000000000000000000001081105                         0000000000000000000000000                                             000044
102021974950001161584870000003760                             82091201122      000                        1421071105                              101105000000000640010400540000000000000125647101081105              0000000000000000000000000000000000000000000000006400000000000000000000000000001081105                         0000000000000000000000000                                             000045
102021974950001161584870000003760                             82091217126      000                        1421071105                              101105000000000640010400540000000000000125647101081105              0000000000000000000000000000000000000000000000006400000000000000000000000000001081105                         0000000000000000000000000                                             000046
102021974950001161584870000003760                             82091219129      000                        1421071105                              101105000000000640010400540000000000000125647101081105              0000000000000000000000000000000000000000000000006400000000000000000000000000001081105                         0000000000000000000000000                                             000047
102021974950001161584870000003760                             82130111133      000                        1421071105                              101105000000000860010409148000000000000125647101081105              0000000000000000000000000000000000000000000000008600000000000000000000000000001081105                         0000000000000000000000000                                             000048
102021974950001161584870000003760                             82130125134      000                        1421071105                              101105000000000860010409148000000000000125647101081105              0000000000000000000000000000000000000000000000008600000000000000000000000000001081105                         0000000000000000000000000                                             000049
102021974950001161584870000003760                             82130126130      000                        1421071105                              101105000000000860010409148000000000000125647101081105              0000000000000000000000000000000000000000000000008600000000000000000000000000001081105                         0000000000000000000000000                                             000050
102021974950001161584870000003760                             82130205138      000                        1421071105                              101105000000000860010409148000000000000125647101081105              0000000000000000000000000000000000000000000000008600000000000000000000000000001081105                         0000000000000000000000000                                             000051
102021974950001161584870000003760                             82130221125      000                        1421071105                              101005000000000860006500016000000000000270663101081105              0000000000000000000000000000000000000000000000008600000000000000000000000000001081105                         0000000000000000000000000                                             000052
102021974950001161584870000003760                             82130316134      000                        1421071105                              101105000000000860010409148000000000000125647101081105              0000000000000000000000000000000000000000000000008600000000000000000000000000001081105                         0000000000000000000000000                                             000053
102021974950001161584870000003760                             82999027071      000                        1421071105                              301105000000000860010408761000000000000125647101081105              0000000000000000000000000000000000000000000000008600000000000000000000000000001081105                         0000000000000000000000000                                             000054
102021974950001161584870000003760                             82999028671      000                        1421071105                              151105000000000860006500016000000000000270663101081105              0000000000000000000000000000000000000000000000008600000000000000000000000000001081105                         0000000000000000000000000                                             000055
102021974950001161584870000003760                             82999028868      000                        1421071105                              151105000000000860010421911000000000000125647101081105              0000000000000000000000000000000000000000000000008600000000000000000000000000001081105                         0000000000000000000000000                                             000056
102021974950001161584870000003760                             82999028922      000                        1421071105                              151105000000000860010421911000000000000125647101081105              0000000000000000000000000000000000000000000000008600000000000000000000000000001081105                         0000000000000000000000000                                             000057
102021974950001161584870000003760                             82999028949      000                        1421071105                              151105000000000860034160666000000000000270663101081105              0000000000000000000000000000000000000000000000008600000000000000000000000000001081105                         0000000000000000000000000                                             000058
9201104                                                                                                                                                                                                                                                                                                                                                                                                   000059
