02RETORNO01COBRANCA       1584870000003760    IPAD                          104C ECON FEDERAL 090107                                                                                                                                                                                                                                                                                                 00365000001
102021974950001161584870000003760                             82030518169      000                        1421090107                              151206000000000760010409148000000000000125647101100107              0000000000000000000000000000000000000000000000007932000000000033200000000000001100107                         0000000000000000000000000                                             000002
102021974950001161584870000003760                             82030546170      000                        1421090107                              150107000000000760006500016000000000000270663101100107              0000000000000000000000000000000000000000000000007600000000000000000000000000001100107                         0000000000000000000000000                                             000003
102021974950001161584870000003760                             82030725164      000                        1421090107                              100107000000000760039928996000000000000270663101100107              0000000000000000000000000000000000000000000000007600000000000000000000000000001100107                         0000000000000000000000000                                             000004
102021974950001161584870000003760                             82030732152      000                        1421090107                              101206000000000760010409148000000000000125647101100107              0000000000000000000000000000000000000000000000007976000000000037600000000000001100107                         0000000000000000000000000                                             000005
102021974950001161584870000003760                             82030924175      000                        1421090107                              100107000000000760010407757000000000000125647101100107              0000000000000000000000000000000000000000000000007600000000000000000000000000001100107                         0000000000000000000000000                                             000006
102021974950001161584870000003760                             82031005114      000                        1421020107                              301206000000000760010400523000000000000125647101080107              0000000000000000000000000000000000000000000000007600000000000000000000000000001080107                         0000000000000000000000000                                             000007
102021974950001161584870000003760                             82031012110      000                        1421020107                              301206000000000760010400523000000000000125647101080107              0000000000000000000000000000000000000000000000007600000000000000000000000000001080107                         0000000000000000000000000                                             000008
102021974950001161584870000003760                             82031013117      000                        1421020107                              301206000000000760010400523000000000000125647101080107              0000000000000000000000000000000000000000000000007600000000000000000000000000001080107                         0000000000000000000000000                                             000009
102021974950001161584870000003760                             82031018119      000                        1421020107                              301206000000000760010400523000000000000125647101080107              0000000000000000000000000000000000000000000000007600000000000000000000000000001080107                         0000000000000000000000000                                             000010
102021974950001161584870000003760                             82031101130      000                        1421090107                              100107000000000760010424465000000000000240655100090107              0000000000000000000000000000000000000000000000007600000000000000000000000000001090107                         0000000000000000000000000                                             000011
102021974950001161584870000003760                             82031112131      000                        1421090107                              100107000000000760010424465000000000000125647101100107              0000000000000000000000000000000000000000000000007600000000000000000000000000001100107                         0000000000000000000000000                                             000012
102021974950001161584870000003760                             82031118130      000                        1421090107                              100107000000000760010424465000000000000125647101100107              0000000000000000000000000000000000000000000000007600000000000000000000000000001100107                         0000000000000000000000000                                             000013
102021974950001161584870000003760                             82031120134      000                        1421090107                              100107000000000760010424465000000000000125647101100107              0000000000000000000000000000000000000000000000007600000000000000000000000000001100107                         0000000000000000000000000                                             000014
102021974950001161584870000003760                             82031125136      000                        1421090107                              100107000000000760010424465000000000000125647101100107              0000000000000000000000000000000000000000000000007600000000000000000000000000001100107                         0000000000000000000000000                                             000015
102021974950001161584870000003760                             82050338174      000                        1421020107                              301206000000000860010410383000000000000125647101080107              0000000000000000000000000000000000000000000000008600000000000000000000000000001080107                         0000000000000000000000000                                             000016
102021974950001161584870000003760                             82060410170      000                        1421090107                              000000000000000760035601326000000000000270663101100107              0000000000000000000000000000000000000000000000007600000000000000000000000000001100107                         0000000000000000000000000                                             000017
102021974950001161584870000003760                             82060417174      000                        1421090107                              100107000000000760010430171000000000000125647101100107              0000000000000000000000000000000000000000000000007600000000000000000000000000001100107                         0000000000000000000000000                                             000018
102021974950001161584870000003760                             82060511170      000                        1421020107                              100107000000000760010409172000000000000125647101080107              0000000000000000000000000000000000000000000000007600000000000000000000000000001080107                         0000000000000000000000000                                             000019
102021974950001161584870000003760                             82060517160      000                        1421020107                              101206000000000760010409237000000000000125647101080107              0000000000000000000000000000000000000000000000007896000000000029600000000000001080107                         0000000000000000000000000                                             000020
102021974950001161584870000003760                             82060517179      000                        1421020107                              100107000000000760010409237000000000000125647101080107              0000000000000000000000000000000000000000000000007600000000000000000000000000001080107                         0000000000000000000000000                                             000021
102021974950001161584870000003760                             82060529169      000                        1421090107                              101206000000000760010400485000000000000125647204150107              0000000000000000000000000000000000000000000000007980000000000038000000000000001150107                         0000000000000000000000000                                             000022
102021974950001161584870000003760                             82060529177      000                        1421090107                              100107000000000760010400485000000000000125647204150107              0000000000000000000000000000000000000000000000007600000000000000000000000000001150107                         0000000000000000000000000                                             000023
102021974950001161584870000003760                             82060630145      000                        1421090107                              311006000000000750010412424000000000000125647101100107              0000000000000000000000000000000000000000000000008175000000000067500000000000001100107                         0000000000000000000000000                                             000024
102021974950001161584870000003760                             82060630153      000                        1421090107                              231006000000000750010412424000000000000125647101100107              0000000000000000000000000000000000000000000000008235000000000073500000000000001100107                         0000000000000000000000000                                             000025
102021974950001161584870000003760                             82060630161      000                        1421090107                              151106000000000750010412424000000000000125647101100107              0000000000000000000000000000000000000000000000008062000000000056200000000000001100107                         0000000000000000000000000                                             000026
102021974950001161584870000003760                             82060630170      000                        1421090107                              151206000000000750010412424000000000000125647101100107              0000000000000000000000000000000000000000000000007837000000000033700000000000001100107                         0000000000000000000000000                                             000027
102021974950001161584870000003760                             82060921166      000                        1421020107                              101206000000000760010412947000000000000125647101080107              0000000000000000000000000000000000000000000000007897000000000029700000000000001080107                         0000000000000000000000000                                             000028
102021974950001161584870000003760                             82060935167      000                        1421020107                              100107000000000760010400469000000000000125647101080107              0000000000000000000000000000000000000000000000007600000000000000000000000000001080107                         0000000000000000000000000                                             000029
102021974950001161584870000003760                             82070622161      000                        1421090107                              201106000000000760010405592000000000000125647101100107              0000000000000000000000000000000000000000000000008132000000000053200000000000001100107                         0000000000000000000000000                                             000030
102021974950001161584870000003760                             82070727176      000                        1421090107                              200107000000000760006500016000000000000270663101100107              0000000000000000000000000000000000000000000000007600000000000000000000000000001100107                         0000000000000000000000000                                             000031
102021974950001161584870000003760                             82071209179      000                        1421090107                              100107000000000760006500016000000000000270663101100107              0000000000000000000000000000000000000000000000007600000000000000000000000000001100107                         0000000000000000000000000                                             000032
102021974950001161584870000003760                             82071304120      000                        1421090107                              101206000000000760010421245000000000000125647101100107              0000000000000000000000000000000000000000000000007962000000000036200000000000001100107                         0000000000000000000000000                                             000033
102021974950001161584870000003760                             82071319136      000                        1421090107                              100107000000000760000139246000000000000270663101100107              0000000000000000000000000000000000000000000000007600000000000000000000000000001100107                         0000000000000000000000000                                             000034
102021974950001161584870000003760                             82071407132      000                        1421090107                              100107000000000760010421245000000000000125647101100107              0000000000000000000000000000000000000000000000007600000000000000000000000000001100107                         0000000000000000000000000                                             000035
102021974950001161584870000003760                             82090708150      000                        1421020107                              100906000000000750010408770000000000000125647101080107              0000000000000000000000000000000000000000000000008413000000000091300000000000001080107                         0000000000000000000000000                                             000036
102021974950001161584870000003760                             82090708169      000                        1421020107                              100906000000000750010408770000000000000125647101080107              0000000000000000000000000000000000000000000000008413000000000091300000000000001080107                         0000000000000000000000000                                             000037
102021974950001161584870000003760                             82090712158      000                        1421020107                              310806000000000750010408770000000000000125647101080107              0000000000000000000000000000000000000000000000008483000000000098300000000000001080107                         0000000000000000000000000                                             000038
102021974950001161584870000003760                             82090712166      000                        1421090107                              310806000000000750010408770000000000000125647101100107              0000000000000000000000000000000000000000000000008553000000000105300000000000001100107                         0000000000000000000000000                                             000039
102021974950001161584870000003760                             82090712174      000                        1421090107                              100906000000000750010408770000000000000125647101100107              0000000000000000000000000000000000000000000000008490000000000099000000000000001100107                         0000000000000000000000000                                             000040
102021974950001161584870000003760                             82110714177      000                        1421090107                              201106000000000750010407765000000000000125647101100107              0000000000000000000000000000000000000000000000008050000000000055000000000000001100107                         0000000000000000000000000                                             000041
102021974950001161584870000003760                             82110811156      000                        1421020107                              201206000000000750010407765000000000000125647101080107              0000000000000000000000000000000000000000000000007706000000000020600000000000001080107                         0000000000000000000000000                                             000042
102021974950001161584870000003760                             82110811164      000                        1421020107                              201206000000000750010407765000000000000125647101080107              0000000000000000000000000000000000000000000000007706000000000020600000000000001080107                         0000000000000000000000000                                             000043
102021974950001161584870000003760                             82110826145      000                        1421020107                              201106000000000750010407765000000000000125647101080107              0000000000000000000000000000000000000000000000007942000000000044200000000000001080107                         0000000000000000000000000                                             000044
102021974950001161584870000003760                             82111003134      000                        1421090107                              110107000000000760010407765000000000000125647101100107              0000000000000000000000000000000000000000000000007600000000000000000000000000001100107                         0000000000000000000000000                                             000045
102021974950001161584870000003760                             82130412141      000                        1421090107                              100107000000000760010409148000000000000125647101100107              0000000000000000000000000000000000000000000000007600000000000000000000000000001100107                         0000000000000000000000000                                             000046
102021974950001161584870000003760                             82130414144      000                        1421090107                              100107000000000760006500016000000000000270663101100107              0000000000000000000000000000000000000000000000007600000000000000000000000000001100107                         0000000000000000000000000                                             000047
102021974950001161584870000003760                             82130435133      000                        1421090107                              100107000000000760010407765000000000000125647101100107              0000000000000000000000000000000000000000000000007600000000000000000000000000001100107                         0000000000000000000000000                                             000048
9201104                                                                                                                                                                                                                                                                                                                                                                                                   000049
