02RETORNO01COBRANCA       1584870000003760    IPAD                          104C ECON FEDERAL 100106                                                                                                                                                                                                                                                                                                 00118000001
102021974950001161584870000003760                             82010104130      000                        1421100106                              100106000000000375010414338000000000000125647101110106              0000000000000000000000000000000000000000000000003750000000000000000000000000001110106                         0000000000000000000000000                                             000002
102021974950001161584870000003760                             82010106124      000                        1421100106                              101205000000000750010414338000000000000125647101110106              0000000000000000000000000000000000000000000000007875000000000037500000000000001110106                         0000000000000000000000000                                             000003
102021974950001161584870000003760                             82010112132      000                        1421100106                              100106000000000750075641796000000000000270663101110106              0000000000000000000000000000000000000000000000007500000000000000000000000000001110106                         0000000000000000000000000                                             000004
102021974950001161584870000003760                             82010114135      000                        1421100106                              100106000000000750000121296000000000000270663101110106              0000000000000000000000000000000000000000000000007500000000000000000000000000001110106                         0000000000000000000000000                                             000005
102021974950001161584870000003760                             82010116138      000                        1421100106                              100106000000000750007347476000000000000270663101110106              0000000000000000000000000000000000000000000000007500000000000000000000000000001110106                         0000000000000000000000000                                             000006
102021974950001161584870000003760                             82010118130      000                        1421100106                              100106000000000375000105706000000000000270663101110106              0000000000000000000000000000000000000000000000003750000000000000000000000000001110106                         0000000000000000000000000                                             000007
102021974950001161584870000003760                             82010120135      000                        1421100106                              100106000000000750010414338000000000000125647101110106              0000000000000000000000000000000000000000000000007500000000000000000000000000001110106                         0000000000000000000000000                                             000008
102021974950001161584870000003760                             82010123134      000                        1421100106                              100106000000000750007347476000000000000270663101110106              0000000000000000000000000000000000000000000000007500000000000000000000000000001110106                         0000000000000000000000000                                             000009
102021974950001161584870000003760                             82010125137      000                        1421100106                              100106000000000750006500016000000000000270663101110106              0000000000000000000000000000000000000000000000007500000000000000000000000000001110106                         0000000000000000000000000                                             000010
102021974950001161584870000003760                             82010130130      000                        1421100106                              100106000000000750006500016000000000000270663101110106              0000000000000000000000000000000000000000000000007500000000000000000000000000001110106                         0000000000000000000000000                                             000011
102021974950001161584870000003760                             82010138131      000                        1421100106                              100106000000002625000105706000000000000270663101110106              0000000000000000000000000000000000000000000000026250000000000000000000000000001110106                         0000000000000000000000000                                             000012
102021974950001161584870000003760                             82010202131      000                        1421100106                              000000000000000420039928996000000000000270663101110106              0000000000000000000000000000000000000000000000004200000000000000000000000000001110106                         0000000000000000000000000                                             000013
102021974950001161584870000003760                             82010203138      000                        1421100106                              100106000000000420000117546000000000000270663101110106              0000000000000000000000000000000000000000000000004200000000000000000000000000001110106                         0000000000000000000000000                                             000014
102021974950001161584870000003760                             82010210134      000                        1421100106                              100106000000000420007347476000000000000270663101110106              0000000000000000000000000000000000000000000000004200000000000000000000000000001110106                         0000000000000000000000000                                             000015
102021974950001161584870000003760                             82010211130      000                        1421100106                              100106000000000420000117546000000000000270663101110106              0000000000000000000000000000000000000000000000004200000000000000000000000000001110106                         0000000000000000000000000                                             000016
102021974950001161584870000003760                             82010215136      000                        1421100106                              100106000000000750010414338000000000000125620101110106              0000000000000000000000000000000000000000000000007500000000000000000000000000001110106                         0000000000000000000000000                                             000017
102021974950001161584870000003760                             82010216132      000                        1421100106                              100106000000000750010414338000000000000125620101110106              0000000000000000000000000000000000000000000000007500000000000000000000000000001110106                         0000000000000000000000000                                             000018
102021974950001161584870000003760                             82010219131      000                        1421100106                              100106000000000420010414338000000000000125647101110106              0000000000000000000000000000000000000000000000004200000000000000000000000000001110106                         0000000000000000000000000                                             000019
102021974950001161584870000003760                             82010220130      000                        1421100106                              100106000000000420007347476000000000000270663101110106              0000000000000000000000000000000000000000000000004200000000000000000000000000001110106                         0000000000000000000000000                                             000020
102021974950001161584870000003760                             82010222132      000                        1421100106                              100106000000000420000117546000000000000270663101110106              0000000000000000000000000000000000000000000000004200000000000000000000000000001110106                         0000000000000000000000000                                             000021
102021974950001161584870000003760                             82010227134      000                        1421100106                              100106000000000420000117546000000000000270663101110106              0000000000000000000000000000000000000000000000004200000000000000000000000000001110106                         0000000000000000000000000                                             000022
102021974950001161584870000003760                             82030101136      000                        1421100106                              100106000000000750010424465000000000000240655100100106              0000000000000000000000000000000000000000000000007500000000000000000000000000001100106                         0000000000000000000000000                                             000023
102021974950001161584870000003760                             82030102132      000                        1421100106                              100106000000000750010424465000000000000125647101110106              0000000000000000000000000000000000000000000000007500000000000000000000000000001110106                         0000000000000000000000000                                             000024
102021974950001161584870000003760                             82030104135      000                        1421100106                              100106000000000750010424465000000000000240655100100106              0000000000000000000000000000000000000000000000007500000000000000000000000000001100106                         0000000000000000000000000                                             000025
102021974950001161584870000003760                             82030106138      000                        1421100106                              100106000000000750010424465000000000000125647101110106              0000000000000000000000000000000000000000000000007500000000000000000000000000001110106                         0000000000000000000000000                                             000026
102021974950001161584870000003760                             82030108130      000                        1421100106                              100106000000000750010424465000000000000125647101110106              0000000000000000000000000000000000000000000000007500000000000000000000000000001110106                         0000000000000000000000000                                             000027
102021974950001161584870000003760                             82030111131      000                        1421100106                              100106000000000750010424465000000000000125647101110106              0000000000000000000000000000000000000000000000007500000000000000000000000000001110106                         0000000000000000000000000                                             000028
102021974950001161584870000003760                             82030117130      000                        1421100106                              100106000000000750010424465000000000000125647101110106              0000000000000000000000000000000000000000000000007500000000000000000000000000001110106                         0000000000000000000000000                                             000029
102021974950001161584870000003760                             82030118136      000                        1421100106                              100106000000000750010424465000000000000125647101110106              0000000000000000000000000000000000000000000000007500000000000000000000000000001110106                         0000000000000000000000000                                             000030
102021974950001161584870000003760                             82030120130      000                        1421100106                              100106000000000750010424465000000000000125647101110106              0000000000000000000000000000000000000000000000007500000000000000000000000000001110106                         0000000000000000000000000                                             000031
102021974950001161584870000003760                             82030122133      000                        1421100106                              100106000000000750010424465000000000000125647101110106              0000000000000000000000000000000000000000000000007500000000000000000000000000001110106                         0000000000000000000000000                                             000032
102021974950001161584870000003760                             82030126139      000                        1421100106                              100106000000000750010424465000000000000125647101110106              0000000000000000000000000000000000000000000000007500000000000000000000000000001110106                         0000000000000000000000000                                             000033
102021974950001161584870000003760                             82030127135      000                        1421100106                              100106000000000750010424465000000000000125647101110106              0000000000000000000000000000000000000000000000007500000000000000000000000000001110106                         0000000000000000000000000                                             000034
102021974950001161584870000003760                             82030130136      000                        1421100106                              100106000000000750010424465000000000000125639100100106              0000000000000000000000000000000000000000000000007500000000000000000000000000001100106                         0000000000000000000000000                                             000035
102021974950001161584870000003760                             82030133135      000                        1421100106                              100106000000000750010424465000000000000240655100100106              0000000000000000000000000000000000000000000000007500000000000000000000000000001100106                         0000000000000000000000000                                             000036
102021974950001161584870000003760                             82030135138      000                        1421100106                              100106000000000750010424465000000000000125647101110106              0000000000000000000000000000000000000000000000007500000000000000000000000000001110106                         0000000000000000000000000                                             000037
102021974950001161584870000003760                             82040101147      000                        1421100106                              100106000000000430010400523000000000000125647101110106              0000000000000000000000000000000000000000000000004300000000000000000000000000001110106                         0000000000000000000000000                                             000038
102021974950001161584870000003760                             82040127146      000                        1421100106                              100106000000000430010400523000000000000125647101110106              0000000000000000000000000000000000000000000000004300000000000000000000000000001110106                         0000000000000000000000000                                             000039
102021974950001161584870000003760                             82040132140      000                        1421100106                              100106000000000860010409156000000000000125647101110106              0000000000000000000000000000000000000000000000008600000000000000000000000000001110106                         0000000000000000000000000                                             000040
102021974950001161584870000003760                             82040135149      000                        1421100106                              100106000000012040000110126000000000000270663101110106              0000000000000000000000000000000000000000000000120400000000000000000000000000001110106                         0000000000000000000000000                                             000041
102021974950001161584870000003760                             82040136145      000                        1421100106                              100106000000000430010400523000000000000125647101110106              0000000000000000000000000000000000000000000000004300000000000000000000000000001110106                         0000000000000000000000000                                             000042
102021974950001161584870000003760                             82040207140      000                        1421100106                              100106000000000430010400523000000000000125647101110106              0000000000000000000000000000000000000000000000004300000000000000000000000000001110106                         0000000000000000000000000                                             000043
102021974950001161584870000003760                             82040209142      000                        1421100106                              100106000000000430075641796000000000000270663101110106              0000000000000000000000000000000000000000000000004300000000000000000000000000001110106                         0000000000000000000000000                                             000044
102021974950001161584870000003760                             82040210140      000                        1421100106                              100106000000000430007347476000000000000270663101110106              0000000000000000000000000000000000000000000000004300000000000000000000000000001110106                         0000000000000000000000000                                             000045
102021974950001161584870000003760                             82040212143      000                        1421100106                              100106000000000860010400523000000000000125647101110106              0000000000000000000000000000000000000000000000008600000000000000000000000000001110106                         0000000000000000000000000                                             000046
102021974950001161584870000003760                             82040213140      000                        1421100106                              100106000000000430010400523000000000000125647101110106              0000000000000000000000000000000000000000000000004300000000000000000000000000001110106                         0000000000000000000000000                                             000047
102021974950001161584870000003760                             82040214146      000                        1421100106                              100106000000000430075641796000000000000270663101110106              0000000000000000000000000000000000000000000000004300000000000000000000000000001110106                         0000000000000000000000000                                             000048
102021974950001161584870000003760                             82040219148      000                        1421100106                              100106000000000430006500016000000000000270663101110106              0000000000000000000000000000000000000000000000004300000000000000000000000000001110106                         0000000000000000000000000                                             000049
102021974950001161584870000003760                             82040220146      000                        1421100106                              100106000000000430010400523000000000000125647101110106              0000000000000000000000000000000000000000000000004300000000000000000000000000001110106                         0000000000000000000000000                                             000050
102021974950001161584870000003760                             82040222149      000                        1421100106                              100106000000000430010400523000000000000125647101110106              0000000000000000000000000000000000000000000000004300000000000000000000000000001110106                         0000000000000000000000000                                             000051
102021974950001161584870000003760                             82040225148      000                        1421100106                              100106000000000430006500016000000000000270663101110106              0000000000000000000000000000000000000000000000004300000000000000000000000000001110106                         0000000000000000000000000                                             000052
102021974950001161584870000003760                             82040231148      000                        1421100106                              100106000000000430010400523000000000000125647101110106              0000000000000000000000000000000000000000000000004300000000000000000000000000001110106                         0000000000000000000000000                                             000053
102021974950001161584870000003760                             82040232144      000                        1421100106                              100106000000000430006500016000000000000270663101110106              0000000000000000000000000000000000000000000000004300000000000000000000000000001110106                         0000000000000000000000000                                             000054
102021974950001161584870000003760                             82040233140      000                        1421100106                              100106000000000430010400523000000000000125647101110106              0000000000000000000000000000000000000000000000004300000000000000000000000000001110106                         0000000000000000000000000                                             000055
102021974950001161584870000003760                             82040234147      000                        1421100106                              100106000000000430002410606000000000000270663101110106              0000000000000000000000000000000000000000000000004300000000000000000000000000001110106                         0000000000000000000000000                                             000056
102021974950001161584870000003760                             82040239149      000                        1421100106                              100106000000013760000105506000000000000270663101110106              0000000000000000000000000000000000000000000000137600000000000000000000000000001110106                         0000000000000000000000000                                             000057
102021974950001161584870000003760                             82040303149      000                        1421100106                              100106000000000360010400523000000000000125647101110106              0000000000000000000000000000000000000000000000003600000000000000000000000000001110106                         0000000000000000000000000                                             000058
102021974950001161584870000003760                             82040321139      000                        1421100106                              151205000000000360010400523000000000000125647101110106              0000000000000000000000000000000000000000000000004348000000000074800000000000001110106                         0000000000000000000000000                                             000059
102021974950001161584870000003760                             82040322143      000                        1421100106                              100106000000000360010400523000000000000125647101110106              0000000000000000000000000000000000000000000000003600000000000000000000000000001110106                         0000000000000000000000000                                             000060
102021974950001161584870000003760                             82040328141      000                        1421100106                              100106000000000360010400523000000000000125647101110106              0000000000000000000000000000000000000000000000003600000000000000000000000000001110106                         0000000000000000000000000                                             000061
102021974950001161584870000003760                             82040329148      000                        1421100106                              100106000000000360010400523000000000000125647101110106              0000000000000000000000000000000000000000000000003600000000000000000000000000001110106                         0000000000000000000000000                                             000062
102021974950001161584870000003760                             82040334141      000                        1421100106                              100106000000000360010400523000000000000125647101110106              0000000000000000000000000000000000000000000000003600000000000000000000000000001110106                         0000000000000000000000000                                             000063
102021974950001161584870000003760                             82040408145      000                        1421100106                              100106000000000860010400523000000000000125647101110106              0000000000000000000000000000000000000000000000008600000000000000000000000000001110106                         0000000000000000000000000                                             000064
102021974950001161584870000003760                             82040414145      000                        1421100106                              000000000000000860039928996000000000000270663101110106              0000000000000000000000000000000000000000000000008600000000000000000000000000001110106                         0000000000000000000000000                                             000065
102021974950001161584870000003760                             82040415141      000                        1421100106                              100106000000000860010400523000000000000125620101110106              0000000000000000000000000000000000000000000000008600000000000000000000000000001110106                         0000000000000000000000000                                             000066
102021974950001161584870000003760                             82040437145      000                        1421100106                              100106000000013760000117396000000000000270663101110106              0000000000000000000000000000000000000000000000137600000000000000000000000000001110106                         0000000000000000000000000                                             000067
102021974950001161584870000003760                             82040505140      000                        1421100106                              100106000000000860006500016000000000000270663101110106              0000000000000000000000000000000000000000000000008600000000000000000000000000001110106                         0000000000000000000000000                                             000068
102021974950001161584870000003760                             82040523149      000                        1421100106                              100106000000000860002410026000000000000270663101110106              0000000000000000000000000000000000000000000000008600000000000000000000000000001110106                         0000000000000000000000000                                             000069
102021974950001161584870000003760                             82040525141      000                        1421100106                              100106000000000860010400523000000000000125647101110106              0000000000000000000000000000000000000000000000008600000000000000000000000000001110106                         0000000000000000000000000                                             000070
102021974950001161584870000003760                             82040527144      000                        1421100106                              100106000000000860010400523000000000000125647101110106              0000000000000000000000000000000000000000000000008600000000000000000000000000001110106                         0000000000000000000000000                                             000071
102021974950001161584870000003760                             82040535147      000                        1421100106                              100106000000000860006500016000000000000270663101110106              0000000000000000000000000000000000000000000000008600000000000000000000000000001110106                         0000000000000000000000000                                             000072
102021974950001161584870000003760                             82040604149      000                        1421100106                              100106000000000860006500016000000000000270663101110106              0000000000000000000000000000000000000000000000008600000000000000000000000000001110106                         0000000000000000000000000                                             000073
102021974950001161584870000003760                             82040610149      000                        1421100106                              100106000000000860075641796000000000000270663101110106              0000000000000000000000000000000000000000000000008600000000000000000000000000001110106                         0000000000000000000000000                                             000074
102021974950001161584870000003760                             82040639147      000                        1421100106                              100106000000000860010407730000000000000125647101110106              0000000000000000000000000000000000000000000000008600000000000000000000000000001110106                         0000000000000000000000000                                             000075
102021974950001161584870000003760                             82040713142      000                        1421100106                              100106000000000860010409164000000000000125647101110106              0000000000000000000000000000000000000000000000008600000000000000000000000000001110106                         0000000000000000000000000                                             000076
102021974950001161584870000003760                             82050105145      000                        1421100106                              100106000000000400006500016000000000000270663101110106              0000000000000000000000000000000000000000000000004000000000000000000000000000001110106                         0000000000000000000000000                                             000077
102021974950001161584870000003760                             82050107148      000                        1421100106                              100106000000000400006500016000000000000270663101110106              0000000000000000000000000000000000000000000000004000000000000000000000000000001110106                         0000000000000000000000000                                             000078
102021974950001161584870000003760                             82050116147      000                        1421100106                              100106000000000400010400531000000000000125647101110106              0000000000000000000000000000000000000000000000004000000000000000000000000000001110106                         0000000000000000000000000                                             000079
102021974950001161584870000003760                             82050119146      000                        1421100106                              100106000000000400006500016000000000000270663101110106              0000000000000000000000000000000000000000000000004000000000000000000000000000001110106                         0000000000000000000000000                                             000080
102021974950001161584870000003760                             82050125146      000                        1421100106                              000000000000000400039928996000000000000270663101110106              0000000000000000000000000000000000000000000000004000000000000000000000000000001110106                         0000000000000000000000000                                             000081
102021974950001161584870000003760                             82050130140      000                        1421100106                              100106000000000400006500016000000000000270663101110106              0000000000000000000000000000000000000000000000004000000000000000000000000000001110106                         0000000000000000000000000                                             000082
102021974950001161584870000003760                             82050132142      000                        1421100106                              100106000000000400006500016000000000000270663101110106              0000000000000000000000000000000000000000000000004000000000000000000000000000001110106                         0000000000000000000000000                                             000083
102021974950001161584870000003760                             82050204143      000                        1421100106                              100106000000000400010400531000000000000125647101110106              0000000000000000000000000000000000000000000000004000000000000000000000000000001110106                         0000000000000000000000000                                             000084
102021974950001161584870000003760                             82050208149      000                        1421100106                              100106000000000400010400531000000000000125647101110106              0000000000000000000000000000000000000000000000004000000000000000000000000000001110106                         0000000000000000000000000                                             000085
102021974950001161584870000003760                             82050210143      000                        1421100106                              100106000000000400006500016000000000000270663101110106              0000000000000000000000000000000000000000000000004000000000000000000000000000001110106                         0000000000000000000000000                                             000086
102021974950001161584870000003760                             82050212146      000                        1421100106                              100106000000000400000116506000000000000270663101110106              0000000000000000000000000000000000000000000000004000000000000000000000000000001110106                         0000000000000000000000000                                             000087
102021974950001161584870000003760                             82050213142      000                        1421100106                              100106000000000400006500016000000000000270663101110106              0000000000000000000000000000000000000000000000004000000000000000000000000000001110106                         0000000000000000000000000                                             000088
102021974950001161584870000003760                             82050217148      000                        1421100106                              100106000000000400010400531000000000000125647101110106              0000000000000000000000000000000000000000000000004000000000000000000000000000001110106                         0000000000000000000000000                                             000089
102021974950001161584870000003760                             82050221145      000                        1421100106                              100106000000000400006500016000000000000270663101110106              0000000000000000000000000000000000000000000000004000000000000000000000000000001110106                         0000000000000000000000000                                             000090
102021974950001161584870000003760                             82050232147      000                        1421100106                              100106000000000400010400531000000000000125647101110106              0000000000000000000000000000000000000000000000004000000000000000000000000000001110106                         0000000000000000000000000                                             000091
102021974950001161584870000003760                             82050312132      000                        1421100106                              101205000000000860010427782000000000000125647101110106              0000000000000000000000000000000000000000000000009038000000000043800000000000001110106                         0000000000000000000000000                                             000092
102021974950001161584870000003760                             82050313147      000                        1421100106                              100106000000000860000116666000000000000270663101110106              0000000000000000000000000000000000000000000000008600000000000000000000000000001110106                         0000000000000000000000000                                             000093
102021974950001161584870000003760                             82050323142      000                        1421100106                              100106000000000860075641796000000000000270663101110106              0000000000000000000000000000000000000000000000008600000000000000000000000000001110106                         0000000000000000000000000                                             000094
102021974950001161584870000003760                             82050326141      000                        1421100106                              100106000000000860000116666000000000000270663101110106              0000000000000000000000000000000000000000000000008600000000000000000000000000001110106                         0000000000000000000000000                                             000095
102021974950001161584870000003760                             82050327148      000                        1421100106                              100106000000000860010427782000000000000125647101110106              0000000000000000000000000000000000000000000000008600000000000000000000000000001110106                         0000000000000000000000000                                             000096
102021974950001161584870000003760                             82050337143      000                        1421100106                              100106000000000860010427782000000000000125647101110106              0000000000000000000000000000000000000000000000008600000000000000000000000000001110106                         0000000000000000000000000                                             000097
102021974950001161584870000003760                             82060104150      000                        1421100106                              150106000000000860006500016000000000000270663101110106              0000000000000000000000000000000000000000000000008600000000000000000000000000001110106                         0000000000000000000000000                                             000098
102021974950001161584870000003760                             82060108155      000                        1421100106                              150106000000000860010430171000000000000125647101110106              0000000000000000000000000000000000000000000000008600000000000000000000000000001110106                         0000000000000000000000000                                             000099
102021974950001161584870000003760                             82060128156      000                        1421100106                              150106000000000860006500016000000000000270663101110106              0000000000000000000000000000000000000000000000008600000000000000000000000000001110106                         0000000000000000000000000                                             000100
102021974950001161584870000003760                             82060201139      000                        1421100106                              100106000000000860010421911000000000000125647101110106              0000000000000000000000000000000000000000000000008600000000000000000000000000001110106                         0000000000000000000000000                                             000101
102021974950001161584870000003760                             82060202135      000                        1421100106                              100106000000000860075641796000000000000270663101110106              0000000000000000000000000000000000000000000000008600000000000000000000000000001110106                         0000000000000000000000000                                             000102
102021974950001161584870000003760                             82060203131      000                        1421100106                              100106000000000860006500016000000000000270663101110106              0000000000000000000000000000000000000000000000008600000000000000000000000000001110106                         0000000000000000000000000                                             000103
102021974950001161584870000003760                             82060208133      000                        1421100106                              100106000000000860075641796000000000000270663101110106              0000000000000000000000000000000000000000000000008600000000000000000000000000001110106                         0000000000000000000000000                                             000104
102021974950001161584870000003760                             82060209130      000                        1421100106                              100106000000000860075641796000000000000270663101110106              0000000000000000000000000000000000000000000000008600000000000000000000000000001110106                         0000000000000000000000000                                             000105
102021974950001161584870000003760                             82060210138      000                        1421100106                              100106000000000860010421911000000000000125647101110106              0000000000000000000000000000000000000000000000008600000000000000000000000000001110106                         0000000000000000000000000                                             000106
102021974950001161584870000003760                             82060214133      000                        1421100106                              100106000000000860006500016000000000000270663101110106              0000000000000000000000000000000000000000000000008600000000000000000000000000001110106                         0000000000000000000000000                                             000107
102021974950001161584870000003760                             82060216136      000                        1421100106                              100106000000000860006500016000000000000270663101110106              0000000000000000000000000000000000000000000000008600000000000000000000000000001110106                         0000000000000000000000000                                             000108
102021974950001161584870000003760                             82060220133      000                        1421100106                              100106000000000860010421911000000000000125647101110106              0000000000000000000000000000000000000000000000008600000000000000000000000000001110106                         0000000000000000000000000                                             000109
102021974950001161584870000003760                             82060221130      000                        1421100106                              100106000000000860006500016000000000000270663101110106              0000000000000000000000000000000000000000000000008600000000000000000000000000001110106                         0000000000000000000000000                                             000110
102021974950001161584870000003760                             82060222136      000                        1421100106                              100106000000000860006500016000000000000270663101110106              0000000000000000000000000000000000000000000000008600000000000000000000000000001110106                         0000000000000000000000000                                             000111
102021974950001161584870000003760                             82060223132      000                        1421100106                              100106000000000860010421911000000000000240655100100106              0000000000000000000000000000000000000000000000008600000000000000000000000000001100106                         0000000000000000000000000                                             000112
102021974950001161584870000003760                             82060224139      000                        1421100106                              100106000000000860075641796000000000000270663101110106              0000000000000000000000000000000000000000000000008600000000000000000000000000001110106                         0000000000000000000000000                                             000113
102021974950001161584870000003760                             82060226131      000                        1421100106                              100106000000000860075641796000000000000270663101110106              0000000000000000000000000000000000000000000000008600000000000000000000000000001110106                         0000000000000000000000000                                             000114
102021974950001161584870000003760                             82060228134      000                        1421100106                              100106000000000860006500016000000000000270663101110106              0000000000000000000000000000000000000000000000008600000000000000000000000000001110106                         0000000000000000000000000                                             000115
102021974950001161584870000003760                             82060229130      000                        1421100106                              100106000000000860006500016000000000000270663101110106              0000000000000000000000000000000000000000000000008600000000000000000000000000001110106                         0000000000000000000000000                                             000116
102021974950001161584870000003760                             82060231135      000                        1421100106                              100106000000000860010421911000000000000125647101110106              0000000000000000000000000000000000000000000000008600000000000000000000000000001110106                         0000000000000000000000000                                             000117
102021974950001161584870000003760                             82060233138      000                        1421100106                              100106000000000860010421911000000000000125647101110106              0000000000000000000000000000000000000000000000008600000000000000000000000000001110106                         0000000000000000000000000                                             000118
102021974950001161584870000003760                             82060234134      000                        1421100106                              100106000000000860006500016000000000000270663101110106              0000000000000000000000000000000000000000000000008600000000000000000000000000001110106                         0000000000000000000000000                                             000119
102021974950001161584870000003760                             82060235130      000                        1421100106                              100106000000000860006500016000000000000270663101110106              0000000000000000000000000000000000000000000000008600000000000000000000000000001110106                         0000000000000000000000000                                             000120
102021974950001161584870000003760                             82060318133      000                        1421100106                              150106000000000860010430171000000000000125647101110106              0000000000000000000000000000000000000000000000008600000000000000000000000000001110106                         0000000000000000000000000                                             000121
102021974950001161584870000003760                             82070111140      000                        1421100106                              100106000000000860023732026000000000000270663101110106              0000000000000000000000000000000000000000000000008600000000000000000000000000001110106                         0000000000000000000000000                                             000122
102021974950001161584870000003760                             82070113143      000                        1421100106                              100106000000000860006500016000000000000270663101110106              0000000000000000000000000000000000000000000000008600000000000000000000000000001110106                         0000000000000000000000000                                             000123
102021974950001161584870000003760                             82070114140      000                        1421100106                              100106000000000860010415830000000000000125647101110106              0000000000000000000000000000000000000000000000008600000000000000000000000000001110106                         0000000000000000000000000                                             000124
102021974950001161584870000003760                             82070127144      000                        1421100106                              100106000000000860023731906000000000000270663101110106              0000000000000000000000000000000000000000000000008600000000000000000000000000001110106                         0000000000000000000000000                                             000125
102021974950001161584870000003760                             82070130145      000                        1421100106                              100106000000000860010415830000000000000125647101110106              0000000000000000000000000000000000000000000000008600000000000000000000000000001110106                         0000000000000000000000000                                             000126
102021974950001161584870000003760                             82070201123      000                        1421100106                              101105000000000860010400450000000000000240655100100106              0000000000000000000000000000000000000000000000009260000000000066000000000000001100106                         0000000000000000000000000                                             000127
102021974950001161584870000003760                             82070201131      000                        1421100106                              101205000000000860010400450000000000000240655100100106              0000000000000000000000000000000000000000000000009020000000000042000000000000001100106                         0000000000000000000000000                                             000128
102021974950001161584870000003760                             82070206141      000                        1421100106                              100106000000000860006500016000000000000270663101110106              0000000000000000000000000000000000000000000000008600000000000000000000000000001110106                         0000000000000000000000000                                             000129
102021974950001161584870000003760                             82070211145      000                        1421100106                              100106000000000860010400450000000000000125647101110106              0000000000000000000000000000000000000000000000008600000000000000000000000000001110106                         0000000000000000000000000                                             000130
102021974950001161584870000003760                             82070213148      000                        1421100106                              100106000000000860006500016000000000000270663101110106              0000000000000000000000000000000000000000000000008600000000000000000000000000001110106                         0000000000000000000000000                                             000131
102021974950001161584870000003760                             82070214144      000                        1421100106                              100106000000000860010409237000000000000125647101110106              0000000000000000000000000000000000000000000000008600000000000000000000000000001110106                         0000000000000000000000000                                             000132
102021974950001161584870000003760                             82070215140      000                        1421100106                              000000000000000860039928996000000000000270663101110106              0000000000000000000000000000000000000000000000008600000000000000000000000000001110106                         0000000000000000000000000                                             000133
102021974950001161584870000003760                             82070217143      000                        1421100106                              100106000000000860010400469000000000000125647101110106              0000000000000000000000000000000000000000000000008600000000000000000000000000001110106                         0000000000000000000000000                                             000134
102021974950001161584870000003760                             82070228145      000                        1421100106                              100106000000000860010410308000000000000125647101110106              0000000000000000000000000000000000000000000000008600000000000000000000000000001110106                         0000000000000000000000000                                             000135
102021974950001161584870000003760                             82070230140      000                        1421100106                              100106000000000860010400477000000000000125647101110106              0000000000000000000000000000000000000000000000008600000000000000000000000000001110106                         0000000000000000000000000                                             000136
102021974950001161584870000003760                             82090102147      000                        1421100106                              100106000000000750075641796000000000000270663101110106              0000000000000000000000000000000000000000000000007500000000000000000000000000001110106                         0000000000000000000000000                                             000137
102021974950001161584870000003760                             82090109141      000                        1421100106                              100106000000000750010400540000000000000125647101110106              0000000000000000000000000000000000000000000000007500000000000000000000000000001110106                         0000000000000000000000000                                             000138
102021974950001161584870000003760                             82090111146      000                        1421100106                              100106000000000750010400540000000000000125647101110106              0000000000000000000000000000000000000000000000007500000000000000000000000000001110106                         0000000000000000000000000                                             000139
102021974950001161584870000003760                             82090118140      000                        1421100106                              100106000000000750010400540000000000000125647101110106              0000000000000000000000000000000000000000000000007500000000000000000000000000001110106                         0000000000000000000000000                                             000140
102021974950001161584870000003760                             82090123144      000                        1421100106                              100106000000000750075641796000000000000270663101110106              0000000000000000000000000000000000000000000000007500000000000000000000000000001110106                         0000000000000000000000000                                             000141
102021974950001161584870000003760                             82090125147      000                        1421100106                              100106000000000750006500016000000000000270663101110106              0000000000000000000000000000000000000000000000007500000000000000000000000000001110106                         0000000000000000000000000                                             000142
102021974950001161584870000003760                             82090127140      000                        1421100106                              100106000000000750002410056000000000000270663101110106              0000000000000000000000000000000000000000000000007500000000000000000000000000001110106                         0000000000000000000000000                                             000143
102021974950001161584870000003760                             82090212147      000                        1421100106                              100106000000000750010400540000000000000125647101110106              0000000000000000000000000000000000000000000000007500000000000000000000000000001110106                         0000000000000000000000000                                             000144
102021974950001161584870000003760                             82090215146      000                        1421100106                              100106000000000750010400540000000000000125647101110106              0000000000000000000000000000000000000000000000007500000000000000000000000000001110106                         0000000000000000000000000                                             000145
102021974950001161584870000003760                             82090218145      000                        1421100106                              100106000000000750010400540000000000000125647101110106              0000000000000000000000000000000000000000000000007500000000000000000000000000001110106                         0000000000000000000000000                                             000146
102021974950001161584870000003760                             82090230145      000                        1421100106                              100106000000000750010400540000000000000125647101110106              0000000000000000000000000000000000000000000000007500000000000000000000000000001110106                         0000000000000000000000000                                             000147
102021974950001161584870000003760                             82090306141      000                        1421100106                              100106000000000750007347476000000000000270663101110106              0000000000000000000000000000000000000000000000007500000000000000000000000000001110106                         0000000000000000000000000                                             000148
102021974950001161584870000003760                             82090310149      000                        1421100106                              100106000000000750010407749000000000000125647101110106              0000000000000000000000000000000000000000000000007500000000000000000000000000001110106                         0000000000000000000000000                                             000149
102021974950001161584870000003760                             82090313148      000                        1421100106                              100106000000000750075641796000000000000270663101110106              0000000000000000000000000000000000000000000000007500000000000000000000000000001110106                         0000000000000000000000000                                             000150
102021974950001161584870000003760                             82090314144      000                        1421100106                              100106000000000750010400540000000000000125647101110106              0000000000000000000000000000000000000000000000007500000000000000000000000000001110106                         0000000000000000000000000                                             000151
102021974950001161584870000003760                             82090322147      000                        1421100106                              100106000000000750010407749000000000000125647101110106              0000000000000000000000000000000000000000000000007500000000000000000000000000001110106                         0000000000000000000000000                                             000152
102021974950001161584870000003760                             82090334145      000                        1421100106                              100106000000000750010407749000000000000125647101110106              0000000000000000000000000000000000000000000000007500000000000000000000000000001110106                         0000000000000000000000000                                             000153
102021974950001161584870000003760                             82090402140      000                        1421100106                              100106000000000750010400540000000000000125647101110106              0000000000000000000000000000000000000000000000007500000000000000000000000000001110106                         0000000000000000000000000                                             000154
102021974950001161584870000003760                             82090406146      000                        1421100106                              100106000000000750010400540000000000000125647101110106              0000000000000000000000000000000000000000000000007500000000000000000000000000001110106                         0000000000000000000000000                                             000155
102021974950001161584870000003760                             82090410143      000                        1421100106                              100106000000000750000122396000000000000270663101110106              0000000000000000000000000000000000000000000000007500000000000000000000000000001110106                         0000000000000000000000000                                             000156
102021974950001161584870000003760                             82090421145      000                        1421100106                              100106000000000750010400540000000000000125647101110106              0000000000000000000000000000000000000000000000007500000000000000000000000000001110106                         0000000000000000000000000                                             000157
102021974950001161584870000003760                             82090426147      000                        1421100106                              100106000000000750010400540000000000000125647101110106              0000000000000000000000000000000000000000000000007500000000000000000000000000001110106                         0000000000000000000000000                                             000158
102021974950001161584870000003760                             82090505144      000                        1421100106                              100106000000000375010408770000000000000125647101110106              0000000000000000000000000000000000000000000000003750000000000000000000000000001110106                         0000000000000000000000000                                             000159
102021974950001161584870000003760                             82090511144      000                        1421100106                              100106000000000375006500016000000000000270663101110106              0000000000000000000000000000000000000000000000003750000000000000000000000000001110106                         0000000000000000000000000                                             000160
102021974950001161584870000003760                             82090512140      000                        1421100106                              100106000000000375010408770000000000000125647101110106              0000000000000000000000000000000000000000000000003750000000000000000000000000001110106                         0000000000000000000000000                                             000161
102021974950001161584870000003760                             82090515140      000                        1421100106                              100106000000000750010408770000000000000125647101110106              0000000000000000000000000000000000000000000000007500000000000000000000000000001110106                         0000000000000000000000000                                             000162
102021974950001161584870000003760                             82090516146      000                        1421100106                              100106000000000375010408770000000000000125647101110106              0000000000000000000000000000000000000000000000003750000000000000000000000000001110106                         0000000000000000000000000                                             000163
102021974950001161584870000003760                             82090608148      000                        1421100106                              100106000000000750010408770000000000000125647101110106              0000000000000000000000000000000000000000000000007500000000000000000000000000001110106                         0000000000000000000000000                                             000164
102021974950001161584870000003760                             82090610142      000                        1421100106                              100106000000000375006500016000000000000270663101110106              0000000000000000000000000000000000000000000000003750000000000000000000000000001110106                         0000000000000000000000000                                             000165
102021974950001161584870000003760                             82090617147      000                        1421100106                              100106000000000375010408770000000000000125647101110106              0000000000000000000000000000000000000000000000003750000000000000000000000000001110106                         0000000000000000000000000                                             000166
102021974950001161584870000003760                             82090618143      000                        1421100106                              100106000000000375006500016000000000000270663101110106              0000000000000000000000000000000000000000000000003750000000000000000000000000001110106                         0000000000000000000000000                                             000167
102021974950001161584870000003760                             82090619140      000                        1421100106                              100106000000000375006500016000000000000270663101110106              0000000000000000000000000000000000000000000000003750000000000000000000000000001110106                         0000000000000000000000000                                             000168
102021974950001161584870000003760                             82090626146      000                        1421100106                              100106000000000375010408770000000000000125647101110106              0000000000000000000000000000000000000000000000003750000000000000000000000000001110106                         0000000000000000000000000                                             000169
102021974950001161584870000003760                             82090628149      000                        1421100106                              100106000000000375006500016000000000000270663101110106              0000000000000000000000000000000000000000000000003750000000000000000000000000001110106                         0000000000000000000000000                                             000170
102021974950001161584870000003760                             82090712140      000                        1421100106                              100106000000000750006500016000000000000270663101110106              0000000000000000000000000000000000000000000000007500000000000000000000000000001110106                         0000000000000000000000000                                             000171
102021974950001161584870000003760                             82090714142      000                        1421100106                              100106000000000750006500016000000000000270663101110106              0000000000000000000000000000000000000000000000007500000000000000000000000000001110106                         0000000000000000000000000                                             000172
102021974950001161584870000003760                             82090715149      000                        1421100106                              100106000000000750010408770000000000000125647101110106              0000000000000000000000000000000000000000000000007500000000000000000000000000001110106                         0000000000000000000000000                                             000173
102021974950001161584870000003760                             82090716145      000                        1421100106                              100106000000000750075641796000000000000270663101110106              0000000000000000000000000000000000000000000000007500000000000000000000000000001110106                         0000000000000000000000000                                             000174
102021974950001161584870000003760                             82090728143      000                        1421100106                              100106000000000750010408770000000000000125647101110106              0000000000000000000000000000000000000000000000007500000000000000000000000000001110106                         0000000000000000000000000                                             000175
102021974950001161584870000003760                             82090729140      000                        1421100106                              100106000000000750010408770000000000000125647101110106              0000000000000000000000000000000000000000000000007500000000000000000000000000001110106                         0000000000000000000000000                                             000176
102021974950001161584870000003760                             82090731144      000                        1421100106                              100106000000000750006500016000000000000270663101110106              0000000000000000000000000000000000000000000000007500000000000000000000000000001110106                         0000000000000000000000000                                             000177
102021974950001161584870000003760                             82090732140      000                        1421100106                              100106000000000750006500016000000000000270663101110106              0000000000000000000000000000000000000000000000007500000000000000000000000000001110106                         0000000000000000000000000                                             000178
102021974950001161584870000003760                             82090904146      000                        1421100106                              100106000000000750010408770000000000000125647101110106              0000000000000000000000000000000000000000000000007500000000000000000000000000001110106                         0000000000000000000000000                                             000179
102021974950001161584870000003760                             82090905142      000                        1421100106                              100106000000000375010412424000000000000125647101110106              0000000000000000000000000000000000000000000000003750000000000000000000000000001110106                         0000000000000000000000000                                             000180
102021974950001161584870000003760                             82090907145      000                        1421100106                              100106000000000375006500016000000000000270663101110106              0000000000000000000000000000000000000000000000003750000000000000000000000000001110106                         0000000000000000000000000                                             000181
102021974950001161584870000003760                             82090908141      000                        1421100106                              100106000000000750010408770000000000000125647101110106              0000000000000000000000000000000000000000000000007500000000000000000000000000001110106                         0000000000000000000000000                                             000182
102021974950001161584870000003760                             82090909148      000                        1421100106                              100106000000000750010408770000000000000125647101110106              0000000000000000000000000000000000000000000000007500000000000000000000000000001110106                         0000000000000000000000000                                             000183
102021974950001161584870000003760                             82090911142      000                        1421100106                              100106000000000375010408770000000000000125647101110106              0000000000000000000000000000000000000000000000003750000000000000000000000000001110106                         0000000000000000000000000                                             000184
102021974950001161584870000003760                             82090919143      000                        1421100106                              100106000000000750010408770000000000000125647101110106              0000000000000000000000000000000000000000000000007500000000000000000000000000001110106                         0000000000000000000000000                                             000185
102021974950001161584870000003760                             82090923140      000                        1421100106                              100106000000000750010408770000000000000125647101110106              0000000000000000000000000000000000000000000000007500000000000000000000000000001110106                         0000000000000000000000000                                             000186
102021974950001161584870000003760                             82090927146      000                        1421100106                              100106000000000375010408770000000000000125647101110106              0000000000000000000000000000000000000000000000003750000000000000000000000000001110106                         0000000000000000000000000                                             000187
102021974950001161584870000003760                             82090930147      000                        1421100106                              100106000000000750010408770000000000000125647101110106              0000000000000000000000000000000000000000000000007500000000000000000000000000001110106                         0000000000000000000000000                                             000188
102021974950001161584870000003760                             82090934142      000                        1421100106                              100106000000000750010408770000000000000125647101110106              0000000000000000000000000000000000000000000000007500000000000000000000000000001110106                         0000000000000000000000000                                             000189
102021974950001161584870000003760                             82090935149      000                        1421100106                              100106000000000750010408770000000000000125647101110106              0000000000000000000000000000000000000000000000007500000000000000000000000000001110106                         0000000000000000000000000                                             000190
102021974950001161584870000003760                             82090937141      000                        1421100106                              100106000000000375010408770000000000000125647101110106              0000000000000000000000000000000000000000000000003750000000000000000000000000001110106                         0000000000000000000000000                                             000191
102021974950001161584870000003760                             82091014144      000                        1421100106                              100106000000000375010408770000000000000125647101110106              0000000000000000000000000000000000000000000000003750000000000000000000000000001110106                         0000000000000000000000000                                             000192
102021974950001161584870000003760                             82091015140      000                        1421100106                              100106000000000375010408770000000000000125647101110106              0000000000000000000000000000000000000000000000003750000000000000000000000000001110106                         0000000000000000000000000                                             000193
102021974950001161584870000003760                             82091025146      000                        1421100106                              100106000000000750010408770000000000000125647101110106              0000000000000000000000000000000000000000000000007500000000000000000000000000001110106                         0000000000000000000000000                                             000194
102021974950001161584870000003760                             82091028145      000                        1421100106                              100106000000000375010408770000000000000125647101110106              0000000000000000000000000000000000000000000000003750000000000000000000000000001110106                         0000000000000000000000000                                             000195
102021974950001161584870000003760                             82091029141      000                        1421100106                              100106000000000375010408770000000000000125647101110106              0000000000000000000000000000000000000000000000003750000000000000000000000000001110106                         0000000000000000000000000                                             000196
102021974950001161584870000003760                             82091033149      000                        1421100106                              100106000000000375006500016000000000000270663101110106              0000000000000000000000000000000000000000000000003750000000000000000000000000001110106                         0000000000000000000000000                                             000197
102021974950001161584870000003760                             82091036148      000                        1421100106                              100106000000000750010408770000000000000125647101110106              0000000000000000000000000000000000000000000000007500000000000000000000000000001110106                         0000000000000000000000000                                             000198
102021974950001161584870000003760                             82091038140      000                        1421100106                              100106000000000750010408770000000000000125647101110106              0000000000000000000000000000000000000000000000007500000000000000000000000000001110106                         0000000000000000000000000                                             000199
102021974950001161584870000003760                             82091111140      000                        1421100106                              100106000000000750010408770000000000000125647101110106              0000000000000000000000000000000000000000000000007500000000000000000000000000001110106                         0000000000000000000000000                                             000200
102021974950001161584870000003760                             82091113142      000                        1421100106                              100106000000000750074500016000000000000270663101110106              0000000000000000000000000000000000000000000000007500000000000000000000000000001110106                         0000000000000000000000000                                             000201
102021974950001161584870000003760                             82091119140      000                        1421100106                              100106000000000750010400540000000000000125647101110106              0000000000000000000000000000000000000000000000007500000000000000000000000000001110106                         0000000000000000000000000                                             000202
102021974950001161584870000003760                             82091121145      000                        1421100106                              100106000000000750010408770000000000000125647101110106              0000000000000000000000000000000000000000000000007500000000000000000000000000001110106                         0000000000000000000000000                                             000203
102021974950001161584870000003760                             82091201149      000                        1421100106                              100106000000000750010400540000000000000125647101110106              0000000000000000000000000000000000000000000000007500000000000000000000000000001110106                         0000000000000000000000000                                             000204
102021974950001161584870000003760                             82091205144      000                        1421100106                              100106000000000750010400540000000000000125647101110106              0000000000000000000000000000000000000000000000007500000000000000000000000000001110106                         0000000000000000000000000                                             000205
102021974950001161584870000003760                             82091207147      000                        1421100106                              100106000000000750010400540000000000000125647101110106              0000000000000000000000000000000000000000000000007500000000000000000000000000001110106                         0000000000000000000000000                                             000206
102021974950001161584870000003760                             82091210148      000                        1421100106                              100106000000000750010400540000000000000125647101110106              0000000000000000000000000000000000000000000000007500000000000000000000000000001110106                         0000000000000000000000000                                             000207
102021974950001161584870000003760                             82091211144      000                        1421100106                              100106000000000750010400540000000000000125647101110106              0000000000000000000000000000000000000000000000007500000000000000000000000000001110106                         0000000000000000000000000                                             000208
102021974950001161584870000003760                             82091217142      000                        1421100106                              100106000000000750010400540000000000000125647101110106              0000000000000000000000000000000000000000000000007500000000000000000000000000001110106                         0000000000000000000000000                                             000209
102021974950001161584870000003760                             82091218149      000                        1421100106                              100106000000000750010400540000000000000125647101110106              0000000000000000000000000000000000000000000000007500000000000000000000000000001110106                         0000000000000000000000000                                             000210
102021974950001161584870000003760                             82091219145      000                        1421100106                              100106000000000750010400540000000000000125647101110106              0000000000000000000000000000000000000000000000007500000000000000000000000000001110106                         0000000000000000000000000                                             000211
102021974950001161584870000003760                             82091220143      000                        1421100106                              100106000000000750010400540000000000000125647101110106              0000000000000000000000000000000000000000000000007500000000000000000000000000001110106                         0000000000000000000000000                                             000212
102021974950001161584870000003760                             82110116130      000                        1421100106                              100106000000000750010407765000000000000125647101110106              0000000000000000000000000000000000000000000000007500000000000000000000000000001110106                         0000000000000000000000000                                             000213
102021974950001161584870000003760                             82110118132      000                        1421100106                              100106000000000750010407765000000000000125647101110106              0000000000000000000000000000000000000000000000007500000000000000000000000000001110106                         0000000000000000000000000                                             000214
102021974950001161584870000003760                             82110122130      000                        1421100106                              100106000000000750010407765000000000000125647101110106              0000000000000000000000000000000000000000000000007500000000000000000000000000001110106                         0000000000000000000000000                                             000215
102021974950001161584870000003760                             82110124132      000                        1421100106                              100106000000000750010407765000000000000125647101110106              0000000000000000000000000000000000000000000000007500000000000000000000000000001110106                         0000000000000000000000000                                             000216
102021974950001161584870000003760                             82110201137      000                        1421100106                              100106000000000450010407765000000000000125620101110106              0000000000000000000000000000000000000000000000004500000000000000000000000000001110106                         0000000000000000000000000                                             000217
102021974950001161584870000003760                             82110202133      000                        1421100106                              100106000000000450007347476000000000000270663101110106              0000000000000000000000000000000000000000000000004500000000000000000000000000001110106                         0000000000000000000000000                                             000218
102021974950001161584870000003760                             82110207135      000                        1421100106                              100106000000000450006500016000000000000270663101110106              0000000000000000000000000000000000000000000000004500000000000000000000000000001110106                         0000000000000000000000000                                             000219
102021974950001161584870000003760                             82110209138      000                        1421100106                              100106000000000450010407765000000000000125647101110106              0000000000000000000000000000000000000000000000004500000000000000000000000000001110106                         0000000000000000000000000                                             000220
102021974950001161584870000003760                             82110211132      000                        1421100106                              100106000000000450010407765000000000000125620101110106              0000000000000000000000000000000000000000000000004500000000000000000000000000001110106                         0000000000000000000000000                                             000221
102021974950001161584870000003760                             82110214131      000                        1421100106                              100106000000000450010407765000000000000125647101110106              0000000000000000000000000000000000000000000000004500000000000000000000000000001110106                         0000000000000000000000000                                             000222
102021974950001161584870000003760                             82110217130      000                        1421100106                              100106000000000450010407765000000000000125620101110106              0000000000000000000000000000000000000000000000004500000000000000000000000000001110106                         0000000000000000000000000                                             000223
102021974950001161584870000003760                             82110218137      000                        1421100106                              100106000000000450010407765000000000000125620101110106              0000000000000000000000000000000000000000000000004500000000000000000000000000001110106                         0000000000000000000000000                                             000224
102021974950001161584870000003760                             82110224137      000                        1421100106                              100106000000000450010407765000000000000125620101110106              0000000000000000000000000000000000000000000000004500000000000000000000000000001110106                         0000000000000000000000000                                             000225
102021974950001161584870000003760                             82110303134      000                        1421100106                              100106000000000860000108706000000000000270663101110106              0000000000000000000000000000000000000000000000008600000000000000000000000000001110106                         0000000000000000000000000                                             000226
102021974950001161584870000003760                             82110305137      000                        1421100106                              100106000000000860010407765000000000000125647101110106              0000000000000000000000000000000000000000000000008600000000000000000000000000001110106                         0000000000000000000000000                                             000227
102021974950001161584870000003760                             82110308136      000                        1421100106                              100106000000000860010407765000000000000125647101110106              0000000000000000000000000000000000000000000000008600000000000000000000000000001110106                         0000000000000000000000000                                             000228
102021974950001161584870000003760                             82110311137      000                        1421100106                              100106000000000860010407765000000000000125647101110106              0000000000000000000000000000000000000000000000008600000000000000000000000000001110106                         0000000000000000000000000                                             000229
102021974950001161584870000003760                             82110317135      000                        1421100106                              100106000000000860006500016000000000000270663101110106              0000000000000000000000000000000000000000000000008600000000000000000000000000001110106                         0000000000000000000000000                                             000230
102021974950001161584870000003760                             82110327130      000                        1421100106                              100106000000000860006500016000000000000270663101110106              0000000000000000000000000000000000000000000000008600000000000000000000000000001110106                         0000000000000000000000000                                             000231
102021974950001161584870000003760                             82110329133      000                        1421100106                              100106000000000860010407765000000000000125647101110106              0000000000000000000000000000000000000000000000008600000000000000000000000000001110106                         0000000000000000000000000                                             000232
102021974950001161584870000003760                             82110335133      000                        1421100106                              100106000000000860010407765000000000000125647101110106              0000000000000000000000000000000000000000000000008600000000000000000000000000001110106                         0000000000000000000000000                                             000233
102021974950001161584870000003760                             82110414130      000                        1421100106                              200106000000000750000120676000000000000270663101110106              0000000000000000000000000000000000000000000000007500000000000000000000000000001110106                         0000000000000000000000000                                             000234
102021974950001161584870000003760                             82120113141      000                        1421100106                              100106000000000650010421245000000000000125647101110106              0000000000000000000000000000000000000000000000006500000000000000000000000000001110106                         0000000000000000000000000                                             000235
102021974950001161584870000003760                             82120117147      000                        1421100106                              100106000000000650010421245000000000000125647101110106              0000000000000000000000000000000000000000000000006500000000000000000000000000001110106                         0000000000000000000000000                                             000236
102021974950001161584870000003760                             82120118143      000                        1421100106                              100106000000000650010421245000000000000125647101110106              0000000000000000000000000000000000000000000000006500000000000000000000000000001110106                         0000000000000000000000000                                             000237
102021974950001161584870000003760                             82120128149      000                        1421100106                              100106000000000650006500016000000000000270663101110106              0000000000000000000000000000000000000000000000006500000000000000000000000000001110106                         0000000000000000000000000                                             000238
102021974950001161584870000003760                             82120129145      000                        1421100106                              100106000000000650010421245000000000000125647101110106              0000000000000000000000000000000000000000000000006500000000000000000000000000001110106                         0000000000000000000000000                                             000239
102021974950001161584870000003760                             82120135145      000                        1421100106                              100106000000000650010421245000000000000125647101110106              0000000000000000000000000000000000000000000000006500000000000000000000000000001110106                         0000000000000000000000000                                             000240
102021974950001161584870000003760                             82130105150      000                        1421100106                              100106000000000860006500016000000000000270663101110106              0000000000000000000000000000000000000000000000008600000000000000000000000000001110106                         0000000000000000000000000                                             000241
102021974950001161584870000003760                             82130106156      000                        1421100106                              100106000000000860010409148000000000000125647101110106              0000000000000000000000000000000000000000000000008600000000000000000000000000001110106                         0000000000000000000000000                                             000242
102021974950001161584870000003760                             82130119150      000                        1421100106                              100106000000000860006500016000000000000270663101110106              0000000000000000000000000000000000000000000000008600000000000000000000000000001110106                         0000000000000000000000000                                             000243
102021974950001161584870000003760                             82130121155      000                        1421100106                              100106000000000860010409148000000000000125647101110106              0000000000000000000000000000000000000000000000008600000000000000000000000000001110106                         0000000000000000000000000                                             000244
102021974950001161584870000003760                             82130124154      000                        1421100106                              100106000000000860010409148000000000000125647101110106              0000000000000000000000000000000000000000000000008600000000000000000000000000001110106                         0000000000000000000000000                                             000245
102021974950001161584870000003760                             82130125150      000                        1421100106                              100106000000000860023705866000000000000270663101110106              0000000000000000000000000000000000000000000000008600000000000000000000000000001110106                         0000000000000000000000000                                             000246
102021974950001161584870000003760                             82130126157      000                        1421100106                              100106000000000860006500016000000000000270663101110106              0000000000000000000000000000000000000000000000008600000000000000000000000000001110106                         0000000000000000000000000                                             000247
102021974950001161584870000003760                             82130127153      000                        1421100106                              100106000000000860002411246000000000000270663101110106              0000000000000000000000000000000000000000000000008600000000000000000000000000001110106                         0000000000000000000000000                                             000248
