02RETORNO01COBRANCA       1584870000003760    IPAD                          104C ECON FEDERAL 100806                                                                                                                                                                                                                                                                                                 00264000001
102021974950001161584870000003760                             82000046129      000                        1421100806                              000000000000000760000139246000000000000270663101110806              0000000000000000000000000000000000000000000000007600000000000000000000000000001110806                         0000000000000000000000000                                             000002
102021974950001161584870000003760                             82000046153      000                        1421100806                              000000000000000760010421245000000000000125647101110806              0000000000000000000000000000000000000000000000007600000000000000000000000000001110806                         0000000000000000000000000                                             000003
102021974950001161584870000003760                             82000046188      000                        1421100806                              000000000000000760010421245000000000000125647101110806              0000000000000000000000000000000000000000000000007600000000000000000000000000001110806                         0000000000000000000000000                                             000004
102021974950001161584870000003760                             82000046234      000                        1421100806                              000000000000000760010421245000000000000125647101110806              0000000000000000000000000000000000000000000000007600000000000000000000000000001110806                         0000000000000000000000000                                             000005
102021974950001161584870000003760                             82000046277      000                        1421100806                              000000000000000760023721166000000000000270663101110806              0000000000000000000000000000000000000000000000007600000000000000000000000000001110806                         0000000000000000000000000                                             000006
102021974950001161584870000003760                             82000046293      000                        1421100806                              000000000000000760010421245000000000000125647101110806              0000000000000000000000000000000000000000000000007600000000000000000000000000001110806                         0000000000000000000000000                                             000007
102021974950001161584870000003760                             82000046374      000                        1421100806                              000000000000000760039928996000000000000270663101110806              0000000000000000000000000000000000000000000000007600000000000000000000000000001110806                         0000000000000000000000000                                             000008
102021974950001161584870000003760                             82000046390      000                        1421100806                              000000000000000760010421245000000000000125647101110806              0000000000000000000000000000000000000000000000007600000000000000000000000000001110806                         0000000000000000000000000                                             000009
102021974950001161584870000003760                             82010305135      000                        1421100806                              100806000000000660010409148000000000000125647101110806              0000000000000000000000000000000000000000000000006600000000000000000000000000001110806                         0000000000000000000000000                                             000010
102021974950001161584870000003760                             82010307138      000                        1421100806                              100806000000000660006500016000000000000270663101110806              0000000000000000000000000000000000000000000000006600000000000000000000000000001110806                         0000000000000000000000000                                             000011
102021974950001161584870000003760                             82010315130      000                        1421100806                              100806000000000660000110606000000000000270663101110806              0000000000000000000000000000000000000000000000006600000000000000000000000000001110806                         0000000000000000000000000                                             000012
102021974950001161584870000003760                             82010319136      000                        1421100806                              100806000000000660010409148000000000000125647101110806              0000000000000000000000000000000000000000000000006600000000000000000000000000001110806                         0000000000000000000000000                                             000013
102021974950001161584870000003760                             82010327139      000                        1421100806                              100806000000000660010409148000000000000125647101110806              0000000000000000000000000000000000000000000000006600000000000000000000000000001110806                         0000000000000000000000000                                             000014
102021974950001161584870000003760                             82030203133      000                        1421100806                              100806000000000760010409156000000000000125647101110806              0000000000000000000000000000000000000000000000007600000000000000000000000000001110806                         0000000000000000000000000                                             000015
102021974950001161584870000003760                             82030209131      000                        1421100806                              100806000000000760006500016000000000000270663101110806              0000000000000000000000000000000000000000000000007600000000000000000000000000001110806                         0000000000000000000000000                                             000016
102021974950001161584870000003760                             82030222138      000                        1421100806                              100806000000000760010409156000000000000125647101110806              0000000000000000000000000000000000000000000000007600000000000000000000000000001110806                         0000000000000000000000000                                             000017
102021974950001161584870000003760                             82030223134      000                        1421100806                              100806000000000760010409156000000000000125647101110806              0000000000000000000000000000000000000000000000007600000000000000000000000000001110806                         0000000000000000000000000                                             000018
102021974950001161584870000003760                             82030224114      000                        1421100806                              100606000000000760010409156000000000000125647101110806              0000000000000000000000000000000000000000000000008215000000000061500000000000001110806                         0000000000000000000000000                                             000019
102021974950001161584870000003760                             82030224122      000                        1421100806                              100706000000000760010409156000000000000125647101110806              0000000000000000000000000000000000000000000000007987000000000038700000000000001110806                         0000000000000000000000000                                             000020
102021974950001161584870000003760                             82030225137      000                        1421100806                              100806000000000760074822066000000000000270663101110806              0000000000000000000000000000000000000000000000007600000000000000000000000000001110806                         0000000000000000000000000                                             000021
102021974950001161584870000003760                             82030233130      000                        1421100806                              100806000000000760010409156000000000000125647101110806              0000000000000000000000000000000000000000000000007600000000000000000000000000001110806                         0000000000000000000000000                                             000022
102021974950001161584870000003760                             82030407154      000                        1421100806                              100806000000000760010407757000000000000125647101110806              0000000000000000000000000000000000000000000000007600000000000000000000000000001110806                         0000000000000000000000000                                             000023
102021974950001161584870000003760                             82030415157      000                        1421100806                              100806000000000760010407757000000000000125647101110806              0000000000000000000000000000000000000000000000007600000000000000000000000000001110806                         0000000000000000000000000                                             000024
102021974950001161584870000003760                             82030430156      000                        1421100806                              100806000000000760010407757000000000000125647101110806              0000000000000000000000000000000000000000000000007600000000000000000000000000001110806                         0000000000000000000000000                                             000025
102021974950001161584870000003760                             82030431152      000                        1421100806                              100806000000000760006500016000000000000270663101110806              0000000000000000000000000000000000000000000000007600000000000000000000000000001110806                         0000000000000000000000000                                             000026
102021974950001161584870000003760                             82030522123      000                        1421100806                              150806000000000760010409148000000000000125620101110806              0000000000000000000000000000000000000000000000007600000000000000000000000000001110806                         0000000000000000000000000                                             000027
102021974950001161584870000003760                             82030546120      000                        1421100806                              150806000000000760006500016000000000000270663101110806              0000000000000000000000000000000000000000000000007600000000000000000000000000001110806                         0000000000000000000000000                                             000028
102021974950001161584870000003760                             82030701117      000                        1421100806                              100806000000000760010409148000000000000125647101110806              0000000000000000000000000000000000000000000000007600000000000000000000000000001110806                         0000000000000000000000000                                             000029
102021974950001161584870000003760                             82030710116      000                        1421100806                              100806000000000760010409148000000000000125647101110806              0000000000000000000000000000000000000000000000007600000000000000000000000000001110806                         0000000000000000000000000                                             000030
102021974950001161584870000003760                             82030713115      000                        1421100806                              100806000000000760010409148000000000000125647101110806              0000000000000000000000000000000000000000000000007600000000000000000000000000001110806                         0000000000000000000000000                                             000031
102021974950001161584870000003760                             82030714111      000                        1421100806                              100806000000000760010409148000000000000125647101110806              0000000000000000000000000000000000000000000000007600000000000000000000000000001110806                         0000000000000000000000000                                             000032
102021974950001161584870000003760                             82030718117      000                        1421100806                              100806000000000760010409148000000000000125647101110806              0000000000000000000000000000000000000000000000007600000000000000000000000000001110806                         0000000000000000000000000                                             000033
102021974950001161584870000003760                             82030721118      000                        1421100806                              100806000000000760035610386000000000000270663101110806              0000000000000000000000000000000000000000000000007600000000000000000000000000001110806                         0000000000000000000000000                                             000034
102021974950001161584870000003760                             82030722114      000                        1421100806                              100806000000000760000111126000000000000270663101110806              0000000000000000000000000000000000000000000000007600000000000000000000000000001110806                         0000000000000000000000000                                             000035
102021974950001161584870000003760                             82030727116      000                        1421100806                              100806000000000760010409148000000000000125647101110806              0000000000000000000000000000000000000000000000007600000000000000000000000000001110806                         0000000000000000000000000                                             000036
102021974950001161584870000003760                             82030730117      000                        1421100806                              000000000000000760039928996000000000000270663101110806              0000000000000000000000000000000000000000000000007600000000000000000000000000001110806                         0000000000000000000000000                                             000037
102021974950001161584870000003760                             82030731113      000                        1421100806                              100806000000000760035610386000000000000270663101110806              0000000000000000000000000000000000000000000000007600000000000000000000000000001110806                         0000000000000000000000000                                             000038
102021974950001161584870000003760                             82030732110      000                        1421100806                              100806000000000760007347476000000000000270663101110806              0000000000000000000000000000000000000000000000007600000000000000000000000000001110806                         0000000000000000000000000                                             000039
102021974950001161584870000003760                             82030736115      000                        1421100806                              000000000000000760039928996000000000000270663101110806              0000000000000000000000000000000000000000000000007600000000000000000000000000001110806                         0000000000000000000000000                                             000040
102021974950001161584870000003760                             82030903127      000                        1421100806                              100806000000000760010407757000000000000125647101110806              0000000000000000000000000000000000000000000000007600000000000000000000000000001110806                         0000000000000000000000000                                             000041
102021974950001161584870000003760                             82030909125      000                        1421100806                              100806000000000760074500016000000000000270663101110806              0000000000000000000000000000000000000000000000007600000000000000000000000000001110806                         0000000000000000000000000                                             000042
102021974950001161584870000003760                             82030916121      000                        1421100806                              100806000000000760010407757000000000000125647101110806              0000000000000000000000000000000000000000000000007600000000000000000000000000001110806                         0000000000000000000000000                                             000043
102021974950001161584870000003760                             82030928120      000                        1421100806                              100806000000000760074500016000000000000270663101110806              0000000000000000000000000000000000000000000000007600000000000000000000000000001110806                         0000000000000000000000000                                             000044
102021974950001161584870000003760                             82040302177      000                        1421100806                              100406000000000360010415830000000000000240655100100806              0000000000000000000000000000000000000000000000004111000000000051100000000000001100806                         0000000000000000000000000                                             000045
102021974950001161584870000003760                             82040641141      000                        1421100806                              100806000000006020000122446000000000000270663101110806              0000000000000000000000000000000000000000000000060200000000000000000000000000001110806                         0000000000000000000000000                                             000046
102021974950001161584870000003760                             82060402126      000                        1421100806                              100806000000000760010410308000000000000125647101110806              0000000000000000000000000000000000000000000000007600000000000000000000000000001110806                         0000000000000000000000000                                             000047
102021974950001161584870000003760                             82060404129      000                        1421100806                              100806000000000760006500016000000000000270663101110806              0000000000000000000000000000000000000000000000007600000000000000000000000000001110806                         0000000000000000000000000                                             000048
102021974950001161584870000003760                             82060407128      000                        1421100806                              000000000000000760039928996000000000000270663101110806              0000000000000000000000000000000000000000000000007600000000000000000000000000001110806                         0000000000000000000000000                                             000049
102021974950001161584870000003760                             82060408124      000                        1421100806                              100806000000000760010430171000000000000240655100100806              0000000000000000000000000000000000000000000000007600000000000000000000000000001100806                         0000000000000000000000000                                             000050
102021974950001161584870000003760                             82060411125      000                        1421100806                              100806000000000760035610596000000000000270663101110806              0000000000000000000000000000000000000000000000007600000000000000000000000000001110806                         0000000000000000000000000                                             000051
102021974950001161584870000003760                             82060412121      000                        1421100806                              100806000000000760006500016000000000000270663101110806              0000000000000000000000000000000000000000000000007600000000000000000000000000001110806                         0000000000000000000000000                                             000052
102021974950001161584870000003760                             82060414124      000                        1421100806                              000000000000000760039928996000000000000270663101110806              0000000000000000000000000000000000000000000000007600000000000000000000000000001110806                         0000000000000000000000000                                             000053
102021974950001161584870000003760                             82060418120      000                        1421100806                              100806000000000760010430171000000000000240655100100806              0000000000000000000000000000000000000000000000007600000000000000000000000000001100806                         0000000000000000000000000                                             000054
102021974950001161584870000003760                             82060516113      000                        1421100806                              150706000000000760010421938000000000000125647101110806              0000000000000000000000000000000000000000000000007949000000000034900000000000001110806                         0000000000000000000000000                                             000055
102021974950001161584870000003760                             82060521125      000                        1421100806                              100806000000000760000116206000000000000270663101110806              0000000000000000000000000000000000000000000000007600000000000000000000000000001110806                         0000000000000000000000000                                             000056
102021974950001161584870000003760                             82060717151      000                        1421100806                              150806000000000860000118386000000000000270663101110806              0000000000000000000000000000000000000000000000008600000000000000000000000000001110806                         0000000000000000000000000                                             000057
102021974950001161584870000003760                             82060925129      000                        1421100806                              100806000000000760023715996000000000000270663101110806              0000000000000000000000000000000000000000000000007600000000000000000000000000001110806                         0000000000000000000000000                                             000058
102021974950001161584870000003760                             82071205122      000                        1421100806                              100806000000000760010400450000000000000125647101110806              0000000000000000000000000000000000000000000000007600000000000000000000000000001110806                         0000000000000000000000000                                             000059
102021974950001161584870000003760                             82071215128      000                        1421100806                              100806000000000760010410308000000000000125647101110806              0000000000000000000000000000000000000000000000007600000000000000000000000000001110806                         0000000000000000000000000                                             000060
102021974950001161584870000003760                             82071219123      000                        1421100806                              100806000000000760010400485000000000000125647101110806              0000000000000000000000000000000000000000000000007600000000000000000000000000001110806                         0000000000000000000000000                                             000061
102021974950001161584870000003760                             82071227126      000                        1421100806                              100806000000000760010400485000000000000125647101110806              0000000000000000000000000000000000000000000000007600000000000000000000000000001110806                         0000000000000000000000000                                             000062
102021974950001161584870000003760                             82071232120      000                        1421100806                              100806000000000760035601246000000000000270663101110806              0000000000000000000000000000000000000000000000007600000000000000000000000000001110806                         0000000000000000000000000                                             000063
102021974950001161584870000003760                             82110725144      000                        1421100806                              250706000000000750010407765000000000000125647101110806              0000000000000000000000000000000000000000000000007778000000000027800000000000001110806                         0000000000000000000000000                                             000064
9201104                                                                                                                                                                                                                                                                                                                                                                                                   000065
