02RETORNO01COBRANCA       1584870000003760    IPAD                          104C ECON FEDERAL 121205                                                                                                                                                                                                                                                                                                 00098000001
102021974950001161584870000003760                             82010101122      000                        1421121205                              101205000000000375000105706000000000000270663101131205              0000000000000000000000000000000000000000000000003750000000000000000000000000001131205                         0000000000000000000000000                                             000002
102021974950001161584870000003760                             82010102129      000                        1421121205                              101205000000000375010414338000000000000125647101131205              0000000000000000000000000000000000000000000000003750000000000000000000000000001131205                         0000000000000000000000000                                             000003
102021974950001161584870000003760                             82010112124      000                        1421121205                              101205000000000750006500016000000000000270663101131205              0000000000000000000000000000000000000000000000007500000000000000000000000000001131205                         0000000000000000000000000                                             000004
102021974950001161584870000003760                             82010116120      000                        1421121205                              101205000000000750007347476000000000000270663101131205              0000000000000000000000000000000000000000000000007500000000000000000000000000001131205                         0000000000000000000000000                                             000005
102021974950001161584870000003760                             82010117126      000                        1421121205                              101205000000000750000121296000000000000270663101131205              0000000000000000000000000000000000000000000000007500000000000000000000000000001131205                         0000000000000000000000000                                             000006
102021974950001161584870000003760                             82010118122      000                        1421121205                              101205000000000375000105706000000000000270663101131205              0000000000000000000000000000000000000000000000003750000000000000000000000000001131205                         0000000000000000000000000                                             000007
102021974950001161584870000003760                             82010120127      000                        1421121205                              101205000000000750010414338000000000000125647101131205              0000000000000000000000000000000000000000000000007500000000000000000000000000001131205                         0000000000000000000000000                                             000008
102021974950001161584870000003760                             82010121123      000                        1421121205                              101205000000000750010414338000000000000125647101131205              0000000000000000000000000000000000000000000000007500000000000000000000000000001131205                         0000000000000000000000000                                             000009
102021974950001161584870000003760                             82010124122      000                        1421121205                              101205000000000750000105706000000000000270663101131205              0000000000000000000000000000000000000000000000007500000000000000000000000000001131205                         0000000000000000000000000                                             000010
102021974950001161584870000003760                             82010125129      000                        1421121205                              101205000000000750006500016000000000000270663101131205              0000000000000000000000000000000000000000000000007500000000000000000000000000001131205                         0000000000000000000000000                                             000011
102021974950001161584870000003760                             82010129124      000                        1421121205                              101205000000000750000121296000000000000270663101131205              0000000000000000000000000000000000000000000000007500000000000000000000000000001131205                         0000000000000000000000000                                             000012
102021974950001161584870000003760                             82010130122      000                        1421121205                              101205000000000750000105706000000000000270663101131205              0000000000000000000000000000000000000000000000007500000000000000000000000000001131205                         0000000000000000000000000                                             000013
102021974950001161584870000003760                             82010133172      000                        1421121205                              100506000000000750000105706000000000000270663101131205              0000000000000000000000000000000000000000000000007500000000000000000000000000001131205                         0000000000000000000000000                                             000014
102021974950001161584870000003760                             82010135140      000                        1421121205                              100206000000000750006500016000000000000270663101131205              0000000000000000000000000000000000000000000000007500000000000000000000000000001131205                         0000000000000000000000000                                             000015
102021974950001161584870000003760                             82010138123      000                        1421121205                              101205000000002625000105706000000000000270663101131205              0000000000000000000000000000000000000000000000026250000000000000000000000000001131205                         0000000000000000000000000                                             000016
102021974950001161584870000003760                             82010204126      000                        1421121205                              101205000000000420000117546000000000000270663101131205              0000000000000000000000000000000000000000000000004200000000000000000000000000001131205                         0000000000000000000000000                                             000017
102021974950001161584870000003760                             82010210126      000                        1421121205                              101205000000000420010414338000000000000125647101131205              0000000000000000000000000000000000000000000000004200000000000000000000000000001131205                         0000000000000000000000000                                             000018
102021974950001161584870000003760                             82010213125      000                        1421121205                              101205000000000750023725426000000000000270663101131205              0000000000000000000000000000000000000000000000007500000000000000000000000000001131205                         0000000000000000000000000                                             000019
102021974950001161584870000003760                             82010214121      000                        1421121205                              101205000000000420000117546000000000000270663101131205              0000000000000000000000000000000000000000000000004200000000000000000000000000001131205                         0000000000000000000000000                                             000020
102021974950001161584870000003760                             82010215128      000                        1421121205                              101205000000000750010414338000000000000125620101131205              0000000000000000000000000000000000000000000000007500000000000000000000000000001131205                         0000000000000000000000000                                             000021
102021974950001161584870000003760                             82010216124      000                        1421121205                              101205000000000750010414338000000000000125620101131205              0000000000000000000000000000000000000000000000007500000000000000000000000000001131205                         0000000000000000000000000                                             000022
102021974950001161584870000003760                             82010218127      000                        1421121205                              101205000000000420000117546000000000000270663101131205              0000000000000000000000000000000000000000000000004200000000000000000000000000001131205                         0000000000000000000000000                                             000023
102021974950001161584870000003760                             82010219123      000                        1421121205                              101205000000000420010414338000000000000125647101131205              0000000000000000000000000000000000000000000000004200000000000000000000000000001131205                         0000000000000000000000000                                             000024
102021974950001161584870000003760                             82010225123      000                        1421121205                              101205000000000420010414338000000000000125647101131205              0000000000000000000000000000000000000000000000004200000000000000000000000000001131205                         0000000000000000000000000                                             000025
102021974950001161584870000003760                             82010226120      000                        1421121205                              101205000000000420010414338000000000000125647101131205              0000000000000000000000000000000000000000000000004200000000000000000000000000001131205                         0000000000000000000000000                                             000026
102021974950001161584870000003760                             82010227126      000                        1421121205                              101205000000000420010414338000000000000125647101131205              0000000000000000000000000000000000000000000000004200000000000000000000000000001131205                         0000000000000000000000000                                             000027
102021974950001161584870000003760                             82030102124      000                        1421121205                              101205000000000750010424465000000000000240655100121205              0000000000000000000000000000000000000000000000007500000000000000000000000000001121205                         0000000000000000000000000                                             000028
102021974950001161584870000003760                             82030103120      000                        1421121205                              101205000000000750010424465000000000000240655100121205              0000000000000000000000000000000000000000000000007500000000000000000000000000001121205                         0000000000000000000000000                                             000029
102021974950001161584870000003760                             82030104127      000                        1421121205                              101205000000000750010424465000000000000125647101131205              0000000000000000000000000000000000000000000000007500000000000000000000000000001131205                         0000000000000000000000000                                             000030
102021974950001161584870000003760                             82030106120      000                        1421121205                              101205000000000750010424465000000000000125647101131205              0000000000000000000000000000000000000000000000007500000000000000000000000000001131205                         0000000000000000000000000                                             000031
102021974950001161584870000003760                             82030107126      000                        1421121205                              101205000000000750010424465000000000000125647101131205              0000000000000000000000000000000000000000000000007500000000000000000000000000001131205                         0000000000000000000000000                                             000032
102021974950001161584870000003760                             82030108122      000                        1421121205                              101205000000000750010424465000000000000240655100121205              0000000000000000000000000000000000000000000000007500000000000000000000000000001121205                         0000000000000000000000000                                             000033
102021974950001161584870000003760                             82030109129      000                        1421121205                              101205000000000750010424465000000000000125647101131205              0000000000000000000000000000000000000000000000007500000000000000000000000000001131205                         0000000000000000000000000                                             000034
102021974950001161584870000003760                             82030110127      000                        1421121205                              101205000000000750010409156000000000000240655100121205              0000000000000000000000000000000000000000000000007500000000000000000000000000001121205                         0000000000000000000000000                                             000035
102021974950001161584870000003760                             82030111123      000                        1421121205                              101205000000000750010424465000000000000240655100121205              0000000000000000000000000000000000000000000000007500000000000000000000000000001121205                         0000000000000000000000000                                             000036
102021974950001161584870000003760                             82030112120      000                        1421121205                              101205000000000750010424465000000000000125647101131205              0000000000000000000000000000000000000000000000007500000000000000000000000000001131205                         0000000000000000000000000                                             000037
102021974950001161584870000003760                             82030114122      000                        1421121205                              101205000000000750010424465000000000000125647101131205              0000000000000000000000000000000000000000000000007500000000000000000000000000001131205                         0000000000000000000000000                                             000038
102021974950001161584870000003760                             82030115129      000                        1421121205                              101205000000000750010424465000000000000125647101131205              0000000000000000000000000000000000000000000000007500000000000000000000000000001131205                         0000000000000000000000000                                             000039
102021974950001161584870000003760                             82030117121      000                        1421121205                              101205000000000750010424465000000000000125647101131205              0000000000000000000000000000000000000000000000007500000000000000000000000000001131205                         0000000000000000000000000                                             000040
102021974950001161584870000003760                             82030118128      000                        1421121205                              101205000000000750010424465000000000000125647101131205              0000000000000000000000000000000000000000000000007500000000000000000000000000001131205                         0000000000000000000000000                                             000041
102021974950001161584870000003760                             82030120122      000                        1421121205                              101205000000000750010424465000000000000125647101131205              0000000000000000000000000000000000000000000000007500000000000000000000000000001131205                         0000000000000000000000000                                             000042
102021974950001161584870000003760                             82030121129      000                        1421121205                              101205000000000750010424465000000000000125647101131205              0000000000000000000000000000000000000000000000007500000000000000000000000000001131205                         0000000000000000000000000                                             000043
102021974950001161584870000003760                             82030122125      000                        1421121205                              101205000000000750010424465000000000000125647101131205              0000000000000000000000000000000000000000000000007500000000000000000000000000001131205                         0000000000000000000000000                                             000044
102021974950001161584870000003760                             82030123121      000                        1421121205                              101205000000000750010424465000000000000125647101131205              0000000000000000000000000000000000000000000000007500000000000000000000000000001131205                         0000000000000000000000000                                             000045
102021974950001161584870000003760                             82030124128      000                        1421121205                              101205000000000750010424465000000000000125647101131205              0000000000000000000000000000000000000000000000007500000000000000000000000000001131205                         0000000000000000000000000                                             000046
102021974950001161584870000003760                             82030125124      000                        1421121205                              101205000000000750010424465000000000000240655100121205              0000000000000000000000000000000000000000000000007500000000000000000000000000001121205                         0000000000000000000000000                                             000047
102021974950001161584870000003760                             82030126120      000                        1421121205                              101205000000000750010424465000000000000125647101131205              0000000000000000000000000000000000000000000000007500000000000000000000000000001131205                         0000000000000000000000000                                             000048
102021974950001161584870000003760                             82030127127      000                        1421121205                              101205000000000750010424465000000000000240655100121205              0000000000000000000000000000000000000000000000007500000000000000000000000000001121205                         0000000000000000000000000                                             000049
102021974950001161584870000003760                             82030128123      000                        1421121205                              101205000000000750010424465000000000000125647101131205              0000000000000000000000000000000000000000000000007500000000000000000000000000001131205                         0000000000000000000000000                                             000050
102021974950001161584870000003760                             82030131124      000                        1421121205                              101205000000000750010424465000000000000240655100121205              0000000000000000000000000000000000000000000000007500000000000000000000000000001121205                         0000000000000000000000000                                             000051
102021974950001161584870000003760                             82030133127      000                        1421121205                              101205000000000750010424465000000000000240655100121205              0000000000000000000000000000000000000000000000007500000000000000000000000000001121205                         0000000000000000000000000                                             000052
102021974950001161584870000003760                             82030135120      000                        1421121205                              101205000000000750010424465000000000000125647101131205              0000000000000000000000000000000000000000000000007500000000000000000000000000001131205                         0000000000000000000000000                                             000053
102021974950001161584870000003760                             82040114133      000                        1421121205                              101205000000000430010400523000000000000125647101131205              0000000000000000000000000000000000000000000000004300000000000000000000000000001131205                         0000000000000000000000000                                             000054
102021974950001161584870000003760                             82040127138      000                        1421121205                              101205000000000430010400523000000000000125647101131205              0000000000000000000000000000000000000000000000004300000000000000000000000000001131205                         0000000000000000000000000                                             000055
102021974950001161584870000003760                             82040129130      000                        1421121205                              101205000000000430010400523000000000000125647101131205              0000000000000000000000000000000000000000000000004300000000000000000000000000001131205                         0000000000000000000000000                                             000056
102021974950001161584870000003760                             82040130139      000                        1421121205                              101205000000000430010400523000000000000125647101131205              0000000000000000000000000000000000000000000000004300000000000000000000000000001131205                         0000000000000000000000000                                             000057
102021974950001161584870000003760                             82040132131      000                        1421121205                              101205000000000860006500016000000000000270663101131205              0000000000000000000000000000000000000000000000008600000000000000000000000000001131205                         0000000000000000000000000                                             000058
102021974950001161584870000003760                             82040134134      000                        1421121205                              101205000000000860010409156000000000000125647101131205              0000000000000000000000000000000000000000000000008600000000000000000000000000001131205                         0000000000000000000000000                                             000059
102021974950001161584870000003760                             82040212135      000                        1421121205                              101205000000000860010400523000000000000125647101131205              0000000000000000000000000000000000000000000000008600000000000000000000000000001131205                         0000000000000000000000000                                             000060
102021974950001161584870000003760                             82040213131      000                        1421121205                              101205000000000430010400523000000000000125647101131205              0000000000000000000000000000000000000000000000004300000000000000000000000000001131205                         0000000000000000000000000                                             000061
102021974950001161584870000003760                             82040220138      000                        1421121205                              101205000000000430010400523000000000000125647101131205              0000000000000000000000000000000000000000000000004300000000000000000000000000001131205                         0000000000000000000000000                                             000062
102021974950001161584870000003760                             82040239130      000                        1421121205                              101205000000013760000105506000000000000270663101131205              0000000000000000000000000000000000000000000000137600000000000000000000000000001131205                         0000000000000000000000000                                             000063
102021974950001161584870000003760                             82040335121      000                        1421121205                              251105000000000360010400523000000000000125647101131205              0000000000000000000000000000000000000000000000003732000000000013200000000000001131205                         0000000000000000000000000                                             000064
102021974950001161584870000003760                             82040436130      000                        1421121205                              101205000000000860000125646000000000000270663101131205              0000000000000000000000000000000000000000000000008600000000000000000000000000001131205                         0000000000000000000000000                                             000065
102021974950001161584870000003760                             82040505132      000                        1421121205                              101205000000000860006500016000000000000270663101131205              0000000000000000000000000000000000000000000000008600000000000000000000000000001131205                         0000000000000000000000000                                             000066
102021974950001161584870000003760                             82040506120      000                        1421121205                              101205000000000860010400523000000000000125647101131205              0000000000000000000000000000000000000000000000008600000000000000000000000000001131205                         0000000000000000000000000                                             000067
102021974950001161584870000003760                             82040506139      000                        1421121205                              101205000000000860010400523000000000000125647101131205              0000000000000000000000000000000000000000000000008600000000000000000000000000001131205                         0000000000000000000000000                                             000068
102021974950001161584870000003760                             82040507135      000                        1421121205                              101205000000000860010400523000000000000125647101131205              0000000000000000000000000000000000000000000000008600000000000000000000000000001131205                         0000000000000000000000000                                             000069
102021974950001161584870000003760                             82040511132      000                        1421121205                              000000000000000860039928996000000000000270663101131205              0000000000000000000000000000000000000000000000008600000000000000000000000000001131205                         0000000000000000000000000                                             000070
102021974950001161584870000003760                             82040515120      000                        1421121205                              101205000000000860010400523000000000000125647101131205              0000000000000000000000000000000000000000000000008600000000000000000000000000001131205                         0000000000000000000000000                                             000071
102021974950001161584870000003760                             82040516134      000                        1421121205                              101205000000000860010400523000000000000125647101131205              0000000000000000000000000000000000000000000000008600000000000000000000000000001131205                         0000000000000000000000000                                             000072
102021974950001161584870000003760                             82040535139      000                        1421121205                              101205000000000860010400523000000000000125647101131205              0000000000000000000000000000000000000000000000008600000000000000000000000000001131205                         0000000000000000000000000                                             000073
102021974950001161584870000003760                             82040602138      000                        1421121205                              101205000000000860010407730000000000000125647101131205              0000000000000000000000000000000000000000000000008600000000000000000000000000001131205                         0000000000000000000000000                                             000074
102021974950001161584870000003760                             82040604130      000                        1421121205                              000000000000000860039928996000000000000270663101131205              0000000000000000000000000000000000000000000000008600000000000000000000000000001131205                         0000000000000000000000000                                             000075
102021974950001161584870000003760                             82040609132      000                        1421121205                              000000000000000860039928996000000000000270663101131205              0000000000000000000000000000000000000000000000008600000000000000000000000000001131205                         0000000000000000000000000                                             000076
102021974950001161584870000003760                             82040617135      000                        1421121205                              101205000000000860010407730000000000000125647101131205              0000000000000000000000000000000000000000000000008600000000000000000000000000001131205                         0000000000000000000000000                                             000077
102021974950001161584870000003760                             82040625138      000                        1421121205                              101205000000000860010400523000000000000125647101131205              0000000000000000000000000000000000000000000000008600000000000000000000000000001131205                         0000000000000000000000000                                             000078
102021974950001161584870000003760                             82040634137      000                        1421121205                              000000000000000860039928996000000000000270663101131205              0000000000000000000000000000000000000000000000008600000000000000000000000000001131205                         0000000000000000000000000                                             000079
102021974950001161584870000003760                             82040636121      000                        1421121205                              101205000000000860006500016000000000000270663101131205              0000000000000000000000000000000000000000000000008600000000000000000000000000001131205                         0000000000000000000000000                                             000080
102021974950001161584870000003760                             82040636130      000                        1421121205                              101205000000000860006500016000000000000270663101131205              0000000000000000000000000000000000000000000000008600000000000000000000000000001131205                         0000000000000000000000000                                             000081
102021974950001161584870000003760                             82040701136      000                        1421121205                              101205000000000860010409164000000000000125647101131205              0000000000000000000000000000000000000000000000008600000000000000000000000000001131205                         0000000000000000000000000                                             000082
102021974950001161584870000003760                             82040713134      000                        1421121205                              101205000000000860010409164000000000000125647101131205              0000000000000000000000000000000000000000000000008600000000000000000000000000001131205                         0000000000000000000000000                                             000083
102021974950001161584870000003760                             82050103134      000                        1421121205                              101205000000000400010400531000000000000125647101131205              0000000000000000000000000000000000000000000000004000000000000000000000000000001131205                         0000000000000000000000000                                             000084
102021974950001161584870000003760                             82050119138      000                        1421121205                              101205000000000400006500016000000000000270663101131205              0000000000000000000000000000000000000000000000004000000000000000000000000000001131205                         0000000000000000000000000                                             000085
102021974950001161584870000003760                             82050121132      000                        1421121205                              101205000000000400006500016000000000000270663101131205              0000000000000000000000000000000000000000000000004000000000000000000000000000001131205                         0000000000000000000000000                                             000086
102021974950001161584870000003760                             82050122139      000                        1421121205                              101205000000000400010400531000000000000125647101131205              0000000000000000000000000000000000000000000000004000000000000000000000000000001131205                         0000000000000000000000000                                             000087
102021974950001161584870000003760                             82050123135      000                        1421121205                              101205000000000400006500016000000000000270663101131205              0000000000000000000000000000000000000000000000004000000000000000000000000000001131205                         0000000000000000000000000                                             000088
102021974950001161584870000003760                             82050128137      000                        1421121205                              101205000000000400006500016000000000000270663101131205              0000000000000000000000000000000000000000000000004000000000000000000000000000001131205                         0000000000000000000000000                                             000089
102021974950001161584870000003760                             82050131138      000                        1421121205                              101205000000000400010400531000000000000125647101131205              0000000000000000000000000000000000000000000000004000000000000000000000000000001131205                         0000000000000000000000000                                             000090
102021974950001161584870000003760                             82050203139      000                        1421121205                              101205000000000400002410106000000000000270663101131205              0000000000000000000000000000000000000000000000004000000000000000000000000000001131205                         0000000000000000000000000                                             000091
102021974950001161584870000003760                             82050204135      000                        1421121205                              101205000000000400006500016000000000000270663101131205              0000000000000000000000000000000000000000000000004000000000000000000000000000001131205                         0000000000000000000000000                                             000092
102021974950001161584870000003760                             82050216133      000                        1421121205                              101205000000000400006500016000000000000270663101131205              0000000000000000000000000000000000000000000000004000000000000000000000000000001131205                         0000000000000000000000000                                             000093
102021974950001161584870000003760                             82050221137      000                        1421121205                              101205000000000400006500016000000000000270663101131205              0000000000000000000000000000000000000000000000004000000000000000000000000000001131205                         0000000000000000000000000                                             000094
102021974950001161584870000003760                             82050307139      000                        1421121205                              101205000000000860010427782000000000000125647101131205              0000000000000000000000000000000000000000000000008600000000000000000000000000001131205                         0000000000000000000000000                                             000095
102021974950001161584870000003760                             82050316138      000                        1421121205                              101205000000000860006500016000000000000270663101131205              0000000000000000000000000000000000000000000000008600000000000000000000000000001131205                         0000000000000000000000000                                             000096
102021974950001161584870000003760                             82050336139      000                        1421121205                              101205000000000860010410383000000000000125647101131205              0000000000000000000000000000000000000000000000008600000000000000000000000000001131205                         0000000000000000000000000                                             000097
102021974950001161584870000003760                             82060104141      000                        1421121205                              151205000000000860010406483000000000000125647101131205              0000000000000000000000000000000000000000000000008600000000000000000000000000001131205                         0000000000000000000000000                                             000098
102021974950001161584870000003760                             82060111148      000                        1421121205                              151205000000000860010400507000000000000240655100121205              0000000000000000000000000000000000000000000000008600000000000000000000000000001121205                         0000000000000000000000000                                             000099
102021974950001161584870000003760                             82060122140      000                        1421121205                              151205000000000860002410516000000000000270663101131205              0000000000000000000000000000000000000000000000008600000000000000000000000000001131205                         0000000000000000000000000                                             000100
102021974950001161584870000003760                             82060137147      000                        1421121205                              151205000000000860010406483000000000000125647101131205              0000000000000000000000000000000000000000000000008600000000000000000000000000001131205                         0000000000000000000000000                                             000101
102021974950001161584870000003760                             82060206122      000                        1421121205                              101205000000000860002410256000000000000270663101131205              0000000000000000000000000000000000000000000000008600000000000000000000000000001131205                         0000000000000000000000000                                             000102
102021974950001161584870000003760                             82060207129      000                        1421121205                              101205000000000860010421911000000000000125647101131205              0000000000000000000000000000000000000000000000008600000000000000000000000000001131205                         0000000000000000000000000                                             000103
102021974950001161584870000003760                             82060212122      000                        1421121205                              101205000000000860006500016000000000000270663101131205              0000000000000000000000000000000000000000000000008600000000000000000000000000001131205                         0000000000000000000000000                                             000104
102021974950001161584870000003760                             82060223124      000                        1421121205                              101205000000000860010421911000000000000125647101131205              0000000000000000000000000000000000000000000000008600000000000000000000000000001131205                         0000000000000000000000000                                             000105
102021974950001161584870000003760                             82060233120      000                        1421121205                              101205000000000860010421911000000000000125647101131205              0000000000000000000000000000000000000000000000008600000000000000000000000000001131205                         0000000000000000000000000                                             000106
102021974950001161584870000003760                             82060235122      000                        1421121205                              101205000000000860006500016000000000000270663101131205              0000000000000000000000000000000000000000000000008600000000000000000000000000001131205                         0000000000000000000000000                                             000107
102021974950001161584870000003760                             82060305120      000                        1421121205                              151205000000000860010408761000000000000125647101131205              0000000000000000000000000000000000000000000000008600000000000000000000000000001131205                         0000000000000000000000000                                             000108
102021974950001161584870000003760                             82060313123      000                        1421121205                              151205000000000860010408761000000000000125647101131205              0000000000000000000000000000000000000000000000008600000000000000000000000000001131205                         0000000000000000000000000                                             000109
102021974950001161584870000003760                             82060327124      000                        1421121205                              151205000000000860010408761000000000000125647101131205              0000000000000000000000000000000000000000000000008600000000000000000000000000001131205                         0000000000000000000000000                                             000110
102021974950001161584870000003760                             82070110136      000                        1421121205                              101205000000000860023732066000000000000270663101131205              0000000000000000000000000000000000000000000000008600000000000000000000000000001131205                         0000000000000000000000000                                             000111
102021974950001161584870000003760                             82070118137      000                        1421121205                              000000000000000860039928996000000000000270663101131205              0000000000000000000000000000000000000000000000008600000000000000000000000000001131205                         0000000000000000000000000                                             000112
102021974950001161584870000003760                             82070120131      000                        1421121205                              101205000000000860000143576000000000000270663101131205              0000000000000000000000000000000000000000000000008600000000000000000000000000001131205                         0000000000000000000000000                                             000113
102021974950001161584870000003760                             82070221132      000                        1421121205                              000000000000000860039928996000000000000270663101131205              0000000000000000000000000000000000000000000000008600000000000000000000000000001131205                         0000000000000000000000000                                             000114
102021974950001161584870000003760                             82070222139      000                        1421121205                              000000000000000860039928996000000000000270663101131205              0000000000000000000000000000000000000000000000008600000000000000000000000000001131205                         0000000000000000000000000                                             000115
102021974950001161584870000003760                             82070227130      000                        1421121205                              101205000000000860010410308000000000000125647101131205              0000000000000000000000000000000000000000000000008600000000000000000000000000001131205                         0000000000000000000000000                                             000116
102021974950001161584870000003760                             82070302132      000                        1421121205                              000000000000000860040975226000000000000270663101131205              0000000000000000000000000000000000000000000000008600000000000000000000000000001131205                         0000000000000000000000000                                             000117
102021974950001161584870000003760                             82070324136      000                        1421121205                              000000000000000720040975226000000000000270663101131205              0000000000000000000000000000000000000000000000007200000000000000000000000000001131205                         0000000000000000000000000                                             000118
102021974950001161584870000003760                             82070505130      000                        1421121205                              000000000000000860040975226000000000000270663101131205              0000000000000000000000000000000000000000000000008600000000000000000000000000001131205                         0000000000000000000000000                                             000119
102021974950001161584870000003760                             82070516132      000                        1421121205                              151205000000000860010406483000000000000125647101131205              0000000000000000000000000000000000000000000000008600000000000000000000000000001131205                         0000000000000000000000000                                             000120
102021974950001161584870000003760                             82090111138      000                        1421121205                              101205000000000750010400540000000000000125647101131205              0000000000000000000000000000000000000000000000007500000000000000000000000000001131205                         0000000000000000000000000                                             000121
102021974950001161584870000003760                             82090112134      000                        1421121205                              000000000000000750023717836000000000000270663101131205              0000000000000000000000000000000000000000000000007500000000000000000000000000001131205                         0000000000000000000000000                                             000122
102021974950001161584870000003760                             82090113130      000                        1421121205                              101205000000000750010400540000000000000125647101131205              0000000000000000000000000000000000000000000000007500000000000000000000000000001131205                         0000000000000000000000000                                             000123
102021974950001161584870000003760                             82090117136      000                        1421121205                              000000000000000750023717836000000000000270663101131205              0000000000000000000000000000000000000000000000007500000000000000000000000000001131205                         0000000000000000000000000                                             000124
102021974950001161584870000003760                             82090118132      000                        1421121205                              101205000000000750010400540000000000000125647101131205              0000000000000000000000000000000000000000000000007500000000000000000000000000001131205                         0000000000000000000000000                                             000125
102021974950001161584870000003760                             82090122130      000                        1421121205                              101205000000000750010400540000000000000125647101131205              0000000000000000000000000000000000000000000000007500000000000000000000000000001131205                         0000000000000000000000000                                             000126
102021974950001161584870000003760                             82090126135      000                        1421121205                              101205000000000750010400540000000000000125647101131205              0000000000000000000000000000000000000000000000007500000000000000000000000000001131205                         0000000000000000000000000                                             000127
102021974950001161584870000003760                             82090127131      000                        1421121205                              101205000000000750010400540000000000000125647101131205              0000000000000000000000000000000000000000000000007500000000000000000000000000001131205                         0000000000000000000000000                                             000128
102021974950001161584870000003760                             82090128138      000                        1421121205                              101205000000000750010400540000000000000125647101131205              0000000000000000000000000000000000000000000000007500000000000000000000000000001131205                         0000000000000000000000000                                             000129
102021974950001161584870000003760                             82090132135      000                        1421121205                              101205000000000750010400540000000000000125647101131205              0000000000000000000000000000000000000000000000007500000000000000000000000000001131205                         0000000000000000000000000                                             000130
102021974950001161584870000003760                             82090202133      000                        1421121205                              101205000000000750010400540000000000000125647101131205              0000000000000000000000000000000000000000000000007500000000000000000000000000001131205                         0000000000000000000000000                                             000131
102021974950001161584870000003760                             82090209138      000                        1421121205                              000000000000000750023717836000000000000270663101131205              0000000000000000000000000000000000000000000000007500000000000000000000000000001131205                         0000000000000000000000000                                             000132
102021974950001161584870000003760                             82090212139      000                        1421121205                              101205000000000750010400540000000000000125647101131205              0000000000000000000000000000000000000000000000007500000000000000000000000000001131205                         0000000000000000000000000                                             000133
102021974950001161584870000003760                             82090215138      000                        1421121205                              101205000000000750010400540000000000000125647101131205              0000000000000000000000000000000000000000000000007500000000000000000000000000001131205                         0000000000000000000000000                                             000134
102021974950001161584870000003760                             82090217130      000                        1421121205                              101205000000000750010400540000000000000125647101131205              0000000000000000000000000000000000000000000000007500000000000000000000000000001131205                         0000000000000000000000000                                             000135
102021974950001161584870000003760                             82090218137      000                        1421121205                              101205000000000750010400540000000000000125647101131205              0000000000000000000000000000000000000000000000007500000000000000000000000000001131205                         0000000000000000000000000                                             000136
102021974950001161584870000003760                             82090227136      000                        1421121205                              101205000000000750010400540000000000000125647101131205              0000000000000000000000000000000000000000000000007500000000000000000000000000001131205                         0000000000000000000000000                                             000137
102021974950001161584870000003760                             82090228132      000                        1421121205                              101205000000000750010400540000000000000125647101131205              0000000000000000000000000000000000000000000000007500000000000000000000000000001131205                         0000000000000000000000000                                             000138
102021974950001161584870000003760                             82090232130      000                        1421121205                              101205000000000750006500016000000000000270663101131205              0000000000000000000000000000000000000000000000007500000000000000000000000000001131205                         0000000000000000000000000                                             000139
102021974950001161584870000003760                             82090234124      000                        1421121205                              101205000000000750010400540000000000000125647101131205              0000000000000000000000000000000000000000000000007500000000000000000000000000001131205                         0000000000000000000000000                                             000140
102021974950001161584870000003760                             82090306133      000                        1421121205                              101205000000000750007347476000000000000270663101131205              0000000000000000000000000000000000000000000000007500000000000000000000000000001131205                         0000000000000000000000000                                             000141
102021974950001161584870000003760                             82090310130      000                        1421121205                              101205000000000750010407749000000000000125647101131205              0000000000000000000000000000000000000000000000007500000000000000000000000000001131205                         0000000000000000000000000                                             000142
102021974950001161584870000003760                             82090313130      000                        1421121205                              101205000000000750010400540000000000000125647101131205              0000000000000000000000000000000000000000000000007500000000000000000000000000001131205                         0000000000000000000000000                                             000143
102021974950001161584870000003760                             82090314136      000                        1421121205                              101205000000000750010400540000000000000125647101131205              0000000000000000000000000000000000000000000000007500000000000000000000000000001131205                         0000000000000000000000000                                             000144
102021974950001161584870000003760                             82090317135      000                        1421121205                              101205000000000750010407749000000000000125647101131205              0000000000000000000000000000000000000000000000007500000000000000000000000000001131205                         0000000000000000000000000                                             000145
102021974950001161584870000003760                             82090319138      000                        1421121205                              101205000000000750010400540000000000000125647101131205              0000000000000000000000000000000000000000000000007500000000000000000000000000001131205                         0000000000000000000000000                                             000146
102021974950001161584870000003760                             82090323135      000                        1421121205                              101205000000000750010400540000000000000125647101131205              0000000000000000000000000000000000000000000000007500000000000000000000000000001131205                         0000000000000000000000000                                             000147
102021974950001161584870000003760                             82090324131      000                        1421121205                              101205000000000750010407749000000000000125647101131205              0000000000000000000000000000000000000000000000007500000000000000000000000000001131205                         0000000000000000000000000                                             000148
102021974950001161584870000003760                             82090334137      000                        1421121205                              101205000000000750010407749000000000000125647101131205              0000000000000000000000000000000000000000000000007500000000000000000000000000001131205                         0000000000000000000000000                                             000149
102021974950001161584870000003760                             82090401136      000                        1421121205                              101205000000000750010400540000000000000125647101131205              0000000000000000000000000000000000000000000000007500000000000000000000000000001131205                         0000000000000000000000000                                             000150
102021974950001161584870000003760                             82090406138      000                        1421121205                              101205000000000750010400540000000000000125647101131205              0000000000000000000000000000000000000000000000007500000000000000000000000000001131205                         0000000000000000000000000                                             000151
102021974950001161584870000003760                             82090410135      000                        1421121205                              101205000000000750000122396000000000000270663101131205              0000000000000000000000000000000000000000000000007500000000000000000000000000001131205                         0000000000000000000000000                                             000152
102021974950001161584870000003760                             82090417130      000                        1421121205                              101205000000000750010400540000000000000125647101131205              0000000000000000000000000000000000000000000000007500000000000000000000000000001131205                         0000000000000000000000000                                             000153
102021974950001161584870000003760                             82090420130      000                        1421121205                              101205000000000750010400540000000000000125647101131205              0000000000000000000000000000000000000000000000007500000000000000000000000000001131205                         0000000000000000000000000                                             000154
102021974950001161584870000003760                             82090421137      000                        1421121205                              101205000000000750010400540000000000000125647101131205              0000000000000000000000000000000000000000000000007500000000000000000000000000001131205                         0000000000000000000000000                                             000155
102021974950001161584870000003760                             82090426139      000                        1421121205                              101205000000000750010400540000000000000125647101131205              0000000000000000000000000000000000000000000000007500000000000000000000000000001131205                         0000000000000000000000000                                             000156
102021974950001161584870000003760                             82090428131      000                        1421121205                              101205000000000750010400540000000000000125647101131205              0000000000000000000000000000000000000000000000007500000000000000000000000000001131205                         0000000000000000000000000                                             000157
102021974950001161584870000003760                             82090432139      000                        1421121205                              101205000000000750010400540000000000000125647101131205              0000000000000000000000000000000000000000000000007500000000000000000000000000001131205                         0000000000000000000000000                                             000158
102021974950001161584870000003760                             82090434131      000                        1421121205                              101205000000000750010400540000000000000125647101131205              0000000000000000000000000000000000000000000000007500000000000000000000000000001131205                         0000000000000000000000000                                             000159
102021974950001161584870000003760                             82090505136      000                        1421121205                              101205000000000375010408770000000000000125647101131205              0000000000000000000000000000000000000000000000003750000000000000000000000000001131205                         0000000000000000000000000                                             000160
102021974950001161584870000003760                             82090509131      000                        1421121205                              101205000000000375006500016000000000000270663101131205              0000000000000000000000000000000000000000000000003750000000000000000000000000001131205                         0000000000000000000000000                                             000161
102021974950001161584870000003760                             82090515131      000                        1421121205                              101205000000000750010408770000000000000125647101131205              0000000000000000000000000000000000000000000000007500000000000000000000000000001131205                         0000000000000000000000000                                             000162
102021974950001161584870000003760                             82090516138      000                        1421121205                              101205000000000375010408770000000000000125647101131205              0000000000000000000000000000000000000000000000003750000000000000000000000000001131205                         0000000000000000000000000                                             000163
102021974950001161584870000003760                             82090524130      000                        1421121205                              101205000000000375010408770000000000000125647101131205              0000000000000000000000000000000000000000000000003750000000000000000000000000001131205                         0000000000000000000000000                                             000164
102021974950001161584870000003760                             82090527130      000                        1421121205                              101205000000008250000104466000000000000270663101131205              0000000000000000000000000000000000000000000000082500000000000000000000000000001131205                         0000000000000000000000000                                             000165
102021974950001161584870000003760                             82090605130      000                        1421121205                              101205000000000375006500016000000000000270663101131205              0000000000000000000000000000000000000000000000003750000000000000000000000000001131205                         0000000000000000000000000                                             000166
102021974950001161584870000003760                             82090610134      000                        1421121205                              101205000000000375006500016000000000000270663101131205              0000000000000000000000000000000000000000000000003750000000000000000000000000001131205                         0000000000000000000000000                                             000167
102021974950001161584870000003760                             82090613133      000                        1421121205                              101205000000000375010408770000000000000125647101131205              0000000000000000000000000000000000000000000000003750000000000000000000000000001131205                         0000000000000000000000000                                             000168
102021974950001161584870000003760                             82090618135      000                        1421121205                              101205000000000375006500016000000000000270663101131205              0000000000000000000000000000000000000000000000003750000000000000000000000000001131205                         0000000000000000000000000                                             000169
102021974950001161584870000003760                             82090621136      000                        1421121205                              101205000000000375010408770000000000000125647101131205              0000000000000000000000000000000000000000000000003750000000000000000000000000001131205                         0000000000000000000000000                                             000170
102021974950001161584870000003760                             82090622132      000                        1421121205                              101205000000000375010408770000000000000125647101131205              0000000000000000000000000000000000000000000000003750000000000000000000000000001131205                         0000000000000000000000000                                             000171
102021974950001161584870000003760                             82090624135      000                        1421121205                              101205000000000375006500016000000000000270663101131205              0000000000000000000000000000000000000000000000003750000000000000000000000000001131205                         0000000000000000000000000                                             000172
102021974950001161584870000003760                             82090626138      000                        1421121205                              101205000000000375006500016000000000000270663101131205              0000000000000000000000000000000000000000000000003750000000000000000000000000001131205                         0000000000000000000000000                                             000173
102021974950001161584870000003760                             82090703132      000                        1421121205                              101205000000000750006500016000000000000270663101131205              0000000000000000000000000000000000000000000000007500000000000000000000000000001131205                         0000000000000000000000000                                             000174
102021974950001161584870000003760                             82090715130      000                        1421121205                              101205000000000750006500016000000000000270663101131205              0000000000000000000000000000000000000000000000007500000000000000000000000000001131205                         0000000000000000000000000                                             000175
102021974950001161584870000003760                             82090719136      000                        1421121205                              101205000000000750006500016000000000000270663101131205              0000000000000000000000000000000000000000000000007500000000000000000000000000001131205                         0000000000000000000000000                                             000176
102021974950001161584870000003760                             82090723133      000                        1421121205                              101205000000000750006500016000000000000270663101131205              0000000000000000000000000000000000000000000000007500000000000000000000000000001131205                         0000000000000000000000000                                             000177
102021974950001161584870000003760                             82090726132      000                        1421121205                              101205000000000750006500016000000000000270663101131205              0000000000000000000000000000000000000000000000007500000000000000000000000000001131205                         0000000000000000000000000                                             000178
102021974950001161584870000003760                             82090730130      000                        1421121205                              101205000000000750023718776000000000000270663101131205              0000000000000000000000000000000000000000000000007500000000000000000000000000001131205                         0000000000000000000000000                                             000179
102021974950001161584870000003760                             82090731136      000                        1421121205                              101205000000000750006500016000000000000270663101131205              0000000000000000000000000000000000000000000000007500000000000000000000000000001131205                         0000000000000000000000000                                             000180
102021974950001161584870000003760                             82090903131      000                        1421121205                              101205000000000750006500016000000000000270663101131205              0000000000000000000000000000000000000000000000007500000000000000000000000000001131205                         0000000000000000000000000                                             000181
102021974950001161584870000003760                             82090904138      000                        1421121205                              101205000000000750010408770000000000000125647101131205              0000000000000000000000000000000000000000000000007500000000000000000000000000001131205                         0000000000000000000000000                                             000182
102021974950001161584870000003760                             82090908133      000                        1421121205                              101205000000000750010408770000000000000125647101131205              0000000000000000000000000000000000000000000000007500000000000000000000000000001131205                         0000000000000000000000000                                             000183
102021974950001161584870000003760                             82090917132      000                        1421121205                              101205000000000375006500016000000000000270663101131205              0000000000000000000000000000000000000000000000003750000000000000000000000000001131205                         0000000000000000000000000                                             000184
102021974950001161584870000003760                             82090919135      000                        1421121205                              101205000000000750010408770000000000000125647101131205              0000000000000000000000000000000000000000000000007500000000000000000000000000001131205                         0000000000000000000000000                                             000185
102021974950001161584870000003760                             82090927138      000                        1421121205                              101205000000000375010408770000000000000125647101131205              0000000000000000000000000000000000000000000000003750000000000000000000000000001131205                         0000000000000000000000000                                             000186
102021974950001161584870000003760                             82090930139      000                        1421121205                              101205000000000750010408770000000000000125647101131205              0000000000000000000000000000000000000000000000007500000000000000000000000000001131205                         0000000000000000000000000                                             000187
102021974950001161584870000003760                             82090931135      000                        1421121205                              101205000000000375006500016000000000000270663101131205              0000000000000000000000000000000000000000000000003750000000000000000000000000001131205                         0000000000000000000000000                                             000188
102021974950001161584870000003760                             82090933138      000                        1421121205                              101205000000000750010408770000000000000125647101131205              0000000000000000000000000000000000000000000000007500000000000000000000000000001131205                         0000000000000000000000000                                             000189
102021974950001161584870000003760                             82090934134      000                        1421121205                              101205000000000750010408770000000000000125647101131205              0000000000000000000000000000000000000000000000007500000000000000000000000000001131205                         0000000000000000000000000                                             000190
102021974950001161584870000003760                             82090935130      000                        1421121205                              101205000000000750010408770000000000000125647101131205              0000000000000000000000000000000000000000000000007500000000000000000000000000001131205                         0000000000000000000000000                                             000191
102021974950001161584870000003760                             82091006133      000                        1421121205                              101205000000000750010408770000000000000125647101131205              0000000000000000000000000000000000000000000000007500000000000000000000000000001131205                         0000000000000000000000000                                             000192
102021974950001161584870000003760                             82091010130      000                        1421121205                              101205000000000375010408770000000000000125647101131205              0000000000000000000000000000000000000000000000003750000000000000000000000000001131205                         0000000000000000000000000                                             000193
102021974950001161584870000003760                             82091011137      000                        1421121205                              101205000000000375000122576000000000000270663101131205              0000000000000000000000000000000000000000000000003750000000000000000000000000001131205                         0000000000000000000000000                                             000194
102021974950001161584870000003760                             82091015132      000                        1421121205                              101205000000000375010408770000000000000125647101131205              0000000000000000000000000000000000000000000000003750000000000000000000000000001131205                         0000000000000000000000000                                             000195
102021974950001161584870000003760                             82091016139      000                        1421121205                              101205000000000375010408770000000000000125647101131205              0000000000000000000000000000000000000000000000003750000000000000000000000000001131205                         0000000000000000000000000                                             000196
102021974950001161584870000003760                             82091023135      000                        1421121205                              101205000000000375006500016000000000000270663101131205              0000000000000000000000000000000000000000000000003750000000000000000000000000001131205                         0000000000000000000000000                                             000197
102021974950001161584870000003760                             82091025138      000                        1421121205                              101205000000000750010408770000000000000125647101131205              0000000000000000000000000000000000000000000000007500000000000000000000000000001131205                         0000000000000000000000000                                             000198
102021974950001161584870000003760                             82091027173      000                        1421121205                              100406000000000375010408770000000000000125647101131205              0000000000000000000000000000000000000000000000003750000000000000000000000000001131205                         0000000000000000000000000                                             000199
102021974950001161584870000003760                             82091036130      000                        1421121205                              101205000000000750010408770000000000000125647101131205              0000000000000000000000000000000000000000000000007500000000000000000000000000001131205                         0000000000000000000000000                                             000200
102021974950001161584870000003760                             82091038132      000                        1421121205                              101205000000000750010408770000000000000125647101131205              0000000000000000000000000000000000000000000000007500000000000000000000000000001131205                         0000000000000000000000000                                             000201
102021974950001161584870000003760                             82091039139      000                        1421121205                              101205000000000375010408770000000000000125647101131205              0000000000000000000000000000000000000000000000003750000000000000000000000000001131205                         0000000000000000000000000                                             000202
102021974950001161584870000003760                             82091113134      000                        1421121205                              101205000000000750074500016000000000000270663101131205              0000000000000000000000000000000000000000000000007500000000000000000000000000001131205                         0000000000000000000000000                                             000203
102021974950001161584870000003760                             82091119132      000                        1421121205                              101205000000000750010400540000000000000125647101131205              0000000000000000000000000000000000000000000000007500000000000000000000000000001131205                         0000000000000000000000000                                             000204
102021974950001161584870000003760                             82091215131      000                        1421121205                              101205000000000750010400540000000000000125647101131205              0000000000000000000000000000000000000000000000007500000000000000000000000000001131205                         0000000000000000000000000                                             000205
102021974950001161584870000003760                             82091216138      000                        1421121205                              101205000000000750010400540000000000000125647101131205              0000000000000000000000000000000000000000000000007500000000000000000000000000001131205                         0000000000000000000000000                                             000206
102021974950001161584870000003760                             82091219137      000                        1421121205                              101205000000000750010400540000000000000125647101131205              0000000000000000000000000000000000000000000000007500000000000000000000000000001131205                         0000000000000000000000000                                             000207
102021974950001161584870000003760                             82110105120      000                        1421121205                              101205000000000750010407765000000000000125647101131205              0000000000000000000000000000000000000000000000007500000000000000000000000000001131205                         0000000000000000000000000                                             000208
102021974950001161584870000003760                             82110110123      000                        1421121205                              101205000000000750000110286000000000000270663101131205              0000000000000000000000000000000000000000000000007500000000000000000000000000001131205                         0000000000000000000000000                                             000209
102021974950001161584870000003760                             82110115125      000                        1421121205                              101205000000000750010407765000000000000125647101131205              0000000000000000000000000000000000000000000000007500000000000000000000000000001131205                         0000000000000000000000000                                             000210
102021974950001161584870000003760                             82110117128      000                        1421121205                              101205000000000750010407765000000000000125647101131205              0000000000000000000000000000000000000000000000007500000000000000000000000000001131205                         0000000000000000000000000                                             000211
102021974950001161584870000003760                             82110122121      000                        1421121205                              101205000000000750010407765000000000000125647101131205              0000000000000000000000000000000000000000000000007500000000000000000000000000001131205                         0000000000000000000000000                                             000212
102021974950001161584870000003760                             82110201129      000                        1421121205                              101205000000000450007347476000000000000270663101131205              0000000000000000000000000000000000000000000000004500000000000000000000000000001131205                         0000000000000000000000000                                             000213
102021974950001161584870000003760                             82110207127      000                        1421121205                              101205000000000450006500016000000000000270663101131205              0000000000000000000000000000000000000000000000004500000000000000000000000000001131205                         0000000000000000000000000                                             000214
102021974950001161584870000003760                             82110211124      000                        1421121205                              101205000000000450007347476000000000000270663101131205              0000000000000000000000000000000000000000000000004500000000000000000000000000001131205                         0000000000000000000000000                                             000215
102021974950001161584870000003760                             82110214123      000                        1421121205                              101205000000000450010407765000000000000125647101131205              0000000000000000000000000000000000000000000000004500000000000000000000000000001131205                         0000000000000000000000000                                             000216
102021974950001161584870000003760                             82110225125      000                        1421121205                              101205000000000450006500016000000000000270663101131205              0000000000000000000000000000000000000000000000004500000000000000000000000000001131205                         0000000000000000000000000                                             000217
102021974950001161584870000003760                             82110301123      000                        1421121205                              101205000000000860006500016000000000000270663101131205              0000000000000000000000000000000000000000000000008600000000000000000000000000001131205                         0000000000000000000000000                                             000218
102021974950001161584870000003760                             82110302120      000                        1421121205                              101205000000000860010407765000000000000125647101131205              0000000000000000000000000000000000000000000000008600000000000000000000000000001131205                         0000000000000000000000000                                             000219
102021974950001161584870000003760                             82110304122      000                        1421121205                              101205000000000860006500016000000000000270663101131205              0000000000000000000000000000000000000000000000008600000000000000000000000000001131205                         0000000000000000000000000                                             000220
102021974950001161584870000003760                             82110305129      000                        1421121205                              101205000000000860006500016000000000000270663101131205              0000000000000000000000000000000000000000000000008600000000000000000000000000001131205                         0000000000000000000000000                                             000221
102021974950001161584870000003760                             82110306125      000                        1421121205                              101205000000000860006500016000000000000270663101131205              0000000000000000000000000000000000000000000000008600000000000000000000000000001131205                         0000000000000000000000000                                             000222
102021974950001161584870000003760                             82110307121      000                        1421121205                              101205000000000860006500016000000000000270663101131205              0000000000000000000000000000000000000000000000008600000000000000000000000000001131205                         0000000000000000000000000                                             000223
102021974950001161584870000003760                             82110309124      000                        1421121205                              101205000000000860006500016000000000000270663101131205              0000000000000000000000000000000000000000000000008600000000000000000000000000001131205                         0000000000000000000000000                                             000224
102021974950001161584870000003760                             82110314128      000                        1421121205                              101205000000000860006500016000000000000270663101131205              0000000000000000000000000000000000000000000000008600000000000000000000000000001131205                         0000000000000000000000000                                             000225
102021974950001161584870000003760                             82110316120      000                        1421121205                              101205000000000860006500016000000000000270663101131205              0000000000000000000000000000000000000000000000008600000000000000000000000000001131205                         0000000000000000000000000                                             000226
102021974950001161584870000003760                             82110322120      000                        1421121205                              101205000000000860006500016000000000000270663101131205              0000000000000000000000000000000000000000000000008600000000000000000000000000001131205                         0000000000000000000000000                                             000227
102021974950001161584870000003760                             82110324123      000                        1421121205                              101205000000000860074500016000000000000270663101131205              0000000000000000000000000000000000000000000000008600000000000000000000000000001131205                         0000000000000000000000000                                             000228
102021974950001161584870000003760                             82110326126      000                        1421121205                              101205000000000860006500016000000000000270663101131205              0000000000000000000000000000000000000000000000008600000000000000000000000000001131205                         0000000000000000000000000                                             000229
102021974950001161584870000003760                             82110328129      000                        1421121205                              101205000000000860010407765000000000000125647101131205              0000000000000000000000000000000000000000000000008600000000000000000000000000001131205                         0000000000000000000000000                                             000230
102021974950001161584870000003760                             82110332126      000                        1421121205                              101205000000000860010407765000000000000125647101131205              0000000000000000000000000000000000000000000000008600000000000000000000000000001131205                         0000000000000000000000000                                             000231
102021974950001161584870000003760                             82110335125      000                        1421121205                              101205000000000860010407765000000000000125647101131205              0000000000000000000000000000000000000000000000008600000000000000000000000000001131205                         0000000000000000000000000                                             000232
102021974950001161584870000003760                             82110336121      000                        1421121205                              101205000000000860010407765000000000000125647101131205              0000000000000000000000000000000000000000000000008600000000000000000000000000001131205                         0000000000000000000000000                                             000233
102021974950001161584870000003760                             82120106137      000                        1421121205                              101205000000000650010421245000000000000125647101131205              0000000000000000000000000000000000000000000000006500000000000000000000000000001131205                         0000000000000000000000000                                             000234
102021974950001161584870000003760                             82120108130      000                        1421121205                              101205000000000650006500016000000000000270663101131205              0000000000000000000000000000000000000000000000006500000000000000000000000000001131205                         0000000000000000000000000                                             000235
102021974950001161584870000003760                             82120109136      000                        1421121205                              101205000000000650006500016000000000000270663101131205              0000000000000000000000000000000000000000000000006500000000000000000000000000001131205                         0000000000000000000000000                                             000236
102021974950001161584870000003760                             82120113133      000                        1421121205                              101205000000000650010421245000000000000125647101131205              0000000000000000000000000000000000000000000000006500000000000000000000000000001131205                         0000000000000000000000000                                             000237
102021974950001161584870000003760                             82120119131      000                        1421121205                              101205000000000650006500016000000000000270663101131205              0000000000000000000000000000000000000000000000006500000000000000000000000000001131205                         0000000000000000000000000                                             000238
102021974950001161584870000003760                             82120120130      000                        1421121205                              101205000000000650006500016000000000000270663101131205              0000000000000000000000000000000000000000000000006500000000000000000000000000001131205                         0000000000000000000000000                                             000239
102021974950001161584870000003760                             82120124135      000                        1421121205                              101205000000000650010421245000000000000125647101131205              0000000000000000000000000000000000000000000000006500000000000000000000000000001131205                         0000000000000000000000000                                             000240
102021974950001161584870000003760                             82120131131      000                        1421121205                              101205000000000650010421245000000000000125647101131205              0000000000000000000000000000000000000000000000006500000000000000000000000000001131205                         0000000000000000000000000                                             000241
102021974950001161584870000003760                             82120134130      000                        1421121205                              101205000000000650010421245000000000000125647101131205              0000000000000000000000000000000000000000000000006500000000000000000000000000001131205                         0000000000000000000000000                                             000242
102021974950001161584870000003760                             82130105141      000                        1421121205                              101205000000000860006500016000000000000270663101131205              0000000000000000000000000000000000000000000000008600000000000000000000000000001131205                         0000000000000000000000000                                             000243
102021974950001161584870000003760                             82130106148      000                        1421121205                              101205000000000860010409148000000000000125647101131205              0000000000000000000000000000000000000000000000008600000000000000000000000000001131205                         0000000000000000000000000                                             000244
102021974950001161584870000003760                             82130112130      000                        1421121205                              101105000000000860010409148000000000000125647101131205              0000000000000000000000000000000000000000000000009047000000000044700000000000001131205                         0000000000000000000000000                                             000245
102021974950001161584870000003760                             82130119142      000                        1421121205                              101205000000000860006500016000000000000270663101131205              0000000000000000000000000000000000000000000000008600000000000000000000000000001131205                         0000000000000000000000000                                             000246
102021974950001161584870000003760                             82130121147      000                        1421121205                              101205000000000860010409148000000000000125647101131205              0000000000000000000000000000000000000000000000008600000000000000000000000000001131205                         0000000000000000000000000                                             000247
102021974950001161584870000003760                             82130124146      000                        1421121205                              101205000000000860010409148000000000000125647101131205              0000000000000000000000000000000000000000000000008600000000000000000000000000001131205                         0000000000000000000000000                                             000248
