02RETORNO01COBRANCA       1584870000003760    IPAD                          104C ECON FEDERAL 130206                                                                                                                                                                                                                                                                                                 00142000001
102021974950001161584870000003760                             82000033264      000                        1421130206                              050306000000000750006500016000000000000270663101140206              0000000000000000000000000000000000000000000000007500000000000000000000000000001140206                         0000000000000000000000000                                             000002
102021974950001161584870000003760                             82010124149      000                        1421130206                              100206000000000750010414338000000000000125647101140206              0000000000000000000000000000000000000000000000007500000000000000000000000000001140206                         0000000000000000000000000                                             000003
102021974950001161584870000003760                             82010126141      000                        1421130206                              100206000000000750010414338000000000000125647101140206              0000000000000000000000000000000000000000000000007672000000000017200000000000001140206                         0000000000000000000000000                                             000004
102021974950001161584870000003760                             82010202140      000                        1421130206                              100206000000000420010414338000000000000125647101140206              0000000000000000000000000000000000000000000000004296000000000009600000000000001140206                         0000000000000000000000000                                             000005
102021974950001161584870000003760                             82030109145      000                        1421130206                              100206000000000750010424465000000000000125647101140206              0000000000000000000000000000000000000000000000007671000000000017100000000000001140206                         0000000000000000000000000                                             000006
102021974950001161584870000003760                             82030117148      000                        1421130206                              100206000000000750010424465000000000000125647101140206              0000000000000000000000000000000000000000000000007671000000000017100000000000001140206                         0000000000000000000000000                                             000007
102021974950001161584870000003760                             82040113153      000                        1421130206                              100206000000000430010400523000000000000125647101140206              0000000000000000000000000000000000000000000000004398000000000009800000000000001140206                         0000000000000000000000000                                             000008
102021974950001161584870000003760                             82040309155      000                        1421130206                              100206000000000360010400523000000000000125647101140206              0000000000000000000000000000000000000000000000003676000000000007600000000000001140206                         0000000000000000000000000                                             000009
102021974950001161584870000003760                             82040328150      000                        1421130206                              100206000000000360010400523000000000000125647101140206              0000000000000000000000000000000000000000000000003682000000000008200000000000001140206                         0000000000000000000000000                                             000010
102021974950001161584870000003760                             82040330154      000                        1421130206                              100206000000000360010400523000000000000125647101140206              0000000000000000000000000000000000000000000000003684000000000008400000000000001140206                         0000000000000000000000000                                             000011
102021974950001161584870000003760                             82040412134      000                        1421130206                              100106000000000860010400523000000000000125647101140206              0000000000000000000000000000000000000000000000009056000000000045600000000000001140206                         0000000000000000000000000                                             000012
102021974950001161584870000003760                             82040515154      000                        1421130206                              100206000000000860010400523000000000000125647101140206              0000000000000000000000000000000000000000000000008781000000000018100000000000001140206                         0000000000000000000000000                                             000013
102021974950001161584870000003760                             82040531150      000                        1421130206                              100206000000000860010400523000000000000125647101140206              0000000000000000000000000000000000000000000000008600000000000000000000000000001140206                         0000000000000000000000000                                             000014
102021974950001161584870000003760                             82040602154      000                        1421130206                              100206000000000860010407730000000000000125647101140206              0000000000000000000000000000000000000000000000008780000000000018000000000000001140206                         0000000000000000000000000                                             000015
102021974950001161584870000003760                             82050102154      000                        1421130206                              100206000000000400010412955000000000000240655100130206              0000000000000000000000000000000000000000000000004084000000000008400000000000001130206                         0000000000000000000000000                                             000016
102021974950001161584870000003760                             82050322154      000                        1421130206                              100206000000000860010427782000000000000125647101140206              0000000000000000000000000000000000000000000000008781000000000018100000000000001140206                         0000000000000000000000000                                             000017
102021974950001161584870000003760                             82050332150      000                        1421130206                              100206000000000860010427782000000000000125647101140206              0000000000000000000000000000000000000000000000008798000000000019800000000000001140206                         0000000000000000000000000                                             000018
102021974950001161584870000003760                             82060118169      000                        1421130206                              150206000000000860010430171000000000000125647101140206              0000000000000000000000000000000000000000000000008600000000000000000000000000001140206                         0000000000000000000000000                                             000019
102021974950001161584870000003760                             82060126161      000                        1421130206                              150206000000000860010406483000000000000125647101140206              0000000000000000000000000000000000000000000000008600000000000000000000000000001140206                         0000000000000000000000000                                             000020
102021974950001161584870000003760                             82060134164      000                        1421130206                              150206000000000860010430171000000000000125647101140206              0000000000000000000000000000000000000000000000008600000000000000000000000000001140206                         0000000000000000000000000                                             000021
102021974950001161584870000003760                             82060209148      000                        1421130206                              100206000000000860010421911000000000000125647101140206              0000000000000000000000000000000000000000000000008780000000000018000000000000001140206                         0000000000000000000000000                                             000022
102021974950001161584870000003760                             82060217140      000                        1421130206                              100206000000000860010421911000000000000125647101140206              0000000000000000000000000000000000000000000000008798000000000019800000000000001140206                         0000000000000000000000000                                             000023
102021974950001161584870000003760                             82060227146      000                        1421130206                              100206000000000860010421911000000000000125647101140206              0000000000000000000000000000000000000000000000008797000000000019700000000000001140206                         0000000000000000000000000                                             000024
102021974950001161584870000003760                             82060301141      000                        1421130206                              150206000000000860010400485000000000000125647101140206              0000000000000000000000000000000000000000000000008600000000000000000000000000001140206                         0000000000000000000000000                                             000025
102021974950001161584870000003760                             82060306143      000                        1421130206                              150206000000000860075641796000000000000270663101140206              0000000000000000000000000000000000000000000000008600000000000000000000000000001140206                         0000000000000000000000000                                             000026
102021974950001161584870000003760                             82060315142      000                        1421130206                              150206000000000860000111386000000000000270663101140206              0000000000000000000000000000000000000000000000008600000000000000000000000000001140206                         0000000000000000000000000                                             000027
102021974950001161584870000003760                             82060318141      000                        1421130206                              150206000000000860006500016000000000000270663101140206              0000000000000000000000000000000000000000000000008600000000000000000000000000001140206                         0000000000000000000000000                                             000028
102021974950001161584870000003760                             82060321142      000                        1421130206                              150206000000000860006500016000000000000270663101140206              0000000000000000000000000000000000000000000000008600000000000000000000000000001140206                         0000000000000000000000000                                             000029
102021974950001161584870000003760                             82060323145      000                        1421130206                              150206000000000860010408761000000000000125647101140206              0000000000000000000000000000000000000000000000008600000000000000000000000000001140206                         0000000000000000000000000                                             000030
102021974950001161584870000003760                             82070306154      000                        1421130206                              000000000000000860040975226000000000000270663101140206              0000000000000000000000000000000000000000000000008600000000000000000000000000001140206                         0000000000000000000000000                                             000031
102021974950001161584870000003760                             82090120145      000                        1421130206                              100106000000000750010400540000000000000125647101140206              0000000000000000000000000000000000000000000000007867000000000036700000000000001140206                         0000000000000000000000000                                             000032
102021974950001161584870000003760                             82090212155      000                        1421130206                              100206000000000750010400540000000000000125647101140206              0000000000000000000000000000000000000000000000007671000000000017100000000000001140206                         0000000000000000000000000                                             000033
102021974950001161584870000003760                             82090217157      000                        1421130206                              100206000000000750010400540000000000000125647101140206              0000000000000000000000000000000000000000000000007671000000000017100000000000001140206                         0000000000000000000000000                                             000034
102021974950001161584870000003760                             82090231141      000                        1421130206                              100106000000000750010412424000000000000125647101140206              0000000000000000000000000000000000000000000000007905000000000040500000000000001140206                         0000000000000000000000000                                             000035
102021974950001161584870000003760                             82090303142      000                        1421130206                              100106000000000750010407749000000000000125647101140206              0000000000000000000000000000000000000000000000007675000000000017500000000000001140206                         0000000000000000000000000                                             000036
102021974950001161584870000003760                             82090303150      000                        1421130206                              100206000000000750010407749000000000000125647101140206              0000000000000000000000000000000000000000000000007672000000000017200000000000001140206                         0000000000000000000000000                                             000037
102021974950001161584870000003760                             82090307130      000                        1421130206                              101205000000000750010407749000000000000240655100130206              0000000000000000000000000000000000000000000000008137000000000063700000000000001130206                         0000000000000000000000000                                             000038
102021974950001161584870000003760                             82090307148      000                        1421130206                              100106000000000750010407749000000000000240655100130206              0000000000000000000000000000000000000000000000007905000000000040500000000000001130206                         0000000000000000000000000                                             000039
102021974950001161584870000003760                             82090319154      000                        1421130206                              100206000000000750010400540000000000000125647101140206              0000000000000000000000000000000000000000000000007671000000000017100000000000001140206                         0000000000000000000000000                                             000040
102021974950001161584870000003760                             82090335150      000                        1421130206                              100206000000000750010400540000000000000125647101140206              0000000000000000000000000000000000000000000000007671000000000017100000000000001140206                         0000000000000000000000000                                             000041
102021974950001161584870000003760                             82090805130      000                        1421130206                              100206000000000450010408770000000000000125647101140206              0000000000000000000000000000000000000000000000004620000000000012000000000000001140206                         0000000000000000000000000                                             000042
102021974950001161584870000003760                             82090821135      000                        1421130206                              100206000000000450010408770000000000000125647101140206              0000000000000000000000000000000000000000000000004600000000000010000000000000001140206                         0000000000000000000000000                                             000043
102021974950001161584870000003760                             82090914150      000                        1421130206                              100206000000000375010408770000000000000125647101140206              0000000000000000000000000000000000000000000000003828000000000007800000000000001140206                         0000000000000000000000000                                             000044
102021974950001161584870000003760                             82090938148      000                        1421130206                              100106000000000375010412424000000000000125647101140206              0000000000000000000000000000000000000000000000003834000000000008400000000000001140206                         0000000000000000000000000                                             000045
102021974950001161584870000003760                             82091036156      000                        1421130206                              100206000000000750010408770000000000000125647101140206              0000000000000000000000000000000000000000000000007650000000000015000000000000001140206                         0000000000000000000000000                                             000046
102021974950001161584870000003760                             82091215158      000                        1421130206                              100206000000000750010400540000000000000125647101140206              0000000000000000000000000000000000000000000000007657000000000015700000000000001140206                         0000000000000000000000000                                             000047
102021974950001161584870000003760                             82110117144      000                        1421130206                              100206000000000750010407765000000000000125647101140206              0000000000000000000000000000000000000000000000007657000000000015700000000000001140206                         0000000000000000000000000                                             000048
102021974950001161584870000003760                             82110118140      000                        1421130206                              100206000000000750010407765000000000000125647101140206              0000000000000000000000000000000000000000000000007652000000000015200000000000001140206                         0000000000000000000000000                                             000049
102021974950001161584870000003760                             82110313148      000                        1421130206                              100206000000000860010407765000000000000125647101140206              0000000000000000000000000000000000000000000000008858000000000025800000000000001140206                         0000000000000000000000000                                             000050
102021974950001161584870000003760                             82120117155      000                        1421130206                              100206000000000650010421245000000000000125647101140206              0000000000000000000000000000000000000000000000006636000000000013600000000000001140206                         0000000000000000000000000                                             000051
102021974950001161584870000003760                             82120135153      000                        1421130206                              100206000000000650010421245000000000000125647101140206              0000000000000000000000000000000000000000000000006636000000000013600000000000001140206                         0000000000000000000000000                                             000052
9201104                                                                                                                                                                                                                                                                                                                                                                                                   000053
