02RETORNO01COBRANCA       1584870000003760    IPAD                          104C ECON FEDERAL 100406                                                                                                                                                                                                                                                                                                 00180000001
102021974950001161584870000003760                             82000037766      000                        1421100406                              300306000000000860010430171000000000000125647101110406              0000000000000000000000000000000000000000000000008860000000000026000000000000001110406                         0000000000000000000000000                                             000002
102021974950001161584870000003760                             82000041216      000                        1421100406                              000000000000000760010400485000000000000125647101110406              0000000000000000000000000000000000000000000000007600000000000000000000000000001110406                         0000000000000000000000000                                             000003
102021974950001161584870000003760                             82000041224      000                        1421100406                              000000000000000760010400450000000000000125647101110406              0000000000000000000000000000000000000000000000007600000000000000000000000000001110406                         0000000000000000000000000                                             000004
102021974950001161584870000003760                             82000042123      000                        1421100406                              000000000000000675010409148000000000000125647101110406              0000000000000000000000000000000000000000000000006750000000000000000000000000001110406                         0000000000000000000000000                                             000005
102021974950001161584870000003760                             82000042131      000                        1421100406                              000000000000000675010409148000000000000125647101110406              0000000000000000000000000000000000000000000000006750000000000000000000000000001110406                         0000000000000000000000000                                             000006
102021974950001161584870000003760                             82000042140      000                        1421100406                              000000000000000675010409148000000000000125647101110406              0000000000000000000000000000000000000000000000006750000000000000000000000000001110406                         0000000000000000000000000                                             000007
102021974950001161584870000003760                             82000042158      000                        1421100406                              000000000000000675006500016000000000000270663101110406              0000000000000000000000000000000000000000000000006750000000000000000000000000001110406                         0000000000000000000000000                                             000008
102021974950001161584870000003760                             82000042174      000                        1421100406                              000000000000000675010409148000000000000125647101110406              0000000000000000000000000000000000000000000000006750000000000000000000000000001110406                         0000000000000000000000000                                             000009
102021974950001161584870000003760                             82000042204      000                        1421100406                              000000000000000675006500016000000000000270663101110406              0000000000000000000000000000000000000000000000006750000000000000000000000000001110406                         0000000000000000000000000                                             000010
102021974950001161584870000003760                             82000042379      000                        1421100406                              000000000000000675010409148000000000000125647101110406              0000000000000000000000000000000000000000000000006750000000000000000000000000001110406                         0000000000000000000000000                                             000011
102021974950001161584870000003760                             82010102161      000                        1421100406                              100406000000000375010414338000000000000125647101110406              0000000000000000000000000000000000000000000000003750000000000000000000000000001110406                         0000000000000000000000000                                             000012
102021974950001161584870000003760                             82010108160      000                        1421100406                              100406000000000750010414338000000000000125647101110406              0000000000000000000000000000000000000000000000007500000000000000000000000000001110406                         0000000000000000000000000                                             000013
102021974950001161584870000003760                             82010110164      000                        1421100406                              100406000000000750000121296000000000000270663101110406              0000000000000000000000000000000000000000000000007500000000000000000000000000001110406                         0000000000000000000000000                                             000014
102021974950001161584870000003760                             82010112159      000                        1421100406                              100306000000000750010414338000000000000125647101110406              0000000000000000000000000000000000000000000000007883000000000038300000000000001110406                         0000000000000000000000000                                             000015
102021974950001161584870000003760                             82010112167      000                        1421100406                              100406000000000750023725426000000000000270663101110406              0000000000000000000000000000000000000000000000007500000000000000000000000000001110406                         0000000000000000000000000                                             000016
102021974950001161584870000003760                             82010116162      000                        1421100406                              100406000000000750007347476000000000000270663101110406              0000000000000000000000000000000000000000000000007500000000000000000000000000001110406                         0000000000000000000000000                                             000017
102021974950001161584870000003760                             82010118165      000                        1421100406                              100406000000000375000105706000000000000270663101110406              0000000000000000000000000000000000000000000000003750000000000000000000000000001110406                         0000000000000000000000000                                             000018
102021974950001161584870000003760                             82010120160      000                        1421100406                              100406000000000750010414338000000000000125647101110406              0000000000000000000000000000000000000000000000007500000000000000000000000000001110406                         0000000000000000000000000                                             000019
102021974950001161584870000003760                             82010124165      000                        1421100406                              100406000000000750010414338000000000000125647101110406              0000000000000000000000000000000000000000000000007500000000000000000000000000001110406                         0000000000000000000000000                                             000020
102021974950001161584870000003760                             82010137160      000                        1421100406                              100406000000000750010414338000000000000125647101110406              0000000000000000000000000000000000000000000000007500000000000000000000000000001110406                         0000000000000000000000000                                             000021
102021974950001161584870000003760                             82010204169      000                        1421100406                              100406000000000420000117546000000000000270663101110406              0000000000000000000000000000000000000000000000004200000000000000000000000000001110406                         0000000000000000000000000                                             000022
102021974950001161584870000003760                             82010205165      000                        1421100406                              100406000000000420000117546000000000000270663101110406              0000000000000000000000000000000000000000000000004200000000000000000000000000001110406                         0000000000000000000000000                                             000023
102021974950001161584870000003760                             82010210169      000                        1421100406                              100406000000000420007347476000000000000270663101110406              0000000000000000000000000000000000000000000000004200000000000000000000000000001110406                         0000000000000000000000000                                             000024
102021974950001161584870000003760                             82010211165      000                        1421100406                              100406000000000420000117546000000000000270663101110406              0000000000000000000000000000000000000000000000004200000000000000000000000000001110406                         0000000000000000000000000                                             000025
102021974950001161584870000003760                             82010218160      000                        1421100406                              100406000000000420000117546000000000000270663101110406              0000000000000000000000000000000000000000000000004200000000000000000000000000001110406                         0000000000000000000000000                                             000026
102021974950001161584870000003760                             82010220164      000                        1421100406                              100406000000000420006500016000000000000270663101110406              0000000000000000000000000000000000000000000000004200000000000000000000000000001110406                         0000000000000000000000000                                             000027
102021974950001161584870000003760                             82010222167      000                        1421100406                              100406000000000420000117546000000000000270663101110406              0000000000000000000000000000000000000000000000004200000000000000000000000000001110406                         0000000000000000000000000                                             000028
102021974950001161584870000003760                             82010228149      000                        1421100406                              100406000000007920000117546000000000000270663101110406              0000000000000000000000000000000000000000000000079200000000000000000000000000001110406                         0000000000000000000000000                                             000029
102021974950001161584870000003760                             82030102167      000                        1421100406                              100406000000000750010424465000000000000125647101110406              0000000000000000000000000000000000000000000000007500000000000000000000000000001110406                         0000000000000000000000000                                             000030
102021974950001161584870000003760                             82030106162      000                        1421100406                              100406000000000750010424465000000000000125647101110406              0000000000000000000000000000000000000000000000007500000000000000000000000000001110406                         0000000000000000000000000                                             000031
102021974950001161584870000003760                             82030107169      000                        1421100406                              100406000000000750023732106000000000000270663101110406              0000000000000000000000000000000000000000000000007500000000000000000000000000001110406                         0000000000000000000000000                                             000032
102021974950001161584870000003760                             82030108165      000                        1421100406                              100406000000000750010424465000000000000125647101110406              0000000000000000000000000000000000000000000000007500000000000000000000000000001110406                         0000000000000000000000000                                             000033
102021974950001161584870000003760                             82030109161      000                        1421100406                              100406000000000750000109176000000000000270663101110406              0000000000000000000000000000000000000000000000007500000000000000000000000000001110406                         0000000000000000000000000                                             000034
102021974950001161584870000003760                             82030110160      000                        1421100406                              100406000000000750010424465000000000000125647101110406              0000000000000000000000000000000000000000000000007500000000000000000000000000001110406                         0000000000000000000000000                                             000035
102021974950001161584870000003760                             82030117164      000                        1421100406                              100406000000000750010424465000000000000125647101110406              0000000000000000000000000000000000000000000000007500000000000000000000000000001110406                         0000000000000000000000000                                             000036
102021974950001161584870000003760                             82030129162      000                        1421100406                              100406000000000750010424465000000000000125647101110406              0000000000000000000000000000000000000000000000007500000000000000000000000000001110406                         0000000000000000000000000                                             000037
102021974950001161584870000003760                             82030130160      000                        1421100406                              100406000000000750007347476000000000000270663101110406              0000000000000000000000000000000000000000000000007500000000000000000000000000001110406                         0000000000000000000000000                                             000038
102021974950001161584870000003760                             82030404112      000                        1421100406                              100406000000000760010407757000000000000125647101110406              0000000000000000000000000000000000000000000000007600000000000000000000000000001110406                         0000000000000000000000000                                             000039
102021974950001161584870000003760                             82030408118      000                        1421100406                              100406000000000760010407757000000000000125647101110406              0000000000000000000000000000000000000000000000007600000000000000000000000000001110406                         0000000000000000000000000                                             000040
102021974950001161584870000003760                             82030410112      000                        1421100406                              100406000000000760010407757000000000000125647101110406              0000000000000000000000000000000000000000000000007600000000000000000000000000001110406                         0000000000000000000000000                                             000041
102021974950001161584870000003760                             82030411119      000                        1421100406                              100406000000000760006500016000000000000270663101110406              0000000000000000000000000000000000000000000000007600000000000000000000000000001110406                         0000000000000000000000000                                             000042
102021974950001161584870000003760                             82030412115      000                        1421100406                              100406000000000760010407757000000000000125647101110406              0000000000000000000000000000000000000000000000007600000000000000000000000000001110406                         0000000000000000000000000                                             000043
102021974950001161584870000003760                             82030414118      000                        1421100406                              100406000000000760010407757000000000000125647101110406              0000000000000000000000000000000000000000000000007600000000000000000000000000001110406                         0000000000000000000000000                                             000044
102021974950001161584870000003760                             82030416110      000                        1421100406                              100406000000000760010407757000000000000125647101110406              0000000000000000000000000000000000000000000000007600000000000000000000000000001110406                         0000000000000000000000000                                             000045
102021974950001161584870000003760                             82030418113      000                        1421100406                              100406000000000760010407757000000000000125647101110406              0000000000000000000000000000000000000000000000007600000000000000000000000000001110406                         0000000000000000000000000                                             000046
102021974950001161584870000003760                             82030419110      000                        1421100406                              100406000000000760010407757000000000000125647101110406              0000000000000000000000000000000000000000000000007600000000000000000000000000001110406                         0000000000000000000000000                                             000047
102021974950001161584870000003760                             82030421114      000                        1421100406                              100406000000000760010407757000000000000125647101110406              0000000000000000000000000000000000000000000000007600000000000000000000000000001110406                         0000000000000000000000000                                             000048
102021974950001161584870000003760                             82030422110      000                        1421100406                              100406000000000760010407757000000000000125647101110406              0000000000000000000000000000000000000000000000007600000000000000000000000000001110406                         0000000000000000000000000                                             000049
102021974950001161584870000003760                             82030423117      000                        1421100406                              100406000000000760010407757000000000000125647101110406              0000000000000000000000000000000000000000000000007600000000000000000000000000001110406                         0000000000000000000000000                                             000050
102021974950001161584870000003760                             82030424113      000                        1421100406                              100406000000000760010407757000000000000125647101110406              0000000000000000000000000000000000000000000000007600000000000000000000000000001110406                         0000000000000000000000000                                             000051
102021974950001161584870000003760                             82030427112      000                        1421100406                              100406000000000760010407757000000000000125647101110406              0000000000000000000000000000000000000000000000007600000000000000000000000000001110406                         0000000000000000000000000                                             000052
102021974950001161584870000003760                             82030429115      000                        1421100406                              100406000000000760010407757000000000000125647101110406              0000000000000000000000000000000000000000000000007600000000000000000000000000001110406                         0000000000000000000000000                                             000053
102021974950001161584870000003760                             82030430113      000                        1421100406                              100406000000000760010407757000000000000125647101110406              0000000000000000000000000000000000000000000000007600000000000000000000000000001110406                         0000000000000000000000000                                             000054
102021974950001161584870000003760                             82030431110      000                        1421100406                              100406000000000760010407757000000000000125647101110406              0000000000000000000000000000000000000000000000007600000000000000000000000000001110406                         0000000000000000000000000                                             000055
102021974950001161584870000003760                             82030432116      000                        1421100406                              100406000000000760000124226000000000000270663101110406              0000000000000000000000000000000000000000000000007600000000000000000000000000001110406                         0000000000000000000000000                                             000056
102021974950001161584870000003760                             82040112173      000                        1421100406                              100406000000000430010400523000000000000125647101110406              0000000000000000000000000000000000000000000000004300000000000000000000000000001110406                         0000000000000000000000000                                             000057
102021974950001161584870000003760                             82040121172      000                        1421100406                              000000000000000430039928996000000000000270663101110406              0000000000000000000000000000000000000000000000004300000000000000000000000000001110406                         0000000000000000000000000                                             000058
102021974950001161584870000003760                             82040130163      000                        1421100406                              100306000000000430010400523000000000000125647101110406              0000000000000000000000000000000000000000000000004502000000000020200000000000001110406                         0000000000000000000000000                                             000059
102021974950001161584870000003760                             82040134177      000                        1421100406                              100406000000000860010409156000000000000125647101110406              0000000000000000000000000000000000000000000000008600000000000000000000000000001110406                         0000000000000000000000000                                             000060
102021974950001161584870000003760                             82040135173      000                        1421100406                              100406000000012040000110126000000000000270663101110406              0000000000000000000000000000000000000000000000120400000000000000000000000000001110406                         0000000000000000000000000                                             000061
102021974950001161584870000003760                             82040136170      000                        1421100406                              000000000000000430039928996000000000000270663101110406              0000000000000000000000000000000000000000000000004300000000000000000000000000001110406                         0000000000000000000000000                                             000062
102021974950001161584870000003760                             82040201176      000                        1421100406                              100406000000000430010400523000000000000125647101110406              0000000000000000000000000000000000000000000000004300000000000000000000000000001110406                         0000000000000000000000000                                             000063
102021974950001161584870000003760                             82040202172      000                        1421100406                              100406000000000430010400523000000000000125647101110406              0000000000000000000000000000000000000000000000004300000000000000000000000000001110406                         0000000000000000000000000                                             000064
102021974950001161584870000003760                             82040207174      000                        1421100406                              100406000000000430010400523000000000000125647101110406              0000000000000000000000000000000000000000000000004300000000000000000000000000001110406                         0000000000000000000000000                                             000065
102021974950001161584870000003760                             82040208170      000                        1421100406                              000000000000000430039928996000000000000270663101110406              0000000000000000000000000000000000000000000000004300000000000000000000000000001110406                         0000000000000000000000000                                             000066
102021974950001161584870000003760                             82040209177      000                        1421100406                              100406000000000430006500016000000000000270663101110406              0000000000000000000000000000000000000000000000004300000000000000000000000000001110406                         0000000000000000000000000                                             000067
102021974950001161584870000003760                             82040210175      000                        1421100406                              100406000000000430007347476000000000000270663101110406              0000000000000000000000000000000000000000000000004300000000000000000000000000001110406                         0000000000000000000000000                                             000068
102021974950001161584870000003760                             82040212178      000                        1421100406                              100406000000000860010400523000000000000125647101110406              0000000000000000000000000000000000000000000000008600000000000000000000000000001110406                         0000000000000000000000000                                             000069
102021974950001161584870000003760                             82040213174      000                        1421100406                              100406000000000430010400523000000000000125647101110406              0000000000000000000000000000000000000000000000004300000000000000000000000000001110406                         0000000000000000000000000                                             000070
102021974950001161584870000003760                             82040218176      000                        1421100406                              100406000000000430006500016000000000000270663101110406              0000000000000000000000000000000000000000000000004300000000000000000000000000001110406                         0000000000000000000000000                                             000071
102021974950001161584870000003760                             82040219172      000                        1421100406                              100406000000000430006500016000000000000270663101110406              0000000000000000000000000000000000000000000000004300000000000000000000000000001110406                         0000000000000000000000000                                             000072
102021974950001161584870000003760                             82040222173      000                        1421100406                              100406000000000430006500016000000000000270663101110406              0000000000000000000000000000000000000000000000004300000000000000000000000000001110406                         0000000000000000000000000                                             000073
102021974950001161584870000003760                             82040227175      000                        1421100406                              100406000000000430006500016000000000000270663101110406              0000000000000000000000000000000000000000000000004300000000000000000000000000001110406                         0000000000000000000000000                                             000074
102021974950001161584870000003760                             82040229178      000                        1421100406                              100406000000000430075641796000000000000270663101110406              0000000000000000000000000000000000000000000000004300000000000000000000000000001110406                         0000000000000000000000000                                             000075
102021974950001161584870000003760                             82040231172      000                        1421100406                              100406000000000430010400523000000000000125647101110406              0000000000000000000000000000000000000000000000004300000000000000000000000000001110406                         0000000000000000000000000                                             000076
102021974950001161584870000003760                             82040233175      000                        1421100406                              100406000000000430007347476000000000000270663101110406              0000000000000000000000000000000000000000000000004300000000000000000000000000001110406                         0000000000000000000000000                                             000077
102021974950001161584870000003760                             82040234171      000                        1421100406                              100406000000000430002410606000000000000270663101110406              0000000000000000000000000000000000000000000000004300000000000000000000000000001110406                         0000000000000000000000000                                             000078
102021974950001161584870000003760                             82040239173      000                        1421100406                              100406000000013760000105506000000000000270663101110406              0000000000000000000000000000000000000000000000137600000000000000000000000000001110406                         0000000000000000000000000                                             000079
102021974950001161584870000003760                             82040303173      000                        1421100406                              100406000000000360010400523000000000000125647101110406              0000000000000000000000000000000000000000000000003600000000000000000000000000001110406                         0000000000000000000000000                                             000080
102021974950001161584870000003760                             82040304170      000                        1421100406                              100406000000000360010400523000000000000125647101110406              0000000000000000000000000000000000000000000000003600000000000000000000000000001110406                         0000000000000000000000000                                             000081
102021974950001161584870000003760                             82040306172      000                        1421100406                              100406000000000360010400523000000000000125647101110406              0000000000000000000000000000000000000000000000003600000000000000000000000000001110406                         0000000000000000000000000                                             000082
102021974950001161584870000003760                             82040308175      000                        1421100406                              100406000000000360010400523000000000000125647101110406              0000000000000000000000000000000000000000000000003600000000000000000000000000001110406                         0000000000000000000000000                                             000083
102021974950001161584870000003760                             82040309171      000                        1421100406                              100406000000000360010400523000000000000125647101110406              0000000000000000000000000000000000000000000000003600000000000000000000000000001110406                         0000000000000000000000000                                             000084
102021974950001161584870000003760                             82040311176      000                        1421100406                              100406000000000360010400523000000000000125647101110406              0000000000000000000000000000000000000000000000003600000000000000000000000000001110406                         0000000000000000000000000                                             000085
102021974950001161584870000003760                             82040313179      000                        1421100406                              100406000000000360010400523000000000000125647101110406              0000000000000000000000000000000000000000000000003600000000000000000000000000001110406                         0000000000000000000000000                                             000086
102021974950001161584870000003760                             82040314175      000                        1421100406                              100406000000000360010400523000000000000125647101110406              0000000000000000000000000000000000000000000000003600000000000000000000000000001110406                         0000000000000000000000000                                             000087
102021974950001161584870000003760                             82040316178      000                        1421100406                              100406000000000360010400523000000000000125647101110406              0000000000000000000000000000000000000000000000003600000000000000000000000000001110406                         0000000000000000000000000                                             000088
102021974950001161584870000003760                             82040317174      000                        1421100406                              100406000000000360010400523000000000000125647101110406              0000000000000000000000000000000000000000000000003600000000000000000000000000001110406                         0000000000000000000000000                                             000089
102021974950001161584870000003760                             82040319177      000                        1421100406                              100406000000000360010400523000000000000125647101110406              0000000000000000000000000000000000000000000000003600000000000000000000000000001110406                         0000000000000000000000000                                             000090
102021974950001161584870000003760                             82040320175      000                        1421100406                              100406000000000360010400523000000000000125647101110406              0000000000000000000000000000000000000000000000003600000000000000000000000000001110406                         0000000000000000000000000                                             000091
102021974950001161584870000003760                             82040322178      000                        1421100406                              100406000000000360010400523000000000000125647101110406              0000000000000000000000000000000000000000000000003600000000000000000000000000001110406                         0000000000000000000000000                                             000092
102021974950001161584870000003760                             82040323174      000                        1421100406                              100406000000000360007347476000000000000270663101110406              0000000000000000000000000000000000000000000000003600000000000000000000000000001110406                         0000000000000000000000000                                             000093
102021974950001161584870000003760                             82040327170      000                        1421100406                              100406000000000360010400523000000000000125647101110406              0000000000000000000000000000000000000000000000003600000000000000000000000000001110406                         0000000000000000000000000                                             000094
102021974950001161584870000003760                             82040330170      000                        1421100406                              100406000000000360006500016000000000000270663101110406              0000000000000000000000000000000000000000000000003600000000000000000000000000001110406                         0000000000000000000000000                                             000095
102021974950001161584870000003760                             82040332173      000                        1421100406                              100406000000000360006500016000000000000270663101110406              0000000000000000000000000000000000000000000000003600000000000000000000000000001110406                         0000000000000000000000000                                             000096
102021974950001161584870000003760                             82040334176      000                        1421100406                              100406000000000360010400523000000000000125647101110406              0000000000000000000000000000000000000000000000003600000000000000000000000000001110406                         0000000000000000000000000                                             000097
102021974950001161584870000003760                             82040414170      000                        1421100406                              100406000000000860010400523000000000000125647101110406              0000000000000000000000000000000000000000000000008600000000000000000000000000001110406                         0000000000000000000000000                                             000098
102021974950001161584870000003760                             82040418175      000                        1421100406                              100406000000000860000123866000000000000270663101110406              0000000000000000000000000000000000000000000000008600000000000000000000000000001110406                         0000000000000000000000000                                             000099
102021974950001161584870000003760                             82040421176      000                        1421100406                              100406000000000860010400523000000000000125647101110406              0000000000000000000000000000000000000000000000008600000000000000000000000000001110406                         0000000000000000000000000                                             000100
102021974950001161584870000003760                             82040427174      000                        1421100406                              100406000000000860010400523000000000000125647101110406              0000000000000000000000000000000000000000000000008600000000000000000000000000001110406                         0000000000000000000000000                                             000101
102021974950001161584870000003760                             82040437170      000                        1421100406                              100406000000013760000117396000000000000270663101110406              0000000000000000000000000000000000000000000000137600000000000000000000000000001110406                         0000000000000000000000000                                             000102
102021974950001161584870000003760                             82040502176      000                        1421100406                              100406000000000860006500016000000000000270663101110406              0000000000000000000000000000000000000000000000008600000000000000000000000000001110406                         0000000000000000000000000                                             000103
102021974950001161584870000003760                             82040506147      000                        1421100406                              100106000000000860010400523000000000000125647101110406              0000000000000000000000000000000000000000000000009546000000000094600000000000001110406                         0000000000000000000000000                                             000104
102021974950001161584870000003760                             82040510152      000                        1421100406                              100306000000000860010400523000000000000125647101110406              0000000000000000000000000000000000000000000000008600000000000000000000000000001110406                         0000000000000000000000000                                             000105
102021974950001161584870000003760                             82040510160      000                        1421100406                              100406000000000860010400523000000000000125647101110406              0000000000000000000000000000000000000000000000008600000000000000000000000000001110406                         0000000000000000000000000                                             000106
102021974950001161584870000003760                             82040525176      000                        1421100406                              100406000000000860010400523000000000000125647101110406              0000000000000000000000000000000000000000000000008600000000000000000000000000001110406                         0000000000000000000000000                                             000107
102021974950001161584870000003760                             82040526172      000                        1421100406                              100406000000000860010400523000000000000125620101110406              0000000000000000000000000000000000000000000000008600000000000000000000000000001110406                         0000000000000000000000000                                             000108
102021974950001161584870000003760                             82040530170      000                        1421100406                              000000000000000860039928996000000000000270663101110406              0000000000000000000000000000000000000000000000008600000000000000000000000000001110406                         0000000000000000000000000                                             000109
102021974950001161584870000003760                             82040602170      000                        1421100406                              100406000000000860010407730000000000000125647101110406              0000000000000000000000000000000000000000000000008600000000000000000000000000001110406                         0000000000000000000000000                                             000110
102021974950001161584870000003760                             82040603177      000                        1421100406                              100406000000000360010400523000000000000125647101110406              0000000000000000000000000000000000000000000000003600000000000000000000000000001110406                         0000000000000000000000000                                             000111
102021974950001161584870000003760                             82040604173      000                        1421100406                              000000000000000860039928996000000000000270663101110406              0000000000000000000000000000000000000000000000008600000000000000000000000000001110406                         0000000000000000000000000                                             000112
102021974950001161584870000003760                             82040605170      000                        1421100406                              100406000000000860010400523000000000000125647101110406              0000000000000000000000000000000000000000000000008600000000000000000000000000001110406                         0000000000000000000000000                                             000113
102021974950001161584870000003760                             82040606176      000                        1421100406                              100406000000000860006500016000000000000270663101110406              0000000000000000000000000000000000000000000000008600000000000000000000000000001110406                         0000000000000000000000000                                             000114
102021974950001161584870000003760                             82040609175      000                        1421100406                              100406000000000860010400523000000000000125647101110406              0000000000000000000000000000000000000000000000008600000000000000000000000000001110406                         0000000000000000000000000                                             000115
102021974950001161584870000003760                             82040610173      000                        1421100406                              100406000000000860006500016000000000000270663101110406              0000000000000000000000000000000000000000000000008600000000000000000000000000001110406                         0000000000000000000000000                                             000116
102021974950001161584870000003760                             82040611170      000                        1421100406                              100406000000000860006500016000000000000270663101110406              0000000000000000000000000000000000000000000000008600000000000000000000000000001110406                         0000000000000000000000000                                             000117
102021974950001161584870000003760                             82040612168      000                        1421100406                              100306000000000860010407730000000000000125647101110406              0000000000000000000000000000000000000000000000009080000000000048000000000000001110406                         0000000000000000000000000                                             000118
102021974950001161584870000003760                             82040618174      000                        1421100406                              000000000000000860039928996000000000000270663101110406              0000000000000000000000000000000000000000000000008600000000000000000000000000001110406                         0000000000000000000000000                                             000119
102021974950001161584870000003760                             82040632177      000                        1421100406                              100406000000000860010400523000000000000125647101110406              0000000000000000000000000000000000000000000000008600000000000000000000000000001110406                         0000000000000000000000000                                             000120
102021974950001161584870000003760                             82040641117      000                        1421100406                              100406000000006020000122446000000000000270663101110406              0000000000000000000000000000000000000000000000060200000000000000000000000000001110406                         0000000000000000000000000                                             000121
102021974950001161584870000003760                             82040701179      000                        1421100406                              100406000000000860006500016000000000000270663101110406              0000000000000000000000000000000000000000000000008600000000000000000000000000001110406                         0000000000000000000000000                                             000122
102021974950001161584870000003760                             82040713177      000                        1421100406                              100406000000000860007347476000000000000270663101110406              0000000000000000000000000000000000000000000000008600000000000000000000000000001110406                         0000000000000000000000000                                             000123
102021974950001161584870000003760                             82040718179      000                        1421100406                              100406000000000860006500016000000000000270663101110406              0000000000000000000000000000000000000000000000008600000000000000000000000000001110406                         0000000000000000000000000                                             000124
102021974950001161584870000003760                             82050102170      000                        1421100406                              100406000000000400007347476000000000000270663101110406              0000000000000000000000000000000000000000000000004000000000000000000000000000001110406                         0000000000000000000000000                                             000125
102021974950001161584870000003760                             82050105170      000                        1421100406                              100406000000000400023708356000000000000270663101110406              0000000000000000000000000000000000000000000000004000000000000000000000000000001110406                         0000000000000000000000000                                             000126
102021974950001161584870000003760                             82050111170      000                        1421100406                              100406000000000400010412955000000000000125647101110406              0000000000000000000000000000000000000000000000004000000000000000000000000000001110406                         0000000000000000000000000                                             000127
102021974950001161584870000003760                             82050112176      000                        1421100406                              100406000000000400006500016000000000000270663101110406              0000000000000000000000000000000000000000000000004000000000000000000000000000001110406                         0000000000000000000000000                                             000128
102021974950001161584870000003760                             82050114179      000                        1421100406                              100406000000000400010412955000000000000125647101110406              0000000000000000000000000000000000000000000000004000000000000000000000000000001110406                         0000000000000000000000000                                             000129
102021974950001161584870000003760                             82050121175      000                        1421100406                              100406000000000400006500016000000000000270663101110406              0000000000000000000000000000000000000000000000004000000000000000000000000000001110406                         0000000000000000000000000                                             000130
102021974950001161584870000003760                             82050123178      000                        1421100406                              100406000000000400006500016000000000000270663101110406              0000000000000000000000000000000000000000000000004000000000000000000000000000001110406                         0000000000000000000000000                                             000131
102021974950001161584870000003760                             82050125170      000                        1421100406                              100406000000000400006500016000000000000270663101110406              0000000000000000000000000000000000000000000000004000000000000000000000000000001110406                         0000000000000000000000000                                             000132
102021974950001161584870000003760                             82050127173      000                        1421100406                              100406000000000400006500016000000000000270663101110406              0000000000000000000000000000000000000000000000004000000000000000000000000000001110406                         0000000000000000000000000                                             000133
102021974950001161584870000003760                             82050130174      000                        1421100406                              100406000000000400006500016000000000000270663101110406              0000000000000000000000000000000000000000000000004000000000000000000000000000001110406                         0000000000000000000000000                                             000134
102021974950001161584870000003760                             82050135176      000                        1421100406                              100406000000000400006500016000000000000270663101110406              0000000000000000000000000000000000000000000000004000000000000000000000000000001110406                         0000000000000000000000000                                             000135
102021974950001161584870000003760                             82050202159      000                        1421100406                              100206000000000400010400531000000000000125647101110406              0000000000000000000000000000000000000000000000004316000000000031600000000000001110406                         0000000000000000000000000                                             000136
102021974950001161584870000003760                             82050204178      000                        1421100406                              100406000000000400006500016000000000000270663101110406              0000000000000000000000000000000000000000000000004000000000000000000000000000001110406                         0000000000000000000000000                                             000137
102021974950001161584870000003760                             82050209170      000                        1421100406                              100406000000000400006500016000000000000270663101110406              0000000000000000000000000000000000000000000000004000000000000000000000000000001110406                         0000000000000000000000000                                             000138
102021974950001161584870000003760                             82050210178      000                        1421100406                              100406000000000400010400531000000000000125647101110406              0000000000000000000000000000000000000000000000004000000000000000000000000000001110406                         0000000000000000000000000                                             000139
102021974950001161584870000003760                             82050213177      000                        1421100406                              100406000000000400006500016000000000000270663101110406              0000000000000000000000000000000000000000000000004000000000000000000000000000001110406                         0000000000000000000000000                                             000140
102021974950001161584870000003760                             82050217172      000                        1421100406                              100406000000000400006500016000000000000270663101110406              0000000000000000000000000000000000000000000000004000000000000000000000000000001110406                         0000000000000000000000000                                             000141
102021974950001161584870000003760                             82050221153      000                        1421100406                              100206000000000400010400531000000000000125647101110406              0000000000000000000000000000000000000000000000004320000000000032000000000000001110406                         0000000000000000000000000                                             000142
102021974950001161584870000003760                             82050221161      000                        1421100406                              100306000000000400010400531000000000000125647101110406              0000000000000000000000000000000000000000000000004204000000000020400000000000001110406                         0000000000000000000000000                                             000143
102021974950001161584870000003760                             82050221170      000                        1421100406                              100406000000000400006500016000000000000270663101110406              0000000000000000000000000000000000000000000000004000000000000000000000000000001110406                         0000000000000000000000000                                             000144
102021974950001161584870000003760                             82050225175      000                        1421100406                              100406000000000400006500016000000000000270663101110406              0000000000000000000000000000000000000000000000004000000000000000000000000000001110406                         0000000000000000000000000                                             000145
102021974950001161584870000003760                             82050227178      000                        1421100406                              100406000000000400010412424000000000000125647101110406              0000000000000000000000000000000000000000000000004000000000000000000000000000001110406                         0000000000000000000000000                                             000146
102021974950001161584870000003760                             82050231175      000                        1421100406                              000000000000000400039928996000000000000270663101110406              0000000000000000000000000000000000000000000000004000000000000000000000000000001110406                         0000000000000000000000000                                             000147
102021974950001161584870000003760                             82050304172      000                        1421100406                              100406000000000860006500016000000000000270663101110406              0000000000000000000000000000000000000000000000008600000000000000000000000000001110406                         0000000000000000000000000                                             000148
102021974950001161584870000003760                             82050326176      000                        1421100406                              100406000000000860000116666000000000000270663101110406              0000000000000000000000000000000000000000000000008600000000000000000000000000001110406                         0000000000000000000000000                                             000149
102021974950001161584870000003760                             82050332176      000                        1421100406                              100406000000000860006500016000000000000270663101110406              0000000000000000000000000000000000000000000000008600000000000000000000000000001110406                         0000000000000000000000000                                             000150
102021974950001161584870000003760                             82050333172      000                        1421100406                              100406000000000860010427782000000000000125647101110406              0000000000000000000000000000000000000000000000008600000000000000000000000000001110406                         0000000000000000000000000                                             000151
102021974950001161584870000003760                             82050337178      000                        1421100406                              100406000000000860010427782000000000000125647101110406              0000000000000000000000000000000000000000000000008600000000000000000000000000001110406                         0000000000000000000000000                                             000152
102021974950001161584870000003760                             82060135179      000                        1421100406                              150306000000000860010430171000000000000240655100100406              0000000000000000000000000000000000000000000000008995000000000039500000000000001100406                         0000000000000000000000000                                             000153
102021974950001161584870000003760                             82060202160      000                        1421100406                              100406000000000860010421911000000000000125647101110406              0000000000000000000000000000000000000000000000008600000000000000000000000000001110406                         0000000000000000000000000                                             000154
102021974950001161584870000003760                             82060203166      000                        1421100406                              100406000000000860006500016000000000000270663101110406              0000000000000000000000000000000000000000000000008600000000000000000000000000001110406                         0000000000000000000000000                                             000155
102021974950001161584870000003760                             82060221164      000                        1421100406                              100406000000000860006500016000000000000270663101110406              0000000000000000000000000000000000000000000000008600000000000000000000000000001110406                         0000000000000000000000000                                             000156
102021974950001161584870000003760                             82060222160      000                        1421100406                              100406000000000860010425461000000000000125647101110406              0000000000000000000000000000000000000000000000008600000000000000000000000000001110406                         0000000000000000000000000                                             000157
102021974950001161584870000003760                             82060235165      000                        1421100406                              100406000000000860006500016000000000000270663101110406              0000000000000000000000000000000000000000000000008600000000000000000000000000001110406                         0000000000000000000000000                                             000158
102021974950001161584870000003760                             82070102176      000                        1421100406                              100406000000000860035601326000000000000270663101110406              0000000000000000000000000000000000000000000000008600000000000000000000000000001110406                         0000000000000000000000000                                             000159
102021974950001161584870000003760                             82070113178      000                        1421100406                              100406000000000860010409440000000000000125647101110406              0000000000000000000000000000000000000000000000008600000000000000000000000000001110406                         0000000000000000000000000                                             000160
102021974950001161584870000003760                             82070115170      000                        1421100406                              000000000000000860039928996000000000000270663101110406              0000000000000000000000000000000000000000000000008600000000000000000000000000001110406                         0000000000000000000000000                                             000161
102021974950001161584870000003760                             82070118170      000                        1421100406                              100406000000000860010400469000000000000125647101110406              0000000000000000000000000000000000000000000000008600000000000000000000000000001110406                         0000000000000000000000000                                             000162
102021974950001161584870000003760                             82070119176      000                        1421100406                              100406000000000860007347476000000000000270663101110406              0000000000000000000000000000000000000000000000008600000000000000000000000000001110406                         0000000000000000000000000                                             000163
102021974950001161584870000003760                             82070130170      000                        1421100406                              100406000000000860010415830000000000000125647101110406              0000000000000000000000000000000000000000000000008600000000000000000000000000001110406                         0000000000000000000000000                                             000164
102021974950001161584870000003760                             82070203177      000                        1421100406                              100406000000000860000108216000000000000270663101110406              0000000000000000000000000000000000000000000000008600000000000000000000000000001110406                         0000000000000000000000000                                             000165
102021974950001161584870000003760                             82070210173      000                        1421100406                              000000000000000860039928996000000000000270663101110406              0000000000000000000000000000000000000000000000008600000000000000000000000000001110406                         0000000000000000000000000                                             000166
102021974950001161584870000003760                             82070215175      000                        1421100406                              000000000000000860039928996000000000000270663101110406              0000000000000000000000000000000000000000000000008600000000000000000000000000001110406                         0000000000000000000000000                                             000167
102021974950001161584870000003760                             82070221167      000                        1421100406                              100306000000000860010409440000000000000125647101110406              0000000000000000000000000000000000000000000000009051000000000045100000000000001110406                         0000000000000000000000000                                             000168
102021974950001161584870000003760                             82070309161      000                        1421100406                              150306000000000860010410308000000000000125647101110406              0000000000000000000000000000000000000000000000008978000000000037800000000000001110406                         0000000000000000000000000                                             000169
102021974950001161584870000003760                             82090101175      000                        1421100406                              100406000000000750010400540000000000000125647101110406              0000000000000000000000000000000000000000000000007500000000000000000000000000001110406                         0000000000000000000000000                                             000170
102021974950001161584870000003760                             82090109176      000                        1421100406                              100406000000000750010400540000000000000125647101110406              0000000000000000000000000000000000000000000000007500000000000000000000000000001110406                         0000000000000000000000000                                             000171
102021974950001161584870000003760                             82090117179      000                        1421100406                              100406000000000750010400540000000000000125647101110406              0000000000000000000000000000000000000000000000007500000000000000000000000000001110406                         0000000000000000000000000                                             000172
102021974950001161584870000003760                             82090125171      000                        1421100406                              100406000000000750010400540000000000000125647101110406              0000000000000000000000000000000000000000000000007500000000000000000000000000001110406                         0000000000000000000000000                                             000173
102021974950001161584870000003760                             82090127174      000                        1421100406                              100406000000000750002410056000000000000270663101110406              0000000000000000000000000000000000000000000000007500000000000000000000000000001110406                         0000000000000000000000000                                             000174
102021974950001161584870000003760                             82090209170      000                        1421100406                              000000000000000750039928996000000000000270663101110406              0000000000000000000000000000000000000000000000007500000000000000000000000000001110406                         0000000000000000000000000                                             000175
102021974950001161584870000003760                             82090215170      000                        1421100406                              100406000000000750075641796000000000000270663101110406              0000000000000000000000000000000000000000000000007500000000000000000000000000001110406                         0000000000000000000000000                                             000176
102021974950001161584870000003760                             82090224161      000                        1421100406                              100306000000000750010400540000000000000125647101110406              0000000000000000000000000000000000000000000000007880000000000038000000000000001110406                         0000000000000000000000000                                             000177
102021974950001161584870000003760                             82090224170      000                        1421100406                              100406000000000750010400540000000000000125647101110406              0000000000000000000000000000000000000000000000007500000000000000000000000000001110406                         0000000000000000000000000                                             000178
102021974950001161584870000003760                             82090234140      000                        1421100406                              100406000000000750010400540000000000000125647101110406              0000000000000000000000000000000000000000000000007500000000000000000000000000001110406                         0000000000000000000000000                                             000179
102021974950001161584870000003760                             82090310173      000                        1421100406                              100406000000000750010407749000000000000125647101110406              0000000000000000000000000000000000000000000000007500000000000000000000000000001110406                         0000000000000000000000000                                             000180
102021974950001161584870000003760                             82090325170      000                        1421100406                              100406000000000750006500016000000000000270663101110406              0000000000000000000000000000000000000000000000007500000000000000000000000000001110406                         0000000000000000000000000                                             000181
102021974950001161584870000003760                             82090330131      000                        1421100406                              100406000000000750010407749000000000000125647101110406              0000000000000000000000000000000000000000000000007500000000000000000000000000001110406                         0000000000000000000000000                                             000182
102021974950001161584870000003760                             82090334170      000                        1421100406                              100406000000000750010407749000000000000125647101110406              0000000000000000000000000000000000000000000000007500000000000000000000000000001110406                         0000000000000000000000000                                             000183
102021974950001161584870000003760                             82090420173      000                        1421100406                              100406000000000750010400540000000000000125647101110406              0000000000000000000000000000000000000000000000007500000000000000000000000000001110406                         0000000000000000000000000                                             000184
102021974950001161584870000003760                             82090421170      000                        1421100406                              000000000000000750039928996000000000000270663101110406              0000000000000000000000000000000000000000000000007500000000000000000000000000001110406                         0000000000000000000000000                                             000185
102021974950001161584870000003760                             82090427178      000                        1421100406                              100406000000000750010412424000000000000125647101110406              0000000000000000000000000000000000000000000000007500000000000000000000000000001110406                         0000000000000000000000000                                             000186
102021974950001161584870000003760                             82090434174      000                        1421100406                              100406000000000750010400540000000000000125647101110406              0000000000000000000000000000000000000000000000007500000000000000000000000000001110406                         0000000000000000000000000                                             000187
102021974950001161584870000003760                             82090502170      000                        1421100406                              100406000000000375010408770000000000000125647101110406              0000000000000000000000000000000000000000000000003750000000000000000000000000001110406                         0000000000000000000000000                                             000188
102021974950001161584870000003760                             82090506159      000                        1421100406                              100206000000000375010408770000000000000125647101110406              0000000000000000000000000000000000000000000000004042000000000029200000000000001110406                         0000000000000000000000000                                             000189
102021974950001161584870000003760                             82090506167      000                        1421100406                              100306000000000375010408770000000000000125647101110406              0000000000000000000000000000000000000000000000003947000000000019700000000000001110406                         0000000000000000000000000                                             000190
102021974950001161584870000003760                             82090510172      000                        1421100406                              100406000000000750010408770000000000000125647101110406              0000000000000000000000000000000000000000000000007500000000000000000000000000001110406                         0000000000000000000000000                                             000191
102021974950001161584870000003760                             82090511179      000                        1421100406                              100406000000000375006500016000000000000270663101110406              0000000000000000000000000000000000000000000000003750000000000000000000000000001110406                         0000000000000000000000000                                             000192
102021974950001161584870000003760                             82090515174      000                        1421100406                              100406000000000750010408770000000000000125647101110406              0000000000000000000000000000000000000000000000007500000000000000000000000000001110406                         0000000000000000000000000                                             000193
102021974950001161584870000003760                             82090527172      000                        1421100406                              100406000000008250000104466000000000000270663101110406              0000000000000000000000000000000000000000000000082500000000000000000000000000001110406                         0000000000000000000000000                                             000194
102021974950001161584870000003760                             82090601178      000                        1421100406                              100406000000000375010408770000000000000125647101110406              0000000000000000000000000000000000000000000000003750000000000000000000000000001110406                         0000000000000000000000000                                             000195
102021974950001161584870000003760                             82090602123      000                        1421100406                              100406000000000750010408770000000000000125647101110406              0000000000000000000000000000000000000000000000007500000000000000000000000000001110406                         0000000000000000000000000                                             000196
102021974950001161584870000003760                             82090606129      000                        1421100406                              100406000000000750010408770000000000000125647101110406              0000000000000000000000000000000000000000000000007500000000000000000000000000001110406                         0000000000000000000000000                                             000197
102021974950001161584870000003760                             82090610177      000                        1421100406                              100406000000000375074500016000000000000270663101110406              0000000000000000000000000000000000000000000000003750000000000000000000000000001110406                         0000000000000000000000000                                             000198
102021974950001161584870000003760                             82090615179      000                        1421100406                              100406000000000375010400540000000000000125647101110406              0000000000000000000000000000000000000000000000003750000000000000000000000000001110406                         0000000000000000000000000                                             000199
102021974950001161584870000003760                             82090620172      000                        1421100406                              100406000000000375006500016000000000000270663101110406              0000000000000000000000000000000000000000000000003750000000000000000000000000001110406                         0000000000000000000000000                                             000200
102021974950001161584870000003760                             82090623171      000                        1421100406                              100406000000000375074500016000000000000270663101110406              0000000000000000000000000000000000000000000000003750000000000000000000000000001110406                         0000000000000000000000000                                             000201
102021974950001161584870000003760                             82090625123      000                        1421100406                              100406000000000375006500016000000000000270663101110406              0000000000000000000000000000000000000000000000003750000000000000000000000000001110406                         0000000000000000000000000                                             000202
102021974950001161584870000003760                             82090630178      000                        1421100406                              100406000000000375010400531000000000000125647101110406              0000000000000000000000000000000000000000000000003750000000000000000000000000001110406                         0000000000000000000000000                                             000203
102021974950001161584870000003760                             82090631174      000                        1421100406                              100406000000009750000126696000000000000270663101110406              0000000000000000000000000000000000000000000000097500000000000000000000000000001110406                         0000000000000000000000000                                             000204
102021974950001161584870000003760                             82090705178      000                        1421100406                              100406000000000750023718776000000000000270663101110406              0000000000000000000000000000000000000000000000007500000000000000000000000000001110406                         0000000000000000000000000                                             000205
102021974950001161584870000003760                             82090707170      000                        1421100406                              100406000000000750006500016000000000000270663101110406              0000000000000000000000000000000000000000000000007500000000000000000000000000001110406                         0000000000000000000000000                                             000206
102021974950001161584870000003760                             82090714177      000                        1421100406                              100406000000000750006500016000000000000270663101110406              0000000000000000000000000000000000000000000000007500000000000000000000000000001110406                         0000000000000000000000000                                             000207
102021974950001161584870000003760                             82090723168      000                        1421100406                              100306000000000750010408770000000000000125647101110406              0000000000000000000000000000000000000000000000007860000000000036000000000000001110406                         0000000000000000000000000                                             000208
102021974950001161584870000003760                             82090729174      000                        1421100406                              100406000000000750006500016000000000000270663101110406              0000000000000000000000000000000000000000000000007500000000000000000000000000001110406                         0000000000000000000000000                                             000209
102021974950001161584870000003760                             82090732175      000                        1421100406                              000000000000000750039928996000000000000270663101110406              0000000000000000000000000000000000000000000000007500000000000000000000000000001110406                         0000000000000000000000000                                             000210
102021974950001161584870000003760                             82090803153      000                        1421100406                              100406000000000450010408770000000000000125647101110406              0000000000000000000000000000000000000000000000004500000000000000000000000000001110406                         0000000000000000000000000                                             000211
102021974950001161584870000003760                             82090806152      000                        1421100406                              100406000000000450010408770000000000000125647101110406              0000000000000000000000000000000000000000000000004500000000000000000000000000001110406                         0000000000000000000000000                                             000212
102021974950001161584870000003760                             82090828121      000                        1421100406                              300406000000000450010408770000000000000125647101110406              0000000000000000000000000000000000000000000000004500000000000000000000000000001110406                         0000000000000000000000000                                             000213
102021974950001161584870000003760                             82090828130      000                        1421100406                              300506000000000450010408770000000000000125647101110406              0000000000000000000000000000000000000000000000004500000000000000000000000000001110406                         0000000000000000000000000                                             000214
102021974950001161584870000003760                             82090836159      000                        1421100406                              100406000000010500000104466000000000000270663101110406              0000000000000000000000000000000000000000000000105000000000000000000000000000001110406                         0000000000000000000000000                                             000215
102021974950001161584870000003760                             82090901171      000                        1421100406                              100406000000000750010408770000000000000125647101110406              0000000000000000000000000000000000000000000000007500000000000000000000000000001110406                         0000000000000000000000000                                             000216
102021974950001161584870000003760                             82090903174      000                        1421100406                              100406000000000750006500016000000000000270663101110406              0000000000000000000000000000000000000000000000007500000000000000000000000000001110406                         0000000000000000000000000                                             000217
102021974950001161584870000003760                             82090904170      000                        1421100406                              100406000000000750010408770000000000000125647101110406              0000000000000000000000000000000000000000000000007500000000000000000000000000001110406                         0000000000000000000000000                                             000218
102021974950001161584870000003760                             82090905177      000                        1421100406                              100406000000000375023717836000000000000270663101110406              0000000000000000000000000000000000000000000000003750000000000000000000000000001110406                         0000000000000000000000000                                             000219
102021974950001161584870000003760                             82090911177      000                        1421100406                              100406000000000375010400540000000000000125647101110406              0000000000000000000000000000000000000000000000003750000000000000000000000000001110406                         0000000000000000000000000                                             000220
102021974950001161584870000003760                             82090913170      000                        1421100406                              100406000000000750010408770000000000000125647101110406              0000000000000000000000000000000000000000000000007500000000000000000000000000001110406                         0000000000000000000000000                                             000221
102021974950001161584870000003760                             82090914176      000                        1421100406                              100406000000000375010408770000000000000125647101110406              0000000000000000000000000000000000000000000000003750000000000000000000000000001110406                         0000000000000000000000000                                             000222
102021974950001161584870000003760                             82090924171      000                        1421100406                              100406000000000375010408770000000000000125647101110406              0000000000000000000000000000000000000000000000003750000000000000000000000000001110406                         0000000000000000000000000                                             000223
102021974950001161584870000003760                             82090931178      000                        1421100406                              000000000000000375039928996000000000000270663101110406              0000000000000000000000000000000000000000000000003750000000000000000000000000001110406                         0000000000000000000000000                                             000224
102021974950001161584870000003760                             82091006176      000                        1421100406                              100406000000000750010408770000000000000125647101110406              0000000000000000000000000000000000000000000000007500000000000000000000000000001110406                         0000000000000000000000000                                             000225
102021974950001161584870000003760                             82091011170      000                        1421100406                              100406000000000375010408770000000000000125647101110406              0000000000000000000000000000000000000000000000003750000000000000000000000000001110406                         0000000000000000000000000                                             000226
102021974950001161584870000003760                             82091014179      000                        1421100406                              100406000000000375006500016000000000000270663101110406              0000000000000000000000000000000000000000000000003750000000000000000000000000001110406                         0000000000000000000000000                                             000227
102021974950001161584870000003760                             82091017160      000                        1421100406                              100306000000000375010408770000000000000125647101110406              0000000000000000000000000000000000000000000000003750000000000000000000000000001110406                         0000000000000000000000000                                             000228
102021974950001161584870000003760                             82091022171      000                        1421100406                              100406000000000375010408770000000000000125647101110406              0000000000000000000000000000000000000000000000003750000000000000000000000000001110406                         0000000000000000000000000                                             000229
102021974950001161584870000003760                             82091028170      000                        1421100406                              100406000000000375010408770000000000000125647101110406              0000000000000000000000000000000000000000000000003750000000000000000000000000001110406                         0000000000000000000000000                                             000230
102021974950001161584870000003760                             82091032177      000                        1421100406                              100406000000000375010408770000000000000125647101110406              0000000000000000000000000000000000000000000000003750000000000000000000000000001110406                         0000000000000000000000000                                             000231
102021974950001161584870000003760                             82091108173      000                        1421100406                              100406000000000750010408770000000000000125647101110406              0000000000000000000000000000000000000000000000007500000000000000000000000000001110406                         0000000000000000000000000                                             000232
102021974950001161584870000003760                             82091207171      000                        1421100406                              100406000000000750010400540000000000000125647101110406              0000000000000000000000000000000000000000000000007500000000000000000000000000001110406                         0000000000000000000000000                                             000233
102021974950001161584870000003760                             82091208160      000                        1421100406                              100306000000000750010400540000000000000125647101110406              0000000000000000000000000000000000000000000000007865000000000036500000000000001110406                         0000000000000000000000000                                             000234
102021974950001161584870000003760                             82091210172      000                        1421100406                              100406000000000750010400540000000000000125647101110406              0000000000000000000000000000000000000000000000007500000000000000000000000000001110406                         0000000000000000000000000                                             000235
102021974950001161584870000003760                             82091216170      000                        1421100406                              100406000000000750010400540000000000000125647101110406              0000000000000000000000000000000000000000000000007500000000000000000000000000001110406                         0000000000000000000000000                                             000236
102021974950001161584870000003760                             82091219170      000                        1421100406                              100406000000000750010400540000000000000125647101110406              0000000000000000000000000000000000000000000000007500000000000000000000000000001110406                         0000000000000000000000000                                             000237
102021974950001161584870000003760                             82091220178      000                        1421100406                              100406000000000750010400540000000000000125647101110406              0000000000000000000000000000000000000000000000007500000000000000000000000000001110406                         0000000000000000000000000                                             000238
102021974950001161584870000003760                             82110106169      000                        1421100406                              100406000000000750010407765000000000000125647101110406              0000000000000000000000000000000000000000000000007500000000000000000000000000001110406                         0000000000000000000000000                                             000239
102021974950001161584870000003760                             82110113165      000                        1421100406                              100406000000000750000110286000000000000270663101110406              0000000000000000000000000000000000000000000000007500000000000000000000000000001110406                         0000000000000000000000000                                             000240
102021974950001161584870000003760                             82110116164      000                        1421100406                              100406000000000750010407765000000000000125647101110406              0000000000000000000000000000000000000000000000007500000000000000000000000000001110406                         0000000000000000000000000                                             000241
102021974950001161584870000003760                             82110118167      000                        1421100406                              100406000000000750010407765000000000000125647101110406              0000000000000000000000000000000000000000000000007500000000000000000000000000001110406                         0000000000000000000000000                                             000242
102021974950001161584870000003760                             82110202168      000                        1421100406                              100406000000000450010407765000000000000125620101110406              0000000000000000000000000000000000000000000000004500000000000000000000000000001110406                         0000000000000000000000000                                             000243
102021974950001161584870000003760                             82110205167      000                        1421100406                              100406000000000450010407765000000000000125620101110406              0000000000000000000000000000000000000000000000004500000000000000000000000000001110406                         0000000000000000000000000                                             000244
102021974950001161584870000003760                             82110211167      000                        1421100406                              100406000000000450010407765000000000000125647101110406              0000000000000000000000000000000000000000000000004500000000000000000000000000001110406                         0000000000000000000000000                                             000245
102021974950001161584870000003760                             82110214166      000                        1421100406                              000000000000000450039928996000000000000270663101110406              0000000000000000000000000000000000000000000000004500000000000000000000000000001110406                         0000000000000000000000000                                             000246
102021974950001161584870000003760                             82110218161      000                        1421100406                              100406000000000450010407765000000000000125620101110406              0000000000000000000000000000000000000000000000004500000000000000000000000000001110406                         0000000000000000000000000                                             000247
102021974950001161584870000003760                             82110220166      000                        1421100406                              100406000000000450010407765000000000000125647101110406              0000000000000000000000000000000000000000000000004500000000000000000000000000001110406                         0000000000000000000000000                                             000248
