02RETORNO01COBRANCA       1584870000003760    IPAD                          104C ECON FEDERAL 170106                                                                                                                                                                                                                                                                                                 00123000001
102021974950001161584870000003760                             82040304137      000                        1421170106                              151205000000000360010400523000000000000125647101180106              0000000000000000000000000000000000000000000000003704000000000010400000000000001180106                         0000000000000000000000000                                             000002
102021974950001161584870000003760                             82060111156      000                        1421170106                              150106000000000860010427081000000000000240655203200106              0000000000000000000000000000000000000000000000008789000000000018900000000000001200106                         0000000000000000000000000                                             000003
102021974950001161584870000003760                             82060124150      000                        1421170106                              150106000000000860010408761000000000000125647101180106              0000000000000000000000000000000000000000000000008789000000000018900000000000001180106                         0000000000000000000000000                                             000004
102021974950001161584870000003760                             82060129152      000                        1421170106                              150106000000000860010423469000000000000125647101180106              0000000000000000000000000000000000000000000000008797000000000019700000000000001180106                         0000000000000000000000000                                             000005
102021974950001161584870000003760                             82060207137      000                        1421170106                              100106000000000860010421911000000000000125647101180106              0000000000000000000000000000000000000000000000008832000000000023200000000000001180106                         0000000000000000000000000                                             000006
102021974950001161584870000003760                             82070101145      000                        1421170106                              100106000000000860010423485000000000000125647101180106              0000000000000000000000000000000000000000000000008832000000000023200000000000001180106                         0000000000000000000000000                                             000007
102021974950001161584870000003760                             82070308149      000                        1421170106                              150106000000000860010400477000000000000240655100170106              0000000000000000000000000000000000000000000000008790000000000019000000000000001170106                         0000000000000000000000000                                             000008
102021974950001161584870000003760                             82070417142      000                        1421170106                              150106000000000860010400485000000000000125647101180106              0000000000000000000000000000000000000000000000008791000000000019100000000000001180106                         0000000000000000000000000                                             000009
102021974950001161584870000003760                             82070523139      000                        1421170106                              151205000000000860010400450000000000000125647101180106              0000000000000000000000000000000000000000000000009036000000000043600000000000001180106                         0000000000000000000000000                                             000010
102021974950001161584870000003760                             82070527142      000                        1421170106                              150106000000000860010409237000000000000125647101180106              0000000000000000000000000000000000000000000000008790000000000019000000000000001180106                         0000000000000000000000000                                             000011
102021974950001161584870000003760                             82090525145      000                        1421170106                              100106000000000375010408770000000000000125647101180106              0000000000000000000000000000000000000000000000003852000000000010200000000000001180106                         0000000000000000000000000                                             000012
102021974950001161584870000003760                             82090831122      000                        1421170106                              150106000000000450010408770000000000000125647101180106              0000000000000000000000000000000000000000000000004592000000000009200000000000001180106                         0000000000000000000000000                                             000013
102021974950001161584870000003760                             82090925135      000                        1421170106                              101205000000000750010408770000000000000125647101180106              0000000000000000000000000000000000000000000000007916000000000041600000000000001180106                         0000000000000000000000000                                             000014
102021974950001161584870000003760                             82090925143      000                        1421170106                              100106000000000750010408770000000000000125647101180106              0000000000000000000000000000000000000000000000007699000000000019900000000000001180106                         0000000000000000000000000                                             000015
102021974950001161584870000003760                             82091001140      000                        1421170106                              100106000000000750010408770000000000000125647101180106              0000000000000000000000000000000000000000000000007699000000000019900000000000001180106                         0000000000000000000000000                                             000016
102021974950001161584870000003760                             82091112146      000                        1421170106                              100106000000000750010408770000000000000125647101180106              0000000000000000000000000000000000000000000000007702000000000020200000000000001180106                         0000000000000000000000000                                             000017
102021974950001161584870000003760                             82110402132      000                        1421170106                              200106000000000750010408125000000000000125647101180106              0000000000000000000000000000000000000000000000007500000000000000000000000000001180106                         0000000000000000000000000                                             000018
102021974950001161584870000003760                             82110406138      000                        1421170106                              200106000000000750006500016000000000000270663101180106              0000000000000000000000000000000000000000000000007500000000000000000000000000001180106                         0000000000000000000000000                                             000019
102021974950001161584870000003760                             82110416133      000                        1421170106                              200106000000000750006500016000000000000270663101180106              0000000000000000000000000000000000000000000000007500000000000000000000000000001180106                         0000000000000000000000000                                             000020
102021974950001161584870000003760                             82120110142      000                        1421170106                              100106000000000650010421245000000000000125647101180106              0000000000000000000000000000000000000000000000006672000000000017200000000000001180106                         0000000000000000000000000                                             000021
102021974950001161584870000003760                             82130224140      000                        1421170106                              101205000000000860010409148000000000000125647101180106              0000000000000000000000000000000000000000000000009105000000000050500000000000001180106                         0000000000000000000000000                                             000022
9201104                                                                                                                                                                                                                                                                                                                                                                                                   000023
