02RETORNO01COBRANCA       1584870000003760    IPAD                          104C ECON FEDERAL 130706                                                                                                                                                                                                                                                                                                 00244000001
102021974950001161584870000003760                             82000046331      000                        1421130706                              000000000000000760010421245000000000000125647101140706              0000000000000000000000000000000000000000000000007600000000000000000000000000001140706                         0000000000000000000000000                                             000002
102021974950001161584870000003760                             82000046617      000                        1421130706                              000000000000000760039928996000000000000270663101140706              0000000000000000000000000000000000000000000000007600000000000000000000000000001140706                         0000000000000000000000000                                             000003
102021974950001161584870000003760                             82010313120      000                        1421130706                              160706000000000660006500016000000000000270663101140706              0000000000000000000000000000000000000000000000006600000000000000000000000000001140706                         0000000000000000000000000                                             000004
102021974950001161584870000003760                             82030232141      000                        1421130706                              100906000000000760010400418000000000000125620101140706              0000000000000000000000000000000000000000000000007600000000000000000000000000001140706                         0000000000000000000000000                                             000005
102021974950001161584870000003760                             82030422137      000                        1421130706                              100606000000000760010407757000000000000125647101140706              0000000000000000000000000000000000000000000000007983000000000038300000000000001140706                         0000000000000000000000000                                             000006
102021974950001161584870000003760                             82030525114      000                        1421130706                              150706000000000760010409156000000000000125620101140706              0000000000000000000000000000000000000000000000007600000000000000000000000000001140706                         0000000000000000000000000                                             000007
102021974950001161584870000003760                             82030545115      000                        1421130706                              150706000000000760000127026000000000000270663101140706              0000000000000000000000000000000000000000000000007600000000000000000000000000001140706                         0000000000000000000000000                                             000008
102021974950001161584870000003760                             82030551115      000                        1421130706                              150706000000000760000127026000000000000270663101140706              0000000000000000000000000000000000000000000000007600000000000000000000000000001140706                         0000000000000000000000000                                             000009
102021974950001161584870000003760                             82030805117      000                        1421130706                              100706000000000760010409156000000000000125647101140706              0000000000000000000000000000000000000000000000007774000000000017400000000000001140706                         0000000000000000000000000                                             000010
102021974950001161584870000003760                             82030808116      000                        1421130706                              100706000000000760010409156000000000000125647101140706              0000000000000000000000000000000000000000000000007774000000000017400000000000001140706                         0000000000000000000000000                                             000011
102021974950001161584870000003760                             82030811117      000                        1421130706                              100706000000000760010409156000000000000125647101140706              0000000000000000000000000000000000000000000000007774000000000017400000000000001140706                         0000000000000000000000000                                             000012
102021974950001161584870000003760                             82030812113      000                        1421130706                              100706000000000760010409156000000000000125647101140706              0000000000000000000000000000000000000000000000007774000000000017400000000000001140706                         0000000000000000000000000                                             000013
102021974950001161584870000003760                             82030822119      000                        1421130706                              100706000000000760010409156000000000000125647101140706              0000000000000000000000000000000000000000000000007775000000000017500000000000001140706                         0000000000000000000000000                                             000014
102021974950001161584870000003760                             82030906118      000                        1421130706                              100706000000000760010407757000000000000125647101140706              0000000000000000000000000000000000000000000000007773000000000017300000000000001140706                         0000000000000000000000000                                             000015
102021974950001161584870000003760                             82040522169      000                        1421130706                              300406000000000860010400523000000000000125647101140706              0000000000000000000000000000000000000000000000008846000000000024600000000000001140706                         0000000000000000000000000                                             000016
102021974950001161584870000003760                             82060504115      000                        1421130706                              150706000000000760010409172000000000000125647101140706              0000000000000000000000000000000000000000000000007600000000000000000000000000001140706                         0000000000000000000000000                                             000017
102021974950001161584870000003760                             82060507114      000                        1421130706                              150706000000000760006500016000000000000270663101140706              0000000000000000000000000000000000000000000000007600000000000000000000000000001140706                         0000000000000000000000000                                             000018
102021974950001161584870000003760                             82060518116      000                        1421130706                              150706000000000760010410308000000000000125647101140706              0000000000000000000000000000000000000000000000007600000000000000000000000000001140706                         0000000000000000000000000                                             000019
102021974950001161584870000003760                             82060525112      000                        1421130706                              150706000000000760010415822000000000000125647101140706              0000000000000000000000000000000000000000000000007600000000000000000000000000001140706                         0000000000000000000000000                                             000020
102021974950001161584870000003760                             82060603148      000                        1421130706                              150706000000000750010412424000000000000125647101140706              0000000000000000000000000000000000000000000000007500000000000000000000000000001140706                         0000000000000000000000000                                             000021
102021974950001161584870000003760                             82060608131      000                        1421130706                              150606000000000750010412424000000000000125647101140706              0000000000000000000000000000000000000000000000007874000000000037400000000000001140706                         0000000000000000000000000                                             000022
102021974950001161584870000003760                             82060625133      000                        1421130706                              150706000000000750006500016000000000000270663101140706              0000000000000000000000000000000000000000000000007500000000000000000000000000001140706                         0000000000000000000000000                                             000023
102021974950001161584870000003760                             82060711145      000                        1421130706                              150706000000000860010400469000000000000125647101140706              0000000000000000000000000000000000000000000000008600000000000000000000000000001140706                         0000000000000000000000000                                             000024
102021974950001161584870000003760                             82070227165      000                        1421130706                              100706000000000860010409172000000000000125647101140706              0000000000000000000000000000000000000000000000008799000000000019900000000000001140706                         0000000000000000000000000                                             000025
102021974950001161584870000003760                             82070227173      000                        1421130706                              100706000000000860010409172000000000000125647101140706              0000000000000000000000000000000000000000000000008799000000000019900000000000001140706                         0000000000000000000000000                                             000026
102021974950001161584870000003760                             82070626132      000                        1421130706                              210706000000000760010405592000000000000125647101140706              0000000000000000000000000000000000000000000000007600000000000000000000000000001140706                         0000000000000000000000000                                             000027
102021974950001161584870000003760                             82070629123      000                        1421130706                              210606000000000760010405592000000000000125647101140706              0000000000000000000000000000000000000000000000007919000000000031900000000000001140706                         0000000000000000000000000                                             000028
102021974950001161584870000003760                             82070717111      000                        1421130706                              200706000000000760010405592000000000000125647101140706              0000000000000000000000000000000000000000000000007600000000000000000000000000001140706                         0000000000000000000000000                                             000029
102021974950001161584870000003760                             82070724118      000                        1421130706                              200706000000000760007347476000000000000270663101140706              0000000000000000000000000000000000000000000000007600000000000000000000000000001140706                         0000000000000000000000000                                             000030
102021974950001161584870000003760                             82070726110      000                        1421130706                              200706000000000760007347476000000000000270663101140706              0000000000000000000000000000000000000000000000007600000000000000000000000000001140706                         0000000000000000000000000                                             000031
102021974950001161584870000003760                             82090601143      000                        1421130706                              100506000000000375010408770000000000000125647101140706              0000000000000000000000000000000000000000000000004065000000000031500000000000001140706                         0000000000000000000000000                                             000032
9201104                                                                                                                                                                                                                                                                                                                                                                                                   000033
