02RETORNO01COBRANCA       1584870000003760    IPAD                          104C ECON FEDERAL 200106                                                                                                                                                                                                                                                                                                 00126000001
102021974950001161584870000003760                             82030128131      000                        1421200106                              100106000000000750010424465000000000000125647101230106              0000000000000000000000000000000000000000000000007720000000000022000000000000001230106                         0000000000000000000000000                                             000002
102021974950001161584870000003760                             82040638124      000                        1421200106                              200106000000000860010407730000000000000125647101230106              0000000000000000000000000000000000000000000000008600000000000000000000000000001230106                         0000000000000000000000000                                             000003
102021974950001161584870000003760                             82040638132      000                        1421200106                              200106000000000860010407730000000000000125647101230106              0000000000000000000000000000000000000000000000008600000000000000000000000000001230106                         0000000000000000000000000                                             000004
102021974950001161584870000003760                             82070205145      000                        1421200106                              100106000000000860010410286000000000000125647101230106              0000000000000000000000000000000000000000000000008858000000000025800000000000001230106                         0000000000000000000000000                                             000005
102021974950001161584870000003760                             82070315145      000                        1421200106                              150106000000000860010409440000000000000125647101230106              0000000000000000000000000000000000000000000000008812000000000021200000000000001230106                         0000000000000000000000000                                             000006
102021974950001161584870000003760                             82070420143      000                        1421200106                              150106000000000860010430171000000000000240655100200106              0000000000000000000000000000000000000000000000008815000000000021500000000000001200106                         0000000000000000000000000                                             000007
102021974950001161584870000003760                             82090116148      000                        1421200106                              100106000000000750010400540000000000000125647101230106              0000000000000000000000000000000000000000000000007720000000000022000000000000001230106                         0000000000000000000000000                                             000008
102021974950001161584870000003760                             82090317143      000                        1421200106                              100106000000000750010407749000000000000125647101230106              0000000000000000000000000000000000000000000000007660000000000016000000000000001230106                         0000000000000000000000000                                             000009
102021974950001161584870000003760                             82090518122      000                        1421200106                              101105000000000375010408770000000000000240655100200106              0000000000000000000000000000000000000000000000004029000000000027900000000000001200106                         0000000000000000000000000                                             000010
102021974950001161584870000003760                             82090518130      000                        1421200106                              101205000000000375010408770000000000000240655100200106              0000000000000000000000000000000000000000000000003989000000000023900000000000001200106                         0000000000000000000000000                                             000011
102021974950001161584870000003760                             82090518149      000                        1421200106                              100106000000000375010408770000000000000240655100200106              0000000000000000000000000000000000000000000000003865000000000011500000000000001200106                         0000000000000000000000000                                             000012
102021974950001161584870000003760                             82090612129      000                        1421200106                              210106000000000375006500016000000000000270663101230106              0000000000000000000000000000000000000000000000003750000000000000000000000000001230106                         0000000000000000000000000                                             000013
102021974950001161584870000003760                             82090803129      000                        1421200106                              150106000000000450010408770000000000000125647101230106              0000000000000000000000000000000000000000000000004640000000000014000000000000001230106                         0000000000000000000000000                                             000014
102021974950001161584870000003760                             82090814120      000                        1421200106                              150106000000000450010408770000000000000125647101230106              0000000000000000000000000000000000000000000000004640000000000014000000000000001230106                         0000000000000000000000000                                             000015
102021974950001161584870000003760                             82091007148      000                        1421200106                              100106000000000375010408770000000000000125647101230106              0000000000000000000000000000000000000000000000003750000000000000000000000000001230106                         0000000000000000000000000                                             000016
102021974950001161584870000003760                             82091016147      000                        1421200106                              100106000000000375010408770000000000000125647101230106              0000000000000000000000000000000000000000000000003750000000000000000000000000001230106                         0000000000000000000000000                                             000017
102021974950001161584870000003760                             82110301131      000                        1421200106                              100106000000000860010407765000000000000125647101230106              0000000000000000000000000000000000000000000000008862000000000026200000000000001230106                         0000000000000000000000000                                             000018
102021974950001161584870000003760                             82110307130      000                        1421200106                              100106000000000860010407765000000000000125647101230106              0000000000000000000000000000000000000000000000008852000000000025200000000000001230106                         0000000000000000000000000                                             000019
9201104                                                                                                                                                                                                                                                                                                                                                                                                   000020
