02RETORNO01COBRANCA       1584870000003760    IPAD                          104C ECON FEDERAL 200706                                                                                                                                                                                                                                                                                                 00249000001
102021974950001161584870000003760                             82000046030      000                        1421200706                              000000000000000760010400469000000000000125647101210706              0000000000000000000000000000000000000000000000007600000000000000000000000000001210706                         0000000000000000000000000                                             000002
102021974950001161584870000003760                             82030503110      000                        1421200706                              150706000000000760010409156000000000000240655100200706              0000000000000000000000000000000000000000000000007792000000000019200000000000001200706                         0000000000000000000000000                                             000003
102021974950001161584870000003760                             82030540113      000                        1421200706                              150706000000000760010409156000000000000125647101210706              0000000000000000000000000000000000000000000000007646000000000004600000000000001210706                         0000000000000000000000000                                             000004
102021974950001161584870000003760                             82070616110      000                        1421200706                              200606000000000760010405592000000000000240655100200706              0000000000000000000000000000000000000000000000007992000000000039200000000000001200706                         0000000000000000000000000                                             000005
102021974950001161584870000003760                             82070627120      000                        1421200706                              210606000000000760010405592000000000000125647101210706              0000000000000000000000000000000000000000000000007972000000000037200000000000001210706                         0000000000000000000000000                                             000006
102021974950001161584870000003760                             82070633139      000                        1421200706                              210706000000000760006500016000000000000270663101210706              0000000000000000000000000000000000000000000000007600000000000000000000000000001210706                         0000000000000000000000000                                             000007
102021974950001161584870000003760                             82070701118      000                        1421200706                              200706000000000760010405592000000000000125647101210706              0000000000000000000000000000000000000000000000007600000000000000000000000000001210706                         0000000000000000000000000                                             000008
102021974950001161584870000003760                             82070705113      000                        1421200706                              200706000000000760010410308000000000000125647101210706              0000000000000000000000000000000000000000000000007600000000000000000000000000001210706                         0000000000000000000000000                                             000009
102021974950001161584870000003760                             82070706110      000                        1421200706                              200706000000000760007347476000000000000270663101210706              0000000000000000000000000000000000000000000000007600000000000000000000000000001210706                         0000000000000000000000000                                             000010
102021974950001161584870000003760                             82070715119      000                        1421200706                              200706000000000760010405592000000000000125647101210706              0000000000000000000000000000000000000000000000007600000000000000000000000000001210706                         0000000000000000000000000                                             000011
102021974950001161584870000003760                             82070718118      000                        1421200706                              220706000000000760010405592000000000000125647101210706              0000000000000000000000000000000000000000000000007600000000000000000000000000001210706                         0000000000000000000000000                                             000012
102021974950001161584870000003760                             82070723111      000                        1421200706                              200706000000000760007347476000000000000270663101210706              0000000000000000000000000000000000000000000000007600000000000000000000000000001210706                         0000000000000000000000000                                             000013
102021974950001161584870000003760                             82070725114      000                        1421200706                              200706000000000760010405592000000000000125647101210706              0000000000000000000000000000000000000000000000007600000000000000000000000000001210706                         0000000000000000000000000                                             000014
102021974950001161584870000003760                             82070728113      000                        1421200706                              220706000000000760006500016000000000000270663101210706              0000000000000000000000000000000000000000000000007600000000000000000000000000001210706                         0000000000000000000000000                                             000015
102021974950001161584870000003760                             82110118175      000                        1421200706                              100506000000000750010407765000000000000125647101210706              0000000000000000000000000000000000000000000000008183000000000068300000000000001210706                         0000000000000000000000000                                             000016
102021974950001161584870000003760                             82110719144      000                        1421200706                              200706000000000750035610376000000000000270663101210706              0000000000000000000000000000000000000000000000007500000000000000000000000000001210706                         0000000000000000000000000                                             000017
9201104                                                                                                                                                                                                                                                                                                                                                                                                   000018
