02RETORNO01COBRANCA       1584870000003760    IPAD                          104C ECON FEDERAL 160207                                                                                                                                                                                                                                                                                                 00393000001
102021974950001161584870000003760                             82000050436      000                        1421160207                              000000000000000800006500016000000000000270663101210207              0000000000000000000000000000000000000000000000008000000000000000000000000000001210207                         0000000000000000000000000                                             000002
102021974950001161584870000003760                             82000050487      000                        1421160207                              000000000000000800010407757000000000000125647101210207              0000000000000000000000000000000000000000000000008000000000000000000000000000001210207                         0000000000000000000000000                                             000003
102021974950001161584870000003760                             82030727175      000                        1421160207                              100207000000000760010409148000000000000125647101210207              0000000000000000000000000000000000000000000000007797000000000019700000000000001210207                         0000000000000000000000000                                             000004
102021974950001161584870000003760                             82070631160      000                        1421160207                              150207000000000760010405592000000000000125647101210207              0000000000000000000000000000000000000000000000007759000000000015900000000000001210207                         0000000000000000000000000                                             000005
102021974950001161584870000003760                             82071218178      000                        1421160207                              100107000000000760010400485000000000000125647204260207              0000000000000000000000000000000000000000000000007881000000000028100000000000001260207                         0000000000000000000000000                                             000006
102021974950001161584870000003760                             82071328135      000                        1421160207                              100107000000000760010421245000000000000240655100160207              0000000000000000000000000000000000000000000000008011000000000041100000000000001160207                         0000000000000000000000000                                             000007
102021974950001161584870000003760                             82071434156      000                        1421160207                              140307000000000760000107106000000000000270663101210207              0000000000000000000000000000000000000000000000007600000000000000000000000000001210207                         0000000000000000000000000                                             000008
102021974950001161584870000003760                             82110614156      000                        1421160207                              200107000000000750010407765000000000000125647101210207              0000000000000000000000000000000000000000000000007893000000000039300000000000001210207                         0000000000000000000000000                                             000009
102021974950001161584870000003760                             82110816166      000                        1421160207                              220207000000000750010407765000000000000125647101210207              0000000000000000000000000000000000000000000000007500000000000000000000000000001210207                         0000000000000000000000000                                             000010
9201104                                                                                                                                                                                                                                                                                                                                                                                                   000011
