02RETORNO01COBRANCA       1584870000003760    IPAD                          104C ECON FEDERAL 190805                                                                                                                                                                                                                                                                                                 00027000001
102021974950001161584870000003760                             82999012058      000                        1421190805                              300805000000001000010415806000000000000125647101220805              0000000000000000000000000000000000000000000000010000000000000000000000000000001220805                         0000000000000000000000000                                             000002
102021974950001161584870000003760                             82999012295      000                        1421190805                              300805000000000860007347476000000000000270663101220805              0000000000000000000000000000000000000000000000008600000000000000000000000000001220805                         0000000000000000000000000                                             000003
102021974950001161584870000003760                             82999012341      000                        1421190805                              300805000000000860010430171000000000000125647101220805              0000000000000000000000000000000000000000000000008600000000000000000000000000001220805                         0000000000000000000000000                                             000004
102021974950001161584870000003760                             82999012368      000                        1421190805                              300805000000000860010430171000000000000125647101220805              0000000000000000000000000000000000000000000000008600000000000000000000000000001220805                         0000000000000000000000000                                             000005
102021974950001161584870000003760                             82999012384      000                        1421190805                              300805000000000860002410596000000000000270663101220805              0000000000000000000000000000000000000000000000008600000000000000000000000000001220805                         0000000000000000000000000                                             000006
102021974950001161584870000003760                             82999012643      000                        1421190805                              250805000000000750010408770000000000000125647101220805              0000000000000000000000000000000000000000000000007500000000000000000000000000001220805                         0000000000000000000000000                                             000007
102021974950001161584870000003760                             82999012708      000                        1421190805                              250805000000000750006500016000000000000270663101220805              0000000000000000000000000000000000000000000000007500000000000000000000000000001220805                         0000000000000000000000000                                             000008
102021974950001161584870000003760                             82999013550      000                        1421190805                              250805000000000750010408770000000000000125647101220805              0000000000000000000000000000000000000000000000007500000000000000000000000000001220805                         0000000000000000000000000                                             000009
102021974950001161584870000003760                             82999013577      000                        1421190805                              250805000000000750006500016000000000000270663101220805              0000000000000000000000000000000000000000000000007500000000000000000000000000001220805                         0000000000000000000000000                                             000010
102021974950001161584870000003760                             82999013615      000                        1421190805                              250805000000000750010408770000000000000125647101220805              0000000000000000000000000000000000000000000000007500000000000000000000000000001220805                         0000000000000000000000000                                             000011
102021974950001161584870000003760                             82999014417      000                        1421190805                              250805000000000750010408770000000000000125647101220805              0000000000000000000000000000000000000000000000007500000000000000000000000000001220805                         0000000000000000000000000                                             000012
102021974950001161584870000003760                             82999014433      000                        1421190805                              250805000000000750010408770000000000000125647101220805              0000000000000000000000000000000000000000000000007500000000000000000000000000001220805                         0000000000000000000000000                                             000013
102021974950001161584870000003760                             82999014450      000                        1421190805                              250805000000000750010408770000000000000125647101220805              0000000000000000000000000000000000000000000000007500000000000000000000000000001220805                         0000000000000000000000000                                             000014
102021974950001161584870000003760                             82999014476      000                        1421190805                              250805000000000750006500016000000000000270663101220805              0000000000000000000000000000000000000000000000007500000000000000000000000000001220805                         0000000000000000000000000                                             000015
102021974950001161584870000003760                             82999014492      000                        1421190805                              250805000000000750010408770000000000000125647101220805              0000000000000000000000000000000000000000000000007500000000000000000000000000001220805                         0000000000000000000000000                                             000016
102021974950001161584870000003760                             82999014514      000                        1421190805                              250805000000000750010408770000000000000125647101220805              0000000000000000000000000000000000000000000000007500000000000000000000000000001220805                         0000000000000000000000000                                             000017
102021974950001161584870000003760                             82999014530      000                        1421190805                              250805000000000750006500016000000000000270663101220805              0000000000000000000000000000000000000000000000007500000000000000000000000000001220805                         0000000000000000000000000                                             000018
102021974950001161584870000003760                             82999014557      000                        1421190805                              250805000000000750010408770000000000000125647101220805              0000000000000000000000000000000000000000000000007500000000000000000000000000001220805                         0000000000000000000000000                                             000019
102021974950001161584870000003760                             82999014573      000                        1421190805                              250805000000000750010408770000000000000125647101220805              0000000000000000000000000000000000000000000000007500000000000000000000000000001220805                         0000000000000000000000000                                             000020
102021974950001161584870000003760                             82999014590      000                        1421190805                              250805000000000750006500016000000000000270663101220805              0000000000000000000000000000000000000000000000007500000000000000000000000000001220805                         0000000000000000000000000                                             000021
102021974950001161584870000003760                             82999014638      000                        1421190805                              250805000000000750010408770000000000000125647101220805              0000000000000000000000000000000000000000000000007500000000000000000000000000001220805                         0000000000000000000000000                                             000022
102021974950001161584870000003760                             82999014654      000                        1421190805                              250805000000000750010408770000000000000125647101220805              0000000000000000000000000000000000000000000000007500000000000000000000000000001220805                         0000000000000000000000000                                             000023
102021974950001161584870000003760                             82999014670      000                        1421190805                              250805000000000750010408770000000000000125647101220805              0000000000000000000000000000000000000000000000007500000000000000000000000000001220805                         0000000000000000000000000                                             000024
102021974950001161584870000003760                             82999014697      000                        1421190805                              250805000000000750010408770000000000000125647101220805              0000000000000000000000000000000000000000000000007500000000000000000000000000001220805                         0000000000000000000000000                                             000025
102021974950001161584870000003760                             82999014719      000                        1421190805                              250805000000000750010408770000000000000125647101220805              0000000000000000000000000000000000000000000000007500000000000000000000000000001220805                         0000000000000000000000000                                             000026
102021974950001161584870000003760                             82999014735      000                        1421190805                              250805000000000750010408770000000000000125647101220805              0000000000000000000000000000000000000000000000007500000000000000000000000000001220805                         0000000000000000000000000                                             000027
102021974950001161584870000003760                             82999014778      000                        1421190805                              250805000000000750010408770000000000000125647101220805              0000000000000000000000000000000000000000000000007500000000000000000000000000001220805                         0000000000000000000000000                                             000028
102021974950001161584870000003760                             82999014794      000                        1421190805                              250805000000000750010408770000000000000125647101220805              0000000000000000000000000000000000000000000000007500000000000000000000000000001220805                         0000000000000000000000000                                             000029
102021974950001161584870000003760                             82999014816      000                        1421190805                              250805000000000750010408770000000000000125647101220805              0000000000000000000000000000000000000000000000007500000000000000000000000000001220805                         0000000000000000000000000                                             000030
102021974950001161584870000003760                             82999014859      000                        1421190805                              250805000000000750010408770000000000000125647101220805              0000000000000000000000000000000000000000000000007500000000000000000000000000001220805                         0000000000000000000000000                                             000031
102021974950001161584870000003760                             82999014875      000                        1421190805                              250805000000000750010408770000000000000125647101220805              0000000000000000000000000000000000000000000000007500000000000000000000000000001220805                         0000000000000000000000000                                             000032
9201104                                                                                                                                                                                                                                                                                                                                                                                                   000033
