02RETORNO01COBRANCA       1584870000003760    IPAD                          104C ECON FEDERAL 200406                                                                                                                                                                                                                                                                                                 00187000001
102021974950001161584870000003760                             82040220170      000                        1421200406                              100406000000000430010400523000000000000240655100200406              0000000000000000000000000000000000000000000000004436000000000013600000000000001200406                         0000000000000000000000000                                             000002
102021974950001161584870000003760                             82040321171      000                        1421200406                              100406000000000360010400523000000000000125647101240406              0000000000000000000000000000000000000000000000003682000000000008200000000000001240406                         0000000000000000000000000                                             000003
102021974950001161584870000003760                             82060314162      000                        1421200406                              150406000000000860010408761000000000000125647101240406              0000000000000000000000000000000000000000000000008815000000000021500000000000001240406                         0000000000000000000000000                                             000004
102021974950001161584870000003760                             82060317161      000                        1421200406                              150406000000000860010408761000000000000125647101240406              0000000000000000000000000000000000000000000000008815000000000021500000000000001240406                         0000000000000000000000000                                             000005
102021974950001161584870000003760                             82070331175      000                        1421200406                              150406000000000860010415814000000000000125647101240406              0000000000000000000000000000000000000000000000008815000000000021500000000000001240406                         0000000000000000000000000                                             000006
102021974950001161584870000003760                             82070514148      000                        1421200406                              150106000000000860010406483000000000000125647101240406              0000000000000000000000000000000000000000000000009589000000000098900000000000001240406                         0000000000000000000000000                                             000007
102021974950001161584870000003760                             82070514156      000                        1421200406                              150206000000000860010406483000000000000125647101240406              0000000000000000000000000000000000000000000000009322000000000072200000000000001240406                         0000000000000000000000000                                             000008
102021974950001161584870000003760                             82070514164      000                        1421200406                              150306000000000860010406483000000000000125647101240406              0000000000000000000000000000000000000000000000009081000000000048100000000000001240406                         0000000000000000000000000                                             000009
102021974950001161584870000003760                             82090120153      000                        1421200406                              100406000000000750010400540000000000000125647101240406              0000000000000000000000000000000000000000000000007720000000000022000000000000001240406                         0000000000000000000000000                                             000010
102021974950001161584870000003760                             82090131163      000                        1421200406                              100406000000000750010400540000000000000125647101240406              0000000000000000000000000000000000000000000000007725000000000022500000000000001240406                         0000000000000000000000000                                             000011
102021974950001161584870000003760                             82090228175      000                        1421200406                              100406000000000750010400540000000000000125647101240406              0000000000000000000000000000000000000000000000007650000000000015000000000000001240406                         0000000000000000000000000                                             000012
102021974950001161584870000003760                             82110115168      000                        1421200406                              100406000000000750010407765000000000000125647101240406              0000000000000000000000000000000000000000000000007725000000000022500000000000001240406                         0000000000000000000000000                                             000013
102021974950001161584870000003760                             82110224161      000                        1421200406                              100406000000000450010407765000000000000240655100200406              0000000000000000000000000000000000000000000000004640000000000014000000000000001200406                         0000000000000000000000000                                             000014
102021974950001161584870000003760                             82110306133      000                        1421200406                              100106000000000860010407765000000000000240655100200406              0000000000000000000000000000000000000000000000009672000000000107200000000000001200406                         0000000000000000000000000                                             000015
102021974950001161584870000003760                             82110306141      000                        1421200406                              100206000000000860010407765000000000000240655100200406              0000000000000000000000000000000000000000000000009393000000000079300000000000001200406                         0000000000000000000000000                                             000016
102021974950001161584870000003760                             82110306150      000                        1421200406                              100306000000000860010407765000000000000240655100200406              0000000000000000000000000000000000000000000000009141000000000054100000000000001200406                         0000000000000000000000000                                             000017
102021974950001161584870000003760                             82110328161      000                        1421200406                              100406000000000860010407765000000000000125647204270406              0000000000000000000000000000000000000000000000008862000000000026200000000000001270406                         0000000000000000000000000                                             000018
102021974950001161584870000003760                             82110402167      000                        1421200406                              200406000000000750010408125000000000000125647101240406              0000000000000000000000000000000000000000000000007500000000000000000000000000001240406                         0000000000000000000000000                                             000019
102021974950001161584870000003760                             82110419167      000                        1421200406                              200406000000000750010408125000000000000125647101240406              0000000000000000000000000000000000000000000000007500000000000000000000000000001240406                         0000000000000000000000000                                             000020
9201104                                                                                                                                                                                                                                                                                                                                                                                                   000021
