02RETORNO01COBRANCA       1584870000003760    IPAD                          104C ECON FEDERAL 230306                                                                                                                                                                                                                                                                                                 00168000001
102021974950001161584870000003760                             82000035755      000                        1421230306                              150306000000000860010409156000000000000125647101240306              0000000000000000000000000000000000000000000000008844000000000024400000000000001240306                         0000000000000000000000000                                             000002
102021974950001161584870000003760                             82000035917      000                        1421230306                              150306000000000860010409156000000000000240655100230306              0000000000000000000000000000000000000000000000008779000000000017900000000000001230306                         0000000000000000000000000                                             000003
102021974950001161584870000003760                             82000038487      000                        1421230306                              210306000000000760010405592000000000000125647101240306              0000000000000000000000000000000000000000000000007767000000000016700000000000001240306                         0000000000000000000000000                                             000004
102021974950001161584870000003760                             82000038509      000                        1421230306                              210306000000000760010405592000000000000125647101240306              0000000000000000000000000000000000000000000000007767000000000016700000000000001240306                         0000000000000000000000000                                             000005
102021974950001161584870000003760                             82000038517      000                        1421230306                              210306000000000760010405592000000000000125647101240306              0000000000000000000000000000000000000000000000007767000000000016700000000000001240306                         0000000000000000000000000                                             000006
102021974950001161584870000003760                             82000038525      000                        1421230306                              210306000000000760010405592000000000000125647101240306              0000000000000000000000000000000000000000000000007767000000000016700000000000001240306                         0000000000000000000000000                                             000007
102021974950001161584870000003760                             82000038533      000                        1421230306                              210306000000000760010405592000000000000125647101240306              0000000000000000000000000000000000000000000000007767000000000016700000000000001240306                         0000000000000000000000000                                             000008
102021974950001161584870000003760                             82000038541      000                        1421230306                              210306000000000760010405592000000000000125647101240306              0000000000000000000000000000000000000000000000007767000000000016700000000000001240306                         0000000000000000000000000                                             000009
102021974950001161584870000003760                             82000038584      000                        1421230306                              210306000000000760010405592000000000000240655100230306              0000000000000000000000000000000000000000000000007768000000000016800000000000001230306                         0000000000000000000000000                                             000010
102021974950001161584870000003760                             82000038592      000                        1421230306                              210306000000000760010405592000000000000240655100230306              0000000000000000000000000000000000000000000000007768000000000016800000000000001230306                         0000000000000000000000000                                             000011
102021974950001161584870000003760                             82000038606      000                        1421230306                              210306000000000760010405592000000000000240655100230306              0000000000000000000000000000000000000000000000007768000000000016800000000000001230306                         0000000000000000000000000                                             000012
102021974950001161584870000003760                             82000039726      000                        1421230306                              000000000000000760010405592000000000000125647101240306              0000000000000000000000000000000000000000000000007600000000000000000000000000001240306                         0000000000000000000000000                                             000013
102021974950001161584870000003760                             82040220162      000                        1421230306                              100306000000000430010400523000000000000240655100230306              0000000000000000000000000000000000000000000000004451000000000015100000000000001230306                         0000000000000000000000000                                             000014
102021974950001161584870000003760                             82040412142      000                        1421230306                              100206000000000860010400523000000000000240655100230306              0000000000000000000000000000000000000000000000009141000000000054100000000000001230306                         0000000000000000000000000                                             000015
102021974950001161584870000003760                             82090119163      000                        1421230306                              100306000000000750010400540000000000000125647101240306              0000000000000000000000000000000000000000000000007741000000000024100000000000001240306                         0000000000000000000000000                                             000016
102021974950001161584870000003760                             82090417148      000                        1421230306                              100106000000000750010400540000000000000125647101240306              0000000000000000000000000000000000000000000000008154000000000065400000000000001240306                         0000000000000000000000000                                             000017
102021974950001161584870000003760                             82090721149      000                        1421230306                              100106000000000750010408770000000000000125647101240306              0000000000000000000000000000000000000000000000007713000000000021300000000000001240306                         0000000000000000000000000                                             000018
102021974950001161584870000003760                             82090721157      000                        1421230306                              100206000000000750010408770000000000000125647101240306              0000000000000000000000000000000000000000000000007682000000000018200000000000001240306                         0000000000000000000000000                                             000019
102021974950001161584870000003760                             82090919160      000                        1421230306                              100306000000000750010408770000000000000125647101240306              0000000000000000000000000000000000000000000000007665000000000016500000000000001240306                         0000000000000000000000000                                             000020
102021974950001161584870000003760                             82090932174      000                        1421230306                              100406000000017625000122576000000000000270663101240306              0000000000000000000000000000000000000000000000176250000000000000000000000000001240306                         0000000000000000000000000                                             000021
9201104                                                                                                                                                                                                                                                                                                                                                                                                   000022
