02RETORNO01COBRANCA       1584870000003760    IPAD                          104C ECON FEDERAL 241006                                                                                                                                                                                                                                                                                                 00315000001
102021974950001161584870000003760                             82030505113      000                        1421241006                              150706000000000760010409156000000000000125647101251006              0000000000000000000000000000000000000000000000008560000000000096000000000000001251006                         0000000000000000000000000                                             000002
102021974950001161584870000003760                             82030505121      000                        1421241006                              150806000000000760010409156000000000000125647101251006              0000000000000000000000000000000000000000000000008312000000000071200000000000001251006                         0000000000000000000000000                                             000003
102021974950001161584870000003760                             82030505130      000                        1421241006                              150906000000000760010409156000000000000125647101251006              0000000000000000000000000000000000000000000000008064000000000046400000000000001251006                         0000000000000000000000000                                             000004
102021974950001161584870000003760                             82030505148      000                        1421241006                              151006000000000760010409156000000000000125647101251006              0000000000000000000000000000000000000000000000007824000000000022400000000000001251006                         0000000000000000000000000                                             000005
102021974950001161584870000003760                             82030918140      000                        1421241006                              101006000000000760010407757000000000000125647101251006              0000000000000000000000000000000000000000000000007858000000000025800000000000001251006                         0000000000000000000000000                                             000006
102021974950001161584870000003760                             82060408140      000                        1421241006                              101006000000000760010430171000000000000240655100241006              0000000000000000000000000000000000000000000000007858000000000025800000000000001241006                         0000000000000000000000000                                             000007
102021974950001161584870000003760                             82070604163      000                        1421241006                              211006000000000760010405592000000000000125647101251006              0000000000000000000000000000000000000000000000007774000000000017400000000000001251006                         0000000000000000000000000                                             000008
102021974950001161584870000003760                             82070629158      000                        1421241006                              251006000000000760006500016000000000000270663101251006              0000000000000000000000000000000000000000000000007600000000000000000000000000001251006                         0000000000000000000000000                                             000009
102021974950001161584870000003760                             82110312176      000                        1421241006                              231006000000000860010407765000000000000125647101251006              0000000000000000000000000000000000000000000000008780000000000018000000000000001251006                         0000000000000000000000000                                             000010
102021974950001161584870000003760                             82110632154      000                        1421241006                              200806000000000750010407765000000000000125647101251006              0000000000000000000000000000000000000000000000008034000000000053400000000000001251006                         0000000000000000000000000                                             000011
102021974950001161584870000003760                             82110718172      000                        1421241006                              201006000000000750010407765000000000000125647101251006              0000000000000000000000000000000000000000000000007680000000000018000000000000001251006                         0000000000000000000000000                                             000012
9201104                                                                                                                                                                                                                                                                                                                                                                                                   000013
