02RETORNO01COBRANCA       1584870000003760    IPAD                          104C ECON FEDERAL 231105                                                                                                                                                                                                                                                                                                 00085000001
102021974950001161584870000003760                             82040302126      000                        1421231105                              251105000000000360006500016000000000000270663101241105              0000000000000000000000000000000000000000000000003600000000000000000000000000001241105                         0000000000000000000000000                                             000002
102021974950001161584870000003760                             82040322127      000                        1421231105                              251105000000000360010400523000000000000125647101241105              0000000000000000000000000000000000000000000000003600000000000000000000000000001241105                         0000000000000000000000000                                             000003
102021974950001161584870000003760                             82040323123      000                        1421231105                              251105000000000360010400523000000000000125647101241105              0000000000000000000000000000000000000000000000003600000000000000000000000000001241105                         0000000000000000000000000                                             000004
102021974950001161584870000003760                             82040324120      000                        1421231105                              251105000000000360010400523000000000000125647101241105              0000000000000000000000000000000000000000000000003600000000000000000000000000001241105                         0000000000000000000000000                                             000005
102021974950001161584870000003760                             82040326122      000                        1421231105                              251105000000000360010400523000000000000125647101241105              0000000000000000000000000000000000000000000000003600000000000000000000000000001241105                         0000000000000000000000000                                             000006
102021974950001161584870000003760                             82040332122      000                        1421231105                              251105000000000360010400523000000000000125647101241105              0000000000000000000000000000000000000000000000003600000000000000000000000000001241105                         0000000000000000000000000                                             000007
102021974950001161584870000003760                             82050321123      000                        1421231105                              101105000000000860010427782000000000000125647101241105              0000000000000000000000000000000000000000000000008783000000000018300000000000001241105                         0000000000000000000000000                                             000008
102021974950001161584870000003760                             82070309129      000                        1421231105                              151105000000000860010400450000000000000125647101241105              0000000000000000000000000000000000000000000000008840000000000024000000000000001241105                         0000000000000000000000000                                             000009
102021974950001161584870000003760                             82090519129      000                        1421231105                              101105000000000375010408770000000000000125647101241105              0000000000000000000000000000000000000000000000003864000000000011400000000000001241105                         0000000000000000000000000                                             000010
102021974950001161584870000003760                             82999032199      000                        1421231105                              301105000000000860006500016000000000000270663101241105              0000000000000000000000000000000000000000000000008600000000000000000000000000001241105                         0000000000000000000000000                                             000011
9201104                                                                                                                                                                                                                                                                                                                                                                                                   000012
