02RETORNO01COBRANCA       1584870000003760    IPAD                          104C ECON FEDERAL 270307                                                                                                                                                                                                                                                                                                 00417000001
102021974950001161584870000003760                             82000051530      000                        1421270307                              000000000000000800010400531000000000000125647101280307              0000000000000000000000000000000000000000000000008000000000000000000000000000001280307                         0000000000000000000000000                                             000002
102021974950001161584870000003760                             82000051548      000                        1421270307                              000000000000000800010400531000000000000125647101280307              0000000000000000000000000000000000000000000000008000000000000000000000000000001280307                         0000000000000000000000000                                             000003
102021974950001161584870000003760                             82000053010      000                        1421270307                              000000000000000800006500016000000000000270663101280307              0000000000000000000000000000000000000000000000008000000000000000000000000000001280307                         0000000000000000000000000                                             000004
102021974950001161584870000003760                             82000053028      000                        1421270307                              000000000000000800006500016000000000000270663101280307              0000000000000000000000000000000000000000000000008000000000000000000000000000001280307                         0000000000000000000000000                                             000005
102021974950001161584870000003760                             82030721134      000                        1421270307                              300307000000000760039928996000000000000270663101280307              0000000000000000000000000000000000000000000000007600000000000000000000000000001280307                         0000000000000000000000000                                             000006
102021974950001161584870000003760                             82030721142      000                        1421270307                              300307000000000760039928996000000000000270663101280307              0000000000000000000000000000000000000000000000007600000000000000000000000000001280307                         0000000000000000000000000                                             000007
102021974950001161584870000003760                             82030721150      000                        1421270307                              300307000000000760039928996000000000000270663101280307              0000000000000000000000000000000000000000000000007600000000000000000000000000001280307                         0000000000000000000000000                                             000008
102021974950001161584870000003760                             82030721169      000                        1421270307                              300307000000000760039928996000000000000270663101280307              0000000000000000000000000000000000000000000000007600000000000000000000000000001280307                         0000000000000000000000000                                             000009
102021974950001161584870000003760                             82030721177      000                        1421270307                              300307000000000760039928996000000000000270663101280307              0000000000000000000000000000000000000000000000007600000000000000000000000000001280307                         0000000000000000000000000                                             000010
102021974950001161584870000003760                             82111027149      000                        1421270307                              110207000000000760010407765000000000000125647101280307              0000000000000000000000000000000000000000000000008053000000000045300000000000001280307                         0000000000000000000000000                                             000011
102021974950001161584870000003760                             82111027157      000                        1421270307                              110307000000000760010407765000000000000125647101280307              0000000000000000000000000000000000000000000000007864000000000026400000000000001280307                         0000000000000000000000000                                             000012
102021974950001161584870000003760                             82130431170      000                        1421270307                              100407000000000760010409148000000000000125647101280307              0000000000000000000000000000000000000000000000007600000000000000000000000000001280307                         0000000000000000000000000                                             000013
9201104                                                                                                                                                                                                                                                                                                                                                                                                   000014
