02RETORNO01COBRANCA       1584870000003760    IPAD                          104C ECON FEDERAL 011106                                                                                                                                                                                                                                                                                                 00321000001
102021974950001161584870000003760                             82030519157      000                        1421011106                              151106000000000760010409148000000000000125620101031106              0000000000000000000000000000000000000000000000007600000000000000000000000000001031106                         0000000000000000000000000                                             000002
102021974950001161584870000003760                             82030552154      000                        1421011106                              151106000000000760006500016000000000000270663101031106              0000000000000000000000000000000000000000000000007600000000000000000000000000001031106                         0000000000000000000000000                                             000003
102021974950001161584870000003760                             82030711147      000                        1421011106                              000000000000000760039928996000000000000270663101031106              0000000000000000000000000000000000000000000000007600000000000000000000000000001031106                         0000000000000000000000000                                             000004
102021974950001161584870000003760                             82030715134      000                        1421011106                              101006000000000760010409148000000000000125647101031106              0000000000000000000000000000000000000000000000007906000000000030600000000000001031106                         0000000000000000000000000                                             000005
102021974950001161584870000003760                             82030905154      000                        1421011106                              101106000000000760010407757000000000000240655100011106              0000000000000000000000000000000000000000000000007600000000000000000000000000001011106                         0000000000000000000000000                                             000006
102021974950001161584870000003760                             82030905162      000                        1421011106                              101206000000000760010407757000000000000240655100011106              0000000000000000000000000000000000000000000000007600000000000000000000000000001011106                         0000000000000000000000000                                             000007
102021974950001161584870000003760                             82060411150      000                        1421011106                              101106000000000760000135046000000000000270663101031106              0000000000000000000000000000000000000000000000007600000000000000000000000000001031106                         0000000000000000000000000                                             000008
102021974950001161584870000003760                             82090807159      000                        1421011106                              300806000000000450010415830000000000000240655100011106              0000000000000000000000000000000000000000000000004825000000000032500000000000001011106                         0000000000000000000000000                                             000009
102021974950001161584870000003760                             82090807167      000                        1421011106                              300806000000000450010415830000000000000240655100011106              0000000000000000000000000000000000000000000000004825000000000032500000000000001011106                         0000000000000000000000000                                             000010
102021974950001161584870000003760                             82090807175      000                        1421011106                              300806000000000450010415830000000000000240655100011106              0000000000000000000000000000000000000000000000004825000000000032500000000000001011106                         0000000000000000000000000                                             000011
9201104                                                                                                                                                                                                                                                                                                                                                                                                   000012
