02RETORNO01COBRANCA       1584870000003760    IPAD                          104C ECON FEDERAL 020106                                                                                                                                                                                                                                                                                                 00112000001
102021974950001161584870000003760                             82010122138      000                        1421020106                              100106000000000750010414338000000000000125647101030106              0000000000000000000000000000000000000000000000007500000000000000000000000000001030106                         0000000000000000000000000                                             000002
102021974950001161584870000003760                             82010201135      000                        1421020106                              100106000000000420000117546000000000000270663101030106              0000000000000000000000000000000000000000000000004200000000000000000000000000001030106                         0000000000000000000000000                                             000003
102021974950001161584870000003760                             82040306148      000                        1421020106                              100106000000000360010400523000000000000125647101030106              0000000000000000000000000000000000000000000000003600000000000000000000000000001030106                         0000000000000000000000000                                             000004
102021974950001161584870000003760                             82040311141      000                        1421020106                              100106000000000360010400523000000000000125647101030106              0000000000000000000000000000000000000000000000003600000000000000000000000000001030106                         0000000000000000000000000                                             000005
102021974950001161584870000003760                             82040741120      000                        1421020106                              100106000000030100000111206000000000000270663101030106              0000000000000000000000000000000000000000000000301000000000000000000000000000001030106                         0000000000000000000000000                                             000006
102021974950001161584870000003760                             82050109140      000                        1421020106                              100106000000000400006500016000000000000270663101030106              0000000000000000000000000000000000000000000000004000000000000000000000000000001030106                         0000000000000000000000000                                             000007
102021974950001161584870000003760                             82050231140      000                        1421020106                              100106000000000400010400531000000000000125647101030106              0000000000000000000000000000000000000000000000004000000000000000000000000000001030106                         0000000000000000000000000                                             000008
102021974950001161584870000003760                             82060103153      000                        1421020106                              150106000000000860006500016000000000000270663101030106              0000000000000000000000000000000000000000000000008600000000000000000000000000001030106                         0000000000000000000000000                                             000009
102021974950001161584870000003760                             82060238121      000                        1421020106                              101205000000000860010421911000000000000125647101030106              0000000000000000000000000000000000000000000000008932000000000033200000000000001030106                         0000000000000000000000000                                             000010
102021974950001161584870000003760                             82060324133      000                        1421020106                              150106000000000860010408761000000000000125647101030106              0000000000000000000000000000000000000000000000008600000000000000000000000000001030106                         0000000000000000000000000                                             000011
102021974950001161584870000003760                             82060328139      000                        1421020106                              150106000000000860010408761000000000000125647101030106              0000000000000000000000000000000000000000000000008600000000000000000000000000001030106                         0000000000000000000000000                                             000012
102021974950001161584870000003760                             82070223127      000                        1421020106                              301205000000000860010415849000000000000125647101030106              0000000000000000000000000000000000000000000000008600000000000000000000000000001030106                         0000000000000000000000000                                             000013
102021974950001161584870000003760                             82090513139      000                        1421020106                              101205000000000375010408770000000000000125647101030106              0000000000000000000000000000000000000000000000003901000000000015100000000000001030106                         0000000000000000000000000                                             000014
102021974950001161584870000003760                             82090513147      000                        1421020106                              100106000000000375010408770000000000000125647101030106              0000000000000000000000000000000000000000000000003750000000000000000000000000001030106                         0000000000000000000000000                                             000015
102021974950001161584870000003760                             82090918147      000                        1421020106                              100106000000000750010408770000000000000125647101030106              0000000000000000000000000000000000000000000000007500000000000000000000000000001030106                         0000000000000000000000000                                             000016
102021974950001161584870000003760                             82091020144      000                        1421020106                              100106000000000375010408770000000000000125647101030106              0000000000000000000000000000000000000000000000003750000000000000000000000000001030106                         0000000000000000000000000                                             000017
102021974950001161584870000003760                             82091109145      000                        1421020106                              100106000000000750010400540000000000000125647101030106              0000000000000000000000000000000000000000000000007500000000000000000000000000001030106                         0000000000000000000000000                                             000018
102021974950001161584870000003760                             82091213147      000                        1421020106                              100106000000000750000116726000000000000270663101030106              0000000000000000000000000000000000000000000000007500000000000000000000000000001030106                         0000000000000000000000000                                             000019
102021974950001161584870000003760                             82130103157      000                        1421020106                              100106000000000860010409148000000000000125647101030106              0000000000000000000000000000000000000000000000008600000000000000000000000000001030106                         0000000000000000000000000                                             000020
102021974950001161584870000003760                             82130104153      000                        1421020106                              100106000000000860010409148000000000000125647101030106              0000000000000000000000000000000000000000000000008600000000000000000000000000001030106                         0000000000000000000000000                                             000021
9201104                                                                                                                                                                                                                                                                                                                                                                                                   000022
