02RETORNO01COBRANCA       1584870000003760    IPAD                          104C ECON FEDERAL 031106                                                                                                                                                                                                                                                                                                 00322000001
102021974950001161584870000003760                             82010310163      000                        1421031106                              101106000000000660010409148000000000000125647101061106              0000000000000000000000000000000000000000000000006600000000000000000000000000001061106                         0000000000000000000000000                                             000002
102021974950001161584870000003760                             82030214143      000                        1421031106                              100906000000000760010409156000000000000240655100031106              0000000000000000000000000000000000000000000000008162000000000056200000000000001031106                         0000000000000000000000000                                             000003
102021974950001161584870000003760                             82030214151      000                        1421031106                              101006000000000760010409156000000000000240655100031106              0000000000000000000000000000000000000000000000007934000000000033400000000000001031106                         0000000000000000000000000                                             000004
102021974950001161584870000003760                             82030216138      000                        1421031106                              100806000000000760010409156000000000000240655100031106              0000000000000000000000000000000000000000000000008398000000000079800000000000001031106                         0000000000000000000000000                                             000005
102021974950001161584870000003760                             82030216146      000                        1421031106                              100906000000000760010409156000000000000240655100031106              0000000000000000000000000000000000000000000000008162000000000056200000000000001031106                         0000000000000000000000000                                             000006
102021974950001161584870000003760                             82030216154      000                        1421031106                              101006000000000760010409156000000000000240655100031106              0000000000000000000000000000000000000000000000007934000000000033400000000000001031106                         0000000000000000000000000                                             000007
102021974950001161584870000003760                             82030534121      000                        1421031106                              031106000000000760010409156000000000000125620101061106              0000000000000000000000000000000000000000000000007600000000000000000000000000001061106                         0000000000000000000000000                                             000008
102021974950001161584870000003760                             82030534130      000                        1421031106                              031106000000000760010409156000000000000125620101061106              0000000000000000000000000000000000000000000000007600000000000000000000000000001061106                         0000000000000000000000000                                             000009
102021974950001161584870000003760                             82030545158      000                        1421031106                              151106000000000760006500016000000000000270663101061106              0000000000000000000000000000000000000000000000007600000000000000000000000000001061106                         0000000000000000000000000                                             000010
102021974950001161584870000003760                             82030550151      000                        1421031106                              151106000000000760000127026000000000000270663101061106              0000000000000000000000000000000000000000000000007600000000000000000000000000001061106                         0000000000000000000000000                                             000011
102021974950001161584870000003760                             82030556141      000                        1421031106                              151006000000000760010409148000000000000125647101061106              0000000000000000000000000000000000000000000000007897000000000029700000000000001061106                         0000000000000000000000000                                             000012
102021974950001161584870000003760                             82030719148      000                        1421031106                              000000000000000760039928996000000000000270663101061106              0000000000000000000000000000000000000000000000007600000000000000000000000000001061106                         0000000000000000000000000                                             000013
102021974950001161584870000003760                             82030722130      000                        1421031106                              101006000000000760010409148000000000000125647101061106              0000000000000000000000000000000000000000000000007934000000000033400000000000001061106                         0000000000000000000000000                                             000014
102021974950001161584870000003760                             82030907157      000                        1421031106                              101106000000000760000122296000000000000270663101061106              0000000000000000000000000000000000000000000000007600000000000000000000000000001061106                         0000000000000000000000000                                             000015
102021974950001161584870000003760                             82060525155      000                        1421031106                              101106000000000760023715996000000000000270663101061106              0000000000000000000000000000000000000000000000007600000000000000000000000000001061106                         0000000000000000000000000                                             000016
102021974950001161584870000003760                             82071203146      000                        1421031106                              101006000000000760010400485000000000000125647101061106              0000000000000000000000000000000000000000000000007913000000000031300000000000001061106                         0000000000000000000000000                                             000017
102021974950001161584870000003760                             82071203154      000                        1421031106                              101106000000000760010400493000000000000125620101061106              0000000000000000000000000000000000000000000000007600000000000000000000000000001061106                         0000000000000000000000000                                             000018
102021974950001161584870000003760                             82071233126      000                        1421031106                              100806000000000760010400485000000000000125647101061106              0000000000000000000000000000000000000000000000008432000000000083200000000000001061106                         0000000000000000000000000                                             000019
102021974950001161584870000003760                             82071233134      000                        1421031106                              100906000000000760010400485000000000000125647101061106              0000000000000000000000000000000000000000000000008184000000000058400000000000001061106                         0000000000000000000000000                                             000020
102021974950001161584870000003760                             82071234114      000                        1421031106                              251006000000000760010400485000000000000125647101061106              0000000000000000000000000000000000000000000000007815000000000021500000000000001061106                         0000000000000000000000000                                             000021
102021974950001161584870000003760                             82090329176      000                        1421031106                              251006000000000750010407749000000000000125647101061106              0000000000000000000000000000000000000000000000007706000000000020600000000000001061106                         0000000000000000000000000                                             000022
9201104                                                                                                                                                                                                                                                                                                                                                                                                   000023
