02RETORNO01COBRANCA       1584870000003760    IPAD                          104C ECON FEDERAL 310106                                                                                                                                                                                                                                                                                                 00133000001
102021974950001161584870000003760                             82010109131      000                        1421310106                              100106000000000375010414338000000000000240655100310106              0000000000000000000000000000000000000000000000003909000000000015900000000000001310106                         0000000000000000000000000                                             000002
102021974950001161584870000003760                             82010221144      000                        1421310106                              100206000000000420023725426000000000000270663101010206              0000000000000000000000000000000000000000000000004200000000000000000000000000001010206                         0000000000000000000000000                                             000003
102021974950001161584870000003760                             82010227142      000                        1421310106                              100206000000000420000117546000000000000270663101010206              0000000000000000000000000000000000000000000000004200000000000000000000000000001010206                         0000000000000000000000000                                             000004
102021974950001161584870000003760                             82030113142      000                        1421310106                              100206000000000750010424465000000000000240655100310106              0000000000000000000000000000000000000000000000007500000000000000000000000000001310106                         0000000000000000000000000                                             000005
102021974950001161584870000003760                             82040317158      000                        1421310106                              100206000000000360010400523000000000000125647101010206              0000000000000000000000000000000000000000000000003600000000000000000000000000001010206                         0000000000000000000000000                                             000006
102021974950001161584870000003760                             82040532121      000                        1421310106                              050106000000000860010400523000000000000125647101010206              0000000000000000000000000000000000000000000000008995000000000039500000000000001010206                         0000000000000000000000000                                             000007
102021974950001161584870000003760                             82050127157      000                        1421310106                              100206000000000400006500016000000000000270663101010206              0000000000000000000000000000000000000000000000004000000000000000000000000000001010206                         0000000000000000000000000                                             000008
102021974950001161584870000003760                             82050330149      000                        1421310106                              100106000000000860010410383000000000000125647101010206              0000000000000000000000000000000000000000000000008940000000000034000000000000001010206                         0000000000000000000000000                                             000009
102021974950001161584870000003760                             82060109160      000                        1421310106                              150206000000000860010400469000000000000125647101010206              0000000000000000000000000000000000000000000000008600000000000000000000000000001010206                         0000000000000000000000000                                             000010
102021974950001161584870000003760                             82060141152      000                        1421310106                              150106000000000860010430171000000000000240655100310106              0000000000000000000000000000000000000000000000008909000000000030900000000000001310106                         0000000000000000000000000                                             000011
102021974950001161584870000003760                             82060237133      000                        1421310106                              100106000000000860010421911000000000000125647101010206              0000000000000000000000000000000000000000000000008940000000000034000000000000001010206                         0000000000000000000000000                                             000012
102021974950001161584870000003760                             82060332136      000                        1421310106                              150106000000000860010421911000000000000240655100310106              0000000000000000000000000000000000000000000000008785000000000018500000000000001310106                         0000000000000000000000000                                             000013
102021974950001161584870000003760                             82070125150      000                        1421310106                              110206000000000860006500016000000000000270663101010206              0000000000000000000000000000000000000000000000008600000000000000000000000000001010206                         0000000000000000000000000                                             000014
102021974950001161584870000003760                             82070411144      000                        1421310106                              150106000000000860010400469000000000000125647101010206              0000000000000000000000000000000000000000000000008910000000000031000000000000001010206                         0000000000000000000000000                                             000015
102021974950001161584870000003760                             82070508130      000                        1421310106                              151205000000000860010409237000000000000125647101010206              0000000000000000000000000000000000000000000000009177000000000057700000000000001010206                         0000000000000000000000000                                             000016
102021974950001161584870000003760                             82070509152      000                        1421310106                              000000000000000860039928996000000000000270663101010206              0000000000000000000000000000000000000000000000008600000000000000000000000000001010206                         0000000000000000000000000                                             000017
102021974950001161584870000003760                             82090119147      000                        1421310106                              100106000000000750010400540000000000000125647101010206              0000000000000000000000000000000000000000000000007807000000000030700000000000001010206                         0000000000000000000000000                                             000018
102021974950001161584870000003760                             82090234132      000                        1421310106                              100106000000000750010400540000000000000125647101010206              0000000000000000000000000000000000000000000000007807000000000030700000000000001010206                         0000000000000000000000000                                             000019
102021974950001161584870000003760                             82090929157      000                        1421310106                              100206000000000375006500016000000000000270663101010206              0000000000000000000000000000000000000000000000003750000000000000000000000000001010206                         0000000000000000000000000                                             000020
102021974950001161584870000003760                             82091006150      000                        1421310106                              100206000000000750010408770000000000000125647101010206              0000000000000000000000000000000000000000000000007500000000000000000000000000001010206                         0000000000000000000000000                                             000021
102021974950001161584870000003760                             82091110151      000                        1421310106                              100206000000000750006500016000000000000270663101010206              0000000000000000000000000000000000000000000000007500000000000000000000000000001010206                         0000000000000000000000000                                             000022
102021974950001161584870000003760                             82091209140      000                        1421310106                              100106000000000750010400540000000000000125647101010206              0000000000000000000000000000000000000000000000007797000000000029700000000000001010206                         0000000000000000000000000                                             000023
102021974950001161584870000003760                             82120111149      000                        1421310106                              100106000000000650010421245000000000000125647101010206              0000000000000000000000000000000000000000000000006766000000000026600000000000001010206                         0000000000000000000000000                                             000024
9201104                                                                                                                                                                                                                                                                                                                                                                                                   000025
