02RETORNO01COBRANCA       1584870000003760    IPAD                          104C ECON FEDERAL 020207                                                                                                                                                                                                                                                                                                 00383000001
102021974950001161584870000003760                             82030224165      000                        1421020207                              101106000000000760010409156000000000000240655100020207              0000000000000000000000000000000000000000000000008390000000000079000000000000001020207                         0000000000000000000000000                                             000002
102021974950001161584870000003760                             82030225161      000                        1421020207                              101106000000000760010409156000000000000240655100020207              0000000000000000000000000000000000000000000000008390000000000079000000000000001020207                         0000000000000000000000000                                             000003
102021974950001161584870000003760                             82030225170      000                        1421020207                              101206000000000760010409156000000000000240655100020207              0000000000000000000000000000000000000000000000008162000000000056200000000000001020207                         0000000000000000000000000                                             000004
102021974950001161584870000003760                             82030719172      000                        1421020207                              100207000000000760039928996000000000000270663101050207              0000000000000000000000000000000000000000000000007600000000000000000000000000001050207                         0000000000000000000000000                                             000005
102021974950001161584870000003760                             82031004126      000                        1421020207                              300107000000000760010400523000000000000125647101050207              0000000000000000000000000000000000000000000000007600000000000000000000000000001050207                         0000000000000000000000000                                             000006
102021974950001161584870000003760                             82031007125      000                        1421020207                              300107000000000760010400523000000000000125647101050207              0000000000000000000000000000000000000000000000007600000000000000000000000000001050207                         0000000000000000000000000                                             000007
102021974950001161584870000003760                             82031010126      000                        1421020207                              300107000000000760010400523000000000000125647101050207              0000000000000000000000000000000000000000000000007600000000000000000000000000001050207                         0000000000000000000000000                                             000008
102021974950001161584870000003760                             82031012129      000                        1421020207                              300107000000000760010400523000000000000125647101050207              0000000000000000000000000000000000000000000000007756000000000015600000000000001050207                         0000000000000000000000000                                             000009
102021974950001161584870000003760                             82031013125      000                        1421020207                              300107000000000760010400523000000000000125647101050207              0000000000000000000000000000000000000000000000007756000000000015600000000000001050207                         0000000000000000000000000                                             000010
102021974950001161584870000003760                             82031018127      000                        1421020207                              300107000000000760010400523000000000000125647101050207              0000000000000000000000000000000000000000000000007756000000000015600000000000001050207                         0000000000000000000000000                                             000011
102021974950001161584870000003760                             82031021128      000                        1421020207                              300107000000000760010400523000000000000125647101050207              0000000000000000000000000000000000000000000000007980000000000038000000000000001050207                         0000000000000000000000000                                             000012
102021974950001161584870000003760                             82031033118      000                        1421020207                              301206000000000760010400523000000000000125647101050207              0000000000000000000000000000000000000000000000007756000000000015600000000000001050207                         0000000000000000000000000                                             000013
102021974950001161584870000003760                             82031103132      000                        1421020207                              100107000000000760010424465000000000000125647101050207              0000000000000000000000000000000000000000000000007913000000000031300000000000001050207                         0000000000000000000000000                                             000014
102021974950001161584870000003760                             82031109149      000                        1421020207                              100207000000000760010424465000000000000240655100020207              0000000000000000000000000000000000000000000000007600000000000000000000000000001020207                         0000000000000000000000000                                             000015
102021974950001161584870000003760                             82031118148      000                        1421020207                              100207000000000760010424465000000000000125647101050207              0000000000000000000000000000000000000000000000007600000000000000000000000000001050207                         0000000000000000000000000                                             000016
102021974950001161584870000003760                             82060920178      000                        1421020207                              100107000000000760010412947000000000000125647101050207              0000000000000000000000000000000000000000000000007927000000000032700000000000001050207                         0000000000000000000000000                                             000017
102021974950001161584870000003760                             82070712179      000                        1421020207                              200107000000000760010405592000000000000125647101050207              0000000000000000000000000000000000000000000000007850000000000025000000000000001050207                         0000000000000000000000000                                             000018
102021974950001161584870000003760                             82071233150      000                        1421020207                              101106000000000760010400485000000000000125647101050207              0000000000000000000000000000000000000000000000008340000000000074000000000000001050207                         0000000000000000000000000                                             000019
102021974950001161584870000003760                             82111018140      000                        1421020207                              110207000000000760010407765000000000000125647101050207              0000000000000000000000000000000000000000000000007600000000000000000000000000001050207                         0000000000000000000000000                                             000020
102021974950001161584870000003760                             82111031138      000                        1421020207                              110107000000000760010407765000000000000125647101050207              0000000000000000000000000000000000000000000000007906000000000030600000000000001050207                         0000000000000000000000000                                             000021
102021974950001161584870000003760                             82130415159      000                        1421020207                              100207000000000760006500016000000000000270663101050207              0000000000000000000000000000000000000000000000007600000000000000000000000000001050207                         0000000000000000000000000                                             000022
9201104                                                                                                                                                                                                                                                                                                                                                                                                   000023
