02RETORNO01COBRANCA       1584870000003760    IPAD                          104C ECON FEDERAL 300107                                                                                                                                                                                                                                                                                                 00380000001
102021974950001161584870000003760                             82030705171      000                        1421300107                              100207000000000760010409148000000000000125647101310107              0000000000000000000000000000000000000000000000007600000000000000000000000000001310107                         0000000000000000000000000                                             000002
102021974950001161584870000003760                             82031011122      000                        1421300107                              300107000000000760010400523000000000000125647101310107              0000000000000000000000000000000000000000000000007600000000000000000000000000001310107                         0000000000000000000000000                                             000003
102021974950001161584870000003760                             82031015128      000                        1421300107                              300107000000000760000141966000000000000270663101310107              0000000000000000000000000000000000000000000000007600000000000000000000000000001310107                         0000000000000000000000000                                             000004
102021974950001161584870000003760                             82031023120      000                        1421300107                              300107000000000760010400523000000000000125647101310107              0000000000000000000000000000000000000000000000007600000000000000000000000000001310107                         0000000000000000000000000                                             000005
102021974950001161584870000003760                             82031027126      000                        1421300107                              300107000000000760000127026000000000000270663101310107              0000000000000000000000000000000000000000000000007600000000000000000000000000001310107                         0000000000000000000000000                                             000006
102021974950001161584870000003760                             82071419122      000                        1421300107                              310107000000000760039928996000000000000270663101310107              0000000000000000000000000000000000000000000000007600000000000000000000000000001310107                         0000000000000000000000000                                             000007
9201104                                                                                                                                                                                                                                                                                                                                                                                                   000008
