02RETORNO01COBRANCA       1584870000003760    IPAD                          104C ECON FEDERAL 060606                                                                                                                                                                                                                                                                                                 00218000001
102021974950001161584870000003760                             82000038932      000                        1421060606                              000000000000000760010400469000000000000125647101070606              0000000000000000000000000000000000000000000000007600000000000000000000000000001070606                         0000000000000000000000000                                             000002
102021974950001161584870000003760                             82000039580      000                        1421060606                              000000000000000760010405592000000000000240655100060606              0000000000000000000000000000000000000000000000007600000000000000000000000000001060606                         0000000000000000000000000                                             000003
102021974950001161584870000003760                             82000040538      000                        1421060606                              000000000000000760010409156000000000000125620101070606              0000000000000000000000000000000000000000000000007600000000000000000000000000001070606                         0000000000000000000000000                                             000004
102021974950001161584870000003760                             82000041038      000                        1421060606                              000000000000000760039928996000000000000270663101070606              0000000000000000000000000000000000000000000000007600000000000000000000000000001070606                         0000000000000000000000000                                             000005
102021974950001161584870000003760                             82000042611      000                        1421060606                              000000000000000760010423485000000000000240655100060606              0000000000000000000000000000000000000000000000007600000000000000000000000000001060606                         0000000000000000000000000                                             000006
102021974950001161584870000003760                             82000045432      000                        1421060606                              000000000000000750039928996000000000000270663101070606              0000000000000000000000000000000000000000000000007500000000000000000000000000001070606                         0000000000000000000000000                                             000007
102021974950001161584870000003760                             82000045831      000                        1421060606                              000000000000000760000128056000000000000270663101070606              0000000000000000000000000000000000000000000000007600000000000000000000000000001070606                         0000000000000000000000000                                             000008
102021974950001161584870000003760                             82010113147      000                        1421060606                              100206000000000750010414338000000000000240655100060606              0000000000000000000000000000000000000000000000008520000000000102000000000000001060606                         0000000000000000000000000                                             000009
102021974950001161584870000003760                             82010113155      000                        1421060606                              100306000000000750010414338000000000000240655100060606              0000000000000000000000000000000000000000000000008354000000000085400000000000001060606                         0000000000000000000000000                                             000010
102021974950001161584870000003760                             82010113163      000                        1421060606                              100406000000000750010414338000000000000240655100060606              0000000000000000000000000000000000000000000000008106000000000060600000000000001060606                         0000000000000000000000000                                             000011
102021974950001161584870000003760                             82010119161      000                        1421060606                              100406000000000750010414338000000000000240655100060606              0000000000000000000000000000000000000000000000008106000000000060600000000000001060606                         0000000000000000000000000                                             000012
102021974950001161584870000003760                             82010119170      000                        1421060606                              100506000000000750010414338000000000000240655100060606              0000000000000000000000000000000000000000000000007866000000000036600000000000001060606                         0000000000000000000000000                                             000013
102021974950001161584870000003760                             82030201114      000                        1421060606                              100606000000000760010409156000000000000125647101070606              0000000000000000000000000000000000000000000000007600000000000000000000000000001070606                         0000000000000000000000000                                             000014
102021974950001161584870000003760                             82030208119      000                        1421060606                              100606000000000760010409156000000000000125647101070606              0000000000000000000000000000000000000000000000007600000000000000000000000000001070606                         0000000000000000000000000                                             000015
102021974950001161584870000003760                             82030222111      000                        1421060606                              100606000000000760010409156000000000000125647101070606              0000000000000000000000000000000000000000000000007600000000000000000000000000001070606                         0000000000000000000000000                                             000016
102021974950001161584870000003760                             82030406123      000                        1421060606                              100506000000000760010407757000000000000125647101070606              0000000000000000000000000000000000000000000000007934000000000033400000000000001070606                         0000000000000000000000000                                             000017
102021974950001161584870000003760                             82030412131      000                        1421060606                              100606000000000760010407757000000000000125647101070606              0000000000000000000000000000000000000000000000007600000000000000000000000000001070606                         0000000000000000000000000                                             000018
102021974950001161584870000003760                             82040518161      000                        1421060606                              100506000000000860010400523000000000000125647101070606              0000000000000000000000000000000000000000000000009005000000000040500000000000001070606                         0000000000000000000000000                                             000019
102021974950001161584870000003760                             82040522177      000                        1421060606                              100506000000000860010400523000000000000125647101070606              0000000000000000000000000000000000000000000000009004000000000040400000000000001070606                         0000000000000000000000000                                             000020
102021974950001161584870000003760                             82060622134      000                        1421060606                              150606000000000750010412424000000000000125647101070606              0000000000000000000000000000000000000000000000007500000000000000000000000000001070606                         0000000000000000000000000                                             000021
102021974950001161584870000003760                             82070129171      000                        1421060606                              100406000000000860010400450000000000000240655100060606              0000000000000000000000000000000000000000000000009262000000000066200000000000001060606                         0000000000000000000000000                                             000022
102021974950001161584870000003760                             82070201140      000                        1421060606                              060606000000000860023702896000000000000270663101070606              0000000000000000000000000000000000000000000000008600000000000000000000000000001070606                         0000000000000000000000000                                             000023
102021974950001161584870000003760                             82070201158      000                        1421060606                              060606000000000860023702896000000000000270663101070606              0000000000000000000000000000000000000000000000008600000000000000000000000000001070606                         0000000000000000000000000                                             000024
102021974950001161584870000003760                             82090720177      000                        1421060606                              100406000000000750010408770000000000000240655100060606              0000000000000000000000000000000000000000000000007853000000000035300000000000001060606                         0000000000000000000000000                                             000025
102021974950001161584870000003760                             82090723176      000                        1421060606                              100406000000000750010408770000000000000240655100060606              0000000000000000000000000000000000000000000000007853000000000035300000000000001060606                         0000000000000000000000000                                             000026
102021974950001161584870000003760                             82090810176      000                        1421060606                              100606000000000340010408770000000000000125647101070606              0000000000000000000000000000000000000000000000003400000000000000000000000000001070606                         0000000000000000000000000                                             000027
102021974950001161584870000003760                             82120109179      000                        1421060606                              100406000000000650010421245000000000000125647101070606              0000000000000000000000000000000000000000000000006975000000000047500000000000001070606                         0000000000000000000000000                                             000028
9201104                                                                                                                                                                                                                                                                                                                                                                                                   000029
