02RETORNO01COBRANCA       1584870000003760    IPAD                          104C ECON FEDERAL 050307                                                                                                                                                                                                                                                                                                 00401000001
102021974950001161584870000003760                             82030224173      000                        1421050307                              101206000000000760010409156000000000000240655100050307              0000000000000000000000000000000000000000000000008398000000000079800000000000001050307                         0000000000000000000000000                                             000002
102021974950001161584870000003760                             82030728171      000                        1421050307                              100207000000000760010409148000000000000125647101060307              0000000000000000000000000000000000000000000000007912000000000031200000000000001060307                         0000000000000000000000000                                             000003
102021974950001161584870000003760                             82030928170      000                        1421050307                              100107000000000760010407757000000000000125647101060307              0000000000000000000000000000000000000000000000008162000000000056200000000000001060307                         0000000000000000000000000                                             000004
102021974950001161584870000003760                             82031004134      000                        1421050307                              280207000000000760010400523000000000000125647101060307              0000000000000000000000000000000000000000000000007600000000000000000000000000001060307                         0000000000000000000000000                                             000005
102021974950001161584870000003760                             82031014121      000                        1421050307                              300107000000000760010400523000000000000125647101060307              0000000000000000000000000000000000000000000000007753000000000015300000000000001060307                         0000000000000000000000000                                             000006
102021974950001161584870000003760                             82031017120      000                        1421050307                              300107000000000760010400523000000000000125647101060307              0000000000000000000000000000000000000000000000007600000000000000000000000000001060307                         0000000000000000000000000                                             000007
102021974950001161584870000003760                             82031022132      000                        1421050307                              280207000000000760010400523000000000000125647101060307              0000000000000000000000000000000000000000000000007756000000000015600000000000001060307                         0000000000000000000000000                                             000008
102021974950001161584870000003760                             82031027134      000                        1421050307                              280207000000000760010400523000000000000125647101060307              0000000000000000000000000000000000000000000000007600000000000000000000000000001060307                         0000000000000000000000000                                             000009
102021974950001161584870000003760                             82031107138      000                        1421050307                              100107000000000760010424465000000000000240655100050307              0000000000000000000000000000000000000000000000007806000000000020600000000000001050307                         0000000000000000000000000                                             000010
102021974950001161584870000003760                             82031114150      000                        1421050307                              100307000000000760010424465000000000000240655100050307              0000000000000000000000000000000000000000000000007600000000000000000000000000001050307                         0000000000000000000000000                                             000011
102021974950001161584870000003760                             82060411176      000                        1421050307                              100107000000000760010430171000000000000125647101060307              0000000000000000000000000000000000000000000000008162000000000056200000000000001060307                         0000000000000000000000000                                             000012
102021974950001161584870000003760                             82061015118      000                        1421050307                              280207000000000380010400540000000000000125647101060307              0000000000000000000000000000000000000000000000003887000000000008700000000000001060307                         0000000000000000000000000                                             000013
102021974950001161584870000003760                             82061037111      000                        1421050307                              280207000000000380010400540000000000000125647101060307              0000000000000000000000000000000000000000000000003885000000000008500000000000001060307                         0000000000000000000000000                                             000014
102021974950001161584870000003760                             82071323141      000                        1421050307                              100207000000000760010421245000000000000125647101060307              0000000000000000000000000000000000000000000000007934000000000033400000000000001060307                         0000000000000000000000000                                             000015
102021974950001161584870000003760                             82071326124      000                        1421050307                              101206000000000760010421245000000000000240655100050307              0000000000000000000000000000000000000000000000008347000000000074700000000000001050307                         0000000000000000000000000                                             000016
102021974950001161584870000003760                             82111024158      000                        1421050307                              110307000000000760010407765000000000000125647101060307              0000000000000000000000000000000000000000000000007600000000000000000000000000001060307                         0000000000000000000000000                                             000017
102021974950001161584870000003760                             82130430158      000                        1421050307                              100207000000000760010409148000000000000125647101060307              0000000000000000000000000000000000000000000000007911000000000031100000000000001060307                         0000000000000000000000000                                             000018
9201104                                                                                                                                                                                                                                                                                                                                                                                                   000019
