02RETORNO01COBRANCA       1584870000003760    IPAD                          104C ECON FEDERAL 031105                                                                                                                                                                                                                                                                                                 00072000001
102021974950001161584870000003760                             82040204124      000                        1421031105                              101105000000000860010400523000000000000125647101041105              0000000000000000000000000000000000000000000000008600000000000000000000000000001041105                         0000000000000000000000000                                             000002
102021974950001161584870000003760                             82040211120      000                        1421031105                              101105000000000430023732126000000000000270663101041105              0000000000000000000000000000000000000000000000004300000000000000000000000000001041105                         0000000000000000000000000                                             000003
102021974950001161584870000003760                             82040212127      000                        1421031105                              101105000000000860010400523000000000000125647101041105              0000000000000000000000000000000000000000000000008600000000000000000000000000001041105                         0000000000000000000000000                                             000004
102021974950001161584870000003760                             82040213123      000                        1421031105                              101105000000000430010400523000000000000125647101041105              0000000000000000000000000000000000000000000000004300000000000000000000000000001041105                         0000000000000000000000000                                             000005
102021974950001161584870000003760                             82040217129      000                        1421031105                              101105000000000430075641796000000000000270663101041105              0000000000000000000000000000000000000000000000004300000000000000000000000000001041105                         0000000000000000000000000                                             000006
102021974950001161584870000003760                             82040224125      000                        1421031105                              101105000000000430010400523000000000000125647101041105              0000000000000000000000000000000000000000000000004300000000000000000000000000001041105                         0000000000000000000000000                                             000007
102021974950001161584870000003760                             82040225121      000                        1421031105                              101105000000000430010400523000000000000125647101041105              0000000000000000000000000000000000000000000000004300000000000000000000000000001041105                         0000000000000000000000000                                             000008
102021974950001161584870000003760                             82040230125      000                        1421031105                              101105000000000430010400523000000000000125647101041105              0000000000000000000000000000000000000000000000004300000000000000000000000000001041105                         0000000000000000000000000                                             000009
102021974950001161584870000003760                             82040410123      000                        1421031105                              101105000000000860010400523000000000000125620101041105              0000000000000000000000000000000000000000000000008600000000000000000000000000001041105                         0000000000000000000000000                                             000010
102021974950001161584870000003760                             82040418124      000                        1421031105                              101105000000000860000123866000000000000270663101041105              0000000000000000000000000000000000000000000000008600000000000000000000000000001041105                         0000000000000000000000000                                             000011
102021974950001161584870000003760                             82040429126      000                        1421031105                              101105000000000860010400523000000000000125647101041105              0000000000000000000000000000000000000000000000008600000000000000000000000000001041105                         0000000000000000000000000                                             000012
102021974950001161584870000003760                             82040430124      000                        1421031105                              101105000000000860010400523000000000000125647101041105              0000000000000000000000000000000000000000000000008600000000000000000000000000001041105                         0000000000000000000000000                                             000013
102021974950001161584870000003760                             82040530129      000                        1421031105                              101105000000000860075641796000000000000270663101041105              0000000000000000000000000000000000000000000000008600000000000000000000000000001041105                         0000000000000000000000000                                             000014
102021974950001161584870000003760                             82040535120      000                        1421031105                              101105000000000860010400523000000000000125647101041105              0000000000000000000000000000000000000000000000008600000000000000000000000000001041105                         0000000000000000000000000                                             000015
102021974950001161584870000003760                             82050214122      000                        1421031105                              101105000000000400006500016000000000000270663101041105              0000000000000000000000000000000000000000000000004000000000000000000000000000001041105                         0000000000000000000000000                                             000016
102021974950001161584870000003760                             82050218128      000                        1421031105                              101105000000000400006500016000000000000270663101041105              0000000000000000000000000000000000000000000000004000000000000000000000000000001041105                         0000000000000000000000000                                             000017
102021974950001161584870000003760                             82060102149      000                        1421031105                              151205000000000860075641796000000000000270663101041105              0000000000000000000000000000000000000000000000008600000000000000000000000000001041105                         0000000000000000000000000                                             000018
102021974950001161584870000003760                             82060108139      000                        1421031105                              151105000000000860010430171000000000000125647101041105              0000000000000000000000000000000000000000000000008600000000000000000000000000001041105                         0000000000000000000000000                                             000019
102021974950001161584870000003760                             82060113132      000                        1421031105                              151105000000000860075641796000000000000270663101041105              0000000000000000000000000000000000000000000000008600000000000000000000000000001041105                         0000000000000000000000000                                             000020
102021974950001161584870000003760                             82060115135      000                        1421031105                              151105000000000860010430171000000000000125647101041105              0000000000000000000000000000000000000000000000008600000000000000000000000000001041105                         0000000000000000000000000                                             000021
102021974950001161584870000003760                             82070101129      000                        1421031105                              101105000000000860034131756000000000000270663101041105              0000000000000000000000000000000000000000000000008600000000000000000000000000001041105                         0000000000000000000000000                                             000022
102021974950001161584870000003760                             82070110128      000                        1421031105                              101105000000000860010410308000000000000125647101041105              0000000000000000000000000000000000000000000000008600000000000000000000000000001041105                         0000000000000000000000000                                             000023
102021974950001161584870000003760                             82070111124      000                        1421031105                              101105000000000720010400469000000000000125647101041105              0000000000000000000000000000000000000000000000007200000000000000000000000000001041105                         0000000000000000000000000                                             000024
102021974950001161584870000003760                             82070117122      000                        1421031105                              101105000000000860006500016000000000000270663101041105              0000000000000000000000000000000000000000000000008600000000000000000000000000001041105                         0000000000000000000000000                                             000025
102021974950001161584870000003760                             82070119125      000                        1421031105                              101105000000000720010415849000000000000125647101041105              0000000000000000000000000000000000000000000000007200000000000000000000000000001041105                         0000000000000000000000000                                             000026
102021974950001161584870000003760                             82070126121      000                        1421031105                              101105000000000860010410286000000000000125647101041105              0000000000000000000000000000000000000000000000008600000000000000000000000000001041105                         0000000000000000000000000                                             000027
102021974950001161584870000003760                             82070127128      000                        1421031105                              101105000000000860075641796000000000000270663101041105              0000000000000000000000000000000000000000000000008600000000000000000000000000001041105                         0000000000000000000000000                                             000028
102021974950001161584870000003760                             82070215124      000                        1421031105                              000000000000000860039928996000000000000270663101041105              0000000000000000000000000000000000000000000000008600000000000000000000000000001041105                         0000000000000000000000000                                             000029
102021974950001161584870000003760                             82070221124      000                        1421031105                              101105000000000860006500016000000000000270663101041105              0000000000000000000000000000000000000000000000008600000000000000000000000000001041105                         0000000000000000000000000                                             000030
102021974950001161584870000003760                             82090328129      000                        1421031105                              101105000000000640010407749000000000000125647101041105              0000000000000000000000000000000000000000000000006400000000000000000000000000001041105                         0000000000000000000000000                                             000031
102021974950001161584870000003760                             82090423121      000                        1421031105                              101105000000000640010400540000000000000125647101041105              0000000000000000000000000000000000000000000000006400000000000000000000000000001041105                         0000000000000000000000000                                             000032
102021974950001161584870000003760                             82090906122      000                        1421031105                              101105000000000375010408770000000000000125647101041105              0000000000000000000000000000000000000000000000003750000000000000000000000000001041105                         0000000000000000000000000                                             000033
102021974950001161584870000003760                             82090929122      000                        1421031105                              101105000000000375010408770000000000000125647101041105              0000000000000000000000000000000000000000000000003750000000000000000000000000001041105                         0000000000000000000000000                                             000034
102021974950001161584870000003760                             82091020128      000                        1421031105                              101105000000000375010408770000000000000125647101041105              0000000000000000000000000000000000000000000000003750000000000000000000000000001041105                         0000000000000000000000000                                             000035
102021974950001161584870000003760                             82091029125      000                        1421031105                              101105000000000375010408770000000000000125647101041105              0000000000000000000000000000000000000000000000003750000000000000000000000000001041105                         0000000000000000000000000                                             000036
102021974950001161584870000003760                             82091212124      000                        1421031105                              101105000000000640010400540000000000000125647101041105              0000000000000000000000000000000000000000000000006400000000000000000000000000001041105                         0000000000000000000000000                                             000037
102021974950001161584870000003760                             82091213120      000                        1421031105                              101105000000000640010400540000000000000125647101041105              0000000000000000000000000000000000000000000000006400000000000000000000000000001041105                         0000000000000000000000000                                             000038
102021974950001161584870000003760                             82130103130      000                        1421031105                              101105000000000860010409148000000000000125647101041105              0000000000000000000000000000000000000000000000008600000000000000000000000000001041105                         0000000000000000000000000                                             000039
102021974950001161584870000003760                             82130104137      000                        1421031105                              101105000000000860010409148000000000000125647101041105              0000000000000000000000000000000000000000000000008600000000000000000000000000001041105                         0000000000000000000000000                                             000040
102021974950001161584870000003760                             82999028191      000                        1421031105                              301105000000000750010407749000000000000125647101041105              0000000000000000000000000000000000000000000000007500000000000000000000000000001041105                         0000000000000000000000000                                             000041
102021974950001161584870000003760                             82999028736      000                        1421031105                              151105000000000860006500016000000000000270663101041105              0000000000000000000000000000000000000000000000008600000000000000000000000000001041105                         0000000000000000000000000                                             000042
9201104                                                                                                                                                                                                                                                                                                                                                                                                   000043
