02RETORNO01COBRANCA       1584870000003760    IPAD                          104C ECON FEDERAL 050805                                                                                                                                                                                                                                                                                                 00020000001
102021974950001161584870000003760                             82999009073      000                        1421050805                              100805000000001000010415830000000000000240655100050805              0000000000000000000000000000000000000000000000010000000000000000000000000000001050805                         0000000000000000000000000                                             000002
102021974950001161584870000003760                             82999372623      000                        1421050805                              100805000000000860010400540000000000000125647101080805              0000000000000000000000000000000000000000000000008600000000000000000000000000001080805                         0000000000000000000000000                                             000003
102021974950001161584870000003760                             82999374987      000                        1421050805                              100805000000000860010400540000000000000240655100050805              0000000000000000000000000000000000000000000000008600000000000000000000000000001050805                         0000000000000000000000000                                             000004
102021974950001161584870000003760                             82999375363      000                        1421050805                              000000000000000860039928996000000000000270663101080805              0000000000000000000000000000000000000000000000008600000000000000000000000000001080805                         0000000000000000000000000                                             000005
102021974950001161584870000003760                             82999379369      000                        1421050805                              100805000000000860010430171000000000000125647101080805              0000000000000000000000000000000000000000000000008600000000000000000000000000001080805                         0000000000000000000000000                                             000006
102021974950001161584870000003760                             82999379563      000                        1421050805                              100805000000000860010409148000000000000125620101080805              0000000000000000000000000000000000000000000000008600000000000000000000000000001080805                         0000000000000000000000000                                             000007
102021974950001161584870000003760                             82999379580      000                        1421050805                              100805000000000860010409148000000000000125620101080805              0000000000000000000000000000000000000000000000008600000000000000000000000000001080805                         0000000000000000000000000                                             000008
102021974950001161584870000003760                             82999380529      000                        1421050805                              100805000000000860010409148000000000000125647101080805              0000000000000000000000000000000000000000000000008600000000000000000000000000001080805                         0000000000000000000000000                                             000009
102021974950001161584870000003760                             82999380669      000                        1421050805                              100805000000000860010409148000000000000125647101080805              0000000000000000000000000000000000000000000000008600000000000000000000000000001080805                         0000000000000000000000000                                             000010
102021974950001161584870000003760                             82999383803      000                        1421050805                              100805000000000860010400523000000000000125647101080805              0000000000000000000000000000000000000000000000008600000000000000000000000000001080805                         0000000000000000000000000                                             000011
102021974950001161584870000003760                             82999384206      000                        1421050805                              000000000000000860023732126000000000000270663101080805              0000000000000000000000000000000000000000000000008600000000000000000000000000001080805                         0000000000000000000000000                                             000012
102021974950001161584870000003760                             82999384745      000                        1421050805                              100805000000000860002410026000000000000270663101080805              0000000000000000000000000000000000000000000000008600000000000000000000000000001080805                         0000000000000000000000000                                             000013
102021974950001161584870000003760                             82999384788      000                        1421050805                              100805000000000860000117326000000000000270663101080805              0000000000000000000000000000000000000000000000008600000000000000000000000000001080805                         0000000000000000000000000                                             000014
102021974950001161584870000003760                             82999385083      000                        1421050805                              100805000000000860010421709000000000000125647101080805              0000000000000000000000000000000000000000000000008600000000000000000000000000001080805                         0000000000000000000000000                                             000015
102021974950001161584870000003760                             82999385288      000                        1421050805                              100805000000000860010400523000000000000125647101080805              0000000000000000000000000000000000000000000000008600000000000000000000000000001080805                         0000000000000000000000000                                             000016
9201104                                                                                                                                                                                                                                                                                                                                                                                                   000017
