02RETORNO01COBRANCA       1584870000003760    IPAD                          104C ECON FEDERAL 311005                                                                                                                                                                                                                                                                                                 00070000001
102021974950001161584870000003760                             82040105126      000                        1421311005                              101105000000000430010400523000000000000125647101011105              0000000000000000000000000000000000000000000000004300000000000000000000000000001011105                         0000000000000000000000000                                             000002
102021974950001161584870000003760                             82060103137      000                        1421311005                              151105000000000860006500016000000000000270663101011105              0000000000000000000000000000000000000000000000008600000000000000000000000000001011105                         0000000000000000000000000                                             000003
102021974950001161584870000003760                             82060109135      000                        1421311005                              151105000000000860010430171000000000000125647101011105              0000000000000000000000000000000000000000000000008600000000000000000000000000001011105                         0000000000000000000000000                                             000004
102021974950001161584870000003760                             82070216120      000                        1421311005                              101105000000000860010410286000000000000125647101011105              0000000000000000000000000000000000000000000000008600000000000000000000000000001011105                         0000000000000000000000000                                             000005
102021974950001161584870000003760                             82090218129      000                        1421311005                              101105000000000640010400540000000000000240655100311005              0000000000000000000000000000000000000000000000006400000000000000000000000000001311005                         0000000000000000000000000                                             000006
102021974950001161584870000003760                             82999026547      000                        1421311005                              301105000000000860010400469000000000000125647101011105              0000000000000000000000000000000000000000000000008600000000000000000000000000001011105                         0000000000000000000000000                                             000007
102021974950001161584870000003760                             82999026687      000                        1421311005                              301105000000000860000109346000000000000270663101011105              0000000000000000000000000000000000000000000000008600000000000000000000000000001011105                         0000000000000000000000000                                             000008
102021974950001161584870000003760                             82999026997      000                        1421311005                              301105000000000860010408761000000000000125647101011105              0000000000000000000000000000000000000000000000008600000000000000000000000000001011105                         0000000000000000000000000                                             000009
102021974950001161584870000003760                             82999028175      000                        1421311005                              301105000000000750010407749000000000000125647101011105              0000000000000000000000000000000000000000000000007500000000000000000000000000001011105                         0000000000000000000000000                                             000010
102021974950001161584870000003760                             82999028698      000                        1421311005                              151105000000000860010421911000000000000125647101011105              0000000000000000000000000000000000000000000000008600000000000000000000000000001011105                         0000000000000000000000000                                             000011
102021974950001161584870000003760                             82999028710      000                        1421311005                              151105000000000860002410256000000000000270663101011105              0000000000000000000000000000000000000000000000008600000000000000000000000000001011105                         0000000000000000000000000                                             000012
102021974950001161584870000003760                             82999028825      000                        1421311005                              151105000000000860010421911000000000000125647101011105              0000000000000000000000000000000000000000000000008600000000000000000000000000001011105                         0000000000000000000000000                                             000013
102021974950001161584870000003760                             82999028884      000                        1421311005                              151105000000000860006500016000000000000270663101011105              0000000000000000000000000000000000000000000000008600000000000000000000000000001011105                         0000000000000000000000000                                             000014
102021974950001161584870000003760                             82999028981      000                        1421311005                              301005000000000750010424465000000000000240655100311005              0000000000000000000000000000000000000000000000007500000000000000000000000000001311005                         0000000000000000000000000                                             000015
102021974950001161584870000003760                             82999029287      000                        1421311005                              301005000000000750010424465000000000000125647101011105              0000000000000000000000000000000000000000000000007500000000000000000000000000001011105                         0000000000000000000000000                                             000016
102021974950001161584870000003760                             82999029813      000                        1421311005                              311005000000000860023716956000000000000270663101011105              0000000000000000000000000000000000000000000000008600000000000000000000000000001011105                         0000000000000000000000000                                             000017
102021974950001161584870000003760                             82999029872      000                        1421311005                              311005000000000860023716956000000000000270663101011105              0000000000000000000000000000000000000000000000008600000000000000000000000000001011105                         0000000000000000000000000                                             000018
102021974950001161584870000003760                             82999029902      000                        1421311005                              311005000000000860000110616000000000000270663101011105              0000000000000000000000000000000000000000000000008600000000000000000000000000001011105                         0000000000000000000000000                                             000019
102021974950001161584870000003760                             82999030072      000                        1421311005                              311005000000000860000108706000000000000270663101011105              0000000000000000000000000000000000000000000000008600000000000000000000000000001011105                         0000000000000000000000000                                             000020
102021974950001161584870000003760                             82999030110      000                        1421311005                              311005000000000860010407765000000000000240655100311005              0000000000000000000000000000000000000000000000008600000000000000000000000000001311005                         0000000000000000000000000                                             000021
102021974950001161584870000003760                             82999030137      000                        1421311005                              311005000000000860010407765000000000000125647101011105              0000000000000000000000000000000000000000000000008600000000000000000000000000001011105                         0000000000000000000000000                                             000022
102021974950001161584870000003760                             82999030153      000                        1421311005                              311005000000000860075641796000000000000270663101011105              0000000000000000000000000000000000000000000000008600000000000000000000000000001011105                         0000000000000000000000000                                             000023
102021974950001161584870000003760                             82999030161      000                        1421311005                              311005000000000860010407765000000000000125647101011105              0000000000000000000000000000000000000000000000008600000000000000000000000000001011105                         0000000000000000000000000                                             000024
102021974950001161584870000003760                             82999030196      000                        1421311005                              311005000000000860010407765000000000000125647101011105              0000000000000000000000000000000000000000000000008600000000000000000000000000001011105                         0000000000000000000000000                                             000025
102021974950001161584870000003760                             82999030200      000                        1421311005                              311005000000000860010407765000000000000125647101011105              0000000000000000000000000000000000000000000000008600000000000000000000000000001011105                         0000000000000000000000000                                             000026
102021974950001161584870000003760                             82999030226      000                        1421311005                              311005000000000860010407765000000000000240655100311005              0000000000000000000000000000000000000000000000008600000000000000000000000000001311005                         0000000000000000000000000                                             000027
102021974950001161584870000003760                             82999030269      000                        1421311005                              311005000000000860000126836000000000000270663101011105              0000000000000000000000000000000000000000000000008600000000000000000000000000001011105                         0000000000000000000000000                                             000028
102021974950001161584870000003760                             82999030412      000                        1421311005                              311005000000000450010407765000000000000125647101011105              0000000000000000000000000000000000000000000000004500000000000000000000000000001011105                         0000000000000000000000000                                             000029
9201104                                                                                                                                                                                                                                                                                                                                                                                                   000030
