02RETORNO01COBRANCA       1584870000003760    IPAD                          104C ECON FEDERAL 241005                                                                                                                                                                                                                                                                                                 00065000001
102021974950001161584870000003760                             82040223129      000                        1421241005                              101105000000000430006500016000000000000270663101251005              0000000000000000000000000000000000000000000000004300000000000000000000000000001251005                         0000000000000000000000000                                             000002
102021974950001161584870000003760                             82060124126      000                        1421241005                              271005000000000860010410308000000000000125647101251005              0000000000000000000000000000000000000000000000008600000000000000000000000000001251005                         0000000000000000000000000                                             000003
9201104                                                                                                                                                                                                                                                                                                                                                                                                   000004
