02RETORNO01COBRANCA       1584870000003760    IPAD                          104C ECON FEDERAL 111006                                                                                                                                                                                                                                                                                                 00307000001
102021974950001161584870000003760                             82030310177      000                        1421111006                              300906000000000860010409156000000000000125647101131006              0000000000000000000000000000000000000000000000008860000000000026000000000000001131006                         0000000000000000000000000                                             000002
102021974950001161584870000003760                             82030312170      000                        1421111006                              300906000000000860010409156000000000000125647101131006              0000000000000000000000000000000000000000000000008860000000000026000000000000001131006                         0000000000000000000000000                                             000003
102021974950001161584870000003760                             82030525149      000                        1421111006                              151006000000000760010409156000000000000125620101131006              0000000000000000000000000000000000000000000000007600000000000000000000000000001131006                         0000000000000000000000000                                             000004
102021974950001161584870000003760                             82030540148      000                        1421111006                              151006000000000760010409156000000000000125647101131006              0000000000000000000000000000000000000000000000007600000000000000000000000000001131006                         0000000000000000000000000                                             000005
102021974950001161584870000003760                             82030545140      000                        1421111006                              151006000000000760023730526000000000000270663101131006              0000000000000000000000000000000000000000000000007600000000000000000000000000001131006                         0000000000000000000000000                                             000006
102021974950001161584870000003760                             82030546146      000                        1421111006                              151006000000000760023730526000000000000270663101131006              0000000000000000000000000000000000000000000000007600000000000000000000000000001131006                         0000000000000000000000000                                             000007
102021974950001161584870000003760                             82030728139      000                        1421111006                              101006000000000760010409148000000000000125647101131006              0000000000000000000000000000000000000000000000007600000000000000000000000000001131006                         0000000000000000000000000                                             000008
102021974950001161584870000003760                             82030803130      000                        1421111006                              151006000000000760010409156000000000000125647101131006              0000000000000000000000000000000000000000000000007600000000000000000000000000001131006                         0000000000000000000000000                                             000009
102021974950001161584870000003760                             82030919147      000                        1421111006                              101006000000000760010407757000000000000125647101131006              0000000000000000000000000000000000000000000000007760000000000016000000000000001131006                         0000000000000000000000000                                             000010
102021974950001161584870000003760                             82060510140      000                        1421111006                              101006000000000760010400450000000000000125647101131006              0000000000000000000000000000000000000000000000007760000000000016000000000000001131006                         0000000000000000000000000                                             000011
102021974950001161584870000003760                             82060604152      000                        1421111006                              150806000000000750010412424000000000000125647101131006              0000000000000000000000000000000000000000000000008049000000000054900000000000001131006                         0000000000000000000000000                                             000012
102021974950001161584870000003760                             82060604160      000                        1421111006                              150906000000000750010412424000000000000125647101131006              0000000000000000000000000000000000000000000000007832000000000033200000000000001131006                         0000000000000000000000000                                             000013
102021974950001161584870000003760                             82060604179      000                        1421111006                              151006000000000750010412424000000000000125647101131006              0000000000000000000000000000000000000000000000007500000000000000000000000000001131006                         0000000000000000000000000                                             000014
102021974950001161584870000003760                             82060611175      000                        1421111006                              151006000000000750074500016000000000000270663101131006              0000000000000000000000000000000000000000000000007500000000000000000000000000001131006                         0000000000000000000000000                                             000015
102021974950001161584870000003760                             82060615120      000                        1421111006                              151006000000000750006500016000000000000270663101131006              0000000000000000000000000000000000000000000000007500000000000000000000000000001131006                         0000000000000000000000000                                             000016
102021974950001161584870000003760                             82060615138      000                        1421111006                              151006000000000750006500016000000000000270663101131006              0000000000000000000000000000000000000000000000007500000000000000000000000000001131006                         0000000000000000000000000                                             000017
102021974950001161584870000003760                             82060706176      000                        1421111006                              151006000000000860010400485000000000000125647101131006              0000000000000000000000000000000000000000000000008600000000000000000000000000001131006                         0000000000000000000000000                                             000018
102021974950001161584870000003760                             82060913147      000                        1421111006                              101006000000000760010400450000000000000125647101131006              0000000000000000000000000000000000000000000000007759000000000015900000000000001131006                         0000000000000000000000000                                             000019
102021974950001161584870000003760                             82060914143      000                        1421111006                              101006000000000760010410286000000000000125647101131006              0000000000000000000000000000000000000000000000007759000000000015900000000000001131006                         0000000000000000000000000                                             000020
102021974950001161584870000003760                             82060920143      000                        1421111006                              101006000000000760010412947000000000000125647101131006              0000000000000000000000000000000000000000000000007759000000000015900000000000001131006                         0000000000000000000000000                                             000021
102021974950001161584870000003760                             82060929124      000                        1421111006                              100906000000000760010415849000000000000125647101131006              0000000000000000000000000000000000000000000000007987000000000038700000000000001131006                         0000000000000000000000000                                             000022
102021974950001161584870000003760                             82060935132      000                        1421111006                              101006000000000760010410286000000000000125647101131006              0000000000000000000000000000000000000000000000007600000000000000000000000000001131006                         0000000000000000000000000                                             000023
102021974950001161584870000003760                             82071205149      000                        1421111006                              101006000000000760010415806000000000000125647101131006              0000000000000000000000000000000000000000000000007828000000000022800000000000001131006                         0000000000000000000000000                                             000024
102021974950001161584870000003760                             82071224143      000                        1421111006                              101006000000000760010400485000000000000125647101131006              0000000000000000000000000000000000000000000000007759000000000015900000000000001131006                         0000000000000000000000000                                             000025
102021974950001161584870000003760                             82110714169      000                        1421111006                              200906000000000750010407765000000000000125647101131006              0000000000000000000000000000000000000000000000007776000000000027600000000000001131006                         0000000000000000000000000                                             000026
102021974950001161584870000003760                             82130409116      000                        1421111006                              101006000000000760010409148000000000000125647101131006              0000000000000000000000000000000000000000000000007752000000000015200000000000001131006                         0000000000000000000000000                                             000027
102021974950001161584870000003760                             82130422112      000                        1421111006                              101006000000000760010407765000000000000125647101131006              0000000000000000000000000000000000000000000000007750000000000015000000000000001131006                         0000000000000000000000000                                             000028
9201104                                                                                                                                                                                                                                                                                                                                                                                                   000029
