02RETORNO01COBRANCA       1584870000003760    IPAD                          104C ECON FEDERAL 070207                                                                                                                                                                                                                                                                                                 00386000001
102021974950001161584870000003760                             82030723137      000                        1421070207                              101006000000000760010409148000000000000125647101080207              0000000000000000000000000000000000000000000000008664000000000106400000000000001080207                         0000000000000000000000000                                             000002
102021974950001161584870000003760                             82030723145      000                        1421070207                              101106000000000760010409148000000000000125647101080207              0000000000000000000000000000000000000000000000008428000000000082800000000000001080207                         0000000000000000000000000                                             000003
102021974950001161584870000003760                             82030723153      000                        1421070207                              101206000000000760010409148000000000000125647101080207              0000000000000000000000000000000000000000000000008200000000000060000000000000001080207                         0000000000000000000000000                                             000004
102021974950001161584870000003760                             82030723161      000                        1421070207                              100107000000000760010409148000000000000125647101080207              0000000000000000000000000000000000000000000000007964000000000036400000000000001080207                         0000000000000000000000000                                             000005
102021974950001161584870000003760                             82070613138      000                        1421070207                              210706000000000760010400450000000000000125647101080207              0000000000000000000000000000000000000000000000009279000000000167900000000000001080207                         0000000000000000000000000                                             000006
102021974950001161584870000003760                             82070613146      000                        1421070207                              210806000000000760010400450000000000000125647101080207              0000000000000000000000000000000000000000000000009044000000000144400000000000001080207                         0000000000000000000000000                                             000007
102021974950001161584870000003760                             82070722158      000                        1421070207                              201106000000000760010405592000000000000125647101080207              0000000000000000000000000000000000000000000000008352000000000075200000000000001080207                         0000000000000000000000000                                             000008
102021974950001161584870000003760                             82071318148      000                        1421070207                              100207000000000760010421245000000000000125647101080207              0000000000000000000000000000000000000000000000007600000000000000000000000000001080207                         0000000000000000000000000                                             000009
102021974950001161584870000003760                             82071328143      000                        1421070207                              100207000000000760035610286000000000000270663101080207              0000000000000000000000000000000000000000000000007600000000000000000000000000001080207                         0000000000000000000000000                                             000010
102021974950001161584870000003760                             82111003142      000                        1421070207                              110207000000000760010407765000000000000125647101080207              0000000000000000000000000000000000000000000000007600000000000000000000000000001080207                         0000000000000000000000000                                             000011
102021974950001161584870000003760                             82111014144      000                        1421070207                              110207000000000760010407765000000000000125647101080207              0000000000000000000000000000000000000000000000007600000000000000000000000000001080207                         0000000000000000000000000                                             000012
102021974950001161584870000003760                             82130421159      000                        1421070207                              100207000000000760006500016000000000000270663101080207              0000000000000000000000000000000000000000000000007600000000000000000000000000001080207                         0000000000000000000000000                                             000013
102021974950001161584870000003760                             82130422147      000                        1421070207                              100107000000000760010407765000000000000125647101080207              0000000000000000000000000000000000000000000000007824000000000022400000000000001080207                         0000000000000000000000000                                             000014
102021974950001161584870000003760                             82130422155      000                        1421070207                              100207000000000760010407765000000000000125647101080207              0000000000000000000000000000000000000000000000007600000000000000000000000000001080207                         0000000000000000000000000                                             000015
102021974950001161584870000003760                             82130424158      000                        1421070207                              100207000000000760010409148000000000000125647101080207              0000000000000000000000000000000000000000000000007600000000000000000000000000001080207                         0000000000000000000000000                                             000016
9201104                                                                                                                                                                                                                                                                                                                                                                                                   000017
