02RETORNO01COBRANCA       1584870000003760    IPAD                          104C ECON FEDERAL 090207                                                                                                                                                                                                                                                                                                 00388000001
102021974950001161584870000003760                             82030704175      000                        1421090207                              100207000000000760010409148000000000000125647101120207              0000000000000000000000000000000000000000000000007600000000000000000000000000001120207                         0000000000000000000000000                                             000002
102021974950001161584870000003760                             82030707174      000                        1421090207                              100207000000000760000127026000000000000270663101120207              0000000000000000000000000000000000000000000000007600000000000000000000000000001120207                         0000000000000000000000000                                             000003
102021974950001161584870000003760                             82030725172      000                        1421090207                              100207000000000760039928996000000000000270663101120207              0000000000000000000000000000000000000000000000007600000000000000000000000000001120207                         0000000000000000000000000                                             000004
102021974950001161584870000003760                             82030730176      000                        1421090207                              100207000000000760010409148000000000000125647101120207              0000000000000000000000000000000000000000000000007600000000000000000000000000001120207                         0000000000000000000000000                                             000005
102021974950001161584870000003760                             82030731172      000                        1421090207                              100207000000000760035610386000000000000270663101120207              0000000000000000000000000000000000000000000000007600000000000000000000000000001120207                         0000000000000000000000000                                             000006
102021974950001161584870000003760                             82031114142      000                        1421090207                              100207000000000760010424465000000000000125647101120207              0000000000000000000000000000000000000000000000007600000000000000000000000000001120207                         0000000000000000000000000                                             000007
102021974950001161584870000003760                             82031120142      000                        1421090207                              100207000000000760010424465000000000000125647101120207              0000000000000000000000000000000000000000000000007600000000000000000000000000001120207                         0000000000000000000000000                                             000008
102021974950001161584870000003760                             82031121149      000                        1421090207                              100207000000000760010424465000000000000125647101120207              0000000000000000000000000000000000000000000000007600000000000000000000000000001120207                         0000000000000000000000000                                             000009
102021974950001161584870000003760                             82071220172      000                        1421090207                              100107000000000760010406513000000000000125647101120207              0000000000000000000000000000000000000000000000007600000000000000000000000000001120207                         0000000000000000000000000                                             000010
102021974950001161584870000003760                             82071305143      000                        1421090207                              100207000000000760039928996000000000000270663101120207              0000000000000000000000000000000000000000000000007600000000000000000000000000001120207                         0000000000000000000000000                                             000011
102021974950001161584870000003760                             82071319144      000                        1421090207                              100207000000000760010421245000000000000125647101120207              0000000000000000000000000000000000000000000000007600000000000000000000000000001120207                         0000000000000000000000000                                             000012
102021974950001161584870000003760                             82071325144      000                        1421090207                              100207000000000760039928996000000000000270663101120207              0000000000000000000000000000000000000000000000007600000000000000000000000000001120207                         0000000000000000000000000                                             000013
102021974950001161584870000003760                             82071419149      000                        1421090207                              100207000000000760023721166000000000000270663101120207              0000000000000000000000000000000000000000000000007600000000000000000000000000001120207                         0000000000000000000000000                                             000014
102021974950001161584870000003760                             82071426145      000                        1421090207                              100207000000000760039928996000000000000270663101120207              0000000000000000000000000000000000000000000000007600000000000000000000000000001120207                         0000000000000000000000000                                             000015
102021974950001161584870000003760                             82091112170      000                        1421090207                              090207000000000760010415849000000000000240655100090207              0000000000000000000000000000000000000000000000007600000000000000000000000000001090207                         0000000000000000000000000                                             000016
102021974950001161584870000003760                             82111004149      000                        1421090207                              110207000000000760010407765000000000000125647101120207              0000000000000000000000000000000000000000000000007600000000000000000000000000001120207                         0000000000000000000000000                                             000017
102021974950001161584870000003760                             82111028145      000                        1421090207                              110207000000000760010407765000000000000125647101120207              0000000000000000000000000000000000000000000000007600000000000000000000000000001120207                         0000000000000000000000000                                             000018
9201104                                                                                                                                                                                                                                                                                                                                                                                                   000019
