02RETORNO01COBRANCA       1584870000003760    IPAD                          104C ECON FEDERAL 120606                                                                                                                                                                                                                                                                                                 00222000001
102021974950001161584870000003760                             82000042670      000                        1421120606                              000000000000000760006500016000000000000270663101130606              0000000000000000000000000000000000000000000000007600000000000000000000000000001130606                         0000000000000000000000000                                             000002
102021974950001161584870000003760                             82000043936      000                        1421120606                              000000000000000760010409148000000000000125647101130606              0000000000000000000000000000000000000000000000007600000000000000000000000000001130606                         0000000000000000000000000                                             000003
102021974950001161584870000003760                             82000043944      000                        1421120606                              000000000000000760010409148000000000000125647101130606              0000000000000000000000000000000000000000000000007600000000000000000000000000001130606                         0000000000000000000000000                                             000004
102021974950001161584870000003760                             82000044240      000                        1421120606                              000000000000000760010409148000000000000125647101130606              0000000000000000000000000000000000000000000000007600000000000000000000000000001130606                         0000000000000000000000000                                             000005
102021974950001161584870000003760                             82000045823      000                        1421120606                              000000000000000760039928996000000000000270663101130606              0000000000000000000000000000000000000000000000007600000000000000000000000000001130606                         0000000000000000000000000                                             000006
102021974950001161584870000003760                             82010106167      000                        1421120606                              100406000000000750010414338000000000000125647101130606              0000000000000000000000000000000000000000000000008123000000000062300000000000001130606                         0000000000000000000000000                                             000007
102021974950001161584870000003760                             82010106175      000                        1421120606                              100506000000000750010414338000000000000125647101130606              0000000000000000000000000000000000000000000000007898000000000039800000000000001130606                         0000000000000000000000000                                             000008
102021974950001161584870000003760                             82010228165      000                        1421120606                              100606000000007920000117546000000000000270663101130606              0000000000000000000000000000000000000000000000079200000000000000000000000000001130606                         0000000000000000000000000                                             000009
102021974950001161584870000003760                             82010305119      000                        1421120606                              100606000000000660010409148000000000000125647101130606              0000000000000000000000000000000000000000000000006738000000000013800000000000001130606                         0000000000000000000000000                                             000010
102021974950001161584870000003760                             82010322110      000                        1421120606                              100606000000000660010409148000000000000125647101130606              0000000000000000000000000000000000000000000000006740000000000014000000000000001130606                         0000000000000000000000000                                             000011
102021974950001161584870000003760                             82030202110      000                        1421120606                              100606000000000760010409156000000000000125647101130606              0000000000000000000000000000000000000000000000007600000000000000000000000000001130606                         0000000000000000000000000                                             000012
102021974950001161584870000003760                             82030203117      000                        1421120606                              100606000000000760010409156000000000000125647101130606              0000000000000000000000000000000000000000000000007600000000000000000000000000001130606                         0000000000000000000000000                                             000013
102021974950001161584870000003760                             82030205110      000                        1421120606                              100606000000000760010409156000000000000125647101130606              0000000000000000000000000000000000000000000000007600000000000000000000000000001130606                         0000000000000000000000000                                             000014
102021974950001161584870000003760                             82030223118      000                        1421120606                              100606000000000760010409156000000000000125647101130606              0000000000000000000000000000000000000000000000007600000000000000000000000000001130606                         0000000000000000000000000                                             000015
102021974950001161584870000003760                             82030230114      000                        1421120606                              000000000000000760039928996000000000000270663101130606              0000000000000000000000000000000000000000000000007600000000000000000000000000001130606                         0000000000000000000000000                                             000016
102021974950001161584870000003760                             82030410139      000                        1421120606                              100606000000000760010407757000000000000125647101130606              0000000000000000000000000000000000000000000000007600000000000000000000000000001130606                         0000000000000000000000000                                             000017
102021974950001161584870000003760                             82030411135      000                        1421120606                              100606000000000760010407757000000000000125647101130606              0000000000000000000000000000000000000000000000007600000000000000000000000000001130606                         0000000000000000000000000                                             000018
102021974950001161584870000003760                             82030416137      000                        1421120606                              100606000000000760010407757000000000000125647101130606              0000000000000000000000000000000000000000000000007600000000000000000000000000001130606                         0000000000000000000000000                                             000019
102021974950001161584870000003760                             82030419136      000                        1421120606                              100606000000000760010407757000000000000125647101130606              0000000000000000000000000000000000000000000000007600000000000000000000000000001130606                         0000000000000000000000000                                             000020
102021974950001161584870000003760                             82030421130      000                        1421120606                              100606000000000760010407757000000000000125647101130606              0000000000000000000000000000000000000000000000007600000000000000000000000000001130606                         0000000000000000000000000                                             000021
102021974950001161584870000003760                             82030427139      000                        1421120606                              100606000000000760010407757000000000000125647101130606              0000000000000000000000000000000000000000000000007600000000000000000000000000001130606                         0000000000000000000000000                                             000022
102021974950001161584870000003760                             82030430130      000                        1421120606                              100606000000000760010407757000000000000125647101130606              0000000000000000000000000000000000000000000000007600000000000000000000000000001130606                         0000000000000000000000000                                             000023
102021974950001161584870000003760                             82050317177      000                        1421120606                              100406000000000860010427782000000000000125647101130606              0000000000000000000000000000000000000000000000009314000000000071400000000000001130606                         0000000000000000000000000                                             000024
102021974950001161584870000003760                             82060704130      000                        1421120606                              150606000000000860010406483000000000000125647101130606              0000000000000000000000000000000000000000000000008600000000000000000000000000001130606                         0000000000000000000000000                                             000025
102021974950001161584870000003760                             82060710130      000                        1421120606                              000000000000000860039928996000000000000270663101130606              0000000000000000000000000000000000000000000000008600000000000000000000000000001130606                         0000000000000000000000000                                             000026
102021974950001161584870000003760                             82070227157      000                        1421120606                              100606000000000860010400450000000000000125647101130606              0000000000000000000000000000000000000000000000008600000000000000000000000000001130606                         0000000000000000000000000                                             000027
102021974950001161584870000003760                             82090426163      000                        1421120606                              100606000000000750010400540000000000000125647101130606              0000000000000000000000000000000000000000000000007500000000000000000000000000001130606                         0000000000000000000000000                                             000028
102021974950001161584870000003760                             82090426171      000                        1421120606                              100606000000000750010400540000000000000125647101130606              0000000000000000000000000000000000000000000000007500000000000000000000000000001130606                         0000000000000000000000000                                             000029
102021974950001161584870000003760                             82090606170      000                        1421120606                              300506000000000640010408770000000000000125647101130606              0000000000000000000000000000000000000000000000006600000000000020000000000000001130606                         0000000000000000000000000                                             000030
102021974950001161584870000003760                             82110305170      000                        1421120606                              000000000000000860023716956000000000000270663101130606              0000000000000000000000000000000000000000000000008600000000000000000000000000001130606                         0000000000000000000000000                                             000031
102021974950001161584870000003760                             82110605122      000                        1421120606                              250506000000000750010407765000000000000125647101130606              0000000000000000000000000000000000000000000000007778000000000027800000000000001130606                         0000000000000000000000000                                             000032
9201104                                                                                                                                                                                                                                                                                                                                                                                                   000033
