02RETORNO01COBRANCA       1584870000003760    IPAD                          104C ECON FEDERAL 120705                                                                                                                                                                                                                                                                                                 00002000001
102021974950001161584870000003760                             82999011701      000                        1421120705                              100805000000001000010409172000000000000240655100120705              0000000000000000000000000000000000000000000000010000000000000000000000000000001120705                         0000000000000000000000000                                             000002
102021974950001161584870000003760                             82999381762      000                        1421120705                              100805000000000860010409148000000000000125647101130705              0000000000000000000000000000000000000000000000008600000000000000000000000000001130705                         0000000000000000000000000                                             000003
102021974950001161584870000003760                             82999381789      000                        1421120705                              100805000000000860010409148000000000000125647101130705              0000000000000000000000000000000000000000000000008600000000000000000000000000001130705                         0000000000000000000000000                                             000004
102021974950001161584870000003760                             82999381800      000                        1421120705                              100805000000000860010409148000000000000125647101130705              0000000000000000000000000000000000000000000000008600000000000000000000000000001130705                         0000000000000000000000000                                             000005
102021974950001161584870000003760                             82999381827      000                        1421120705                              100805000000000860010409148000000000000125647101130705              0000000000000000000000000000000000000000000000008600000000000000000000000000001130705                         0000000000000000000000000                                             000006
102021974950001161584870000003760                             82999381843      000                        1421120705                              100805000000000860010409148000000000000125647101130705              0000000000000000000000000000000000000000000000008600000000000000000000000000001130705                         0000000000000000000000000                                             000007
102021974950001161584870000003760                             82999381860      000                        1421120705                              100805000000000860010409148000000000000125647101130705              0000000000000000000000000000000000000000000000008600000000000000000000000000001130705                         0000000000000000000000000                                             000008
102021974950001161584870000003760                             82999381886      000                        1421120705                              100805000000000860010409148000000000000125647101130705              0000000000000000000000000000000000000000000000008600000000000000000000000000001130705                         0000000000000000000000000                                             000009
102021974950001161584870000003760                             82999381908      000                        1421120705                              100805000000000860010409148000000000000125647101130705              0000000000000000000000000000000000000000000000008600000000000000000000000000001130705                         0000000000000000000000000                                             000010
102021974950001161584870000003760                             82999381924      000                        1421120705                              100805000000000860010409148000000000000125647101130705              0000000000000000000000000000000000000000000000008600000000000000000000000000001130705                         0000000000000000000000000                                             000011
102021974950001161584870000003760                             82999381940      000                        1421120705                              100805000000000860010409148000000000000125647101130705              0000000000000000000000000000000000000000000000008600000000000000000000000000001130705                         0000000000000000000000000                                             000012
102021974950001161584870000003760                             82999381967      000                        1421120705                              100805000000000860010409148000000000000125647101130705              0000000000000000000000000000000000000000000000008600000000000000000000000000001130705                         0000000000000000000000000                                             000013
102021974950001161584870000003760                             82999381983      000                        1421120705                              100805000000000860010409148000000000000125647101130705              0000000000000000000000000000000000000000000000008600000000000000000000000000001130705                         0000000000000000000000000                                             000014
102021974950001161584870000003760                             82999382009      000                        1421120705                              100805000000000860010409148000000000000125647101130705              0000000000000000000000000000000000000000000000008600000000000000000000000000001130705                         0000000000000000000000000                                             000015
102021974950001161584870000003760                             82999382025      000                        1421120705                              100805000000000860010409148000000000000125647101130705              0000000000000000000000000000000000000000000000008600000000000000000000000000001130705                         0000000000000000000000000                                             000016
102021974950001161584870000003760                             82999382041      000                        1421120705                              100805000000000860010409148000000000000125647101130705              0000000000000000000000000000000000000000000000008600000000000000000000000000001130705                         0000000000000000000000000                                             000017
102021974950001161584870000003760                             82999382068      000                        1421120705                              100805000000000860010409148000000000000125647101130705              0000000000000000000000000000000000000000000000008600000000000000000000000000001130705                         0000000000000000000000000                                             000018
102021974950001161584870000003760                             82999382084      000                        1421120705                              100805000000000860010409148000000000000125647101130705              0000000000000000000000000000000000000000000000008600000000000000000000000000001130705                         0000000000000000000000000                                             000019
102021974950001161584870000003760                             82999382106      000                        1421120705                              100805000000000860010409148000000000000125647101130705              0000000000000000000000000000000000000000000000008600000000000000000000000000001130705                         0000000000000000000000000                                             000020
102021974950001161584870000003760                             82999382122      000                        1421120705                              100805000000000860010409148000000000000125647101130705              0000000000000000000000000000000000000000000000008600000000000000000000000000001130705                         0000000000000000000000000                                             000021
102021974950001161584870000003760                             82999382149      000                        1421120705                              100805000000000860010409148000000000000125647101130705              0000000000000000000000000000000000000000000000008600000000000000000000000000001130705                         0000000000000000000000000                                             000022
102021974950001161584870000003760                             82999382785      000                        1421120705                              100805000000000860010409148000000000000125647101130705              0000000000000000000000000000000000000000000000008600000000000000000000000000001130705                         0000000000000000000000000                                             000023
9201104                                                                                                                                                                                                                                                                                                                                                                                                   000024
