02RETORNO01COBRANCA       1584870000003760    IPAD                          104C ECON FEDERAL 150805                                                                                                                                                                                                                                                                                                 00024000001
102021974950001161584870000003760                             82999012325      000                        1421150805                              300805000000000860010430171000000000000125647101160805              0000000000000000000000000000000000000000000000008600000000000000000000000000001160805                         0000000000000000000000000                                             000002
9201104                                                                                                                                                                                                                                                                                                                                                                                                   000003
