02RETORNO01COBRANCA       1584870000003760    IPAD                          104C ECON FEDERAL 150506                                                                                                                                                                                                                                                                                                 00202000001
102021974950001161584870000003760                             82000043812      000                        1421150506                              000000000000000760035611246000000000000270663101160506              0000000000000000000000000000000000000000000000007600000000000000000000000000001160506                         0000000000000000000000000                                             000002
102021974950001161584870000003760                             82000043839      000                        1421150506                              000000000000000760010409148000000000000125647101160506              0000000000000000000000000000000000000000000000007600000000000000000000000000001160506                         0000000000000000000000000                                             000003
102021974950001161584870000003760                             82000043910      000                        1421150506                              000000000000000760010409148000000000000125647101160506              0000000000000000000000000000000000000000000000007600000000000000000000000000001160506                         0000000000000000000000000                                             000004
102021974950001161584870000003760                             82010137178      000                        1421150506                              100506000000000750010414338000000000000125647101160506              0000000000000000000000000000000000000000000000007687000000000018700000000000001160506                         0000000000000000000000000                                             000005
102021974950001161584870000003760                             82030118179      000                        1421150506                              100506000000000750010424465000000000000240655100150506              0000000000000000000000000000000000000000000000007688000000000018800000000000001150506                         0000000000000000000000000                                             000006
102021974950001161584870000003760                             82040506171      000                        1421150506                              100406000000000860010400523000000000000125647101160506              0000000000000000000000000000000000000000000000008858000000000025800000000000001160506                         0000000000000000000000000                                             000007
102021974950001161584870000003760                             82040634145      000                        1421150506                              000000000000000860039928996000000000000270663101160506              0000000000000000000000000000000000000000000000008600000000000000000000000000001160506                         0000000000000000000000000                                             000008
102021974950001161584870000003760                             82040634170      000                        1421150506                              000000000000000860039928996000000000000270663101160506              0000000000000000000000000000000000000000000000008600000000000000000000000000001160506                         0000000000000000000000000                                             000009
102021974950001161584870000003760                             82060240177      000                        1421150506                              000000000000000860039928996000000000000270663101160506              0000000000000000000000000000000000000000000000008600000000000000000000000000001160506                         0000000000000000000000000                                             000010
102021974950001161584870000003760                             82060301176      000                        1421150506                              150506000000000860035610016000000000000270663101160506              0000000000000000000000000000000000000000000000008600000000000000000000000000001160506                         0000000000000000000000000                                             000011
102021974950001161584870000003760                             82060304175      000                        1421150506                              000000000000000860039928996000000000000270663101160506              0000000000000000000000000000000000000000000000008600000000000000000000000000001160506                         0000000000000000000000000                                             000012
102021974950001161584870000003760                             82060305171      000                        1421150506                              150506000000000860010408761000000000000125647101160506              0000000000000000000000000000000000000000000000008600000000000000000000000000001160506                         0000000000000000000000000                                             000013
102021974950001161584870000003760                             82060306178      000                        1421150506                              150506000000000860006500016000000000000270663101160506              0000000000000000000000000000000000000000000000008600000000000000000000000000001160506                         0000000000000000000000000                                             000014
102021974950001161584870000003760                             82060307174      000                        1421150506                              150506000000000860075641796000000000000270663101160506              0000000000000000000000000000000000000000000000008600000000000000000000000000001160506                         0000000000000000000000000                                             000015
102021974950001161584870000003760                             82060309177      000                        1421150506                              150506000000000860006500016000000000000270663101160506              0000000000000000000000000000000000000000000000008600000000000000000000000000001160506                         0000000000000000000000000                                             000016
102021974950001161584870000003760                             82060310175      000                        1421150506                              150506000000000860010408761000000000000125647101160506              0000000000000000000000000000000000000000000000008600000000000000000000000000001160506                         0000000000000000000000000                                             000017
102021974950001161584870000003760                             82060324176      000                        1421150506                              150506000000000860010408761000000000000125647101160506              0000000000000000000000000000000000000000000000008600000000000000000000000000001160506                         0000000000000000000000000                                             000018
102021974950001161584870000003760                             82060326179      000                        1421150506                              150506000000000860010408761000000000000125647101160506              0000000000000000000000000000000000000000000000008600000000000000000000000000001160506                         0000000000000000000000000                                             000019
102021974950001161584870000003760                             82060334171      000                        1421150506                              150506000000000860010408761000000000000125647101160506              0000000000000000000000000000000000000000000000008600000000000000000000000000001160506                         0000000000000000000000000                                             000020
102021974950001161584870000003760                             82060603121      000                        1421150506                              150506000000000750010412424000000000000125647101160506              0000000000000000000000000000000000000000000000007500000000000000000000000000001160506                         0000000000000000000000000                                             000021
102021974950001161584870000003760                             82060605124      000                        1421150506                              150506000000000750010412424000000000000125647101160506              0000000000000000000000000000000000000000000000007500000000000000000000000000001160506                         0000000000000000000000000                                             000022
102021974950001161584870000003760                             82060608123      000                        1421150506                              150506000000000750010412424000000000000125647101160506              0000000000000000000000000000000000000000000000007500000000000000000000000000001160506                         0000000000000000000000000                                             000023
102021974950001161584870000003760                             82060611124      000                        1421150506                              150506000000000750010412424000000000000125647101160506              0000000000000000000000000000000000000000000000007500000000000000000000000000001160506                         0000000000000000000000000                                             000024
102021974950001161584870000003760                             82060617122      000                        1421150506                              150506000000000750010412424000000000000125647101160506              0000000000000000000000000000000000000000000000007500000000000000000000000000001160506                         0000000000000000000000000                                             000025
102021974950001161584870000003760                             82060620123      000                        1421150506                              150506000000000750010412424000000000000125647101160506              0000000000000000000000000000000000000000000000007500000000000000000000000000001160506                         0000000000000000000000000                                             000026
102021974950001161584870000003760                             82060622126      000                        1421150506                              150506000000000750010412424000000000000125647101160506              0000000000000000000000000000000000000000000000007500000000000000000000000000001160506                         0000000000000000000000000                                             000027
102021974950001161584870000003760                             82060705129      000                        1421150506                              150506000000000860010400477000000000000125647101160506              0000000000000000000000000000000000000000000000008600000000000000000000000000001160506                         0000000000000000000000000                                             000028
102021974950001161584870000003760                             82060710122      000                        1421150506                              150506000000000860010406785000000000000125647101160506              0000000000000000000000000000000000000000000000008600000000000000000000000000001160506                         0000000000000000000000000                                             000029
102021974950001161584870000003760                             82060711129      000                        1421150506                              150506000000000860006500016000000000000270663101160506              0000000000000000000000000000000000000000000000008600000000000000000000000000001160506                         0000000000000000000000000                                             000030
102021974950001161584870000003760                             82060714128      000                        1421150506                              150506000000000860000143576000000000000270663101160506              0000000000000000000000000000000000000000000000008600000000000000000000000000001160506                         0000000000000000000000000                                             000031
102021974950001161584870000003760                             82060716120      000                        1421150506                              000000000000000860039928996000000000000270663101160506              0000000000000000000000000000000000000000000000008600000000000000000000000000001160506                         0000000000000000000000000                                             000032
102021974950001161584870000003760                             82060717127      000                        1421150506                              150506000000000860010400469000000000000125647101160506              0000000000000000000000000000000000000000000000008600000000000000000000000000001160506                         0000000000000000000000000                                             000033
102021974950001161584870000003760                             82060720128      000                        1421150506                              150506000000000860010400469000000000000125647101160506              0000000000000000000000000000000000000000000000008600000000000000000000000000001160506                         0000000000000000000000000                                             000034
102021974950001161584870000003760                             82090509174      000                        1421150506                              100406000000000375010408770000000000000125647101160506              0000000000000000000000000000000000000000000000003958000000000020800000000000001160506                         0000000000000000000000000                                             000035
102021974950001161584870000003760                             82090724172      000                        1421150506                              100406000000000750010408770000000000000125647101160506              0000000000000000000000000000000000000000000000007950000000000045000000000000001160506                         0000000000000000000000000                                             000036
102021974950001161584870000003760                             82091112162      000                        1421150506                              100306000000000750010408770000000000000125647101160506              0000000000000000000000000000000000000000000000008130000000000063000000000000001160506                         0000000000000000000000000                                             000037
102021974950001161584870000003760                             82091125167      000                        1421150506                              100306000000000750010408770000000000000125647101160506              0000000000000000000000000000000000000000000000008130000000000063000000000000001160506                         0000000000000000000000000                                             000038
102021974950001161584870000003760                             82091201173      000                        1421150506                              100406000000000750010400540000000000000125647101160506              0000000000000000000000000000000000000000000000007895000000000039500000000000001160506                         0000000000000000000000000                                             000039
102021974950001161584870000003760                             82110401179      000                        1421150506                              200506000000000750010408125000000000000125647101160506              0000000000000000000000000000000000000000000000007500000000000000000000000000001160506                         0000000000000000000000000                                             000040
102021974950001161584870000003760                             82110415170      000                        1421150506                              200506000000000750000120676000000000000270663101160506              0000000000000000000000000000000000000000000000007500000000000000000000000000001160506                         0000000000000000000000000                                             000041
102021974950001161584870000003760                             82120120172      000                        1421150506                              100406000000000650010421245000000000000125647101160506              0000000000000000000000000000000000000000000000006840000000000034000000000000001160506                         0000000000000000000000000                                             000042
9201104                                                                                                                                                                                                                                                                                                                                                                                                   000043
