02RETORNO01COBRANCA       1584870000003760    IPAD                          104C ECON FEDERAL 101105                                                                                                                                                                                                                                                                                                 00077000001
102021974950001161584870000003760                             82040101120      000                        1421101105                              101105000000000430075641796000000000000270663101111105              0000000000000000000000000000000000000000000000004300000000000000000000000000001111105                         0000000000000000000000000                                             000002
102021974950001161584870000003760                             82040102127      000                        1421101105                              101105000000000430010400523000000000000125647101111105              0000000000000000000000000000000000000000000000004300000000000000000000000000001111105                         0000000000000000000000000                                             000003
102021974950001161584870000003760                             82040104120      000                        1421101105                              101105000000000430075641796000000000000270663101111105              0000000000000000000000000000000000000000000000004300000000000000000000000000001111105                         0000000000000000000000000                                             000004
102021974950001161584870000003760                             82040106122      000                        1421101105                              101105000000000430075641796000000000000270663101111105              0000000000000000000000000000000000000000000000004300000000000000000000000000001111105                         0000000000000000000000000                                             000005
102021974950001161584870000003760                             82040111126      000                        1421101105                              101105000000000430075641796000000000000270663101111105              0000000000000000000000000000000000000000000000004300000000000000000000000000001111105                         0000000000000000000000000                                             000006
102021974950001161584870000003760                             82040113129      000                        1421101105                              101105000000000430010400523000000000000125647101111105              0000000000000000000000000000000000000000000000004300000000000000000000000000001111105                         0000000000000000000000000                                             000007
102021974950001161584870000003760                             82040120125      000                        1421101105                              101105000000000430075641796000000000000270663101111105              0000000000000000000000000000000000000000000000004300000000000000000000000000001111105                         0000000000000000000000000                                             000008
102021974950001161584870000003760                             82040122128      000                        1421101105                              101105000000000430010400523000000000000125647101111105              0000000000000000000000000000000000000000000000004300000000000000000000000000001111105                         0000000000000000000000000                                             000009
102021974950001161584870000003760                             82040123124      000                        1421101105                              101105000000000430010400523000000000000125647101111105              0000000000000000000000000000000000000000000000004300000000000000000000000000001111105                         0000000000000000000000000                                             000010
102021974950001161584870000003760                             82040124120      000                        1421101105                              101105000000000430075641796000000000000270663101111105              0000000000000000000000000000000000000000000000004300000000000000000000000000001111105                         0000000000000000000000000                                             000011
102021974950001161584870000003760                             82040127120      000                        1421101105                              101105000000000430010400523000000000000125647101111105              0000000000000000000000000000000000000000000000004300000000000000000000000000001111105                         0000000000000000000000000                                             000012
102021974950001161584870000003760                             82040129122      000                        1421101105                              101105000000000430010400523000000000000125647101111105              0000000000000000000000000000000000000000000000004300000000000000000000000000001111105                         0000000000000000000000000                                             000013
102021974950001161584870000003760                             82040132123      000                        1421101105                              101105000000000860006500016000000000000270663101111105              0000000000000000000000000000000000000000000000008600000000000000000000000000001111105                         0000000000000000000000000                                             000014
102021974950001161584870000003760                             82040134126      000                        1421101105                              101105000000000860010409156000000000000125647101111105              0000000000000000000000000000000000000000000000008600000000000000000000000000001111105                         0000000000000000000000000                                             000015
102021974950001161584870000003760                             82040135122      000                        1421101105                              101105000000012040000110126000000000000270663101111105              0000000000000000000000000000000000000000000000120400000000000000000000000000001111105                         0000000000000000000000000                                             000016
102021974950001161584870000003760                             82040202121      000                        1421101105                              101105000000000430010400523000000000000125647101111105              0000000000000000000000000000000000000000000000004300000000000000000000000000001111105                         0000000000000000000000000                                             000017
102021974950001161584870000003760                             82040206127      000                        1421101105                              101105000000000430006500016000000000000270663101111105              0000000000000000000000000000000000000000000000004300000000000000000000000000001111105                         0000000000000000000000000                                             000018
102021974950001161584870000003760                             82040209126      000                        1421101105                              101105000000000430010400523000000000000125647101111105              0000000000000000000000000000000000000000000000004300000000000000000000000000001111105                         0000000000000000000000000                                             000019
102021974950001161584870000003760                             82040214120      000                        1421101105                              101105000000000430010400523000000000000125647101111105              0000000000000000000000000000000000000000000000004300000000000000000000000000001111105                         0000000000000000000000000                                             000020
102021974950001161584870000003760                             82040220120      000                        1421101105                              101105000000000430010400523000000000000125647101111105              0000000000000000000000000000000000000000000000004300000000000000000000000000001111105                         0000000000000000000000000                                             000021
102021974950001161584870000003760                             82040239122      000                        1421101105                              101105000000013760000105506000000000000270663101111105              0000000000000000000000000000000000000000000000137600000000000000000000000000001111105                         0000000000000000000000000                                             000022
102021974950001161584870000003760                             82040310129      000                        1421101105                              101105000000000860075641796000000000000270663101111105              0000000000000000000000000000000000000000000000008600000000000000000000000000001111105                         0000000000000000000000000                                             000023
102021974950001161584870000003760                             82040318120      000                        1421101105                              101105000000000860000116016000000000000270663101111105              0000000000000000000000000000000000000000000000008600000000000000000000000000001111105                         0000000000000000000000000                                             000024
102021974950001161584870000003760                             82040411120      000                        1421101105                              101105000000000860010400523000000000000125620101111105              0000000000000000000000000000000000000000000000008600000000000000000000000000001111105                         0000000000000000000000000                                             000025
102021974950001161584870000003760                             82040426127      000                        1421101105                              101105000000000860010400523000000000000125620101111105              0000000000000000000000000000000000000000000000008600000000000000000000000000001111105                         0000000000000000000000000                                             000026
102021974950001161584870000003760                             82040436122      000                        1421101105                              101105000000000860000125646000000000000270663101111105              0000000000000000000000000000000000000000000000008600000000000000000000000000001111105                         0000000000000000000000000                                             000027
102021974950001161584870000003760                             82040503121      000                        1421101105                              101105000000000860075641796000000000000270663101111105              0000000000000000000000000000000000000000000000008600000000000000000000000000001111105                         0000000000000000000000000                                             000028
102021974950001161584870000003760                             82040504128      000                        1421101105                              101105000000000860010400523000000000000125647101111105              0000000000000000000000000000000000000000000000008600000000000000000000000000001111105                         0000000000000000000000000                                             000029
102021974950001161584870000003760                             82040505124      000                        1421101105                              101105000000000860010400523000000000000125647101111105              0000000000000000000000000000000000000000000000008600000000000000000000000000001111105                         0000000000000000000000000                                             000030
102021974950001161584870000003760                             82040507127      000                        1421101105                              101105000000000860010400523000000000000125647101111105              0000000000000000000000000000000000000000000000008600000000000000000000000000001111105                         0000000000000000000000000                                             000031
102021974950001161584870000003760                             82040508123      000                        1421101105                              101105000000000860006500016000000000000270663101111105              0000000000000000000000000000000000000000000000008600000000000000000000000000001111105                         0000000000000000000000000                                             000032
102021974950001161584870000003760                             82040514123      000                        1421101105                              101105000000000860006500016000000000000270663101111105              0000000000000000000000000000000000000000000000008600000000000000000000000000001111105                         0000000000000000000000000                                             000033
102021974950001161584870000003760                             82040516126      000                        1421101105                              101105000000000860010400523000000000000125647101111105              0000000000000000000000000000000000000000000000008600000000000000000000000000001111105                         0000000000000000000000000                                             000034
102021974950001161584870000003760                             82040517122      000                        1421101105                              101105000000000860006500016000000000000270663101111105              0000000000000000000000000000000000000000000000008600000000000000000000000000001111105                         0000000000000000000000000                                             000035
102021974950001161584870000003760                             82040519125      000                        1421101105                              101105000000000860010400523000000000000125647101111105              0000000000000000000000000000000000000000000000008600000000000000000000000000001111105                         0000000000000000000000000                                             000036
102021974950001161584870000003760                             82040523122      000                        1421101105                              101105000000000860010400523000000000000125647101111105              0000000000000000000000000000000000000000000000008600000000000000000000000000001111105                         0000000000000000000000000                                             000037
102021974950001161584870000003760                             82040601123      000                        1421101105                              101105000000000860010421709000000000000125647101111105              0000000000000000000000000000000000000000000000008600000000000000000000000000001111105                         0000000000000000000000000                                             000038
102021974950001161584870000003760                             82040602120      000                        1421101105                              101105000000000860010407730000000000000125647101111105              0000000000000000000000000000000000000000000000008600000000000000000000000000001111105                         0000000000000000000000000                                             000039
102021974950001161584870000003760                             82040609124      000                        1421101105                              101105000000000860007347476000000000000270663101111105              0000000000000000000000000000000000000000000000008600000000000000000000000000001111105                         0000000000000000000000000                                             000040
102021974950001161584870000003760                             82040610122      000                        1421101105                              101105000000000860075641796000000000000270663101111105              0000000000000000000000000000000000000000000000008600000000000000000000000000001111105                         0000000000000000000000000                                             000041
102021974950001161584870000003760                             82040612125      000                        1421101105                              101105000000000860006500016000000000000270663101111105              0000000000000000000000000000000000000000000000008600000000000000000000000000001111105                         0000000000000000000000000                                             000042
102021974950001161584870000003760                             82040618123      000                        1421101105                              101105000000000860075641796000000000000270663101111105              0000000000000000000000000000000000000000000000008600000000000000000000000000001111105                         0000000000000000000000000                                             000043
102021974950001161584870000003760                             82040624123      000                        1421101105                              101105000000000860010407730000000000000125647101111105              0000000000000000000000000000000000000000000000008600000000000000000000000000001111105                         0000000000000000000000000                                             000044
102021974950001161584870000003760                             82040629125      000                        1421101105                              101105000000000860010400523000000000000125647101111105              0000000000000000000000000000000000000000000000008600000000000000000000000000001111105                         0000000000000000000000000                                             000045
102021974950001161584870000003760                             82040713126      000                        1421101105                              101105000000000860007347476000000000000270663101111105              0000000000000000000000000000000000000000000000008600000000000000000000000000001111105                         0000000000000000000000000                                             000046
102021974950001161584870000003760                             82040718128      000                        1421101105                              101105000000000860010409164000000000000125647101111105              0000000000000000000000000000000000000000000000008600000000000000000000000000001111105                         0000000000000000000000000                                             000047
102021974950001161584870000003760                             82050103126      000                        1421101105                              101105000000000400006500016000000000000270663101111105              0000000000000000000000000000000000000000000000004000000000000000000000000000001111105                         0000000000000000000000000                                             000048
102021974950001161584870000003760                             82050105129      000                        1421101105                              101105000000000400010412955000000000000125647101111105              0000000000000000000000000000000000000000000000004000000000000000000000000000001111105                         0000000000000000000000000                                             000049
102021974950001161584870000003760                             82050113121      000                        1421101105                              101105000000000400010400531000000000000125647101111105              0000000000000000000000000000000000000000000000004000000000000000000000000000001111105                         0000000000000000000000000                                             000050
102021974950001161584870000003760                             82050118123      000                        1421101105                              101105000000000400006500016000000000000270663101111105              0000000000000000000000000000000000000000000000004000000000000000000000000000001111105                         0000000000000000000000000                                             000051
102021974950001161584870000003760                             82050124123      000                        1421101105                              101105000000000400006500016000000000000270663101111105              0000000000000000000000000000000000000000000000004000000000000000000000000000001111105                         0000000000000000000000000                                             000052
102021974950001161584870000003760                             82050131120      000                        1421101105                              101105000000000400010400531000000000000125647101111105              0000000000000000000000000000000000000000000000004000000000000000000000000000001111105                         0000000000000000000000000                                             000053
102021974950001161584870000003760                             82050135125      000                        1421101105                              101105000000000400006500016000000000000270663101111105              0000000000000000000000000000000000000000000000004000000000000000000000000000001111105                         0000000000000000000000000                                             000054
102021974950001161584870000003760                             82050137128      000                        1421101105                              101105000000000400006500016000000000000270663101111105              0000000000000000000000000000000000000000000000004000000000000000000000000000001111105                         0000000000000000000000000                                             000055
102021974950001161584870000003760                             82050202124      000                        1421101105                              101105000000000400006500016000000000000270663101111105              0000000000000000000000000000000000000000000000004000000000000000000000000000001111105                         0000000000000000000000000                                             000056
102021974950001161584870000003760                             82050204127      000                        1421101105                              101105000000000400010400531000000000000125647101111105              0000000000000000000000000000000000000000000000004000000000000000000000000000001111105                         0000000000000000000000000                                             000057
102021974950001161584870000003760                             82050206120      000                        1421101105                              101105000000000400006500016000000000000270663101111105              0000000000000000000000000000000000000000000000004000000000000000000000000000001111105                         0000000000000000000000000                                             000058
102021974950001161584870000003760                             82050209129      000                        1421101105                              101105000000000400006500016000000000000270663101111105              0000000000000000000000000000000000000000000000004000000000000000000000000000001111105                         0000000000000000000000000                                             000059
102021974950001161584870000003760                             82050212120      000                        1421101105                              101105000000000400023708356000000000000270663101111105              0000000000000000000000000000000000000000000000004000000000000000000000000000001111105                         0000000000000000000000000                                             000060
102021974950001161584870000003760                             82050215129      000                        1421101105                              101105000000000400006500016000000000000270663101111105              0000000000000000000000000000000000000000000000004000000000000000000000000000001111105                         0000000000000000000000000                                             000061
102021974950001161584870000003760                             82050216125      000                        1421101105                              101105000000000400010400531000000000000125647101111105              0000000000000000000000000000000000000000000000004000000000000000000000000000001111105                         0000000000000000000000000                                             000062
102021974950001161584870000003760                             82050217121      000                        1421101105                              101105000000000400007347476000000000000270663101111105              0000000000000000000000000000000000000000000000004000000000000000000000000000001111105                         0000000000000000000000000                                             000063
102021974950001161584870000003760                             82050219124      000                        1421101105                              101105000000000400010400531000000000000125647101111105              0000000000000000000000000000000000000000000000004000000000000000000000000000001111105                         0000000000000000000000000                                             000064
102021974950001161584870000003760                             82050221129      000                        1421101105                              101105000000000400010400531000000000000125647101111105              0000000000000000000000000000000000000000000000004000000000000000000000000000001111105                         0000000000000000000000000                                             000065
102021974950001161584870000003760                             82050222125      000                        1421101105                              101105000000000400006500016000000000000270663101111105              0000000000000000000000000000000000000000000000004000000000000000000000000000001111105                         0000000000000000000000000                                             000066
102021974950001161584870000003760                             82050226120      000                        1421101105                              101105000000000400006500016000000000000270663101111105              0000000000000000000000000000000000000000000000004000000000000000000000000000001111105                         0000000000000000000000000                                             000067
102021974950001161584870000003760                             82050229120      000                        1421101105                              101105000000000400006500016000000000000270663101111105              0000000000000000000000000000000000000000000000004000000000000000000000000000001111105                         0000000000000000000000000                                             000068
102021974950001161584870000003760                             82050232120      000                        1421101105                              101105000000000400010400531000000000000125647101111105              0000000000000000000000000000000000000000000000004000000000000000000000000000001111105                         0000000000000000000000000                                             000069
102021974950001161584870000003760                             82050309123      000                        1421101105                              101105000000000860010427782000000000000125647101111105              0000000000000000000000000000000000000000000000008600000000000000000000000000001111105                         0000000000000000000000000                                             000070
102021974950001161584870000003760                             82050318122      000                        1421101105                              101105000000000860010427782000000000000125647101111105              0000000000000000000000000000000000000000000000008600000000000000000000000000001111105                         0000000000000000000000000                                             000071
102021974950001161584870000003760                             82050319129      000                        1421101105                              101105000000000860006500016000000000000270663101111105              0000000000000000000000000000000000000000000000008600000000000000000000000000001111105                         0000000000000000000000000                                             000072
102021974950001161584870000003760                             82050322120      000                        1421101105                              101105000000000860010427782000000000000125647101111105              0000000000000000000000000000000000000000000000008600000000000000000000000000001111105                         0000000000000000000000000                                             000073
102021974950001161584870000003760                             82050324122      000                        1421101105                              101105000000000860006500016000000000000270663101111105              0000000000000000000000000000000000000000000000008600000000000000000000000000001111105                         0000000000000000000000000                                             000074
102021974950001161584870000003760                             82050330122      000                        1421101105                              101105000000000860023718986000000000000270663101111105              0000000000000000000000000000000000000000000000008600000000000000000000000000001111105                         0000000000000000000000000                                             000075
102021974950001161584870000003760                             82060137139      000                        1421101105                              151105000000000860006500016000000000000270663101111105              0000000000000000000000000000000000000000000000008600000000000000000000000000001111105                         0000000000000000000000000                                             000076
102021974950001161584870000003760                             82060149137      000                        1421101105                              151105000000000860006500016000000000000270663101111105              0000000000000000000000000000000000000000000000008600000000000000000000000000001111105                         0000000000000000000000000                                             000077
102021974950001161584870000003760                             82070122126      000                        1421101105                              101105000000000720075641796000000000000270663101111105              0000000000000000000000000000000000000000000000007200000000000000000000000000001111105                         0000000000000000000000000                                             000078
102021974950001161584870000003760                             82070129120      000                        1421101105                              101105000000000860006500016000000000000270663101111105              0000000000000000000000000000000000000000000000008600000000000000000000000000001111105                         0000000000000000000000000                                             000079
102021974950001161584870000003760                             82070202120      000                        1421101105                              101105000000000860006500016000000000000270663101111105              0000000000000000000000000000000000000000000000008600000000000000000000000000001111105                         0000000000000000000000000                                             000080
102021974950001161584870000003760                             82070206125      000                        1421101105                              101105000000000860075641796000000000000270663101111105              0000000000000000000000000000000000000000000000008600000000000000000000000000001111105                         0000000000000000000000000                                             000081
102021974950001161584870000003760                             82070210122      000                        1421101105                              101105000000000720075641796000000000000270663101111105              0000000000000000000000000000000000000000000000007200000000000000000000000000001111105                         0000000000000000000000000                                             000082
102021974950001161584870000003760                             82070211129      000                        1421101105                              101105000000000860002410526000000000000270663101111105              0000000000000000000000000000000000000000000000008600000000000000000000000000001111105                         0000000000000000000000000                                             000083
102021974950001161584870000003760                             82070214128      000                        1421101105                              101105000000000860002410166000000000000270663101111105              0000000000000000000000000000000000000000000000008600000000000000000000000000001111105                         0000000000000000000000000                                             000084
102021974950001161584870000003760                             82070218123      000                        1421101105                              101105000000000860010400450000000000000125647101111105              0000000000000000000000000000000000000000000000008600000000000000000000000000001111105                         0000000000000000000000000                                             000085
102021974950001161584870000003760                             82070224123      000                        1421101105                              101105000000000860075641796000000000000270663101111105              0000000000000000000000000000000000000000000000008600000000000000000000000000001111105                         0000000000000000000000000                                             000086
102021974950001161584870000003760                             82070227122      000                        1421101105                              101105000000000860010400450000000000000125647101111105              0000000000000000000000000000000000000000000000008600000000000000000000000000001111105                         0000000000000000000000000                                             000087
102021974950001161584870000003760                             82070304127      000                        1421101105                              151105000000000860010415806000000000000125647101111105              0000000000000000000000000000000000000000000000008600000000000000000000000000001111105                         0000000000000000000000000                                             000088
102021974950001161584870000003760                             82070306120      000                        1421101105                              000000000000000860040975226000000000000270663101111105              0000000000000000000000000000000000000000000000008600000000000000000000000000001111105                         0000000000000000000000000                                             000089
102021974950001161584870000003760                             82090105120      000                        1421101105                              101105000000000640075641796000000000000270663101111105              0000000000000000000000000000000000000000000000006400000000000000000000000000001111105                         0000000000000000000000000                                             000090
102021974950001161584870000003760                             82090107122      000                        1421101105                              101105000000000640010400540000000000000125647101111105              0000000000000000000000000000000000000000000000006400000000000000000000000000001111105                         0000000000000000000000000                                             000091
102021974950001161584870000003760                             82090109125      000                        1421101105                              101105000000000640075641796000000000000270663101111105              0000000000000000000000000000000000000000000000006400000000000000000000000000001111105                         0000000000000000000000000                                             000092
102021974950001161584870000003760                             82090111120      000                        1421101105                              101105000000000640010400540000000000000125647101111105              0000000000000000000000000000000000000000000000006400000000000000000000000000001111105                         0000000000000000000000000                                             000093
102021974950001161584870000003760                             82090114129      000                        1421101105                              101105000000000640075641796000000000000270663101111105              0000000000000000000000000000000000000000000000006400000000000000000000000000001111105                         0000000000000000000000000                                             000094
102021974950001161584870000003760                             82090116121      000                        1421101105                              101105000000000640010400540000000000000125647101111105              0000000000000000000000000000000000000000000000006400000000000000000000000000001111105                         0000000000000000000000000                                             000095
102021974950001161584870000003760                             82090118124      000                        1421101105                              101105000000000640010400540000000000000125647101111105              0000000000000000000000000000000000000000000000006400000000000000000000000000001111105                         0000000000000000000000000                                             000096
102021974950001161584870000003760                             82090119120      000                        1421101105                              101105000000000640075641796000000000000270663101111105              0000000000000000000000000000000000000000000000006400000000000000000000000000001111105                         0000000000000000000000000                                             000097
102021974950001161584870000003760                             82090122121      000                        1421101105                              101105000000000640075641796000000000000270663101111105              0000000000000000000000000000000000000000000000006400000000000000000000000000001111105                         0000000000000000000000000                                             000098
102021974950001161584870000003760                             82090126127      000                        1421101105                              101105000000000640075641796000000000000270663101111105              0000000000000000000000000000000000000000000000006400000000000000000000000000001111105                         0000000000000000000000000                                             000099
102021974950001161584870000003760                             82090127123      000                        1421101105                              101105000000000640010400540000000000000125647101111105              0000000000000000000000000000000000000000000000006400000000000000000000000000001111105                         0000000000000000000000000                                             000100
102021974950001161584870000003760                             82090202125      000                        1421101105                              101105000000000640010400540000000000000125647101111105              0000000000000000000000000000000000000000000000006400000000000000000000000000001111105                         0000000000000000000000000                                             000101
102021974950001161584870000003760                             82090204128      000                        1421101105                              101105000000000640075641796000000000000270663101111105              0000000000000000000000000000000000000000000000006400000000000000000000000000001111105                         0000000000000000000000000                                             000102
102021974950001161584870000003760                             82090205124      000                        1421101105                              000000000000000640023717836000000000000270663101111105              0000000000000000000000000000000000000000000000006400000000000000000000000000001111105                         0000000000000000000000000                                             000103
102021974950001161584870000003760                             82090207127      000                        1421101105                              101105000000000640010400540000000000000125647101111105              0000000000000000000000000000000000000000000000006400000000000000000000000000001111105                         0000000000000000000000000                                             000104
102021974950001161584870000003760                             82090208123      000                        1421101105                              101105000000000640010412424000000000000125647101111105              0000000000000000000000000000000000000000000000006400000000000000000000000000001111105                         0000000000000000000000000                                             000105
102021974950001161584870000003760                             82090209120      000                        1421101105                              101105000000000640010400540000000000000125647101111105              0000000000000000000000000000000000000000000000006400000000000000000000000000001111105                         0000000000000000000000000                                             000106
102021974950001161584870000003760                             82090211124      000                        1421101105                              101105000000000640010400540000000000000125647101111105              0000000000000000000000000000000000000000000000006400000000000000000000000000001111105                         0000000000000000000000000                                             000107
102021974950001161584870000003760                             82090213127      000                        1421101105                              101105000000000640000123356000000000000270663101111105              0000000000000000000000000000000000000000000000006400000000000000000000000000001111105                         0000000000000000000000000                                             000108
102021974950001161584870000003760                             82090216126      000                        1421101105                              101105000000000640010400540000000000000125647101111105              0000000000000000000000000000000000000000000000006400000000000000000000000000001111105                         0000000000000000000000000                                             000109
102021974950001161584870000003760                             82090219125      000                        1421101105                              101105000000000640010400540000000000000125647101111105              0000000000000000000000000000000000000000000000006400000000000000000000000000001111105                         0000000000000000000000000                                             000110
102021974950001161584870000003760                             82090220123      000                        1421101105                              101105000000000640010400540000000000000125647101111105              0000000000000000000000000000000000000000000000006400000000000000000000000000001111105                         0000000000000000000000000                                             000111
102021974950001161584870000003760                             82090223122      000                        1421101105                              101105000000000640010400540000000000000125647101111105              0000000000000000000000000000000000000000000000006400000000000000000000000000001111105                         0000000000000000000000000                                             000112
102021974950001161584870000003760                             82090226121      000                        1421101105                              101105000000000640010400540000000000000125647101111105              0000000000000000000000000000000000000000000000006400000000000000000000000000001111105                         0000000000000000000000000                                             000113
102021974950001161584870000003760                             82090227128      000                        1421101105                              101105000000000640010400540000000000000125647101111105              0000000000000000000000000000000000000000000000006400000000000000000000000000001111105                         0000000000000000000000000                                             000114
102021974950001161584870000003760                             82090228124      000                        1421101105                              101105000000000640010400540000000000000125647101111105              0000000000000000000000000000000000000000000000006400000000000000000000000000001111105                         0000000000000000000000000                                             000115
102021974950001161584870000003760                             82090229120      000                        1421101105                              101105000000000640010412424000000000000125647101111105              0000000000000000000000000000000000000000000000006400000000000000000000000000001111105                         0000000000000000000000000                                             000116
102021974950001161584870000003760                             82090231125      000                        1421101105                              101105000000000750010412424000000000000125647101111105              0000000000000000000000000000000000000000000000007500000000000000000000000000001111105                         0000000000000000000000000                                             000117
102021974950001161584870000003760                             82090232121      000                        1421101105                              101105000000000750010412424000000000000125647101111105              0000000000000000000000000000000000000000000000007500000000000000000000000000001111105                         0000000000000000000000000                                             000118
102021974950001161584870000003760                             82090301123      000                        1421101105                              101105000000000640075641796000000000000270663101111105              0000000000000000000000000000000000000000000000006400000000000000000000000000001111105                         0000000000000000000000000                                             000119
102021974950001161584870000003760                             82090303126      000                        1421101105                              101105000000000640010407749000000000000125647101111105              0000000000000000000000000000000000000000000000006400000000000000000000000000001111105                         0000000000000000000000000                                             000120
102021974950001161584870000003760                             82090305129      000                        1421101105                              101105000000000640075641796000000000000270663101111105              0000000000000000000000000000000000000000000000006400000000000000000000000000001111105                         0000000000000000000000000                                             000121
102021974950001161584870000003760                             82090307121      000                        1421101105                              101105000000000640010407749000000000000125647101111105              0000000000000000000000000000000000000000000000006400000000000000000000000000001111105                         0000000000000000000000000                                             000122
102021974950001161584870000003760                             82090317127      000                        1421101105                              101105000000000640010407749000000000000125647101111105              0000000000000000000000000000000000000000000000006400000000000000000000000000001111105                         0000000000000000000000000                                             000123
102021974950001161584870000003760                             82090318123      000                        1421101105                              101105000000000640010407749000000000000125647101111105              0000000000000000000000000000000000000000000000006400000000000000000000000000001111105                         0000000000000000000000000                                             000124
102021974950001161584870000003760                             82090319120      000                        1421101105                              101105000000000640075641796000000000000270663101111105              0000000000000000000000000000000000000000000000006400000000000000000000000000001111105                         0000000000000000000000000                                             000125
102021974950001161584870000003760                             82090334129      000                        1421101105                              101105000000000750010407749000000000000125647101111105              0000000000000000000000000000000000000000000000007500000000000000000000000000001111105                         0000000000000000000000000                                             000126
102021974950001161584870000003760                             82090403120      000                        1421101105                              101105000000000640075641796000000000000270663101111105              0000000000000000000000000000000000000000000000006400000000000000000000000000001111105                         0000000000000000000000000                                             000127
102021974950001161584870000003760                             82090405123      000                        1421101105                              101105000000000640010400540000000000000125647101111105              0000000000000000000000000000000000000000000000006400000000000000000000000000001111105                         0000000000000000000000000                                             000128
102021974950001161584870000003760                             82090406120      000                        1421101105                              101105000000000640074500016000000000000270663101111105              0000000000000000000000000000000000000000000000006400000000000000000000000000001111105                         0000000000000000000000000                                             000129
102021974950001161584870000003760                             82090408122      000                        1421101105                              101105000000000640010400540000000000000125647101111105              0000000000000000000000000000000000000000000000006400000000000000000000000000001111105                         0000000000000000000000000                                             000130
102021974950001161584870000003760                             82090409129      000                        1421101105                              000000000000000640023717836000000000000270663101111105              0000000000000000000000000000000000000000000000006400000000000000000000000000001111105                         0000000000000000000000000                                             000131
102021974950001161584870000003760                             82090411123      000                        1421101105                              000000000000000640023717836000000000000270663101111105              0000000000000000000000000000000000000000000000006400000000000000000000000000001111105                         0000000000000000000000000                                             000132
102021974950001161584870000003760                             82090412120      000                        1421101105                              101105000000000640010400540000000000000125647101111105              0000000000000000000000000000000000000000000000006400000000000000000000000000001111105                         0000000000000000000000000                                             000133
102021974950001161584870000003760                             82090413126      000                        1421101105                              000000000000000640023717836000000000000270663101111105              0000000000000000000000000000000000000000000000006400000000000000000000000000001111105                         0000000000000000000000000                                             000134
102021974950001161584870000003760                             82090414122      000                        1421101105                              101105000000000640010400540000000000000125647101111105              0000000000000000000000000000000000000000000000006400000000000000000000000000001111105                         0000000000000000000000000                                             000135
102021974950001161584870000003760                             82090416125      000                        1421101105                              101105000000000640010407749000000000000125647101111105              0000000000000000000000000000000000000000000000006400000000000000000000000000001111105                         0000000000000000000000000                                             000136
102021974950001161584870000003760                             82090421129      000                        1421101105                              101105000000000640010400540000000000000125647101111105              0000000000000000000000000000000000000000000000006400000000000000000000000000001111105                         0000000000000000000000000                                             000137
102021974950001161584870000003760                             82090424128      000                        1421101105                              101105000000000640010400540000000000000125647101111105              0000000000000000000000000000000000000000000000006400000000000000000000000000001111105                         0000000000000000000000000                                             000138
102021974950001161584870000003760                             82090425124      000                        1421101105                              101105000000000640010400540000000000000125647101111105              0000000000000000000000000000000000000000000000006400000000000000000000000000001111105                         0000000000000000000000000                                             000139
102021974950001161584870000003760                             82090429120      000                        1421101105                              101105000000000640010400540000000000000125647101111105              0000000000000000000000000000000000000000000000006400000000000000000000000000001111105                         0000000000000000000000000                                             000140
102021974950001161584870000003760                             82090430128      000                        1421101105                              101105000000000640010400540000000000000125647101111105              0000000000000000000000000000000000000000000000006400000000000000000000000000001111105                         0000000000000000000000000                                             000141
102021974950001161584870000003760                             82090435120      000                        1421101105                              101105000000000750006500016000000000000270663101111105              0000000000000000000000000000000000000000000000007500000000000000000000000000001111105                         0000000000000000000000000                                             000142
102021974950001161584870000003760                             82090511128      000                        1421101105                              101105000000000375006500016000000000000270663101111105              0000000000000000000000000000000000000000000000003750000000000000000000000000001111105                         0000000000000000000000000                                             000143
102021974950001161584870000003760                             82090512124      000                        1421101105                              101105000000000375010408770000000000000125647101111105              0000000000000000000000000000000000000000000000003750000000000000000000000000001111105                         0000000000000000000000000                                             000144
102021974950001161584870000003760                             82090515123      000                        1421101105                              101105000000000750010408770000000000000125647101111105              0000000000000000000000000000000000000000000000007500000000000000000000000000001111105                         0000000000000000000000000                                             000145
102021974950001161584870000003760                             82090517126      000                        1421101105                              101105000000000375010408770000000000000125647101111105              0000000000000000000000000000000000000000000000003750000000000000000000000000001111105                         0000000000000000000000000                                             000146
102021974950001161584870000003760                             82090521123      000                        1421101105                              101105000000000750010408770000000000000125647101111105              0000000000000000000000000000000000000000000000007500000000000000000000000000001111105                         0000000000000000000000000                                             000147
102021974950001161584870000003760                             82090522120      000                        1421101105                              101105000000000375010408770000000000000125647101111105              0000000000000000000000000000000000000000000000003750000000000000000000000000001111105                         0000000000000000000000000                                             000148
102021974950001161584870000003760                             82090523126      000                        1421101105                              101105000000000375006500016000000000000270663101111105              0000000000000000000000000000000000000000000000003750000000000000000000000000001111105                         0000000000000000000000000                                             000149
102021974950001161584870000003760                             82090527121      000                        1421101105                              101105000000008250000104466000000000000270663101111105              0000000000000000000000000000000000000000000000082500000000000000000000000000001111105                         0000000000000000000000000                                             000150
102021974950001161584870000003760                             82090603120      000                        1421101105                              101105000000000375006500016000000000000270663101111105              0000000000000000000000000000000000000000000000003750000000000000000000000000001111105                         0000000000000000000000000                                             000151
102021974950001161584870000003760                             82090607125      000                        1421101105                              101105000000000375010408770000000000000125647101111105              0000000000000000000000000000000000000000000000003750000000000000000000000000001111105                         0000000000000000000000000                                             000152
102021974950001161584870000003760                             82090608121      000                        1421101105                              101105000000000750010408770000000000000125647101111105              0000000000000000000000000000000000000000000000007500000000000000000000000000001111105                         0000000000000000000000000                                             000153
102021974950001161584870000003760                             82090609128      000                        1421101105                              101105000000000375010408770000000000000125647101111105              0000000000000000000000000000000000000000000000003750000000000000000000000000001111105                         0000000000000000000000000                                             000154
102021974950001161584870000003760                             82090611122      000                        1421101105                              101105000000000375010408770000000000000125647101111105              0000000000000000000000000000000000000000000000003750000000000000000000000000001111105                         0000000000000000000000000                                             000155
102021974950001161584870000003760                             82090613125      000                        1421101105                              101105000000000375010408770000000000000125647101111105              0000000000000000000000000000000000000000000000003750000000000000000000000000001111105                         0000000000000000000000000                                             000156
102021974950001161584870000003760                             82090616124      000                        1421101105                              101105000000000375010408770000000000000125647101111105              0000000000000000000000000000000000000000000000003750000000000000000000000000001111105                         0000000000000000000000000                                             000157
102021974950001161584870000003760                             82090618127      000                        1421101105                              101105000000000375006500016000000000000270663101111105              0000000000000000000000000000000000000000000000003750000000000000000000000000001111105                         0000000000000000000000000                                             000158
102021974950001161584870000003760                             82090619123      000                        1421101105                              101105000000000375006500016000000000000270663101111105              0000000000000000000000000000000000000000000000003750000000000000000000000000001111105                         0000000000000000000000000                                             000159
102021974950001161584870000003760                             82090621128      000                        1421101105                              101105000000000375010408770000000000000125647101111105              0000000000000000000000000000000000000000000000003750000000000000000000000000001111105                         0000000000000000000000000                                             000160
102021974950001161584870000003760                             82090622124      000                        1421101105                              101105000000000375010408770000000000000125647101111105              0000000000000000000000000000000000000000000000003750000000000000000000000000001111105                         0000000000000000000000000                                             000161
102021974950001161584870000003760                             82090624127      000                        1421101105                              101105000000000375006500016000000000000270663101111105              0000000000000000000000000000000000000000000000003750000000000000000000000000001111105                         0000000000000000000000000                                             000162
102021974950001161584870000003760                             82090626120      000                        1421101105                              101105000000000375000126696000000000000270663101111105              0000000000000000000000000000000000000000000000003750000000000000000000000000001111105                         0000000000000000000000000                                             000163
102021974950001161584870000003760                             82090629129      000                        1421101105                              101105000000000375010408770000000000000125647101111105              0000000000000000000000000000000000000000000000003750000000000000000000000000001111105                         0000000000000000000000000                                             000164
102021974950001161584870000003760                             82090703124      000                        1421101105                              101105000000000750010408770000000000000125647101111105              0000000000000000000000000000000000000000000000007500000000000000000000000000001111105                         0000000000000000000000000                                             000165
102021974950001161584870000003760                             82090704120      000                        1421101105                              101105000000000750010408770000000000000125647101111105              0000000000000000000000000000000000000000000000007500000000000000000000000000001111105                         0000000000000000000000000                                             000166
102021974950001161584870000003760                             82090711127      000                        1421101105                              101105000000000750010408770000000000000125647101111105              0000000000000000000000000000000000000000000000007500000000000000000000000000001111105                         0000000000000000000000000                                             000167
102021974950001161584870000003760                             82090712123      000                        1421101105                              101105000000000750006500016000000000000270663101111105              0000000000000000000000000000000000000000000000007500000000000000000000000000001111105                         0000000000000000000000000                                             000168
102021974950001161584870000003760                             82090715122      000                        1421101105                              101105000000000750006500016000000000000270663101111105              0000000000000000000000000000000000000000000000007500000000000000000000000000001111105                         0000000000000000000000000                                             000169
102021974950001161584870000003760                             82090716129      000                        1421101105                              101105000000000750075641796000000000000270663101111105              0000000000000000000000000000000000000000000000007500000000000000000000000000001111105                         0000000000000000000000000                                             000170
102021974950001161584870000003760                             82090724121      000                        1421101105                              101105000000000750010408770000000000000125647101111105              0000000000000000000000000000000000000000000000007500000000000000000000000000001111105                         0000000000000000000000000                                             000171
102021974950001161584870000003760                             82090726124      000                        1421101105                              101105000000000750006500016000000000000270663101111105              0000000000000000000000000000000000000000000000007500000000000000000000000000001111105                         0000000000000000000000000                                             000172
102021974950001161584870000003760                             82090729123      000                        1421101105                              101105000000000750010408770000000000000125647101111105              0000000000000000000000000000000000000000000000007500000000000000000000000000001111105                         0000000000000000000000000                                             000173
102021974950001161584870000003760                             82090903123      000                        1421101105                              101105000000000750000122576000000000000270663101111105              0000000000000000000000000000000000000000000000007500000000000000000000000000001111105                         0000000000000000000000000                                             000174
102021974950001161584870000003760                             82090905126      000                        1421101105                              101105000000000375010412424000000000000125647101111105              0000000000000000000000000000000000000000000000003750000000000000000000000000001111105                         0000000000000000000000000                                             000175
102021974950001161584870000003760                             82090907129      000                        1421101105                              101105000000000375006500016000000000000270663101111105              0000000000000000000000000000000000000000000000003750000000000000000000000000001111105                         0000000000000000000000000                                             000176
102021974950001161584870000003760                             82090909121      000                        1421101105                              101105000000000750010408770000000000000125647101111105              0000000000000000000000000000000000000000000000007500000000000000000000000000001111105                         0000000000000000000000000                                             000177
102021974950001161584870000003760                             82090916128      000                        1421101105                              101105000000000750010408770000000000000125647101111105              0000000000000000000000000000000000000000000000007500000000000000000000000000001111105                         0000000000000000000000000                                             000178
102021974950001161584870000003760                             82090917124      000                        1421101105                              101105000000000375010408770000000000000125647101111105              0000000000000000000000000000000000000000000000003750000000000000000000000000001111105                         0000000000000000000000000                                             000179
102021974950001161584870000003760                             82090919127      000                        1421101105                              101105000000000750010408770000000000000125647101111105              0000000000000000000000000000000000000000000000007500000000000000000000000000001111105                         0000000000000000000000000                                             000180
102021974950001161584870000003760                             82090921121      000                        1421101105                              101105000000000375010408770000000000000125647101111105              0000000000000000000000000000000000000000000000003750000000000000000000000000001111105                         0000000000000000000000000                                             000181
102021974950001161584870000003760                             82090926123      000                        1421101105                              101105000000000750002410116000000000000270663101111105              0000000000000000000000000000000000000000000000007500000000000000000000000000001111105                         0000000000000000000000000                                             000182
102021974950001161584870000003760                             82090927120      000                        1421101105                              101105000000000375010408770000000000000125647101111105              0000000000000000000000000000000000000000000000003750000000000000000000000000001111105                         0000000000000000000000000                                             000183
102021974950001161584870000003760                             82090935122      000                        1421101105                              101105000000000750010408770000000000000125647101111105              0000000000000000000000000000000000000000000000007500000000000000000000000000001111105                         0000000000000000000000000                                             000184
102021974950001161584870000003760                             82091002120      000                        1421101105                              101105000000000375023718776000000000000270663101111105              0000000000000000000000000000000000000000000000003750000000000000000000000000001111105                         0000000000000000000000000                                             000185
102021974950001161584870000003760                             82091004122      000                        1421101105                              101105000000000375006500016000000000000270663101111105              0000000000000000000000000000000000000000000000003750000000000000000000000000001111105                         0000000000000000000000000                                             000186
102021974950001161584870000003760                             82091006125      000                        1421101105                              101105000000000750010408770000000000000125647101111105              0000000000000000000000000000000000000000000000007500000000000000000000000000001111105                         0000000000000000000000000                                             000187
102021974950001161584870000003760                             82091007121      000                        1421101105                              101105000000000375010408770000000000000125647101111105              0000000000000000000000000000000000000000000000003750000000000000000000000000001111105                         0000000000000000000000000                                             000188
102021974950001161584870000003760                             82091015124      000                        1421101105                              101105000000000375010408770000000000000125647101111105              0000000000000000000000000000000000000000000000003750000000000000000000000000001111105                         0000000000000000000000000                                             000189
102021974950001161584870000003760                             82091018123      000                        1421101105                              101105000000000375010408770000000000000125647101111105              0000000000000000000000000000000000000000000000003750000000000000000000000000001111105                         0000000000000000000000000                                             000190
102021974950001161584870000003760                             82091023127      000                        1421101105                              101105000000000375006500016000000000000270663101111105              0000000000000000000000000000000000000000000000003750000000000000000000000000001111105                         0000000000000000000000000                                             000191
102021974950001161584870000003760                             82091025120      000                        1421101105                              101105000000000750010408770000000000000125647101111105              0000000000000000000000000000000000000000000000007500000000000000000000000000001111105                         0000000000000000000000000                                             000192
102021974950001161584870000003760                             82091033122      000                        1421101105                              101105000000000375006500016000000000000270663101111105              0000000000000000000000000000000000000000000000003750000000000000000000000000001111105                         0000000000000000000000000                                             000193
102021974950001161584870000003760                             82091104127      000                        1421101105                              101105000000000750006500016000000000000270663101111105              0000000000000000000000000000000000000000000000007500000000000000000000000000001111105                         0000000000000000000000000                                             000194
102021974950001161584870000003760                             82091112120      000                        1421101105                              101105000000000640006500016000000000000270663101111105              0000000000000000000000000000000000000000000000006400000000000000000000000000001111105                         0000000000000000000000000                                             000195
102021974950001161584870000003760                             82091113126      000                        1421101105                              101105000000000640006500016000000000000270663101111105              0000000000000000000000000000000000000000000000006400000000000000000000000000001111105                         0000000000000000000000000                                             000196
102021974950001161584870000003760                             82091115129      000                        1421101105                              101105000000000640010408770000000000000125647101111105              0000000000000000000000000000000000000000000000006400000000000000000000000000001111105                         0000000000000000000000000                                             000197
102021974950001161584870000003760                             82091116125      000                        1421101105                              101105000000000640010408770000000000000125647101111105              0000000000000000000000000000000000000000000000006400000000000000000000000000001111105                         0000000000000000000000000                                             000198
102021974950001161584870000003760                             82091121129      000                        1421101105                              101105000000000640010408770000000000000125647101111105              0000000000000000000000000000000000000000000000006400000000000000000000000000001111105                         0000000000000000000000000                                             000199
102021974950001161584870000003760                             82091123121      000                        1421101105                              101105000000000640010410308000000000000125647101111105              0000000000000000000000000000000000000000000000006400000000000000000000000000001111105                         0000000000000000000000000                                             000200
102021974950001161584870000003760                             82091126120      000                        1421101105                              101105000000000750010408770000000000000125647101111105              0000000000000000000000000000000000000000000000007500000000000000000000000000001111105                         0000000000000000000000000                                             000201
102021974950001161584870000003760                             82091127127      000                        1421101105                              101105000000000640006500016000000000000270663101111105              0000000000000000000000000000000000000000000000006400000000000000000000000000001111105                         0000000000000000000000000                                             000202
102021974950001161584870000003760                             82091203125      000                        1421101105                              101105000000000640010400540000000000000125647101111105              0000000000000000000000000000000000000000000000006400000000000000000000000000001111105                         0000000000000000000000000                                             000203
102021974950001161584870000003760                             82091208127      000                        1421101105                              101105000000000640010400540000000000000125647101111105              0000000000000000000000000000000000000000000000006400000000000000000000000000001111105                         0000000000000000000000000                                             000204
102021974950001161584870000003760                             82091218122      000                        1421101105                              101105000000000640010400540000000000000125647101111105              0000000000000000000000000000000000000000000000006400000000000000000000000000001111105                         0000000000000000000000000                                             000205
102021974950001161584870000003760                             82120103120      000                        1421101105                              101105000000000550010421245000000000000125647101111105              0000000000000000000000000000000000000000000000005500000000000000000000000000001111105                         0000000000000000000000000                                             000206
102021974950001161584870000003760                             82120108121      000                        1421101105                              101105000000000550006500016000000000000270663101111105              0000000000000000000000000000000000000000000000005500000000000000000000000000001111105                         0000000000000000000000000                                             000207
102021974950001161584870000003760                             82120110126      000                        1421101105                              101105000000000550010421245000000000000125647101111105              0000000000000000000000000000000000000000000000005500000000000000000000000000001111105                         0000000000000000000000000                                             000208
102021974950001161584870000003760                             82120115128      000                        1421101105                              101105000000000550010421245000000000000125647101111105              0000000000000000000000000000000000000000000000005500000000000000000000000000001111105                         0000000000000000000000000                                             000209
102021974950001161584870000003760                             82120117120      000                        1421101105                              101105000000000550010421245000000000000125647101111105              0000000000000000000000000000000000000000000000005500000000000000000000000000001111105                         0000000000000000000000000                                             000210
102021974950001161584870000003760                             82120120121      000                        1421101105                              101105000000000550010421245000000000000125647101111105              0000000000000000000000000000000000000000000000005500000000000000000000000000001111105                         0000000000000000000000000                                             000211
102021974950001161584870000003760                             82120124127      000                        1421101105                              101105000000000550010421245000000000000125647101111105              0000000000000000000000000000000000000000000000005500000000000000000000000000001111105                         0000000000000000000000000                                             000212
102021974950001161584870000003760                             82120125123      000                        1421101105                              101105000000000550010421245000000000000125647101111105              0000000000000000000000000000000000000000000000005500000000000000000000000000001111105                         0000000000000000000000000                                             000213
102021974950001161584870000003760                             82120129129      000                        1421101105                              101105000000000550010421245000000000000125647101111105              0000000000000000000000000000000000000000000000005500000000000000000000000000001111105                         0000000000000000000000000                                             000214
102021974950001161584870000003760                             82120134122      000                        1421101105                              101105000000000550010421245000000000000125647101111105              0000000000000000000000000000000000000000000000005500000000000000000000000000001111105                         0000000000000000000000000                                             000215
102021974950001161584870000003760                             82120135129      000                        1421101105                              101105000000000550010421245000000000000125647101111105              0000000000000000000000000000000000000000000000005500000000000000000000000000001111105                         0000000000000000000000000                                             000216
102021974950001161584870000003760                             82120136125      000                        1421101105                              101105000000000550010421245000000000000125647101111105              0000000000000000000000000000000000000000000000005500000000000000000000000000001111105                         0000000000000000000000000                                             000217
102021974950001161584870000003760                             82120137121      000                        1421101105                              000000000000000550023721166000000000000270663101111105              0000000000000000000000000000000000000000000000005500000000000000000000000000001111105                         0000000000000000000000000                                             000218
102021974950001161584870000003760                             82130105133      000                        1421101105                              101105000000000860006500016000000000000270663101111105              0000000000000000000000000000000000000000000000008600000000000000000000000000001111105                         0000000000000000000000000                                             000219
102021974950001161584870000003760                             82130106130      000                        1421101105                              101105000000000860010409148000000000000125647101111105              0000000000000000000000000000000000000000000000008600000000000000000000000000001111105                         0000000000000000000000000                                             000220
102021974950001161584870000003760                             82130113136      000                        1421101105                              101105000000000860010409148000000000000125647101111105              0000000000000000000000000000000000000000000000008600000000000000000000000000001111105                         0000000000000000000000000                                             000221
102021974950001161584870000003760                             82130114132      000                        1421101105                              101105000000000860010409148000000000000125647101111105              0000000000000000000000000000000000000000000000008600000000000000000000000000001111105                         0000000000000000000000000                                             000222
102021974950001161584870000003760                             82130119134      000                        1421101105                              101105000000000860006500016000000000000270663101111105              0000000000000000000000000000000000000000000000008600000000000000000000000000001111105                         0000000000000000000000000                                             000223
102021974950001161584870000003760                             82130124138      000                        1421101105                              101105000000000860010409148000000000000125647101111105              0000000000000000000000000000000000000000000000008600000000000000000000000000001111105                         0000000000000000000000000                                             000224
102021974950001161584870000003760                             82130127137      000                        1421101105                              101105000000000860002411246000000000000270663101111105              0000000000000000000000000000000000000000000000008600000000000000000000000000001111105                         0000000000000000000000000                                             000225
102021974950001161584870000003760                             82130201132      000                        1421101105                              101105000000000860010409148000000000000125647101111105              0000000000000000000000000000000000000000000000008600000000000000000000000000001111105                         0000000000000000000000000                                             000226
102021974950001161584870000003760                             82130202139      000                        1421101105                              101105000000000860010409148000000000000125647101111105              0000000000000000000000000000000000000000000000008600000000000000000000000000001111105                         0000000000000000000000000                                             000227
102021974950001161584870000003760                             82130210131      000                        1421101105                              101105000000000860010409148000000000000125620101111105              0000000000000000000000000000000000000000000000008600000000000000000000000000001111105                         0000000000000000000000000                                             000228
102021974950001161584870000003760                             82130211138      000                        1421101105                              101105000000000860006500016000000000000270663101111105              0000000000000000000000000000000000000000000000008600000000000000000000000000001111105                         0000000000000000000000000                                             000229
102021974950001161584870000003760                             82130213130      000                        1421101105                              101105000000000860010409148000000000000125647101111105              0000000000000000000000000000000000000000000000008600000000000000000000000000001111105                         0000000000000000000000000                                             000230
102021974950001161584870000003760                             82130216130      000                        1421101105                              101105000000000860010409148000000000000125647101111105              0000000000000000000000000000000000000000000000008600000000000000000000000000001111105                         0000000000000000000000000                                             000231
102021974950001161584870000003760                             82130222130      000                        1421101105                              101105000000000860006500016000000000000270663101111105              0000000000000000000000000000000000000000000000008600000000000000000000000000001111105                         0000000000000000000000000                                             000232
102021974950001161584870000003760                             82130251130      000                        1421101105                              101105000000000860023705866000000000000270663101111105              0000000000000000000000000000000000000000000000008600000000000000000000000000001111105                         0000000000000000000000000                                             000233
102021974950001161584870000003760                             82130301137      000                        1421101105                              101105000000000860010409148000000000000125647101111105              0000000000000000000000000000000000000000000000008600000000000000000000000000001111105                         0000000000000000000000000                                             000234
102021974950001161584870000003760                             82130302133      000                        1421101105                              101105000000000860010409148000000000000125647101111105              0000000000000000000000000000000000000000000000008600000000000000000000000000001111105                         0000000000000000000000000                                             000235
102021974950001161584870000003760                             82130305132      000                        1421101105                              101105000000000860010409148000000000000125647101111105              0000000000000000000000000000000000000000000000008600000000000000000000000000001111105                         0000000000000000000000000                                             000236
102021974950001161584870000003760                             82130306139      000                        1421101105                              101105000000000860010409148000000000000125647101111105              0000000000000000000000000000000000000000000000008600000000000000000000000000001111105                         0000000000000000000000000                                             000237
102021974950001161584870000003760                             82130308131      000                        1421101105                              101105000000000860075641796000000000000270663101111105              0000000000000000000000000000000000000000000000008600000000000000000000000000001111105                         0000000000000000000000000                                             000238
102021974950001161584870000003760                             82130309138      000                        1421101105                              101105000000000860010409148000000000000125647101111105              0000000000000000000000000000000000000000000000008600000000000000000000000000001111105                         0000000000000000000000000                                             000239
102021974950001161584870000003760                             82130313135      000                        1421101105                              101105000000000860010409148000000000000125647101111105              0000000000000000000000000000000000000000000000008600000000000000000000000000001111105                         0000000000000000000000000                                             000240
102021974950001161584870000003760                             82130317130      000                        1421101105                              101105000000000860010409148000000000000125647101111105              0000000000000000000000000000000000000000000000008600000000000000000000000000001111105                         0000000000000000000000000                                             000241
102021974950001161584870000003760                             82130320131      000                        1421101105                              101105000000000860010409148000000000000125647101111105              0000000000000000000000000000000000000000000000008600000000000000000000000000001111105                         0000000000000000000000000                                             000242
102021974950001161584870000003760                             82130322134      000                        1421101105                              101105000000000860075641796000000000000270663101111105              0000000000000000000000000000000000000000000000008600000000000000000000000000001111105                         0000000000000000000000000                                             000243
102021974950001161584870000003760                             82999026652      000                        1421101105                              301105000000000860010400469000000000000125647101111105              0000000000000000000000000000000000000000000000008600000000000000000000000000001111105                         0000000000000000000000000                                             000244
102021974950001161584870000003760                             82999027314      000                        1421101105                              151105000000000860010400450000000000000125647101111105              0000000000000000000000000000000000000000000000008600000000000000000000000000001111105                         0000000000000000000000000                                             000245
9201104                                                                                                                                                                                                                                                                                                                                                                                                   000246
