02RETORNO01COBRANCA       1584870000003760    IPAD                          104C ECON FEDERAL 110406                                                                                                                                                                                                                                                                                                 00181000001
102021974950001161584870000003760                             82000035143      000                        1421110406                              100306000000000750010407765000000000000125647101120406              0000000000000000000000000000000000000000000000007898000000000039800000000000001120406                         0000000000000000000000000                                             000002
102021974950001161584870000003760                             82000035690      000                        1421110406                              150306000000000860010409156000000000000240655100110406              0000000000000000000000000000000000000000000000009004000000000040400000000000001110406                         0000000000000000000000000                                             000003
102021974950001161584870000003760                             82000041178      000                        1421110406                              000000000000000760010409440000000000000125647101120406              0000000000000000000000000000000000000000000000007600000000000000000000000000001120406                         0000000000000000000000000                                             000004
102021974950001161584870000003760                             82010104164      000                        1421110406                              100406000000000375010414338000000000000125647101120406              0000000000000000000000000000000000000000000000003834000000000008400000000000001120406                         0000000000000000000000000                                             000005
102021974950001161584870000003760                             82010114160      000                        1421110406                              100406000000000750010414338000000000000125647101120406              0000000000000000000000000000000000000000000000007657000000000015700000000000001120406                         0000000000000000000000000                                             000006
102021974950001161584870000003760                             82010123169      000                        1421110406                              100406000000000750010414338000000000000240655100110406              0000000000000000000000000000000000000000000000007658000000000015800000000000001110406                         0000000000000000000000000                                             000007
102021974950001161584870000003760                             82010126168      000                        1421110406                              100406000000000750010414338000000000000125647101120406              0000000000000000000000000000000000000000000000007657000000000015700000000000001120406                         0000000000000000000000000                                             000008
102021974950001161584870000003760                             82010127164      000                        1421110406                              100406000000000750010414338000000000000125647101120406              0000000000000000000000000000000000000000000000007658000000000015800000000000001120406                         0000000000000000000000000                                             000009
102021974950001161584870000003760                             82010127172      000                        1421110406                              100506000000000750010414338000000000000125647101120406              0000000000000000000000000000000000000000000000007500000000000000000000000000001120406                         0000000000000000000000000                                             000010
102021974950001161584870000003760                             82010128160      000                        1421110406                              100406000000000750010414338000000000000125647101120406              0000000000000000000000000000000000000000000000007657000000000015700000000000001120406                         0000000000000000000000000                                             000011
102021974950001161584870000003760                             82030101160      000                        1421110406                              100406000000000750010424465000000000000125647101120406              0000000000000000000000000000000000000000000000007657000000000015700000000000001120406                         0000000000000000000000000                                             000012
102021974950001161584870000003760                             82030103163      000                        1421110406                              100406000000000750010424465000000000000125647101120406              0000000000000000000000000000000000000000000000007657000000000015700000000000001120406                         0000000000000000000000000                                             000013
102021974950001161584870000003760                             82030122168      000                        1421110406                              100406000000000750010424465000000000000125647101120406              0000000000000000000000000000000000000000000000007657000000000015700000000000001120406                         0000000000000000000000000                                             000014
102021974950001161584870000003760                             82030128158      000                        1421110406                              100306000000000750010424465000000000000125647101120406              0000000000000000000000000000000000000000000000007874000000000037400000000000001120406                         0000000000000000000000000                                             000015
102021974950001161584870000003760                             82030434119      000                        1421110406                              120406000000000760010407757000000000000125647101120406              0000000000000000000000000000000000000000000000007600000000000000000000000000001120406                         0000000000000000000000000                                             000016
102021974950001161584870000003760                             82040104170      000                        1421110406                              100406000000000430010400523000000000000125647101120406              0000000000000000000000000000000000000000000000004390000000000009000000000000001120406                         0000000000000000000000000                                             000017
102021974950001161584870000003760                             82040106173      000                        1421110406                              100406000000000430010400523000000000000125647101120406              0000000000000000000000000000000000000000000000004387000000000008700000000000001120406                         0000000000000000000000000                                             000018
102021974950001161584870000003760                             82040115172      000                        1421110406                              100406000000000430010400523000000000000125647101120406              0000000000000000000000000000000000000000000000004390000000000009000000000000001120406                         0000000000000000000000000                                             000019
102021974950001161584870000003760                             82040122179      000                        1421110406                              100406000000000430010400523000000000000125647101120406              0000000000000000000000000000000000000000000000004390000000000009000000000000001120406                         0000000000000000000000000                                             000020
102021974950001161584870000003760                             82040307179      000                        1421110406                              100406000000000360010400523000000000000125647101120406              0000000000000000000000000000000000000000000000003676000000000007600000000000001120406                         0000000000000000000000000                                             000021
102021974950001161584870000003760                             82040324170      000                        1421110406                              100406000000000360010400523000000000000125647101120406              0000000000000000000000000000000000000000000000003676000000000007600000000000001120406                         0000000000000000000000000                                             000022
102021974950001161584870000003760                             82040511175      000                        1421110406                              100406000000000860010400523000000000000125647101120406              0000000000000000000000000000000000000000000000008780000000000018000000000000001120406                         0000000000000000000000000                                             000023
102021974950001161584870000003760                             82040514174      000                        1421110406                              100406000000000860010400523000000000000125647101120406              0000000000000000000000000000000000000000000000008780000000000018000000000000001120406                         0000000000000000000000000                                             000024
102021974950001161584870000003760                             82040517173      000                        1421110406                              100406000000000860010400523000000000000125647101120406              0000000000000000000000000000000000000000000000008780000000000018000000000000001120406                         0000000000000000000000000                                             000025
102021974950001161584870000003760                             82040742142      000                        1421110406                              120406000000030960000111206000000000000270663101120406              0000000000000000000000000000000000000000000000309600000000000000000000000000001120406                         0000000000000000000000000                                             000026
102021974950001161584870000003760                             82050124174      000                        1421110406                              100406000000000400010400531000000000000125647101120406              0000000000000000000000000000000000000000000000004084000000000008400000000000001120406                         0000000000000000000000000                                             000027
102021974950001161584870000003760                             82050132177      000                        1421110406                              100406000000000400010400531000000000000125647101120406              0000000000000000000000000000000000000000000000004084000000000008400000000000001120406                         0000000000000000000000000                                             000028
102021974950001161584870000003760                             82050203171      000                        1421110406                              100406000000000400010412955000000000000125647101120406              0000000000000000000000000000000000000000000000004084000000000008400000000000001120406                         0000000000000000000000000                                             000029
102021974950001161584870000003760                             82050301173      000                        1421110406                              100406000000000860010427782000000000000125647101120406              0000000000000000000000000000000000000000000000008781000000000018100000000000001120406                         0000000000000000000000000                                             000030
102021974950001161584870000003760                             82050307171      000                        1421110406                              100406000000000860010427782000000000000125647101120406              0000000000000000000000000000000000000000000000008781000000000018100000000000001120406                         0000000000000000000000000                                             000031
102021974950001161584870000003760                             82050310172      000                        1421110406                              100406000000000860010410383000000000000125647101120406              0000000000000000000000000000000000000000000000008780000000000018000000000000001120406                         0000000000000000000000000                                             000032
102021974950001161584870000003760                             82060208168      000                        1421110406                              100406000000000860010421911000000000000125647101120406              0000000000000000000000000000000000000000000000008858000000000025800000000000001120406                         0000000000000000000000000                                             000033
102021974950001161584870000003760                             82060220168      000                        1421110406                              100406000000000860010421911000000000000125647101120406              0000000000000000000000000000000000000000000000008780000000000018000000000000001120406                         0000000000000000000000000                                             000034
102021974950001161584870000003760                             82060309169      000                        1421110406                              150406000000000860006500016000000000000270663101120406              0000000000000000000000000000000000000000000000008600000000000000000000000000001120406                         0000000000000000000000000                                             000035
102021974950001161584870000003760                             82060316157      000                        1421110406                              150306000000000860010408761000000000000125647101120406              0000000000000000000000000000000000000000000000009004000000000040400000000000001120406                         0000000000000000000000000                                             000036
102021974950001161584870000003760                             82060334163      000                        1421110406                              150406000000000860006500016000000000000270663101120406              0000000000000000000000000000000000000000000000008600000000000000000000000000001120406                         0000000000000000000000000                                             000037
102021974950001161584870000003760                             82070507141      000                        1421110406                              150106000000000860010400450000000000000125647101120406              0000000000000000000000000000000000000000000000009411000000000081100000000000001120406                         0000000000000000000000000                                             000038
102021974950001161584870000003760                             82090102171      000                        1421110406                              100406000000000750010400540000000000000125647101120406              0000000000000000000000000000000000000000000000007657000000000015700000000000001120406                         0000000000000000000000000                                             000039
102021974950001161584870000003760                             82090123179      000                        1421110406                              100406000000000750010400540000000000000125647101120406              0000000000000000000000000000000000000000000000007657000000000015700000000000001120406                         0000000000000000000000000                                             000040
102021974950001161584870000003760                             82090222134      000                        1421110406                              100406000000000750010400540000000000000125647101120406              0000000000000000000000000000000000000000000000007657000000000015700000000000001120406                         0000000000000000000000000                                             000041
102021974950001161584870000003760                             82090231168      000                        1421110406                              100306000000000750010412424000000000000125647101120406              0000000000000000000000000000000000000000000000007874000000000037400000000000001120406                         0000000000000000000000000                                             000042
102021974950001161584870000003760                             82090299129      000                        1421110406                              100406000000000750010412424000000000000240655100110406              0000000000000000000000000000000000000000000000007658000000000015800000000000001110406                         0000000000000000000000000                                             000043
102021974950001161584870000003760                             82090327173      000                        1421110406                              100406000000000750010400540000000000000125647101120406              0000000000000000000000000000000000000000000000007657000000000015700000000000001120406                         0000000000000000000000000                                             000044
102021974950001161584870000003760                             82090509166      000                        1421110406                              100306000000000375010408770000000000000125647101120406              0000000000000000000000000000000000000000000000003947000000000019700000000000001120406                         0000000000000000000000000                                             000045
102021974950001161584870000003760                             82090818150      000                        1421110406                              100406000000000450010408770000000000000125647101120406              0000000000000000000000000000000000000000000000004600000000000010000000000000001120406                         0000000000000000000000000                                             000046
102021974950001161584870000003760                             82090830150      000                        1421110406                              100406000000000450010408770000000000000125647101120406              0000000000000000000000000000000000000000000000004600000000000010000000000000001120406                         0000000000000000000000000                                             000047
102021974950001161584870000003760                             82090934177      000                        1421110406                              100406000000000750010408770000000000000125647101120406              0000000000000000000000000000000000000000000000007500000000000000000000000000001120406                         0000000000000000000000000                                             000048
102021974950001161584870000003760                             82091102167      000                        1421110406                              100306000000000750010408770000000000000125647101120406              0000000000000000000000000000000000000000000000007890000000000039000000000000001120406                         0000000000000000000000000                                             000049
102021974950001161584870000003760                             82091121170      000                        1421110406                              100406000000000750010408770000000000000125647101120406              0000000000000000000000000000000000000000000000007658000000000015800000000000001120406                         0000000000000000000000000                                             000050
102021974950001161584870000003760                             82091124160      000                        1421110406                              100406000000000750010408770000000000000125647101120406              0000000000000000000000000000000000000000000000007716000000000021600000000000001120406                         0000000000000000000000000                                             000051
102021974950001161584870000003760                             82091208178      000                        1421110406                              100406000000000750010400540000000000000125647101120406              0000000000000000000000000000000000000000000000007657000000000015700000000000001120406                         0000000000000000000000000                                             000052
102021974950001161584870000003760                             82091211179      000                        1421110406                              100406000000000750010400540000000000000125647101120406              0000000000000000000000000000000000000000000000007657000000000015700000000000001120406                         0000000000000000000000000                                             000053
102021974950001161584870000003760                             82110324166      000                        1421110406                              100406000000000860010407765000000000000125647101120406              0000000000000000000000000000000000000000000000008781000000000018100000000000001120406                         0000000000000000000000000                                             000054
102021974950001161584870000003760                             82120111165      000                        1421110406                              100306000000000650010421245000000000000125647101120406              0000000000000000000000000000000000000000000000006838000000000033800000000000001120406                         0000000000000000000000000                                             000055
9201104                                                                                                                                                                                                                                                                                                                                                                                                   000056
