02RETORNO01COBRANCA       1584870000003760    IPAD                          104C ECON FEDERAL 170506                                                                                                                                                                                                                                                                                                 00204000001
102021974950001161584870000003760                             82000039602      000                        1421170506                              000000000000000760010405592000000000000125647101180506              0000000000000000000000000000000000000000000000007600000000000000000000000000001180506                         0000000000000000000000000                                             000002
102021974950001161584870000003760                             82000039807      000                        1421170506                              000000000000000760006500016000000000000270663101180506              0000000000000000000000000000000000000000000000007600000000000000000000000000001180506                         0000000000000000000000000                                             000003
102021974950001161584870000003760                             82000039882      000                        1421170506                              000000000000000760010405592000000000000125647101180506              0000000000000000000000000000000000000000000000007600000000000000000000000000001180506                         0000000000000000000000000                                             000004
102021974950001161584870000003760                             82000043774      000                        1421170506                              000000000000000760010409148000000000000125647101180506              0000000000000000000000000000000000000000000000007600000000000000000000000000001180506                         0000000000000000000000000                                             000005
102021974950001161584870000003760                             82000043960      000                        1421170506                              000000000000000760010409148000000000000125647101180506              0000000000000000000000000000000000000000000000007600000000000000000000000000001180506                         0000000000000000000000000                                             000006
102021974950001161584870000003760                             82000045424      000                        1421170506                              000000000000000860010400469000000000000125647101180506              0000000000000000000000000000000000000000000000008600000000000000000000000000001180506                         0000000000000000000000000                                             000007
102021974950001161584870000003760                             82030121170      000                        1421170506                              100506000000000750010424465000000000000125647101180506              0000000000000000000000000000000000000000000000007699000000000019900000000000001180506                         0000000000000000000000000                                             000008
102021974950001161584870000003760                             82040632142      000                        1421170506                              120506000000000860010400523000000000000125647101180506              0000000000000000000000000000000000000000000000008812000000000021200000000000001180506                         0000000000000000000000000                                             000009
102021974950001161584870000003760                             82060325172      000                        1421170506                              150506000000000860010408761000000000000125647101180506              0000000000000000000000000000000000000000000000008789000000000018900000000000001180506                         0000000000000000000000000                                             000010
102021974950001161584870000003760                             82060604128      000                        1421170506                              150506000000000750010412424000000000000125647101180506              0000000000000000000000000000000000000000000000007500000000000000000000000000001180506                         0000000000000000000000000                                             000011
102021974950001161584870000003760                             82070614118      000                        1421170506                              000000000000000760039928996000000000000270663101180506              0000000000000000000000000000000000000000000000007600000000000000000000000000001180506                         0000000000000000000000000                                             000012
102021974950001161584870000003760                             82070631110      000                        1421170506                              210506000000000760010405592000000000000125647101180506              0000000000000000000000000000000000000000000000007600000000000000000000000000001180506                         0000000000000000000000000                                             000013
102021974950001161584870000003760                             82110101175      000                        1421170506                              100506000000000750010407765000000000000125647101180506              0000000000000000000000000000000000000000000000007702000000000020200000000000001180506                         0000000000000000000000000                                             000014
102021974950001161584870000003760                             82110411166      000                        1421170506                              200406000000000750010407765000000000000125647101180506              0000000000000000000000000000000000000000000000007874000000000037400000000000001180506                         0000000000000000000000000                                             000015
102021974950001161584870000003760                             82110416176      000                        1421170506                              200506000000000750006500016000000000000270663101180506              0000000000000000000000000000000000000000000000007500000000000000000000000000001180506                         0000000000000000000000000                                             000016
102021974950001161584870000003760                             82110419175      000                        1421170506                              200506000000000750010408125000000000000125647101180506              0000000000000000000000000000000000000000000000007500000000000000000000000000001180506                         0000000000000000000000000                                             000017
9201104                                                                                                                                                                                                                                                                                                                                                                                                   000018
