02RETORNO01COBRANCA       1584870000003760    IPAD                          104C ECON FEDERAL 170806                                                                                                                                                                                                                                                                                                 00269000001
102021974950001161584870000003760                             82000046595      000                        1421170806                              000000000000000760023715996000000000000270663101180806              0000000000000000000000000000000000000000000000007600000000000000000000000000001180806                         0000000000000000000000000                                             000002
102021974950001161584870000003760                             82000046684      000                        1421170806                              000000000000000760010421245000000000000125647101180806              0000000000000000000000000000000000000000000000007600000000000000000000000000001180806                         0000000000000000000000000                                             000003
102021974950001161584870000003760                             82000046862      000                        1421170806                              000000000000000760010421245000000000000240655100170806              0000000000000000000000000000000000000000000000007600000000000000000000000000001170806                         0000000000000000000000000                                             000004
102021974950001161584870000003760                             82000046897      000                        1421170806                              000000000000000760010421245000000000000125647101180806              0000000000000000000000000000000000000000000000007600000000000000000000000000001180806                         0000000000000000000000000                                             000005
102021974950001161584870000003760                             82060602150      000                        1421170806                              150806000000000750010412424000000000000125647101180806              0000000000000000000000000000000000000000000000007664000000000016400000000000001180806                         0000000000000000000000000                                             000006
102021974950001161584870000003760                             82060623130      000                        1421170806                              150706000000000750010408761000000000000125647101180806              0000000000000000000000000000000000000000000000007897000000000039700000000000001180806                         0000000000000000000000000                                             000007
102021974950001161584870000003760                             82060918122      000                        1421170806                              100806000000000760010412947000000000000125647101180806              0000000000000000000000000000000000000000000000007767000000000016700000000000001180806                         0000000000000000000000000                                             000008
102021974950001161584870000003760                             82070611135      000                        1421170806                              210706000000000760010405592000000000000125647101180806              0000000000000000000000000000000000000000000000007941000000000034100000000000001180806                         0000000000000000000000000                                             000009
102021974950001161584870000003760                             82070712128      000                        1421170806                              200806000000000760006500016000000000000270663101180806              0000000000000000000000000000000000000000000000007600000000000000000000000000001180806                         0000000000000000000000000                                             000010
102021974950001161584870000003760                             82110825130      000                        1421170806                              200606000000000750010407765000000000000125647101180806              0000000000000000000000000000000000000000000000008086000000000058600000000000001180806                         0000000000000000000000000                                             000011
102021974950001161584870000003760                             82110825149      000                        1421170806                              250706000000000750010407765000000000000125647101180806              0000000000000000000000000000000000000000000000007818000000000031800000000000001180806                         0000000000000000000000000                                             000012
102021974950001161584870000003760                             82110833150      000                        1421170806                              200806000000000750010407765000000000000125647101180806              0000000000000000000000000000000000000000000000007500000000000000000000000000001180806                         0000000000000000000000000                                             000013
9201104                                                                                                                                                                                                                                                                                                                                                                                                   000014
