02RETORNO01COBRANCA       1584870000003760    IPAD                          104C ECON FEDERAL 180906                                                                                                                                                                                                                                                                                                 00290000001
102021974950001161584870000003760                             82000047508      000                        1421180906                              000000000000000760010415806000000000000125647101190906              0000000000000000000000000000000000000000000000007600000000000000000000000000001190906                         0000000000000000000000000                                             000002
102021974950001161584870000003760                             82000049055      000                        1421180906                              000000000000000380010400540000000000000125647101190906              0000000000000000000000000000000000000000000000003800000000000000000000000000001190906                         0000000000000000000000000                                             000003
102021974950001161584870000003760                             82000049063      000                        1421180906                              000000000000000380010400540000000000000125647101190906              0000000000000000000000000000000000000000000000003800000000000000000000000000001190906                         0000000000000000000000000                                             000004
102021974950001161584870000003760                             82000049071      000                        1421180906                              000000000000000380010400540000000000000125647101190906              0000000000000000000000000000000000000000000000003800000000000000000000000000001190906                         0000000000000000000000000                                             000005
102021974950001161584870000003760                             82000049080      000                        1421180906                              000000000000000380010400540000000000000125647101190906              0000000000000000000000000000000000000000000000003800000000000000000000000000001190906                         0000000000000000000000000                                             000006
102021974950001161584870000003760                             82000049098      000                        1421180906                              000000000000000380010400540000000000000125647101190906              0000000000000000000000000000000000000000000000003800000000000000000000000000001190906                         0000000000000000000000000                                             000007
102021974950001161584870000003760                             82000049101      000                        1421180906                              000000000000000380010400540000000000000125647101190906              0000000000000000000000000000000000000000000000003800000000000000000000000000001190906                         0000000000000000000000000                                             000008
102021974950001161584870000003760                             82000049110      000                        1421180906                              000000000000000380010400540000000000000125647101190906              0000000000000000000000000000000000000000000000003800000000000000000000000000001190906                         0000000000000000000000000                                             000009
102021974950001161584870000003760                             82000049128      000                        1421180906                              000000000000000380010400540000000000000125647101190906              0000000000000000000000000000000000000000000000003800000000000000000000000000001190906                         0000000000000000000000000                                             000010
102021974950001161584870000003760                             82000049136      000                        1421180906                              000000000000000380010400540000000000000125647101190906              0000000000000000000000000000000000000000000000003800000000000000000000000000001190906                         0000000000000000000000000                                             000011
102021974950001161584870000003760                             82000049144      000                        1421180906                              000000000000000380010400540000000000000125647101190906              0000000000000000000000000000000000000000000000003800000000000000000000000000001190906                         0000000000000000000000000                                             000012
102021974950001161584870000003760                             82000049152      000                        1421180906                              000000000000000380010400540000000000000125647101190906              0000000000000000000000000000000000000000000000003800000000000000000000000000001190906                         0000000000000000000000000                                             000013
102021974950001161584870000003760                             82000049160      000                        1421180906                              000000000000000380010400540000000000000125647101190906              0000000000000000000000000000000000000000000000003800000000000000000000000000001190906                         0000000000000000000000000                                             000014
102021974950001161584870000003760                             82000049179      000                        1421180906                              000000000000000380010400540000000000000125647101190906              0000000000000000000000000000000000000000000000003800000000000000000000000000001190906                         0000000000000000000000000                                             000015
102021974950001161584870000003760                             82000049187      000                        1421180906                              000000000000000380010400540000000000000125647101190906              0000000000000000000000000000000000000000000000003800000000000000000000000000001190906                         0000000000000000000000000                                             000016
102021974950001161584870000003760                             82000049195      000                        1421180906                              000000000000000380000113636000000000000270663101190906              0000000000000000000000000000000000000000000000003800000000000000000000000000001190906                         0000000000000000000000000                                             000017
102021974950001161584870000003760                             82000049209      000                        1421180906                              000000000000000380010400540000000000000125647101190906              0000000000000000000000000000000000000000000000003800000000000000000000000000001190906                         0000000000000000000000000                                             000018
102021974950001161584870000003760                             82000049284      000                        1421180906                              000000000000000380010400540000000000000125647101190906              0000000000000000000000000000000000000000000000003800000000000000000000000000001190906                         0000000000000000000000000                                             000019
102021974950001161584870000003760                             82000049292      000                        1421180906                              000000000000000380010400540000000000000125647101190906              0000000000000000000000000000000000000000000000003800000000000000000000000000001190906                         0000000000000000000000000                                             000020
102021974950001161584870000003760                             82000049411      000                        1421180906                              000000000000000380010400540000000000000125647101190906              0000000000000000000000000000000000000000000000003800000000000000000000000000001190906                         0000000000000000000000000                                             000021
102021974950001161584870000003760                             82010302144      000                        1421180906                              160906000000000660006500016000000000000270663101190906              0000000000000000000000000000000000000000000000006600000000000000000000000000001190906                         0000000000000000000000000                                             000022
102021974950001161584870000003760                             82010304147      000                        1421180906                              100906000000000660010409148000000000000125647101190906              0000000000000000000000000000000000000000000000006756000000000015600000000000001190906                         0000000000000000000000000                                             000023
102021974950001161584870000003760                             82010313146      000                        1421180906                              160906000000000660006500016000000000000270663101190906              0000000000000000000000000000000000000000000000006600000000000000000000000000001190906                         0000000000000000000000000                                             000024
102021974950001161584870000003760                             82010322137      000                        1421180906                              100806000000000660010409148000000000000125647101190906              0000000000000000000000000000000000000000000000006795000000000019500000000000001190906                         0000000000000000000000000                                             000025
102021974950001161584870000003760                             82010322145      000                        1421180906                              100906000000000660010409148000000000000125647101190906              0000000000000000000000000000000000000000000000006756000000000015600000000000001190906                         0000000000000000000000000                                             000026
102021974950001161584870000003760                             82030309152      000                        1421180906                              300706000000000860010409156000000000000125647101190906              0000000000000000000000000000000000000000000000009172000000000057200000000000001190906                         0000000000000000000000000                                             000027
102021974950001161584870000003760                             82030413162      000                        1421180906                              100906000000000760010407757000000000000125647101190906              0000000000000000000000000000000000000000000000007794000000000019400000000000001190906                         0000000000000000000000000                                             000028
102021974950001161584870000003760                             82030704124      000                        1421180906                              100906000000000760010409148000000000000125647101190906              0000000000000000000000000000000000000000000000007812000000000021200000000000001190906                         0000000000000000000000000                                             000029
102021974950001161584870000003760                             82030717129      000                        1421180906                              100906000000000760010409148000000000000125647101190906              0000000000000000000000000000000000000000000000007797000000000019700000000000001190906                         0000000000000000000000000                                             000030
102021974950001161584870000003760                             82030807128      000                        1421180906                              150906000000000760010409156000000000000125647101190906              0000000000000000000000000000000000000000000000007775000000000017500000000000001190906                         0000000000000000000000000                                             000031
102021974950001161584870000003760                             82060515125      000                        1421180906                              180906000000000760010409172000000000000125647101190906              0000000000000000000000000000000000000000000000007600000000000000000000000000001190906                         0000000000000000000000000                                             000032
102021974950001161584870000003760                             82060520129      000                        1421180906                              100806000000000760010400477000000000000125647101190906              0000000000000000000000000000000000000000000000008025000000000042500000000000001190906                         0000000000000000000000000                                             000033
102021974950001161584870000003760                             82060625150      000                        1421180906                              150906000000000750010412424000000000000125647101190906              0000000000000000000000000000000000000000000000007672000000000017200000000000001190906                         0000000000000000000000000                                             000034
102021974950001161584870000003760                             82070608150      000                        1421180906                              210906000000000760000107146000000000000270663101190906              0000000000000000000000000000000000000000000000007600000000000000000000000000001190906                         0000000000000000000000000                                             000035
102021974950001161584870000003760                             82070611143      000                        1421180906                              210806000000000760010405592000000000000125647101190906              0000000000000000000000000000000000000000000000007939000000000033900000000000001190906                         0000000000000000000000000                                             000036
102021974950001161584870000003760                             82070612158      000                        1421180906                              210906000000000760006500016000000000000270663101190906              0000000000000000000000000000000000000000000000007600000000000000000000000000001190906                         0000000000000000000000000                                             000037
102021974950001161584870000003760                             82070618156      000                        1421180906                              210906000000000760006500016000000000000270663101190906              0000000000000000000000000000000000000000000000007600000000000000000000000000001190906                         0000000000000000000000000                                             000038
102021974950001161584870000003760                             82070620150      000                        1421180906                              210906000000000760010405592000000000000125647101190906              0000000000000000000000000000000000000000000000007600000000000000000000000000001190906                         0000000000000000000000000                                             000039
102021974950001161584870000003760                             82070706136      000                        1421180906                              200906000000000760006500016000000000000270663101190906              0000000000000000000000000000000000000000000000007600000000000000000000000000001190906                         0000000000000000000000000                                             000040
102021974950001161584870000003760                             82070717138      000                        1421180906                              200906000000000760010405592000000000000125647101190906              0000000000000000000000000000000000000000000000007600000000000000000000000000001190906                         0000000000000000000000000                                             000041
102021974950001161584870000003760                             82070721127      000                        1421180906                              200806000000000760010405592000000000000125647101190906              0000000000000000000000000000000000000000000000007820000000000022000000000000001190906                         0000000000000000000000000                                             000042
102021974950001161584870000003760                             82071203138      000                        1421180906                              100906000000000760010400485000000000000125647101190906              0000000000000000000000000000000000000000000000007808000000000020800000000000001190906                         0000000000000000000000000                                             000043
102021974950001161584870000003760                             82110619166      000                        1421180906                              200906000000000750010407765000000000000125647101190906              0000000000000000000000000000000000000000000000007500000000000000000000000000001190906                         0000000000000000000000000                                             000044
102021974950001161584870000003760                             82110625166      000                        1421180906                              200906000000000750010407765000000000000125647101190906              0000000000000000000000000000000000000000000000007500000000000000000000000000001190906                         0000000000000000000000000                                             000045
102021974950001161584870000003760                             82110634165      000                        1421180906                              200906000000000750010407765000000000000125647101190906              0000000000000000000000000000000000000000000000007500000000000000000000000000001190906                         0000000000000000000000000                                             000046
102021974950001161584870000003760                             82110824169      000                        1421180906                              200906000000000750010407765000000000000125647101190906              0000000000000000000000000000000000000000000000007500000000000000000000000000001190906                         0000000000000000000000000                                             000047
102021974950001161584870000003760                             82110833168      000                        1421180906                              200906000000000750010407765000000000000125647101190906              0000000000000000000000000000000000000000000000007500000000000000000000000000001190906                         0000000000000000000000000                                             000048
9201104                                                                                                                                                                                                                                                                                                                                                                                                   000049
