02RETORNO01COBRANCA       1584870000003760    IPAD                          104C ECON FEDERAL 180106                                                                                                                                                                                                                                                                                                 00124000001
102021974950001161584870000003760                             82050238145      000                        1421180106                              180108000000000400010400531000000000000125647101190106              0000000000000000000000000000000000000000000000004000000000000000000000000000001190106                         0000000000000000000000000                                             000002
102021974950001161584870000003760                             82060212130      000                        1421180106                              100106000000000860010421911000000000000125647101190106              0000000000000000000000000000000000000000000000008840000000000024000000000000001190106                         0000000000000000000000000                                             000003
102021974950001161584870000003760                             82070119141      000                        1421180106                              100106000000000860010423485000000000000240655100180106              0000000000000000000000000000000000000000000000008841000000000024100000000000001180106                         0000000000000000000000000                                             000004
102021974950001161584870000003760                             82070326147      000                        1421180106                              150106000000000860010423485000000000000240655100180106              0000000000000000000000000000000000000000000000008780000000000018000000000000001180106                         0000000000000000000000000                                             000005
102021974950001161584870000003760                             82070406140      000                        1421180106                              150106000000000860010400450000000000000125647101190106              0000000000000000000000000000000000000000000000008797000000000019700000000000001190106                         0000000000000000000000000                                             000006
102021974950001161584870000003760                             82090432147      000                        1421180106                              100106000000000750010400540000000000000125647101190106              0000000000000000000000000000000000000000000000007710000000000021000000000000001190106                         0000000000000000000000000                                             000007
102021974950001161584870000003760                             82090724148      000                        1421180106                              100106000000000750010408770000000000000240655100180106              0000000000000000000000000000000000000000000000007706000000000020600000000000001180106                         0000000000000000000000000                                             000008
102021974950001161584870000003760                             82090821127      000                        1421180106                              150106000000000450010408770000000000000125647101190106              0000000000000000000000000000000000000000000000004620000000000012000000000000001190106                         0000000000000000000000000                                             000009
102021974950001161584870000003760                             82090917140      000                        1421180106                              100106000000000375010408770000000000000240655100180106              0000000000000000000000000000000000000000000000003893000000000014300000000000001180106                         0000000000000000000000000                                             000010
102021974950001161584870000003760                             82091105140      000                        1421180106                              130106000000000750010408770000000000000125647101190106              0000000000000000000000000000000000000000000000007687000000000018700000000000001190106                         0000000000000000000000000                                             000011
102021974950001161584870000003760                             82091125140      000                        1421180106                              100106000000000750010408770000000000000125647101190106              0000000000000000000000000000000000000000000000007710000000000021000000000000001190106                         0000000000000000000000000                                             000012
102021974950001161584870000003760                             82110417130      000                        1421180106                              200106000000000750010408125000000000000125647101190106              0000000000000000000000000000000000000000000000007500000000000000000000000000001190106                         0000000000000000000000000                                             000013
9201104                                                                                                                                                                                                                                                                                                                                                                                                   000014
