02RETORNO01COBRANCA       1584870000003760    IPAD                          104C ECON FEDERAL 171106                                                                                                                                                                                                                                                                                                 00331000001
102021974950001161584870000003760                             82010314150      000                        1421171106                              161006000000000660010409148000000000000125647101201106              0000000000000000000000000000000000000000000000006752000000000015200000000000001201106                         0000000000000000000000000                                             000002
102021974950001161584870000003760                             82030501150      000                        1421171106                              151106000000000760010409156000000000000125647101201106              0000000000000000000000000000000000000000000000007768000000000016800000000000001201106                         0000000000000000000000000                                             000003
102021974950001161584870000003760                             82030550119      000                        1421171106                              150706000000000760010409148000000000000125647101201106              0000000000000000000000000000000000000000000000008679000000000107900000000000001201106                         0000000000000000000000000                                             000004
102021974950001161584870000003760                             82030550127      000                        1421171106                              150806000000000760010409148000000000000125647101201106              0000000000000000000000000000000000000000000000008451000000000085100000000000001201106                         0000000000000000000000000                                             000005
102021974950001161584870000003760                             82060527158      000                        1421171106                              101106000000000760010400485000000000000125647101201106              0000000000000000000000000000000000000000000000007801000000000020100000000000001201106                         0000000000000000000000000                                             000006
102021974950001161584870000003760                             82060905144      000                        1421171106                              101006000000000760010430171000000000000240655100171106              0000000000000000000000000000000000000000000000008041000000000044100000000000001171106                         0000000000000000000000000                                             000007
102021974950001161584870000003760                             82070623168      000                        1421171106                              201106000000000760000107146000000000000270663101201106              0000000000000000000000000000000000000000000000007600000000000000000000000000001201106                         0000000000000000000000000                                             000008
9201104                                                                                                                                                                                                                                                                                                                                                                                                   000009
