02RETORNO01COBRANCA       1584870000003760    IPAD                          104C ECON FEDERAL 201206                                                                                                                                                                                                                                                                                                 00354000001
102021974950001161584870000003760                             82000049560      000                        1421201206                              000000000000000760075641796000000000000270663101211206              0000000000000000000000000000000000000000000000007600000000000000000000000000001211206                         0000000000000000000000000                                             000002
102021974950001161584870000003760                             82000049608      000                        1421201206                              000000000000000760075641796000000000000270663101211206              0000000000000000000000000000000000000000000000007600000000000000000000000000001211206                         0000000000000000000000000                                             000003
102021974950001161584870000003760                             82030332162      000                        1421201206                              301106000000000860010409156000000000000125647101211206              0000000000000000000000000000000000000000000000008932000000000033200000000000001211206                         0000000000000000000000000                                             000004
102021974950001161584870000003760                             82030514120      000                        1421201206                              201206000000000760010409156000000000000125620101211206              0000000000000000000000000000000000000000000000007600000000000000000000000000001211206                         0000000000000000000000000                                             000005
102021974950001161584870000003760                             82030514139      000                        1421201206                              201206000000000760010409156000000000000125620101211206              0000000000000000000000000000000000000000000000007600000000000000000000000000001211206                         0000000000000000000000000                                             000006
102021974950001161584870000003760                             82060401146      000                        1421201206                              101006000000000760010408761000000000000240655100201206              0000000000000000000000000000000000000000000000008360000000000076000000000000001201206                         0000000000000000000000000                                             000007
102021974950001161584870000003760                             82060904164      000                        1421201206                              101206000000000760010406513000000000000125647101211206              0000000000000000000000000000000000000000000000007832000000000023200000000000001211206                         0000000000000000000000000                                             000008
102021974950001161584870000003760                             82060912167      000                        1421201206                              101206000000000760010400469000000000000125647101211206              0000000000000000000000000000000000000000000000007828000000000022800000000000001211206                         0000000000000000000000000                                             000009
102021974950001161584870000003760                             82070608177      000                        1421201206                              201206000000000760000107146000000000000270663101211206              0000000000000000000000000000000000000000000000007600000000000000000000000000001211206                         0000000000000000000000000                                             000010
102021974950001161584870000003760                             82070616137      000                        1421201206                              210706000000000760010405592000000000000240655100201206              0000000000000000000000000000000000000000000000008984000000000138400000000000001201206                         0000000000000000000000000                                             000011
102021974950001161584870000003760                             82070624156      000                        1421201206                              251006000000000760010405592000000000000125647101211206              0000000000000000000000000000000000000000000000008178000000000057800000000000001211206                         0000000000000000000000000                                             000012
102021974950001161584870000003760                             82070710168      000                        1421201206                              201206000000000760006500016000000000000270663101211206              0000000000000000000000000000000000000000000000007600000000000000000000000000001211206                         0000000000000000000000000                                             000013
102021974950001161584870000003760                             82070723162      000                        1421201206                              000000000000000760039928996000000000000270663101211206              0000000000000000000000000000000000000000000000007600000000000000000000000000001211206                         0000000000000000000000000                                             000014
102021974950001161584870000003760                             82071218160      000                        1421201206                              101206000000000760010400485000000000000125647101211206              0000000000000000000000000000000000000000000000007828000000000022800000000000001211206                         0000000000000000000000000                                             000015
102021974950001161584870000003760                             82090301174      000                        1421201206                              301106000000000750010400540000000000000125647101211206              0000000000000000000000000000000000000000000000007790000000000029000000000000001211206                         0000000000000000000000000                                             000016
9201104                                                                                                                                                                                                                                                                                                                                                                                                   000017
