02RETORNO01COBRANCA       1584870000003760    IPAD                          104C ECON FEDERAL 220806                                                                                                                                                                                                                                                                                                 00272000001
102021974950001161584870000003760                             82000043502      000                        1421220806                              000000000000000760010407765000000000000125647101230806              0000000000000000000000000000000000000000000000007600000000000000000000000000001230806                         0000000000000000000000000                                             000002
102021974950001161584870000003760                             82000043510      000                        1421220806                              000000000000000760010407765000000000000125647101230806              0000000000000000000000000000000000000000000000007600000000000000000000000000001230806                         0000000000000000000000000                                             000003
102021974950001161584870000003760                             82000043529      000                        1421220806                              000000000000000760010409148000000000000125647101230806              0000000000000000000000000000000000000000000000007600000000000000000000000000001230806                         0000000000000000000000000                                             000004
102021974950001161584870000003760                             82030530126      000                        1421220806                              150806000000000760010409156000000000000125647101230806              0000000000000000000000000000000000000000000000007808000000000020800000000000001230806                         0000000000000000000000000                                             000005
102021974950001161584870000003760                             82060529118      000                        1421220806                              150706000000000760010423485000000000000240655100220806              0000000000000000000000000000000000000000000000008056000000000045600000000000001220806                         0000000000000000000000000                                             000006
102021974950001161584870000003760                             82060908127      000                        1421220806                              100806000000000760010400450000000000000125647101230806              0000000000000000000000000000000000000000000000007848000000000024800000000000001230806                         0000000000000000000000000                                             000007
102021974950001161584870000003760                             82060920119      000                        1421220806                              100706000000000760010412947000000000000125647101230806              0000000000000000000000000000000000000000000000008078000000000047800000000000001230806                         0000000000000000000000000                                             000008
102021974950001161584870000003760                             82070605143      000                        1421220806                              210806000000000760010405592000000000000125647101230806              0000000000000000000000000000000000000000000000007760000000000016000000000000001230806                         0000000000000000000000000                                             000009
102021974950001161584870000003760                             82070701126      000                        1421220806                              200806000000000760010405592000000000000125647101230806              0000000000000000000000000000000000000000000000007767000000000016700000000000001230806                         0000000000000000000000000                                             000010
102021974950001161584870000003760                             82070719122      000                        1421220806                              200806000000000760010415806000000000000125647101230806              0000000000000000000000000000000000000000000000007768000000000016800000000000001230806                         0000000000000000000000000                                             000011
102021974950001161584870000003760                             82071201119      000                        1421220806                              100706000000000760010400485000000000000125647101230806              0000000000000000000000000000000000000000000000008096000000000049600000000000001230806                         0000000000000000000000000                                             000012
102021974950001161584870000003760                             82071201127      000                        1421220806                              100806000000000760010400485000000000000125647101230806              0000000000000000000000000000000000000000000000007848000000000024800000000000001230806                         0000000000000000000000000                                             000013
102021974950001161584870000003760                             82090232156      000                        1421220806                              310806000000000750006500016000000000000270663101230806              0000000000000000000000000000000000000000000000007500000000000000000000000000001230806                         0000000000000000000000000                                             000014
102021974950001161584870000003760                             82090232164      000                        1421220806                              310806000000000750006500016000000000000270663101230806              0000000000000000000000000000000000000000000000007500000000000000000000000000001230806                         0000000000000000000000000                                             000015
102021974950001161584870000003760                             82110621152      000                        1421220806                              200806000000000750010407765000000000000125647101230806              0000000000000000000000000000000000000000000000007666000000000016600000000000001230806                         0000000000000000000000000                                             000016
102021974950001161584870000003760                             82110630143      000                        1421220806                              250706000000000750010407765000000000000125647101230806              0000000000000000000000000000000000000000000000007866000000000036600000000000001230806                         0000000000000000000000000                                             000017
9201104                                                                                                                                                                                                                                                                                                                                                                                                   000018
