02RETORNO01COBRANCA       1584870000003760    IPAD                          104C ECON FEDERAL 220906                                                                                                                                                                                                                                                                                                 00294000001
102021974950001161584870000003760                             82000049276      000                        1421220906                              000000000000000380010400540000000000000125647101250906              0000000000000000000000000000000000000000000000003800000000000000000000000000001250906                         0000000000000000000000000                                             000002
102021974950001161584870000003760                             82000049365      000                        1421220906                              000000000000000380006500016000000000000270663101250906              0000000000000000000000000000000000000000000000003800000000000000000000000000001250906                         0000000000000000000000000                                             000003
102021974950001161584870000003760                             82000049373      000                        1421220906                              000000000000000380000113636000000000000270663101250906              0000000000000000000000000000000000000000000000003800000000000000000000000000001250906                         0000000000000000000000000                                             000004
102021974950001161584870000003760                             82000049381      000                        1421220906                              000000000000000380010400540000000000000125647101250906              0000000000000000000000000000000000000000000000003800000000000000000000000000001250906                         0000000000000000000000000                                             000005
102021974950001161584870000003760                             82030213147      000                        1421220906                              100906000000000760010407374000000000000125647101250906              0000000000000000000000000000000000000000000000007852000000000025200000000000001250906                         0000000000000000000000000                                             000006
102021974950001161584870000003760                             82030234144      000                        1421220906                              100906000000000760010409156000000000000240655100220906              0000000000000000000000000000000000000000000000007848000000000024800000000000001220906                         0000000000000000000000000                                             000007
102021974950001161584870000003760                             82030804129      000                        1421220906                              150906000000000760010409156000000000000125647101250906              0000000000000000000000000000000000000000000000007805000000000020500000000000001250906                         0000000000000000000000000                                             000008
102021974950001161584870000003760                             82070604155      000                        1421220906                              210906000000000760010405592000000000000125647101250906              0000000000000000000000000000000000000000000000007760000000000016000000000000001250906                         0000000000000000000000000                                             000009
102021974950001161584870000003760                             82070605151      000                        1421220906                              210906000000000760010405592000000000000125647101250906              0000000000000000000000000000000000000000000000007760000000000016000000000000001250906                         0000000000000000000000000                                             000010
102021974950001161584870000003760                             82110621160      000                        1421220906                              200906000000000750010407765000000000000125647101250906              0000000000000000000000000000000000000000000000007650000000000015000000000000001250906                         0000000000000000000000000                                             000011
102021974950001161584870000003760                             82110624151      000                        1421220906                              200806000000000750010407765000000000000125647101250906              0000000000000000000000000000000000000000000000007890000000000039000000000000001250906                         0000000000000000000000000                                             000012
102021974950001161584870000003760                             82110810150      000                        1421220906                              200806000000000750010407765000000000000125647101250906              0000000000000000000000000000000000000000000000007890000000000039000000000000001250906                         0000000000000000000000000                                             000013
9201104                                                                                                                                                                                                                                                                                                                                                                                                   000014
