02RETORNO01COBRANCA       1584870000003760    IPAD                          104C ECON FEDERAL 230506                                                                                                                                                                                                                                                                                                 00208000001
102021974950001161584870000003760                             82000044819      000                        1421230506                              000000000000000860010409156000000000000125647101240506              0000000000000000000000000000000000000000000000008600000000000000000000000000001240506                         0000000000000000000000000                                             000002
102021974950001161584870000003760                             82000044851      000                        1421230506                              000000000000000760000121566000000000000270663101240506              0000000000000000000000000000000000000000000000007600000000000000000000000000001240506                         0000000000000000000000000                                             000003
102021974950001161584870000003760                             82000044878      000                        1421230506                              000000000000000760010409156000000000000125647101240506              0000000000000000000000000000000000000000000000007600000000000000000000000000001240506                         0000000000000000000000000                                             000004
102021974950001161584870000003760                             82000044894      000                        1421230506                              000000000000000760010409156000000000000125647101240506              0000000000000000000000000000000000000000000000007600000000000000000000000000001240506                         0000000000000000000000000                                             000005
102021974950001161584870000003760                             82000044975      000                        1421230506                              000000000000000760010409156000000000000125647101240506              0000000000000000000000000000000000000000000000007600000000000000000000000000001240506                         0000000000000000000000000                                             000006
102021974950001161584870000003760                             82000045009      000                        1421230506                              000000000000000760010409156000000000000125647101240506              0000000000000000000000000000000000000000000000007600000000000000000000000000001240506                         0000000000000000000000000                                             000007
102021974950001161584870000003760                             82000045173      000                        1421230506                              000000000000000760010405592000000000000125647101240506              0000000000000000000000000000000000000000000000007600000000000000000000000000001240506                         0000000000000000000000000                                             000008
102021974950001161584870000003760                             82000045432      000                        1421230506                              000000000000000750010412424000000000000125647101240506              0000000000000000000000000000000000000000000000007500000000000000000000000000001240506                         0000000000000000000000000                                             000009
102021974950001161584870000003760                             82000045432      000                        1421230506                              000000000000000750006500016000000000000270663101240506              0000000000000000000000000000000000000000000000007500000000000000000000000000001240506                         0000000000000000000000000                                             000010
102021974950001161584870000003760                             82000045440      000                        1421230506                              000000000000000750010412424000000000000125647101240506              0000000000000000000000000000000000000000000000007500000000000000000000000000001240506                         0000000000000000000000000                                             000011
102021974950001161584870000003760                             82060226174      000                        1421230506                              100506000000000860010421911000000000000125647101240506              0000000000000000000000000000000000000000000000008883000000000028300000000000001240506                         0000000000000000000000000                                             000012
102021974950001161584870000003760                             82060708128      000                        1421230506                              150506000000000860010427170000000000000240655100230506              0000000000000000000000000000000000000000000000008844000000000024400000000000001230506                         0000000000000000000000000                                             000013
102021974950001161584870000003760                             82070111159      000                        1421230506                              250506000000000860000106976000000000000270663101240506              0000000000000000000000000000000000000000000000008600000000000000000000000000001240506                         0000000000000000000000000                                             000014
102021974950001161584870000003760                             82070111167      000                        1421230506                              250506000000000860000106976000000000000270663101240506              0000000000000000000000000000000000000000000000008600000000000000000000000000001240506                         0000000000000000000000000                                             000015
102021974950001161584870000003760                             82070111175      000                        1421230506                              250506000000000860000106976000000000000270663101240506              0000000000000000000000000000000000000000000000008600000000000000000000000000001240506                         0000000000000000000000000                                             000016
102021974950001161584870000003760                             82070505165      000                        1421080506                              000000000000000923610409172000000000000125647101220506              0000000000000000000000000000000000000000000000009236000000000000000000000000001220506                         0000000000000000000000000                                             000017
102021974950001161584870000003760                             82070619110      000                        1421230506                              210506000000000760010405592000000000000240655100230506              0000000000000000000000000000000000000000000000007768000000000016800000000000001230506                         0000000000000000000000000                                             000018
102021974950001161584870000003760                             82070633112      000                        1421230506                              210506000000000760010405592000000000000125647101240506              0000000000000000000000000000000000000000000000007767000000000016700000000000001240506                         0000000000000000000000000                                             000019
102021974950001161584870000003760                             82110208166      000                        1421230506                              100406000000000450010407765000000000000125647101240506              0000000000000000000000000000000000000000000000004762000000000026200000000000001240506                         0000000000000000000000000                                             000020
102021974950001161584870000003760                             82110602123      000                        1421230506                              250506000000000750010407765000000000000125647101240506              0000000000000000000000000000000000000000000000007500000000000000000000000000001240506                         0000000000000000000000000                                             000021
102021974950001161584870000003760                             82110615128      000                        1421230506                              250506000000000750010407765000000000000125647101240506              0000000000000000000000000000000000000000000000007500000000000000000000000000001240506                         0000000000000000000000000                                             000022
102021974950001161584870000003760                             82110621128      000                        1421230506                              250506000000000750010407765000000000000125647101240506              0000000000000000000000000000000000000000000000007500000000000000000000000000001240506                         0000000000000000000000000                                             000023
102021974950001161584870000003760                             82110625123      000                        1421230506                              250506000000000750010407765000000000000125647101240506              0000000000000000000000000000000000000000000000007500000000000000000000000000001240506                         0000000000000000000000000                                             000024
102021974950001161584870000003760                             82110629129      000                        1421230506                              250506000000000750010407765000000000000125647101240506              0000000000000000000000000000000000000000000000007500000000000000000000000000001240506                         0000000000000000000000000                                             000025
102021974950001161584870000003760                             82110630127      000                        1421230506                              250506000000000750010407765000000000000125647101240506              0000000000000000000000000000000000000000000000007500000000000000000000000000001240506                         0000000000000000000000000                                             000026
102021974950001161584870000003760                             82110631123      000                        1421230506                              250506000000000750035610376000000000000270663101240506              0000000000000000000000000000000000000000000000007500000000000000000000000000001240506                         0000000000000000000000000                                             000027
102021974950001161584870000003760                             82110634122      000                        1421230506                              250506000000000750010407765000000000000125647101240506              0000000000000000000000000000000000000000000000007500000000000000000000000000001240506                         0000000000000000000000000                                             000028
102021974950001161584870000003760                             82110708126      000                        1421230506                              250506000000000750010407765000000000000125647101240506              0000000000000000000000000000000000000000000000007500000000000000000000000000001240506                         0000000000000000000000000                                             000029
102021974950001161584870000003760                             82110720126      000                        1421230506                              250506000000000750010407765000000000000125647101240506              0000000000000000000000000000000000000000000000007500000000000000000000000000001240506                         0000000000000000000000000                                             000030
102021974950001161584870000003760                             82110722129      000                        1421230506                              250506000000000750010407765000000000000125647101240506              0000000000000000000000000000000000000000000000007500000000000000000000000000001240506                         0000000000000000000000000                                             000031
102021974950001161584870000003760                             82110806128      000                        1421230506                              250506000000000750010407765000000000000125647101240506              0000000000000000000000000000000000000000000000007500000000000000000000000000001240506                         0000000000000000000000000                                             000032
102021974950001161584870000003760                             82110808120      000                        1421230506                              250506000000000750006500016000000000000270663101240506              0000000000000000000000000000000000000000000000007500000000000000000000000000001240506                         0000000000000000000000000                                             000033
102021974950001161584870000003760                             82110809127      000                        1421230506                              250506000000000750010407765000000000000125647101240506              0000000000000000000000000000000000000000000000007500000000000000000000000000001240506                         0000000000000000000000000                                             000034
102021974950001161584870000003760                             82110815127      000                        1421230506                              250506000000000750010407765000000000000125647101240506              0000000000000000000000000000000000000000000000007500000000000000000000000000001240506                         0000000000000000000000000                                             000035
102021974950001161584870000003760                             82110816123      000                        1421230506                              250506000000000750010407765000000000000125647101240506              0000000000000000000000000000000000000000000000007500000000000000000000000000001240506                         0000000000000000000000000                                             000036
102021974950001161584870000003760                             82110819122      000                        1421230506                              250506000000000750010407765000000000000125647101240506              0000000000000000000000000000000000000000000000007500000000000000000000000000001240506                         0000000000000000000000000                                             000037
102021974950001161584870000003760                             82110829128      000                        1421230506                              250506000000000750010407765000000000000125647101240506              0000000000000000000000000000000000000000000000007500000000000000000000000000001240506                         0000000000000000000000000                                             000038
102021974950001161584870000003760                             82110835128      000                        1421230506                              250506000000000750010407765000000000000125647101240506              0000000000000000000000000000000000000000000000007500000000000000000000000000001240506                         0000000000000000000000000                                             000039
9201104                                                                                                                                                                                                                                                                                                                                                                                                   000040
