02RETORNO01COBRANCA       1584870000003760    IPAD                          104C ECON FEDERAL 280705                                                                                                                                                                                                                                                                                                 00014000001
102021974950001161584870000003760                             82999375681      000                        1421280705                              000000000000000860039928996000000000000270663101290705              0000000000000000000000000000000000000000000000008600000000000000000000000000001290705                         0000000000000000000000000                                             000002
102021974950001161584870000003760                             82999375789      000                        1421280705                              100805000000000860010400523000000000000125620101290705              0000000000000000000000000000000000000000000000008600000000000000000000000000001290705                         0000000000000000000000000                                             000003
102021974950001161584870000003760                             82999379164      000                        1421280705                              100805000000000860010430171000000000000125647101290705              0000000000000000000000000000000000000000000000008600000000000000000000000000001290705                         0000000000000000000000000                                             000004
102021974950001161584870000003760                             82999379180      000                        1421280705                              100805000000000860010430171000000000000125647101290705              0000000000000000000000000000000000000000000000008600000000000000000000000000001290705                         0000000000000000000000000                                             000005
102021974950001161584870000003760                             82999381428      000                        1421280705                              100805000000000860010409148000000000000125647101290705              0000000000000000000000000000000000000000000000008600000000000000000000000000001290705                         0000000000000000000000000                                             000006
102021974950001161584870000003760                             82999381460      000                        1421280705                              100805000000000860010409148000000000000240655100280705              0000000000000000000000000000000000000000000000008600000000000000000000000000001280705                         0000000000000000000000000                                             000007
102021974950001161584870000003760                             82999384281      000                        1421280705                              100805000000000860000110126000000000000270663101290705              0000000000000000000000000000000000000000000000008600000000000000000000000000001290705                         0000000000000000000000000                                             000008
9201104                                                                                                                                                                                                                                                                                                                                                                                                   000009
